:020000020000FC
:0200000089C0B5
:02001800FFC324
:100054007F714B721973EF73C5749F7578765877F7
:100064001D6BF06BAA6C866D446E086FEC6FB470F8
:100074000080D0780872A26B9765E45F825A6E554F
:10008400A2501B4CD647CE430040683C0439D135BE
:1000940000060C13191F24292E33363A3C3F4041E5
:1000A4004241403F3C3A36332E29241F19130C0693
:1000B40000FAF4EDE7E1DCD7D2CDCAC6C4C1C0BFB3
:1000C400BEBFC0C1C4C6CACDD2D7DCE1E7EDF4FAE5
:1000D40013C116C11FC124C12BC138C13CC13DC1CC
:1000E4004AC14AC14AC14DC159C15AC17AC180C12C
:1000F40097C197C19EC1A3C1A3C1A3C1A3C1BDC1DF
:10010400BDC1BDC1BDC1C3C1C7C1C7C1C7C1C7C1CD
:1001140004E00EBF0FE50DBF0E94F502BB9A8F9A53
:1001240000E80CBF03BD09E603BF05BD00E109BF3C
:1001340002E00BBD00E00ABD00E00FBD09E00EBD0A
:100144007894882799270196000000000000000099
:1001540000000000F8CF809360009093610000914C
:100164002A010A9521F40E94CE00009124010093F3
:100174002A01C2E6D0E00E945202C1E9D0E00E9406
:100184005202C0ECD0E00E945202CFEED0E00E94B6
:10019400520288279927089500912001E0E4F0E1B4
:1001A400E00F0027F01FF491FF0FFF0FE4EC00E1D4
:1001B400F00F00E110912201019FE00DF11D772461
:1001C40070922C017394C2E6D0E00E941501C1E93B
:1001D400D0E00E941501C0ECD0E00E941501CFEEE2
:1001E400D0E00E941501009123011091210100909B
:1001F4002C0101FC13C000FC0FC000912201102F40
:100204000395003469F400271091200113950090A0
:100214001E01101509F411270E94C1031093200137
:1002240000932201089500270C8F0D8F0B8F759179
:1002340010EF17237F70659105914FE04023007FF5
:100244000295102B5591FF93EF938824212E062FAE
:10025400072B41F4709400912B01072100932B018B
:1002640070940AC069A37AA300270DA30EA31123D7
:1002740009F4188D188F8394222039F0ADE2B2E08E
:10028400A20D0027B01F0C910EA7EAE6E40FFF278A
:100294002F921F9309951F912F90062F072B11F072
:1002A400698F7A8F87FC03C080FE22C006C080FC61
:1002B4001FC02220E9F02116D9F008E0109FADE21A
:1002C400B1E0A00DB11D0D910C870D910D870D911D
:1002D4000E870D910F870D91088B0D91098B0D9150
:1002E4000A870D910B8700912B01072900932B019D
:1002F400770CEF91FF9108955C8F00270D8F08957F
:100304000FEF8CE190E089A39AA35F8F08A301E02B
:100314000B8F089580EB96E000275523B9F3F3CFB4
:100324008094898D9A8D68177907000BBC01EDCFF5
:100334001BA1052F0F7011F0107F102B507F11F0AF
:100344001F70152B1BA304E00B8F0895809403E00A
:10035400698D7A8D13C006E011C01CA1052F0F70A2
:1003640011F0107F102B507F11F01F70152B1CA360
:1003740008E00B8F08950895089502E00B8F5E8FB7
:1003840008955093210100912C0101FD29C00860BA
:1003940002FD23C00024009223011FC05EA708951C
:1003A40000912C0101FD1CC0152F12951F704AE00D
:1003B400419F5F70500D03FD0DC01091200100900E
:1003C4001E011395101521F411270E94C10355270E
:1003D40010932101509323010460016000932C01C8
:1003E4000895E52FE07FE295E658FF275F700994B2
:1003F4005523A9F0513288F050932501552E6624D7
:1004040006E9302E08E9402E0E94F303110C221C49
:1004140010922601209227010895509324010895F3
:100424000895098D1A8D0024051B1009098F1A8F50
:100434000895098D1A8D0024050F101DF7CF089516
:10044400089508955523A9F008A5002311F458A789
:1004540003C00A9508A761F00FA10093230100913E
:1004640020010093210100912C01026000932C01D2
:100474000895009122010FA3089508950895089501
:100484000EA5050F013408F000E40EA708950EA58B
:10049400051BD8F70027F9CF089508950895089506
:1004A400598C6A8C0EA50DA71C8D1123D1F00D8DCE
:1004B400002389F00A9500FF12951F70E4E7E10F0D
:1004C400E10FFF2775908490550C661C0E94E3038E
:1004D400532C642C0D8D0395033008F000270D8FE9
:1004E40052C000912A010090240100150B8C51F197
:1004F40000FE17C049A15AA1112708A100230F8D9E
:1005040031F4500E611E5416650648F006C0501AA8
:10051400610A18F04515560510F0542E652E598EB3
:100524006A8E01FE0FC01E8C1EA5012D007F31F0C6
:100534000295100F113428F010E403C0111908F4C7
:1005440011271EA702FE0FC01BA10DA10E94D802F5
:100554000DA3002711201AF0510C601E14C0119431
:100564005118600A10C003FE0EC01CA10EA10E9407
:10057400D8020EA30EA5010D12F4002703C0013406
:1005840008F000E40DA7188DADE4B2E0A10F002738
:10059400B01F0C91E4E5E00FE00FFF273590449085
:1005A4000E94F3030D8A1E8A2F8A0895412E1F701C
:1005B400E4E9E00FFF274491110F13954103001C58
:1005C400111C001C111C17FC139420902A0130905C
:1005D4002401231439F0142D12951F70010F0134D6
:1005E40008F00054089500E800938D000093BC00C7
:1005F4000093EB0000931A0106E0009324010DE739
:1006040000932501502E0E94010201E000932A016B
:100614000093280100E000932901EEE3F0E1049146
:1006240000931E01002700932001009322010093F0
:10063400800000938E000093BD000093EC000093B3
:100644001B01009390000093BF000093EE00009301
:100654001D0100937A000093A9000093D800009331
:10066400070100932B010E94C103CAE6D0E00E9457
:10067400BD030E94BD03C9E9D0E00E94BD030E94EE
:10068400BD03C8ECD0E00E94BD030E94BD03C7EFC8
:10069400D0E00E94BD030E94BD03E0E4F0E130E835
:1006A40011270591101708F4102F3A95D1F71395D7
:1006B40010931F01E5EBFCE0ADE2B2E000270D93DF
:1006C4003FE104910D937E963A95D9F7E4EBFCE073
:1006D400ADE4B2E000270D933FE104910F700D9358
:1006E4007E963A95D1F7E2EBFCE0CDE2D1E00E94B0
:1006F400BC0384EC90E100911F01900F900F900FC8
:10070400900F3FE19F938F9355246624F590E590D5
:10071400EE0CFF1C329675916591660F771F55910B
:100724004591440F551F0E2D0F2909F153948993B8
:100734009993552311F44330A0F06394860F971FC7
:1007440089939993840F951F01978993999359924B
:1007540069928F919F918E0D9F1D76963A9591F691
:1007640008958E0D9F1D019789939993EECF0E9452
:10077400BC03EFCF2696002709930993089500241C
:100784000092890000928A000092880000928700FB
:100794000092B8000092B9000092B7000092B6002F
:1007A4000092E7000092E8000092E6000092E50063
:1007B4000092160100921701009215010092140193
:1007C4000895689C412C302C579C212C679C200C4C
:1007D400311C0024401C589C200C311C0024401C5B
:1007E40008952224112400240394112700278894B7
:1007F400331C441C111F001F18F01515060520F0AA
:1008040015190609089401C08894001C111C221CA7
:1008140078F708952FB72F931F93EF93FF930F92B9
:100824001F922F928F939F9310916A0010FF45C0DF
:10083400E0916400F091650020918D0000906300C8
:100844000094209D020E1127111D24912058009020
:100854006300209D020E111D10580090620010903C
:100864007400010C00926200009063001090750007
:10087400011C0092630010F420938D001090760008
:10088400E11D112011F020938D001124F11D209100
:1008940068002E17209169002F0740F4E09166004C
:1008A400F091670020916B0020936A00E09364004C
:1008B400F093650020918E00220F1203C001109165
:1008C400F70010FF45C0E091F100F091F200209193
:1008D4001A010090F0000094209D020E1127111DB2
:1008E400249120580090F000209D020E111D1058F4
:1008F4000090EF0010900101010C0092EF000090B5
:10090400F00010900201011C0092F00010F42093FA
:100914001A0110900301E11D112011F020931A0116
:100924001124F11D2091F5002E172091F6002F07B8
:1009340040F4E091F300F091F4002091F80020934A
:10094400F700E093F100F093F20020911B01220FD5
:100954001203800D911D90589CBF1091990010FFB7
:1009640045C0E0919300F09194002091BC00009068
:1009740092000094209D020E1127111D24912058ED
:1009840000909200209D020E111D105800909100BD
:100994001090A300010C009291000090920010901E
:1009A400A400011C0092920010F42093BC0010904B
:1009B400A500E11D112011F02093BC001124F11DAC
:1009C400209197002E17209198002F0740F4E09172
:1009D4009500F091960020919A0020939900E0935D
:1009E4009300F09394002091BD00220F1203C001E4
:1009F4001091C80010FF45C0E091C200F091C300FF
:100A04002091EB000090C1000094209D020E11275C
:100A1400111D249120580090C100209D020E111D2B
:100A240010580090C0001090D200010C0092C00039
:100A34000090C1001090D300011C0092C10010F47A
:100A44002093EB001090D400E11D112011F02093AD
:100A5400EB001124F11D2091C6002E172091C70030
:100A64002F0740F4E091C400F091C5002091C90023
:100A74002093C800E093C200F093C3002091EC00DF
:100A8400220F1203800D911D905893BD809128016F
:100A940090912901019779F080932801909329017D
:100AA4009F918F912F901F900F90FF91EF911F9125
:100AB4002F912FBF189520917700209374002091D7
:100AC400780020937500209179002093760020917E
:100AD400A6002093A3002091A7002093A4002091B6
:100AE400A8002093A5002091D5002093D200209146
:100AF400D6002093D3002091D7002093D4002091D6
:100B04000401209301012091050120930201209109
:100B140006012093030180912B0180FF21C02091C5
:100B24006E002093640020916F0020936500209153
:100B3400700020936600209171002093670020913B
:100B44007200209368002091730020936900209123
:100B54006C0020936A0020916D0020936B008E7FBF
:100B640081FF21C020919D002093930020919E003D
:100B74002093940020919F00209395002091A00041
:100B8400209396002091A100209397002091A20029
:100B94002093980020919B002093990020919C0021
:100BA40020939A008D7F82FF21C02091CC00209356
:100BB400C2002091CD002093C3002091CE00209349
:100BC400C4002091CF002093C5002091D000209331
:100BD400C6002091D1002093C7002091CA00209321
:100BE400C8002091CB002093C9008B7F83FF21C0D4
:100BF4002091FB002093F1002091FC002093F2004F
:100C04002091FD002093F3002091FE002093F40036
:100C14002091FF002093F500209100012093F6001D
:100C24002091F9002093F7002091FA002093F80016
:100C3400877F80932B0100918F0000938E00009199
:100C4400BE000093BD000091ED000093EC00009104
:100C54001C0100931B0100912601009328010091BF
:100C64002701009329019F918F912F901F900F903E
:100C7400FF91EF911F912F912FBF2DEA2F9320E029
:100C84002F931895427562626C6520746F6173745A
:100C9400202877696E290000205B72407A2E6563F4
:100CA4006C697024655D00000000000000000025F0
:100CB4000030000000000000000000000000000000
:100CC40000000000000000000000000000400040A0
:100CD40000000040000000000000000000000000D0
:100CE40000000000000000000000021500350000B4
:100CF40000000000000000000000000000000000F0
:100D0400000000000000000000100040000000107F
:100D140000000000000000000000000000000000CF
:100D2400000000000000001000400000001000005F
:100D340000000000000000000000000000000000AF
:100D4400000000000010004000000010000000003F
:100D5400000000000000000000000000000000008F
:100D6400000000100040000000100000000000001F
:100D7400000000000000000000000000000000006F
:100D8400000000000000000000000000000000005F
:100D9400000000000000000000000000000000103F
:100DA400001500000010000000000000000000001A
:100DB400000000000000000000000000001000150A
:100DC400000000100000000000000000000000000F
:100DD40000000000000000000000001000150000EA
:100DE40000100000000000000000000000000000EF
:100DF40000000000000000000000000000000000EF
:100E040000000000000000000000000000000000DE
:100E140000000000000000000000000000000000CE
:100E240000000000000000000000000000000000BE
:1010340000000000000000000000010000000000AB
:10104400000000000000000000000000000000009C
:10105400000000000000000000000000000000008C
:10106400000000000000000000000000000000007C
:10107400000000000000000000000000000000006C
:10108400000000000000000000000000000000005C
:10109400000000000000000000000000000000004C
:1010A400000000000000000000000000000000003C
:1010B4000000000000000000000000004D2E4B2E38
:1010C400012E7F0600FE03F0017D2F7E00FE605995
:1010D40000BE03F0011D03F00000000000FEB05943
:1010E40000AA03F0012E7C1600000C0B000000592E
:1010F400009703F000BE03F000000A0100FE5059FF
:10110400007F03F000AA03F000BE300000FEA059E7
:10111400009703F0009703F000BE3C06000000595E
:1011240000AA03F0007F03F0017D200000FE405977
:1011340000BE03F0009703F00000000000FE905989
:10114400005F03F000AA03F000000C0B000000593C
:10115400007F03F000BE03F000000A010000005904
:10116400008F03F0005F03F0017D200000FE605952
:10117400009703F0007F03F000000C0B00FEB05951
:1011840000BE03F0008F03F000BE300000FE4059A3
:1011940000FE03F0009703F0017D200000FE50598B
:1011A400011D03F000BE03F00000000000FE905992
:1011B400012E03F000FE03F000000C0B00FEA0590A
:1011C40000E203F0011D03F001C5200000FE605A97
:1011D40000BE03F0012E03F00000000000FEB05A30
:1011E400008F03F000E203F0017D2C0B0000005A95
:1011F400007103F000BE03F000000A0100FE505A23
:10120400005F03F0008F03F000BE300000FEA05A20
:10121400007103F0007103F000BE3C060000005AA8
:10122400008F03F0005F03F001C5200000FE40477B
:1012340000BE03F0007103F00000000000FE9047C0
:1012440000CA03F0008F03F00194039000000047EC
:1012540000AA03F000BE03F00000000000000047F5
:10126400007F03F000CA03F001C52C0B00FE6047A9
:10127400006503F000AA03F00000000000FEB04780
:10128400005503F0007F03F000BE300000FE40472D
:10129400006503F0006503F000BE3C0600FE9047C5
:1012A400007F03F0005503F000BE3000000000474B
:1012B40000AA03F0006503F000BE3C3200000047C2
:1012C400005F03F0007F03F0017D200000FE605901
:1012D400007F03F000AA03F00000000000FEB059F4
:1012E400009703F0005F03F000000C0B00000059AE
:1012F40000BE03F0007F03F000000A0100FE505915
:10130400009703F0009703F000BE300000FEA059E0
:1013140000BE03F000BE03F000000000000000590E
:1013240000FE03F0009703F0017D200000FE405909
:10133400012E03F000BE03F00000000000FE9059EF
:1013440000FE03F000FE03F000000C0B0000005947
:10135400012E03F0012E03F000000A0100000059E1
:10136400017D03F000FE03F0017D200000FE6059C2
:1013740001FC03F0012E03F000000C0B00FEB05939
:10138400017D03F0017D03F000BE300000FE4059F2
:1013940001FC03F001FC03F0017D200000FE505924
:1013A400025C03F0017D03F00000000000FE905990
:1013B40002FA03F001FC03F000000C0B00FEA0593C
:1013C40001C503F0025C03F001C5200000FE605A71
:1013D400017D03F002FA03F00000000000FEB05AA1
:1013E400011D03F001C503F0017D2C0B0000005A20
:1013F40000E203F0017D03F000000A0100FE505AF0
:1014040000BE03F0011D03F000BE300000FEA05A30
:1014140000E203F000E203F000BE3C060000005AC4
:10142400011D03F000BE03F001C5200000FE40478B
:10143400017D03F000E203F00000000000FE90478D
:10144400019403F0011D03F0019403900000004790
:10145400015303F0017D03F0000000000000004789
:1014640000FE03F0019403F001C52C0B00FE60475D
:1014740000CA03F0015303F00000000000FEB0476F
:1014840000AA03F000FE03F000BE300000FE404757
:1014940000CA03F000CA03F000BE3C0600FE9047F9
:1014A40000FE03F000AA03F000BE30000000004775
:1014B400011D03F000CA03F000BE3C3200000047E7
:1014C4000101010101010101010101010101010108
:1014D40001010101010101010101010101010101F8
:1014E40001010101010101010101010101010101E8
:1014F40001010101010101010101010101010101D8
:1015040001010101010101010101010101CDCDCD63
:10151400CDCDCDCDCDCDCDCDCDCDCDCDCDCDCDCDF7
:10152400CDCDCDCDCDCDCDCDCDCDCD22222222223E
:101534002222222222222222222222222222222287
:101544002222222222222222222222222222222277
:101554002222222222222222222222222222222267
:101564002222222222222222222222222222222257
:101574002222222222222222222222222222222247
:1015840022222222222222220101010201AA98E41B
:10159400CED4D4F1D02C937F122970FAAD6D757529
:1015A400EABF337F49AA7F3F0463E93C28EA072462
:1015B400B5B022818B8AFBAF8AA29E34B4E38092B9
:1015C4002981A4162F1AD7DF50FF07F41BD232C08B
:1015D400F6F6EFF00317050C2415271C3240626D54
:1015E400677F7F787F6B7F7F7F6D6D6A7243402753
:1015F40027120903F5EBEEE0D8DACAD5C5C3BDBCA2
:10160400B381928E87818284888888919A80879713
:101614009FA9AEACB6F7B3D1DBF1D4EF09FD151336
:1016240016242429332B40314358787F7F757F7FDC
:10163400797F7F5C7F7F6B7F4D1B6A2A0445282559
:10164400F03CEB1FBC17D9D4D0D5A8CFA7AFD5C3D6
:10165400AAB5D180E9D694F1B79DD9CB9007BDA3A3
:10166400E696CEF09D13BAF2BBEC00C3BA0D09A105
:10167400EC2EDF341813301E24295819047F2F252B
:101684003F591C57103D560263382E2442412C3AD0
:10169400152B0F382B12F23ED9421EF6103512F5D7
:1016A40044ECF319150101F30DD6D607BCF4D3D2DB
:1016B400D6D191FDB2CB93EE9699B4A4B0B4E29C8A
:1016C400CDA69DBE99D9FDF58AC81BF116F30ED798
:1016D4003F0C41241C6D012509654FF0690F6B28EF
:1016E4007E336B027FFD7F24105E4D23244C230444
:1016F400413EFEEC49130034DC080408AB06DCC5AB
:10170400D1B1039DBEAFAADE8EB9BCB0E196E1B7FC
:101714009FB1BDE5BFC802A1F6FEB2E71DE8021EF7
:101724000D082F151627D26B103B371B113B145E87
:101734002F2F1550502C1C5D294518440A462A3673
:101744001524191933120E172F13F00112DB00FCA4
:10175400D202CBF997DC09DB98F3BACDDDBED0E336
:101764008DFBC0ADE3CFCEDFBFFAD6BBED0BE4FDFE
:10177400E2FD5AB80F1013002D0FF1291C03311884
:10178400F61C2E31ED232B1547120746F34DEF239C
:1017940011351E1A150D58E8273605150C0BF719C7
:1017A4001009E11FFEFE00E2FCF405DA04EBFEDAA8
:1017B400E6E1F8DC01C9E1CD04D5D6E8D3DA09E3E2
:1017C400FDD20A9F0FDFFFC018D0F80AC002B91378
:1017D40018C811F0020A19F30DFE0D0C1117240C90
:1017E40025FE3F01312A0D4A1435034B281E2022C1
:1017F40033062416210C17150026E42C05FBF9ECFE
:10180400FEE51BDCEAFAEDE0D1DF23C3EFE7EFC925
:1018140000F4B8E9FCBF0ED9CCE80AC5E1FAD1DF7F
:1018240009C421B535F7CF09F3E908F410E11CF632
:101834001FEA2B12140113210E121D022F1D0E314B
:10184400FE053C1A071D29EF32FD1A1EF92C150C52
:10185400F830EB0B1EDF2EF90EFBF402FF08E20654
:10186400F3F305DB08E3F3ECEDEDF9E6EDE4F5D590
:10187400EA00E7E107D3EB04C70EE6E6EBF9EBF782
:10188400E819CE04FF0BF7FA0EE50C0A021706035B
:101894000713070224FB0720132102120C22012242
:1018A400011C130B1A070919042F0619012CF4F94A
:1018B40037EC0209100800FC0CED04F4D90A06FF09
:1018C400E9F0F4EFD5F700DCE5E812D5E3F9E2E559
:1018D400F4D9EDF3F8E608EFF1EEF3E7FE0FFAE4DE
:1018E4000EF500FBF71DE71EF60A0A03FD17040AAE
:1018F4000C100020EE19150324101114171E111BCF
:1019040003101A180B130A0129FF081004FC13030F
:101914000BFCFC06FCF805E805F7E8F8FFD912E033
:10192400F4F3F5ECEDF3E3EAF9E7EBFFE7EEF8E7C0
:10193400F4EBF5ECECFDF5F002F9F0FDF011ED0738
:10194400FCFC01FE080B0D0DFD120317070E120718
:101954000C1214130A1516FF170D0E0614120F0697
:1019640011FC0F010FF80F0400FC16EF01FCFC043E
:10197400E810F7FCF9F8F5F6FBFAF2F8F8F1F7FBE2
:10198400F5F3F5F5FDEBFDF8F2F8FCF7FBF3F600E3
:10199400F000FEFCF8F8F804F604FF03F50CFC0074
:1019A400010106050205070600010A0304060A06EA
:1019B40002000000010101010BF3F0F0E9E9E00E7F
:1019C40011181822F0F7F701070B11E9F0F3F7FAF1
:1019D400FD01010101010107181E2225F3FA01048A
:1019E4000BF3FAFD01010405070AE00E0F0F10EDD9
:1019F400F7FAFD010000000002030508DA0A0B0BE8
:101A04000CE7EAEAEAEAE5E21215181B2009F204F7
:101A1400020000000000EDE4DCD9D8D6D8D5D6D930
:101A2400DCE2EE0000000016181F1F22221F1F1CFC
:101A340018130600010101010BF3F0F0E9E9E00ECF
:101A440011181822F0F7F701070B11E9F0F3F7FA70
:101A5400FD01010101010107181E2225F3FA010409
:101A64000BF3FAFD01010405070AE00E0F0F10ED58
:101A7400F7FAFD010000000002030508DA0A0B0B67
:101A84000CE7EAEAEAEAE5E21215181B2009F20477
:0C1A940002000000000000000000000044
:00000001FF
