:020000020000FC
:1000000000C00FED0DBFBB9A35E502D02CD0FCCF60
:1000100000E40FBD09E00EBD00E010E01DBD0CBD09
:1000200007E310E01BBD0ABD15D014D028E0330F44
:1000300030F400EC0FBD24D000E40FBD05C000E497
:100040000FBD1ED000EC0FBD1BD02A9581F700EC30
:100050000FBD089500EC0FBD13D000E40FBD10D00C
:1000600000EC0FBD089507E9502E06E0602E02E96E
:10007000702E7A94F1F76A94D1F75A94B1F70895F3
:10008000EF93FF93E0E7F3E003D0FF91EF91089542
:060090003197F1F708951D
:00000001FF
