:1000000012C068C02BC084C029C028C027C026C029
:1000100075C025C023C022C021C020C01FC01EC083
:100020001DC01CC01BC011241FBECFE5D4E0DEBF25
:10003000CDBF10E0A0E6B0E0E8E6FAE002C005902F
:100040000D92A23BB107D9F710E0A2EBB0E001C0DE
:100050001D92AF3CB107E1F76DD004C5D1CF1F921F
:100060000F920FB60F9211242F933F938F939F936C
:100070008091B8009091B90001969093B900809357
:10008000B8008B379105E9F41092B9001092B800CE
:1000900021E030E03093BF002093BE008091BA0091
:1000A0009091BB0001969093BB008093BA00CC97CF
:1000B00041F43093BD002093BC001092BB0010921D
:1000C000BA009F918F913F912F910F900FBE0F908B
:1000D0001F9018951F920F920FB60F9211248F93B5
:1000E0009F9381E090E09093C1008093C0009F9126
:1000F0008F910F900FBE0F901F9018951F920F9227
:100100000FB60F9211240F900FBE0F901F901895ED
:100110001F920F920FB60F9211248F939F9385B366
:1001200090E2892785BB9F918F910F900FBE0F9012
:100130001F901895CF92DF92EF92FF920F931F932B
:10014000CF93DF938CE097D166D180E690E07BD1AE
:100150008CE690E078D189B7816089BF12BE83B701
:10016000846083BF8D98959A89B7846089BF8EB566
:1001700087608EBD89B7806889BF85B58A6085BD77
:100180008FEB83BD8A98929A85B7826085BF8BB7C3
:1001900080648BBF8FE384BB8FE185BB80E29EE4EC
:1001A00028EC30E0F9013197F1F70197D9F733D115
:1001B0008CE790E048D189E890E045D10AEC10E066
:1001C00097E9C92E90E0D92EC4ECD0E086EAE82E5B
:1001D00080E0F82E78948091BC009091BD0001974A
:1001E00009F040C08DB79EB708970FB6F8949EBF30
:1001F0000FBE8DBFEDB7FEB73196ADB7BEB7129645
:100200001C930E931197D382C2828091B200909179
:10021000B300A091B400B091B50084839583A68308
:10022000B7835AD18DB79EB708960FB6F8949EBF84
:100230000FBE8DBFF3D088E061E0E3D08BE990E0A2
:1002400002D188E061E0DDD0C801FDD01092BD0090
:100250001092BC001092B2001092B3001092B40041
:100260001092B5008091BE009091BF00019709F0F7
:1002700054C02CB53DB58091B6009091B700280FC1
:10028000391F3093B7002093B60000D000D000D0C3
:10029000EDB7FEB73196ADB7BEB71296DC93CE93ED
:1002A0001197F382E2823583248316D18DB79EB7EE
:1002B00006960FB6F8949EBF0FBE8DBF80E061E03A
:1002C000A0D089EA90E0BFD080E061E09AD0CE0172
:1002D000BAD02091B6003091B70040E050E0809154
:1002E000B2009091B300A091B400B091B500820F1C
:1002F000931FA41FB51F8093B2009093B300A093E7
:10030000B400B093B5001092BF001092BE001092DE
:10031000B7001092B6001DBC1CBC8091C00090912B
:10032000C100019739F08091C2009091C300892BE0
:1003300009F450CF8091C2009091C3000196909330
:10034000C3008093C2001092C1001092C000AC9A0A
:10035000855F91400CF43ECFAC981092C300109290
:10036000C20038CF282F662311F0C49A01C0C49868
:10037000C59887B38F6087BB98B3907F822F829593
:100380008F70892B88BBC69A00C0C6982F70292B06
:1003900028BBC69A00C0C6989F6098BB0895882362
:1003A00011F0C49A01C0C498C59A87B3807F87BBF7
:1003B000C69A00C096B3C69800C0C69A00C086B35D
:1003C0008F709295907FC698892B089580E0E7DF23
:1003D00087FDFCCF84E090E00197F1F780E0DFDF5C
:1003E00008951F93182FF2DF812F60E0BBDF1F916C
:1003F00008951F93182FEADF812F61E0B3DF1F916B
:100400000895662311F4805801C08054EADF0895EE
:10041000DDDF90E0089581E0E4DF089582E0E1DF30
:1004200008951F93182FD2DF1A3041F4803410F052
:1004300080E001C080E48058D4DF03C0812F61E0F8
:1004400091DF1F910895CF93DF93EC0101C0E9DFA5
:1004500089918823E1F7DF91CF910895CF93DF93BE
:10046000EC0101C0DEDFFE01219684918823D1F7E3
:10047000DF91CF9108951F93182F87B38F6787BBA4
:1004800080E09DE70197F1F7C19AC09AC69A00C033
:10049000C69880E097E20197F1F7C69A00C0C69827
:1004A00080E890E0FC013197F1F7C69A00C0C69849
:1004B000FC013197F1F7C098C69A00C0C698019721
:1004C000F1F788E28EDF88E08CDFA5DF86E089DF48
:1004D000812F87DF1F910895AEE0B0E0E1E7F2E001
:1004E00098C20D891E8986E08C831A8309838FEF59
:1004F0009FE79E838D839E01275E3F4FCE0101962D
:100500006F89788DA90109D02F813885020F131FBB
:10051000F80110822E96E4E098C2ABE0B0E0E2E988
:10052000F2E069C23C012B015A01FC0117821682DC
:10053000838181FD03C06FEF7FEFB9C19AE0892EFF
:100540001E010894211C311CF3012381F20123FDBB
:10055000859123FF81912F01882309F4A5C185325C
:1005600039F423FD859123FF81912F01853221F4F8
:1005700090E0B301B6D1E8CF982FFF24EE24992460
:10058000FFE1FF15D0F09B3269F09C3228F49032E5
:1005900059F0933291F40EC09D3249F0903369F4D2
:1005A00041E024C052E0F52A84E0F82A28C098E00F
:1005B000F92A25C0E0E1FE2A22C0F7FC29C0892FD4
:1005C00080538A3070F4F6FE05C0989C902C11245C
:1005D000980E15C0E89CE02C1124E80EF0E2FF2AEA
:1005E0000EC09E3229F4F6FC5FC140E4F42A07C035
:1005F0009C3619F450E8F52A02C0983649F4F20105
:1006000023FD959123FF91912F01992309F0B8CFF4
:10061000892F8554833018F08052833038F444E0B9
:1006200050E0A40EB51E5FE359830FC0933631F03E
:10063000933779F0933509F052C01FC0F5018081DE
:10064000898342E050E0A40EB51E610101E010E094
:1006500011C0F501C080D180F6FC03C06FEF7FEFC1
:1006600002C0692D70E042E050E0A40EB51EC60144
:100670002DD18C015FE7F52213C0F501C080D18038
:10068000F6FC03C06FEF7FEF02C0692D70E042E01F
:1006900050E0A40EB51EC6010ED18C0150E8F52A1B
:1006A000F3FE06C018C080E290E0B3011AD1EA94CC
:1006B0008E2D90E008171907B0F30DC0F601F7FC76
:1006C0008591F7FE81916F0190E0B3010AD1E110AD
:1006D000EA94015010400115110581F7E2C09436EB
:1006E00011F0993661F5F7FE08C0F50120813181DE
:1006F0004281538184E090E00AC0F50180819181BC
:100700009C01442737FD4095542F82E090E0A80ECD
:10071000B91E9FE6F92257FF09C0509540953095C4
:1007200021953F4F4F4F5F4FE0E8FE2ACA01B901C4
:10073000A1012AE030E001D1D82ED2183FC0953770
:1007400029F41F2D1F7E2AE030E01DC01F2D197FC8
:100750009F3661F0903720F4983509F0A5C00FC09E
:10076000903739F0983709F09FC004C028E030E096
:100770000AC0106114FD146020E130E004C014FDD3
:10078000166020E132E017FF08C0F5016081718139
:100790008281938144E050E008C0F501808191811D
:1007A000BC0180E090E042E050E0A40EB51EA10143
:1007B000C4D0D82ED2188FE7F82EF122F6FE0BC047
:1007C0005EEFF522D91438F4F4FE07C0F2FC05C040
:1007D0008FEEF82202C01D2D01C0192DF4FE0DC0B0
:1007E000FE01ED0DF11D8081803319F499EEF9229F
:1007F00008C01F5FF2FE05C003C08F2D867809F088
:100800001F5F0F2DF3FC13C0F0FE0EC01E1510F07D
:100810009D2C0AC09D2C9E0C911A1E2D05C080E2B5
:1008200090E0B3015ED01F5F1E15C8F304C01E1513
:1008300010F4E11A01C0EE2404FF0EC080E390E042
:10084000B3014FD002FF1BC001FD03C088E790E059
:100850000EC088E590E00BC0802F867881F001FF04
:1008600002C08BE201C080E2F7FC8DE290E0B301B0
:1008700038D005C080E390E0B30133D09A94D91406
:10088000C8F3DA94F101ED0DF11D808190E0B30120
:1008900028D0DD20B1F705C080E290E0B30121D07F
:1008A000EA94EE20C9F750CEF30166817781CB013F
:1008B0002B96E2E1BCC0FC01059061507040011034
:1008C000D8F7809590958E0F9F1F0895FC01615079
:1008D000704001900110D8F7809590958E0F9F1F62
:1008E00008950F931F93CF93DF938C01EB018B81BE
:1008F00081FF1BC082FF0DC02E813F818C819D81B5
:100900002817390764F4E881F9810193F983E883B2
:1009100006C0E885F985802F0995892B31F48E81F1
:100920009F8101969F838E8302C00FEF1FEFC80146
:10093000DF91CF911F910F910895FA01AA272830D6
:1009400051F1203181F1E8946F936E7F6E5F7F4F9C
:100950008F4F9F4FAF4FB1E03ED0B4E03CD0670F18
:10096000781F891F9A1FA11D680F791F8A1F911D6B
:10097000A11D6A0F711D811D911DA11D20D009F4BB
:1009800068943F912AE0269F11243019305D3193FD
:10099000DEF6CF010895462F4770405D4193B3E0E6
:1009A0000FD0C9F7F6CF462F4F70405D4A3318F08D
:1009B000495D31FD4052419302D0A9F7EACFB4E03E
:1009C000A6959795879577956795BA95C9F70097F6
:1009D0006105710508959B01AC010A2E0694579597
:1009E000479537952795BA95C9F7620F731F841FEE
:1009F000951FA01D08952F923F924F925F926F9284
:100A00007F928F929F92AF92BF92CF92DF92EF929E
:100A1000FF920F931F93CF93DF93CDB7DEB7CA1B1F
:100A2000DB0B0FB6F894DEBF0FBECDBF09942A884A
:100A3000398848885F846E847D848C849B84AA84F2
:100A4000B984C884DF80EE80FD800C811B81AA817F
:100A5000B981CE0FD11D0FB6F894DEBF0FBECDBF4A
:080A6000ED010895F894FFCFA9
:100A6800202020202041413159590A00204765693A
:100A780067657220436F756E74657200435053202A
:100A880020207C2043504D0A00202D202020207C4F
:100A98002020202D202000256C75002020202020DB
:100AA8002020202020002575002020202020207CC8
:020AB80000003C
:00000001FF
