:100000000C94FA000C9420010C9420010C94200113
:100010000C94282B0C9420010C9420010C942001AA
:100020000C9420010C9420010C9420010C942001CC
:100030000C9420010C9420010C94A52C0C9420010C
:100040000C9420010C9420010C9420010C942001AC
:100050000C94152D0C9420010C9420010C9420017B
:100060000C9420010C9420010C9420010C9420018C
:100070000C94E62B0C9420010C9420010C9420018C
:100080000C9420010C9420010C94022B0C94200160
:100090000C9420010C9420010C9420010C9420015C
:1000A0000C9420010C9420010C9420010C9420014C
:1000B0000C9420010C9420010C9420010C9420013C
:1000C0000C9420010C9420010C9420010C9420012C
:1000D0000C9420010C9420010C9420010C9420011C
:1000E0000C9420010C9420010C9420010C9420010C
:1000F0000C9420010C9420010C9420010C942001FC
:100100000C9420010C9420010C9420010C942001EB
:100110000C9420010C9420010C9420010C942001DB
:100120000C9420010C9420010C9420010C942001CB
:100130000C9420010C94192C0C9420010C94200197
:100140000C9420010C9420010C9420010C94672C39
:100150000C9420010C9420010C9420010C9420019B
:100160000C9420010C9420010C9420010C9420018B
:100170000C9420010C9420010C949A2B0C942001D7
:100180000C944E2B0C9420010C94742B0C94200195
:100190000C94C02B0C9420010C9420010C94200191
:1001A0000C9420010C9420010C9420010C9420014B
:1001B0000C9420010C9420010C9420010C9420013B
:1001C0000C9420010C9420010C9420010C9420012B
:1001D0000C9420010C9420010C9420010C9420011B
:1001E0000C9420010C9420010C9420010C9420010B
:1001F0000C94200111241FBECFEFDFE3DEBFCDBF83
:1002000000E00CBF18BE19BE1ABE1BBE10E2A0E073
:10021000B0E2E2EEFEE500E00BBF02C007900D92F7
:10022000AC3EB107D9F71BBE16E2ACEEB0E201C09E
:100230001D92A433B107E1F70E945B2D0C946F2F40
:100240000C940000809120028068E0E0F2E080A33E
:10025000809123028823E1F3209110023091110252
:10026000C9010895AAECB1E092E09C93E82FF0E078
:10027000E4911C928E2F0895E0E0F2E080E381A3E8
:1002800080912002806880A3809123028823E1F37B
:1002900060911002709111026093F7207093F82022
:1002A000809120028068E0E0F2E080A38091230248
:1002B0008823E1F320911002309111022093F9205C
:1002C0003093FA20809120028068E0E0F2E080A381
:1002D000809123028823E1F3409110025091110292
:1002E0004093FB205093FC20809120028068E0E046
:1002F000F2E080A3809123028823E1F38091100231
:10030000909111028093FD209093FE20260F371FBD
:10031000240F351F280F391F3695279536952795B9
:100320002093EC203093ED20089588ED84BF82E087
:10033000809350008091510081FFFCCF88ED84BFF5
:1003400081E0809340000895E0E0FAE024E020831B
:1003500083EF81834FEF53E046A357A380E092E001
:1003600080AF91AF82AF93AF84AF95AF80933E0AD9
:1003700090933F0AE0E0FBE0208323E7218346A33C
:1003800057A380AF91AF82AF93AF88EE93E084AF75
:1003900095AFE0E4F8E026E02083118282E08683D6
:1003A00080E39FEF80A391A3E0E0F9E02083118236
:1003B00023E0268385E997EE80A391A3E0E0F8E0AF
:1003C000118281E0868380EC93EF80A391A3E0E427
:1003D000F9E01182268380EB9EEF80A391A308951C
:1003E0002F923F924F925F927F928F929F92AF9205
:1003F000BF92CF92DF92EF92FF920F931F93212C27
:1004000076E0372EF1011082BB24BA94B0926006D8
:10041000B092800660EAE62E66E0F62E5FE1752E69
:10042000F701708240EEC42E46E0D42E82E1F60140
:10043000808300E017E092E0F801908330E2432EE1
:1004400037E0532E8FE3F20180839093E0078FED26
:10045000809320068EE08093C00780E48093460658
:1004600025E4822E26E0922E80E8F4018083E1E4E8
:10047000F6E0808380E2A82EA08264EE77E0FB01A4
:10048000108244E656E0FA01B08224E836E0F90131
:10049000B082A4EAB6E07C92E5ECF7E0908390931A
:1004A000E50684E08083F401A082FB011082FA015A
:1004B000B082F901B0827C9290E1F801978B968B23
:1004C00088E1F601878B868BF101978BF701858B8D
:1004D000868B878BF801828BF201868B1F910F919F
:1004E000FF90EF90DF90CF90BF90AF909F908F9054
:1004F0007F905F904F903F902F90089591E0909360
:1005000035069093F0079093F2069093D00790935E
:1005100037079093150784E08093EA0680E2809382
:100520000A0780932A0680E880932A079093CA07D7
:100530009093EA0783E0809329068093E9068093ED
:100540000907809329078093C9078093E90787E00B
:10055000E0EAF0E0828308950F931F9380E20E9407
:10056000320100E012E0F801848781E20E9432014A
:10057000F801858780E6818380E1828385E084833A
:1005800081E080A380831F910F9108950F931F93A3
:10059000E0E4F6E080E885838183E0EBF8E080E248
:1005A000838388E1848383E0858385818860858374
:1005B00080EB98E040E05BE460E070E000E018E48D
:1005C00028EE31E00E94A42D1F910F910895282F4D
:1005D00080FF04C080E28093450603C080E28093E0
:1005E000460621FF04C082E08093C50703C082E075
:1005F0008093C60722FF04C084E08093C50703C030
:1006000084E08093C60723FF04C082E08093E50660
:10061000089582E08093E60608950E94412A80E0D2
:1006200090E20E941C2A82E061E00E94372A8CE05E
:1006300090E20E941C2A0895BF92CF92DF92EF921F
:10064000FF920F931F93CF93DF938C01FC01808166
:10065000813009F045C08181833011F1843028F464
:100660008130A1F08230B8F409C0853019F18530AD
:10067000E0F0863021F1873099F529C00E94412AA7
:1006800087E190E20E941C2A86E028C00E94412A4D
:1006900087E290E218C00E94412A86E390E213C0EC
:1006A0000E94412A85E490E20EC00E94412A84E51E
:1006B00090E209C00E94412A83E690E204C00E94B1
:1006C000412A82E790E20E941C2A87E007C00E942C
:1006D000412A81E890E20E941C2A85E00E94E702FC
:1006E000F80180818230F9F481818823E1F40E944D
:1006F000412A8DE890E20E941C2A88E00E94E702CD
:100700000E9417198091280786FDFACF0E94412A7E
:1007100087E190E20E941C2A86E00E94E702F8012D
:10072000808181508083F80180818230C9F4818189
:100730008823B1F08730A0F48281882319F08130BA
:1007400079F405C00E94412A8DE990E204C00E941C
:10075000412A8AEA90E20E941C2A8FE00E94E70266
:10076000F80180818230D1F481818730B9F48281AF
:100770008823A1F40E94412A87EB90E20E941C2A60
:100780008FE00E94E70280E061E00E94372A85EC5A
:1007900090E20E941C2A8FE00E94E702F80180810B
:1007A000833009F083C2E80121968181882309F40E
:1007B0007DC2873008F07AC28281813009F076C22A
:1007C000BB24B39492E6C92ED12C80E2E82E83E0BC
:1007D000F82EB092EE208881813009F061C00E942D
:1007E000412A8AEA90E20E941C2A81E060E00E948D
:1007F000372A83ED90E20E941C2A8BE00E94E702D8
:10080000888190E001978C9DF0018D9DF00D9C9D5D
:10081000F00D1124EE59FE4D6081772767FD70952C
:10082000872F972F0E94A12A80E293E0F70131974A
:10083000F1F70197D9F78091A80687FD16C0888146
:1008400090E001978C9DF0018D9DF00D9C9DF00D29
:100850001124EE59FE4D80818F5F808388E795E0FB
:10086000F7013197F1F70197D9F78091A80686FD36
:100870000AC2888190E001978C9DF0018D9DF00D5A
:100880009C9DF00D1124EE59FE4D80818150808396
:1008900088E795E0F7013197F1F70197D9F7F3C1B0
:1008A000823009F061C00E94412A8AEA90E20E94E7
:1008B0001C2A8BE00E94E70281E060E00E94372A58
:1008C00083ED90E20E941C2A888190E001978C9D24
:1008D000F0018D9DF00D9C9DF00D1124EE59FE4D03
:1008E0006081772767FD7095872F972F0E94A12A37
:1008F00080E293E0F7013197F1F70197D9F7809102
:10090000A80687FD16C0888190E001978C9DF001B4
:100910008D9DF00D9C9DF00D1124EE59FE4D8081B2
:100920008F5F808388E795E0F7013197F1F70197B2
:10093000D9F78091A80686FDA6C1888190E001972D
:100940008C9DF0018D9DF00D9C9DF00D1124EE59B4
:10095000FE4D80818150808388E795E0F7013197D3
:10096000F1F70197D9F78FC1833009F061C00E9478
:10097000412A8AEA90E20E941C2A81E060E00E94FB
:10098000372A83ED90E20E941C2A8BE00E94E70246
:10099000888190E001978C9DF0018D9DF00D9C9DCC
:1009A000F00D1124EE59FE4D6081772767FD70959B
:1009B000872F972F0E94A12A80E293E0F7013197B9
:1009C000F1F70197D9F78091A80687FD16C08881B5
:1009D00090E001978C9DF0018D9DF00D9C9DF00D98
:1009E0001124EE59FE4D80818F5F808388E795E06A
:1009F000F7013197F1F70197D9F78091A80686FDA5
:100A000042C1888190E001978C9DF0018D9DF00D91
:100A10009C9DF00D1124EE59FE4D80818150808304
:100A200088E795E0F7013197F1F70197D9F72BC1E6
:100A3000843009F061C00E94412A8AEA90E20E9453
:100A40001C2A81E060E00E94372A83ED90E20E9438
:100A50001C2A8BE00E94E702888190E001978C9D20
:100A6000F0018D9DF00D9C9DF00D1124EE59FE4D71
:100A70006081772767FD7095872F972F0E94A12AA5
:100A800080E293E0F7013197F1F70197D9F7809170
:100A9000A80687FD16C0888190E001978C9DF00123
:100AA0008D9DF00D9C9DF00D1124EE59FE4D808121
:100AB0008F5F808388E795E0F7013197F1F7019721
:100AC000D9F78091A80686FDDEC0888190E0019765
:100AD0008C9DF0018D9DF00D9C9DF00D1124EE5923
:100AE000FE4D80818150808388E795E0F701319742
:100AF000F1F70197D9F7C7C0853009F061C00E94AE
:100B0000412A8AEA90E20E941C2A81E060E00E9469
:100B1000372A83ED90E20E941C2A8BE00E94E702B4
:100B2000888190E001978C9DF0018D9DF00D9C9D3A
:100B3000F00D1124EE59FE4D6081772767FD709509
:100B4000872F972F0E94A12A80E293E0F701319727
:100B5000F1F70197D9F78091A80687FD16C0888123
:100B600090E001978C9DF0018D9DF00D9C9DF00D06
:100B70001124EE59FE4D80818F5F808388E795E0D8
:100B8000F7013197F1F70197D9F78091A80686FD13
:100B90007AC0888190E001978C9DF0018D9DF00DC9
:100BA0009C9DF00D1124EE59FE4D80818150808373
:100BB00088E795E0F7013197F1F70197D9F763C01E
:100BC000863009F060C00E94412A8AEA90E20E94C1
:100BD0001C2A81E060E00E94372A83ED90E20E94A7
:100BE0001C2A8BE00E94E702888190E001978C9D8F
:100BF000F0018D9DF00D9C9DF00D1124EE59FE4DE0
:100C00006081772767FD7095872F972F0E94A12A13
:100C100080E293E0F7013197F1F70197D9F78091DE
:100C2000A80687FD16C0888190E001978C9DF00191
:100C30008D9DF00D9C9DF00D1124EE59FE4D80818F
:100C40008F5F808388E795E0F7013197F1F701978F
:100C5000D9F78091A80686FD16C0888190E001979B
:100C60008C9DF0018D9DF00D9C9DF00D1124EE5991
:100C7000FE4D80818150808388E795E0F7013197B0
:100C8000F1F70197D9F78091280786FDA2CDF801E9
:100C90008081815080830E94412A8AEA90E20E94EA
:100CA0001C2A8FE00E94E7021092EE20F80180815A
:100CB000833009F0F3C0E80121968181882309F48B
:100CC000EDC0883008F0EAC08281882309F0E6C0D0
:100CD0000E94412A8DED90E20E941C2A8BE00E9426
:100CE000E702FF24F394F092EE2088818130D1F462
:100CF0008091A80687FD04C080E061E00E94430E59
:100D00008091A80686FD04C080E062E00E94430E48
:100D10008091A80687FFB0C08091A80686FFACC06E
:100D200080E0A7C08230D1F48091A80687FD04C07E
:100D300081E061E00E94430E8091A80686FD04C018
:100D400081E062E00E94430E8091A80687FF94C074
:100D50008091A80686FF90C081E08BC08330D1F4DB
:100D60008091A80687FD04C082E061E00E94430EE6
:100D70008091A80686FD04C082E062E00E94430ED6
:100D80008091A80687FF78C08091A80686FF74C06E
:100D900082E06FC08430D1F48091A80687FD04C042
:100DA00083E061E00E94430E8091A80686FD04C0A6
:100DB00083E062E00E94430E8091A80687FF5CC03A
:100DC0008091A80686FF58C083E053C08530D1F4D7
:100DD0008091A80687FD04C084E061E00E94430E74
:100DE0008091A80686FD04C084E062E00E94430E64
:100DF0008091A80687FF40C08091A80686FF3CC06E
:100E000084E037C08630D1F48091A80687FD04C005
:100E100085E061E00E94430E8091A80686FD04C033
:100E200085E062E00E94430E8091A80687FF24C0FF
:100E30008091A80686FF20C085E01BC08730E1F4C2
:100E40008091A80687FD04C086E061E00E94430E01
:100E50008091A80686FD04C086E062E00E94430EF1
:100E60008091A80687FF08C08091A80686FF04C06D
:100E700086E063E00E94430E8091280786FD33CF11
:100E800082E0F80180831092EE200E94412A8DE9D1
:100E900090E20E941C2A8FE00E94E702DF91CF912E
:100EA0001F910F91FF90EF90DF90CF90BF9008952A
:100EB0008091EE20882309F08DC08091A80687FDDF
:100EC00043C080E293E020E233E0F9013197F1F78B
:100ED0000197D9F78091A80687FD7CC08091EF200B
:100EE0008130C1F48091F0208F5F8093F0208830B2
:100EF00019F487E08093F0208FEE90E20E941C03AB
:100F000080ED97E020E233E0F9013197F1F70197A6
:100F1000D9F760C0823009F05DC08091F1208F5F09
:100F20008093F120823011F41092F1208FEE90E244
:100F30000E941C0380ED97E020E233E0F901319735
:100F4000F1F70197D9F746C08091A80686FD42C007
:100F500080E293E020E233E0F9013197F1F7019765
:100F6000D9F78091A80686FD35C08091EF208130A9
:100F7000B1F48091F02081508093F0208F3F11F4E4
:100F80001092F0208FEE90E20E941C0380ED97E01B
:100F900020E233E0F9013197F1F70197D9F7809119
:100FA000EF208230B9F48091F12081508093F120BC
:100FB0008F3F19F481E08093F1208FEE90E20E9440
:100FC0001C0380ED97E020E233E0F9013197F1F75F
:100FD0000197D9F78091080782FD24C080E293E051
:100FE00020E233E0F9013197F1F70197D9F78091C9
:100FF000080782FD17C08091EF208F5F8093EF205C
:10100000843019F481E08093EF208FEE90E20E940B
:101010001C0380ED97E020E233E0F9013197F1F70E
:101020000197D9F78091280786FD24C080E293E0DC
:1010300020E233E0F9013197F1F70197D9F7809178
:10104000280786FD17C08091EF2081508093EF2004
:101050008F3F19F481E08093EF208FEE90E20E94A1
:101060001C0380ED97E020E233E0F9013197F1F7BE
:101070000197D9F708959C0197FF03C030952195FA
:101080003F4FC9010895AF92BF92CF92DF92FF9276
:101090000F931F93CF93DF93F82E882379F48091D9
:1010A000242690912526A0E0B0E080930121909322
:1010B0000221A0930321B093042159C081E0F816C6
:1010C00079F48091262690912726A0E0B0E08093C5
:1010D000632190936421A0936521B093662147C05A
:1010E000A2E0FA1679F48091282690912926A0E0B2
:1010F000B0E08093C5219093C621A093C721B093FF
:10110000C82135C0B3E0FB1679F480912226909176
:101110002326A0E0B0E08093272290932822A0937A
:101120002922B0932A2223C084E0F81679F4809112
:101130002C2690912D26A0E0B0E0809389229093F8
:101140008A22A0938B22B0938C2211C0A5E0FA16BC
:1011500071F480912E2690912F26A0E0B0E080932C
:10116000EB229093EC22A093ED22B093EE220F2D70
:10117000112707FD109582E690E0089FF001099F76
:10118000F00D189FF00D1124EF5FFE4D80859185C5
:10119000A285B3852081318142815381821B930BCB
:1011A000A40BB50B84839583A683B7838481958133
:1011B000A681B78197FF03C0909581959F4F9C01B1
:1011C000442737FD4095542F82E690E0089FF001B8
:1011D000099FF00D189FF00D1124EF5FFE4D24873D
:1011E0003587468757872481358146815781808995
:1011F0009189A289B38982179307A407B5072CF4B4
:101200008EE591E0A0E0B0E018C0248135814681F0
:10121000578180899189A289B389B095A0959095CD
:1012200081959F4FAF4FBF4F281739074A075B077C
:1012300044F482EA9EEFAFEFBFEF84839583A683E9
:10124000B78382E690E0089FF001099FF00D189F98
:10125000F00D1124EF5FFE4D2481358146815781C9
:1012600084899589A689B78982179307A407B5074A
:101270006CF484819581A681B7812489358946895A
:101280005789821B930BA40BB50B19C024813581A0
:101290004681578184899589A689B7892817390796
:1012A0004A075B078CF42481358146815781848904
:1012B0009589A689B789820F931FA41FB51F8483C0
:1012C0009583A683B78304C0148215821682178281
:1012D00082E690E0089FE001099FD00D189FD00D95
:1012E0001124CF5FDE4D2C813D814E815F816C8D5D
:1012F0007D8D8E8D9F8D0E942E2F688F798F8A8F86
:101300009B8F88A199A1AAA1BBA1181619061A063C
:101310001B060CF06CC0FE01E05AFF4F8081882351
:1013200009F465C0FE01E05BFF4F80819181A281DD
:10133000B3810097A105B10581F42CA13DA14EA177
:101340005FA18C819D81AE81BF81820F931FA41FFD
:10135000B51F8CA39DA3AEA3BFA382E690E0089F18
:10136000F001099FF00D189FF00D1124EF5FFE4D65
:1013700080A591A5A2A5B3A50097A105B10509F483
:1013800045C024A135A146A157A180A591A5A2A53C
:10139000B3A582179307A407B5072CF480A591A5E0
:1013A000A2A5B3A51FC024A135A146A157A180A520
:1013B00091A5A2A5B3A5B095A095909581959F4FB5
:1013C000AF4FBF4F281739074A075B07FCF480A5CA
:1013D00091A5A2A5B3A5B095A095909581959F4F95
:1013E000AF4FBF4F84A395A3A6A3B7A30FC082E6B8
:1013F00090E0089FF001099FF00D189FF00D112457
:10140000EF5FFE4D14A215A216A217A282E690E08D
:10141000089FE001099FD00D189FD00D1124CF5FC8
:10142000DE4D2CA13DA14EA15FA168A179A18AA1A9
:101430009BA10E942E2F6CA77DA78EA79FA78C81B2
:101440009D81AE81BF812CA93DA94EA95FA9821BB8
:10145000930BA40BB50B88AB99ABAAABBBAB8C8140
:101460009D81AE81BF818CAB9DABAEABBFAB88AD78
:1014700099ADAAADBBAD0097A105B105A9F128A909
:1014800039A94AA95BA988AD99ADAAADBBAD8217B0
:101490009307A407B5072CF488AD99ADAAADBBADF1
:1014A0001FC028A939A94AA95BA988AD99ADAAADE1
:1014B000BBADB095A095909581959F4FAF4FBF4F15
:1014C000281739074A075B077CF488AD99ADAAADA8
:1014D000BBADB095A095909581959F4FAF4FBF4FF5
:1014E00088AB99ABAAABBBAB82E690E0089FE0016A
:1014F000099FD00D189FD00D1124CF5FDE4D28A974
:1015000039A94AA95BA9C05CDF4F688179818A81CA
:101510009B81C054D0400E942E2F6CAF7DAF8EAF08
:101520009FAF288D398D4A8D5B8D8CA59DA5AEA56D
:10153000BFA5820F931FA41FB51FFE01EC5BFF4FD9
:1015400080839183A283B38320813181428153813F
:101550008CAD9DADAEADBFAD820F931FA41FB51F67
:1015600080839183A283B38320813181428153811F
:10157000BE01645B7F4FDB01AD90BD90CD90DC90F0
:101580001397A216B306C406D506A4F42D913D9177
:101590004D915C912083318342835383FE01E05B54
:1015A000FF4F81E090E0A0E0B0E080839183A283D0
:1015B000B38334C02081318142815381DB01AD90FE
:1015C000BD90CD90DC9088279927DC018A199B0972
:1015D000AC09BD09C05BDF4F281739074A075B0715
:1015E000CCF4DB012D913D914D915C918827992799
:1015F000DC01821B930BA40BB50B80839183A28328
:10160000B38381E090E0A0E0B0E088839983AA836F
:10161000BB8304C0188219821A821B8282E690E082
:10162000089FF001099FF00D189FF00D1124EF594C
:10163000FE4D2081213009F01CC3FF2009F07FC03E
:101640008091452190914621A0914721B091482158
:10165000B7FD12C081E090E0A0E0B0E0809355219A
:1016600090935621A0935721B0935821E0E6F6E0DD
:1016700082E0868325830DC0109255211092562159
:101680001092572110925821E0E6F6E0268382E07E
:10169000858320910D2130910E2140910F21509191
:1016A00010218091152190911621A0911721B091C0
:1016B000182182179307A407B50734F0E0E6F6E097
:1016C00082E0858381E085832091552130915621E8
:1016D00040915721509158218091592190915A2140
:1016E000A0915B21B0915C21281739074A075B075D
:1016F00091F48091452190914621A0914721B0918C
:10170000482197FF03C0909581959F4FE0E0FAE054
:1017100080AF91AF04C0E0E0FAE010AE11AE80916E
:10172000552190915621A0915721B0915821809335
:10173000592190935A21A0935B21B0935C2182E6BA
:1017400090E0089FE001099FD00D189FD00D112453
:10175000CF5FDE4DC05ADF4F8881C056D040813008
:1017600009F087C2B1E0FB1609F081C08091A72182
:101770009091A821A091A921B091AA21B7FD12C0F2
:1017800081E090E0A0E0B0E08093B7219093B82191
:10179000A093B921B093BA21E0E6F6E084E0868315
:1017A00088E00DC01092B7211092B8211092B92193
:1017B0001092BA21E0E6F6E088E0868384E0858333
:1017C00020916F21309170214091712150917221AF
:1017D0008091772190917821A0917921B0917A21FF
:1017E00082179307A407B50734F0E0E6F6E088E037
:1017F000858384E085832091B7213091B821409181
:10180000B9215091BA218091BB219091BC21A09126
:10181000BD21B091BE21281739074A075B0791F413
:101820008091A7219091A821A091A921B091AA21EE
:1018300097FF03C0909581959F4FE0E0FAE082AF5B
:1018400093AF04C0E0E0FAE012AE13AE8091B7218E
:101850009091B821A091B921B091BA218093BB2178
:101860009093BC21A093BD21B093BE2102C282E01F
:10187000F81609F073C0FE01EC5BFF4F8081918187
:10188000A281B381FE01EC5AFF4FB7FD0EC081E08B
:1018900090E0A0E0B0E080839183A283B383E0E690
:1018A000F6E080E1868380E209C010821182128214
:1018B0001382E0E6F6E080E2868380E1858382E6BB
:1018C00090E0089FF001099FF00D189FF00D112482
:1018D000EF5FFE4D2485358546855785848995893A
:1018E000A689B78982179307A407B50734F0E0E605
:1018F000F6E080E1858380E2858382E690E0089FC0
:10190000F001099FF00D189FF00D1124EF5FFE4DBF
:10191000EC5AFF4F219131914191519180819181F8
:10192000A281B381E855F040281739074A075B07C1
:1019300081F4EC5BFF4F80819181A281B38197FF9D
:1019400003C0909581959F4FE0E0FAE084AF95AF9A
:101950007BC1E0E0FAE014AE15AE76C1A3E0FA1662
:1019600009F079C0FE01EC5BFF4F80819181A2817B
:10197000B381FE01EC5AFF4FB7FD11C081E090E04A
:10198000A0E0B0E080839183A283B383809164065A
:101990008F7B809364068091640680680CC01082FF
:1019A000118212821382809164068F77809364067D
:1019B0008091640680648093640682E690E0089FCC
:1019C000F001099FF00D189FF00D1124EF5FFE4DFF
:1019D000248535854685578584899589A689B78963
:1019E00082179307A407B5072CF080916406806CDA
:1019F0008093640682E690E0089FF001099FF00D55
:101A0000189FF00D1124EF5FFE4DEC5AFF4F21910E
:101A100031914191519180819181A281B381E855A9
:101A2000F040281739074A075B0781F4EC5BFF4F4A
:101A300080819181A281B38197FF03C090958195A8
:101A40009F4F80933E0A90933F0AFEC010923E0A39
:101A500010923F0AF9C0B4E0FB1609F079C0FE010C
:101A6000EC5BFF4F80819181A281B381FE01EC5A32
:101A7000FF4FB7FD11C081E090E0A0E0B0E08083AF
:101A80009183A283B383809184068F7E80938406A2
:101A90008091840680620CC01082118212821382AF
:101AA000809184068F7D8093840680918406806176
:101AB0008093840682E690E0089FF001099FF00D74
:101AC000189FF00D1124EF5FFE4D24853585468566
:101AD000578584899589A689B78982179307A407B2
:101AE000B5072CF08091840680638093840682E69B
:101AF00090E0089FF001099FF00D189FF00D112450
:101B0000EF5FFE4DEC5AFF4F219131914191519180
:101B100080819181A281B381E855F040281739076F
:101B20004A075B0781F4EC5BFF4F80819181A281C2
:101B3000B38197FF03C0909581959F4FE0E0FBE054
:101B400080AF91AF81C0E0E0FBE010AE11AE7CC091
:101B500085E0F81609F08DC0FE01EC5BFF4F808137
:101B60009181A281B381FE01EC5AFF4FB7FD11C0F4
:101B700081E090E0A0E0B0E080839183A283B38312
:101B8000809184068F7B8093840680918406806890
:101B90000CC01082118212821382809184068F778A
:101BA000809384068091840680648093840682E614
:101BB00090E0089FF001099FF00D189FF00D11248F
:101BC000EF5FFE4D24853585468557858489958947
:101BD000A689B78982179307A407B5072CF08091CF
:101BE0008406806C8093840682E690E0089FF00172
:101BF000099FF00D189FF00D1124EF5FFE4DEC5A78
:101C0000FF4F219131914191519180819181A28128
:101C1000B381E855F040281739074A075B0781F47C
:101C2000EC5BFF4F80819181A281B38197FF03C05C
:101C3000909581959F4FE0E0FBE082AF93AF04C0A9
:101C4000E0E0FBE012AE13AE82E690E0089FF00108
:101C5000099FF00D189FF00D1124EF5FFE4DEC5A17
:101C6000FF4F81919191A191B19180839183A28342
:101C7000B383DF91CF911F910F91FF90DF90CF90B1
:101C8000BF90AF900895882371F5613061F4209181
:101C900024263091252680916221992787FD9095F1
:101CA000820F931F0DC06230B1F480912426909171
:101CB000252620916221332727FD3095821B930B27
:101CC000A0E0B0E08093092190930A21A0930B211A
:101CD000B0930C210895633009F0B3C1809124269C
:101CE00090912526EDCF813071F5613061F420911E
:101CF0002626309127268091C421992787FD90952B
:101D0000820F931F15C0623061F480912626909156
:101D100027262091C421332727FD3095821B930B62
:101D200007C0633009F08DC1809126269091272647
:101D3000A0E0B0E080936B2190936C21A0936D2183
:101D4000B0936E210895823009F054C06130B1F42F
:101D5000809128269091292620912622332727FD3D
:101D60003095280F391F40E050E02093CD2130936B
:101D7000CE214093CF215093D02117C0623031F54E
:101D8000809128269091292620912622332727FD0D
:101D90003095821B930BA0E0B0E08093CD2190930F
:101DA000CE21A093CF21B093D0218091C5219091D5
:101DB000C621A091C721B091C82180932122909380
:101DC0002222A0932322B09324220895633009F0A5
:101DD00038C18091212290912222A0912322B0919A
:101DE00024228093CD219093CE21A093CF21B09334
:101DF000D0210895833009F054C06130B1F480914E
:101E000022269091232620918822332727FD309582
:101E1000280F391F40E050E020932F2230933022CA
:101E2000409331225093322217C0623031F58091B5
:101E300022269091232620918822332727FD309552
:101E4000821B930BA0E0B0E080932F22909330226E
:101E5000A0933122B09332228091272290912822A0
:101E6000A0912922B0912A228093832290938422E8
:101E7000A0938522B09386220895633009F0E1C0D3
:101E80008091832290918422A0918522B091862214
:101E900080932F2290933022A0933122B09332224C
:101EA0000895843009F054C06130B1F480912C263B
:101EB00090912D262091EA22332727FD3095280F77
:101EC000391F40E050E020939122309392224093BA
:101ED00093225093942217C0623031F580912C26C2
:101EE00090912D262091EA22332727FD3095821BE1
:101EF000930BA0E0B0E08093912290939222A09364
:101F00009322B09394228091892290918A22A09169
:101F10008B22B0918C228093E5229093E622A093AD
:101F2000E722B093E8220895633009F08AC08091D7
:101F3000E5229091E622A091E722B091E8228093D9
:101F4000912290939222A0939322B0939422089589
:101F5000853009F053C06130B1F480912E26909104
:101F60002F2620914C23332727FD3095280F391F2A
:101F700040E050E02093F3223093F4224093F52286
:101F80005093F62217C0623031F580912E26909141
:101F90002F2620914C23332727FD3095821B930B4E
:101FA000A0E0B0E08093F3229093F422A093F52276
:101FB000B093F6228091EB229091EC22A091ED2239
:101FC000B091EE228093472390934823A093492316
:101FD000B0934A2308956330A1F5809147239091EF
:101FE0004823A0914923B0914A238093F3229093F0
:101FF000F422A093F522B093F6220895863009F5D5
:10200000613059F48091A4068F7E8093A40680915C
:10201000A40688608093A4060895623059F48091E4
:10202000A406877F8093A4068091840680618093B4
:1020300084060895633029F48091A4068861809312
:10204000A40608954F925F926F927F928F929F9213
:10205000AF92BF92CF92DF92EF92FF920F931F93B6
:10206000DF93CF93CDB7DEB7462E992787FD9095A6
:10207000552447FC5094652C752CE2E6F0E0BF0136
:10208000869FF001879FF00D969FF00D1124EF5F62
:10209000FE4D448E558E668E778E552747FD5095A2
:1020A000652F752F40A351A362A373A3332727FD88
:1020B0003095432F532FE05CFF4F208331834283C1
:1020C0005383E054F040222717FD2095322F008BD8
:1020D000118B228B338BC701AA2797FDA095BA2FAE
:1020E00080A791A7A2A7B3A7EE24D7FCE094FE2C6B
:1020F000C0AED1AEE2AEF3AEC501AA2797FDA09562
:10210000BA2FE45BFF4F80839183A283B383EC54A7
:10211000F040AA2497FCA094BA2C848A958AA68AB7
:10212000B78ACF91DF911F910F91FF90EF90DF90D1
:10213000CF90BF90AF909F908F907F906F905F9067
:102140004F9008952F923F924F925F926F927F929D
:102150008F929F92AF92BF92CF92DF92EF92FF92B7
:102160000F931F938FE590E0A0E0B0E080931D21D6
:1021700090931E21A0931F21B0932021F5E02F2ED4
:10218000312C412C512C209221213092222140923D
:1021900023215092242124E630E040E050E02093B7
:1021A000412130934221409343215093442161E1E6
:1021B00071E2FB018EE591E0A0E0B0E081939193A4
:1021C000A193B193BF01E2E36E2EE2E07E2E812C5B
:1021D000912C6092292170922A2180922B21909239
:1021E0002C219CE2A92E91E0B92EC12CD12CA092D9
:1021F0003921B0923A21C0923B21D0923C2188E50E
:10220000E82E82E0F82E012D112DE0924D21F09262
:102210004E2100934F2110935021DB011D921D92FE
:102220001D921C921397685F7F4F20937F213093FC
:102230008021409381215093822182E090E0A0E0B0
:10224000B0E08093832190938421A0938521B09363
:1022500086212093A3213093A4214093A52150935C
:10226000A62184EF91E0A0E0B0E0809373219093E9
:102270007421A0937521B093762160928B21709286
:102280008C2180928D2190928E21A0929B21B092E0
:102290009C21C0929D21D0929E218093AF2190934A
:1022A000B021A093B121B093B22110927721109266
:1022B00078211092792110927A212093E121309394
:1022C000E2214093E3215093E4212092E5213092D2
:1022D000E6214092E7215092E82120930522309395
:1022E000062240930722509308228093D521909391
:1022F000D621A093D721B093D8216092ED2170927E
:10230000EE218092EF219092F021A092FD21B092D7
:10231000FE21C092FF21D0920022E0921122F09281
:10232000122200931322109314221092D92110929A
:10233000DA211092DB211092DC212093432230938A
:1023400044224093452250934622209247223092C5
:1023500048224092492250924A2220936722309389
:1023600068224093692250936A2280933722909387
:102370003822A0933922B0933A2260924F22709271
:1023800050228092512290925222A0925F22B092CB
:102390006022C0926122D0926222E0927322F09277
:1023A0007422009375221093762210923B22109291
:1023B0003C2210923D2210923E2280E590E0A0E067
:1023C000B0E08093A5229093A622A093A722B09379
:1023D000A8222092A9223092AA224092AB225092A7
:1023E000AC2228E730E040E050E02093C92230934F
:1023F000CA224093CB225093CC228EE591E0A0E0FC
:10240000B0E08093992290939A22A0939B22B0935C
:102410009C228093B1229093B222A093B322B093D6
:10242000B42280E991E0A0E0B0E08093C1229093D3
:10243000C222A093C322B093C422E092D522F0928C
:10244000D6220093D7221093D82210929D22109268
:102450009E2210929F221092A0228CE390E0A0E096
:10246000B0E08093072390930823A0930923B093AF
:102470000A2320920B2330920C2340920D2350927A
:102480000E2320932B2330932C2340932D23509302
:102490002E238EE591E0A0E0B0E08093FB229093A4
:1024A000FC22A093FD22B093FE226092132370922F
:1024B00014238092152390921623A0922323B09286
:1024C0002423C0922523D0922623E0923723F09232
:1024D00038230093392310933A231092FF2210924D
:1024E0000023109201231092022308E813E10093C5
:1024F00024261093252628E833E140E050E020937D
:102500005D2130935E2140935F2150936021809143
:102510005D2190915E21A0915F21B0916021FB012E
:102520007C9780839183A283B38380819181A281F0
:10253000B38164517040FB0180839183A283B38394
:1025400000932626109327262093BF213093C02185
:102550004093C1215093C2218091BF219091C0210D
:10256000A091C121B091C2218093632190936421F5
:10257000A0936521B093662180916321909164219D
:10258000A0916521B091662180936B2190936C217D
:10259000A0936D21B0936E210093282610932926D5
:1025A00020932122309322224093232250932422ED
:1025B0008091212290912222A0912322B091242265
:1025C0008093C5219093C621A093C721B093C821C1
:1025D0008091C5219091C621A091C721B091C821B9
:1025E0008093CD219093CE21A093CF21B093D02181
:1025F0000093222610932326209383223093842253
:102600004093852250938622809183229091842248
:10261000A0918522B0918622809327229093282230
:10262000A0932922B0932A228091272290912822D8
:10263000A0912922B0912A2280932F2290933022B8
:10264000A0933122B093322200932C2610932D2692
:102650002093E5223093E6224093E7225093E8222C
:102660008091E5229091E622A091E722B091E822A4
:102670008093892290938A22A0938B22B0938C22FC
:102680008091892290918A22A0918B22B0918C22F4
:102690008093912290939222A0939322B0939422BC
:1026A00000932E2610932F26209347233093482300
:1026B0004093492350934A23809147239091482384
:1026C000A0914923B0914A238093EB229093EC226E
:1026D000A093ED22B093EE228091EB229091EC2218
:1026E000A091ED22B091EE228093F3229093F422F8
:1026F000A093F522B093F62281E08093612180932C
:10270000C32180932522809387228093E92280939E
:102710004B238AE0809362218093C42180932622F8
:10272000809388228093EA2280934C231F910F91FB
:10273000FF90EF90DF90CF90BF90AF909F908F90E1
:102740007F906F905F904F903F902F9008952F92C1
:102750003F924F925F926F927F928F929F92AF9231
:10276000BF92CF92DF92EF92FF920F931F93DF936E
:10277000CF93CDB7DEB76897CDBFDEBFE0900D2118
:10278000F0900E2100910F2110911021ED8AFE8A08
:102790000F8B188F00911521109116212091172170
:1027A00030911821098B1A8B2B8B3C8B20916F2138
:1027B0003091702140917121509172212D873E8777
:1027C0004F87588B8091772190917821A091792122
:1027D000B0917A2189879A87AB87BC87E090D12115
:1027E000F090D2210091D3211091D421ED82FE826C
:1027F0000F8318870091D9211091DA212091DB21D4
:102800003091DC2109831A832B833C83209033226F
:1028100030903422409035225090362260903B22F6
:1028200070903C2280903D2290903E2220919522F3
:1028300030919622409197225091982280919D222A
:1028400090919E22A0919F22B091A022A090F72269
:10285000B090F822C090F922D090FA22E090FF22A6
:10286000F0900023009101231091022370E060E0BA
:1028700082179307A407B5070CF061E080E0EA1423
:10288000FB040C051D050CF081E0962F980F80E0ED
:1028900062147304840495040CF081E0980F80E0C6
:1028A0002D813E814F815885E980FA800B811C8102
:1028B000E216F306040715070CF081E0980F80E09C
:1028C0002D853E854F855889E984FA840B851C85C2
:1028D000E216F306040715070CF081E0890F90E07B
:1028E0002D893E894F89588DE988FA880B891C8982
:1028F000E216F306040715070CF091E0890F863005
:1029000009F471E0872F6896CDBFDEBFCF91DF91CC
:102910001F910F91FF90EF90DF90CF90BF90AF90FD
:102920009F908F907F906F905F904F903F902F90EF
:1029300008952F923F924F925F926F927F928F9263
:102940009F92AF92BF92CF92DF92EF92FF920F933E
:102950001F93DF93CF93CDB7DEB76097CDBFDEBFB8
:10296000E0900D21F0900E2100910F211091102187
:10297000ED86FE860F87188B009115211091162188
:10298000209117213091182109871A872B873C87BE
:1029900020916F21309170214091712150917221CD
:1029A0002D833E834F8358878091772190917821A2
:1029B000A0917921B0917A2189839A83AB83BC83DA
:1029C0002090D1213090D2214090D3215090D42119
:1029D0006090D9217090DA218090DB219090DC21E9
:1029E0002091332230913422409135225091362269
:1029F00080913B2290913C22A0913D22B0913E22B9
:102A0000A0909522B0909622C0909722D0909822C4
:102A1000E0909D22F0909E2200919F221091A02292
:102A200070E060E082179307A407B5070CF061E03F
:102A300080E0EA14FB040C051D050CF081E0962FE4
:102A4000980F80E062147304840495040CF081E014
:102A5000980F80E0ED80FE800F81188529813A81F2
:102A60004B815C812E153F05400751070CF081E03A
:102A7000890F90E0ED84FE840F85188929853A85B9
:102A80004B855C852E153F05400751070CF091E002
:102A9000890F853009F471E0872F6096CDBFDEBFC6
:102AA000CF91DF911F910F91FF90EF90DF90CF902A
:102AB000BF90AF909F908F907F906F905F904F905E
:102AC0003F902F9008957F928F929F92AF92BF92E6
:102AD000CF92DF92EF92FF920F931F93CF93DF93EA
:102AE000109261211092C321109225221092872208
:102AF0001092E92210924B23E0E6F6E081E0868313
:102B000082E0858388E0868384E0858380E1868314
:102B100080E28583809164068F778093640680913C
:102B20006406806480936406809184068F7E80931F
:102B3000840680918406806280938406E0E0FAE057
:102B400080E092E080AF91AF82AF93AF84AF95AF5A
:102B500080933E0A90933F0AE0E0FBE080AF91AFA4
:102B600084E690E082AF93AF10E070E060E050E068
:102B700040E0A0E6B6E082E0782E8824839424E644
:102B800030E008E0902EF4E0AF2EE0E1BE2E00E24F
:102B900098E5C92E92E0D92E82EEE82E84E0F82E38
:102BA000C0E2D3E08091080787FF0BC015967C92A6
:102BB000159715968C9215972093242630932526E9
:102BC00011E08091080786FF0BC015969C9215971F
:102BD0001596AC921597209326263093272671E000
:102BE0008091E80687FD0BC01596BC921597159647
:102BF0000C931597C0922826D092292661E08091E7
:102C0000E80686FD0AC080916406806C80936406A5
:102C1000209322263093232651E08091080687FFD7
:102C20000AC080918406806380938406E0922C26FB
:102C3000F0922D2641E084E690E0FE013197F1F715
:102C40000197D9F7872F810F860F850F840F853065
:102C500009F0A8CF8091242690912526A0E0B0E02D
:102C600080935D2190935E21A0935F21B0936021BA
:102C700080915D2190915E21A0915F21B0916021B2
:102C80008093012190930221A0930321B09304210A
:102C90008091012190910221A0910321B091042102
:102CA0008093092190930A21A0930B21B0930C21CA
:102CB0008091262690912726A0E0B0E08093BF2146
:102CC0009093C021A093C121B093C2218091BF21D4
:102CD0009091C021A091C121B091C2218093632124
:102CE00090936421A0936521B09366218091632124
:102CF00090916421A0916521B091662180936B2110
:102D000090936C21A0936D21B0936E218091282621
:102D100090912926A0E0B0E0809321229093222276
:102D2000A0932322B09324228091212290912222E9
:102D3000A0912322B09124228093C5219093C62193
:102D4000A093C721B093C8218091C5219091C6213D
:102D5000A091C721B091C8218093CD219093CE211D
:102D6000A093CF21B093D021809122269091232649
:102D7000A0E0B0E08093832290938422A0938522E8
:102D8000B09386228091832290918422A091852203
:102D9000B09186228093272290932822A093292203
:102DA000B0932A228091272290912822A091292253
:102DB000B0912A2280932F2290933022A093312227
:102DC000B093322280912C2690912D26A0E0B0E085
:102DD0008093E5229093E622A093E722B093E82225
:102DE0008091E5229091E622A091E722B091E8221D
:102DF0008093892290938A22A0938B22B0938C2275
:102E00008091892290918A22A0918B22B0918C226C
:102E10008093912290939222A0939322B093942234
:102E200084E690E020E233E0F9013197F1F7019771
:102E3000D9F781E0809361218093C321809325227B
:102E4000809387228093E92284E690E020E233E0B9
:102E5000F9013197F1F70197D9F78AEF90E0A0E0F7
:102E6000B0E08093092190930A21A0930B21B093A5
:102E70000C2182EC91E0A0E0B0E080936B21909374
:102E80006C21A0936D21B0936E2126E930E040E0E3
:102E900050E02093CD213093CE214093CF21509309
:102EA000D0218CE291E0A0E0B0E080932F229093BB
:102EB0003022A0933122B09332222093912230937A
:102EC000922240939322509394220E949914882333
:102ED000E1F3809184068F7B809384068091840641
:102EE0008068809384068091080687FFFCCF8091DC
:102EF0008406806C8093840688EB9BE080932E266A
:102F000090932F2680912E2690912F26A0E0B0E05E
:102F10008093472390934823A0934923B0934A2357
:102F20008091472390914823A0914923B0914A234F
:102F30008093EB229093EC22A093ED22B093EE22AB
:102F40008091EB229091EC22A091ED22B091EE22A3
:102F50008093F3229093F422A093F522B093F6226B
:102F600084E690E020E233E0F9013197F1F7019730
:102F7000D9F781E080934B238EE997E0A0E0B0E0A1
:102F80008093F3229093F422A093F522B093F6223B
:102F90000E94A7138823E1F36CEA7DE06093242666
:102FA000709325262CEA3DE040E050E020935D211F
:102FB00030935E2140935F215093602180915D2189
:102FC00090915E21A0915F21B091602180930121B9
:102FD00090930221A0930321B093042180910121B9
:102FE00090910221A0910321B091042180930921A5
:102FF00090930A21A0930B21B0930C2186ED96E0CB
:10300000809326269093272686ED96E0A0E0B0E0F8
:103010008093BF219093C021A093C121B093C2217E
:103020008091BF219091C021A091C121B091C22176
:103030008093632190936421A0936521B0936621CE
:103040008091632190916421A0916521B0916621C6
:1030500080936B2190936C21A0936D21B0936E218E
:1030600080ED97E0809328269093292680ED97E0C5
:10307000A0E0B0E08093212290932222A09323220B
:10308000B09324228091212290912222A091232288
:10309000B09124228093C5219093C621A093C7218B
:1030A000B093C8218091C5219091C621A091C721DC
:1030B000B091C8218093CD219093CE21A093CF21B0
:1030C000B093D021609322267093232620938322ED
:1030D00030938422409385225093862280918322CC
:1030E00090918422A0918522B091862280932722FC
:1030F00090932822A0932922B0932A2280912722FC
:1031000090912822A0912922B0912A2280932F22E7
:1031100090933022A0933122B093322260932C26D8
:1031200070932D262093E5223093E6224093E722E8
:103130005093E8228091E5229091E622A091E72227
:10314000B091E8228093892290938A22A0938B22C7
:10315000B0938C228091892290918A22A0918B2217
:10316000B0918C228093912290939222A0939322EB
:10317000B093942284EC99E080932E2690932F268E
:1031800084EC99E0A0E0B0E080934723909348233B
:10319000A0934923B0934A238091472390914823D9
:1031A000A0914923B0914A238093EB229093EC2283
:1031B000A093ED22B093EE228091EB229091EC222D
:1031C000A091ED22B091EE228093F3229093F4220D
:1031D000A093F522B093F622DF91CF911F910F912A
:1031E000FF90EF90DF90CF90BF90AF909F908F9027
:1031F0007F9008959091F4208091F620981719F40B
:10320000E0E0F0E012C0983211F41092F4208091C6
:10321000F420E82FF0E0EE0FFF1FE053FA4D01908D
:10322000F081E02D8F5F8093F420CF0108955F92AD
:103230006F927F928F929F92AF92BF92CF92DF92C6
:10324000EF92FF920F931F93CF93DF930E94FA1890
:10325000009721F08093F2209093F3208091F22048
:103260009091F320019721F480E061E00E94430EE9
:103270008091F2209091F320029741F480E063E086
:103280000E94430E1092F2201092F3208091F220BF
:103290009091F320039721F480E062E00E94430EB6
:1032A0008091F2209091F32089559B4121F481E097
:1032B00061E00E94430E8091F2209091F3208A55A4
:1032C0009B4141F481E063E00E94430E1092F220A2
:1032D0001092F3208091F2209091F3208B559B4126
:1032E00021F481E062E00E94430E8091F2209091EF
:1032F000F320815B964321F482E061E00E94430E5B
:103300008091F2209091F320825B964341F482E019
:1033100063E00E94430E1092F2201092F3208091FD
:10332000F2209091F320835B964321F482E062E0E7
:103330000E94430E8091F2209091F3208950924593
:1033400021F483E061E00E94430E8091F22090918D
:10335000F3208A50924541F483E063E00E94430EDB
:103360001092F2201092F3208091F2209091F3209D
:103370008B50924521F483E062E00E94430E8091DD
:10338000F2209091F32081569D4621F484E061E083
:103390000E94430E8091F2209091F32082569D4628
:1033A00041F484E063E00E94430E1092F2201092F8
:1033B000F3208091F2209091F32083569D4621F4D2
:1033C00084E062E00E94430E8091F2209091F3200D
:1033D000895B984821F485E061E00E94430E80916A
:1033E000F2209091F3208A5B984841F485E063E0F5
:1033F0000E94430E1092F2201092F3208091F2204E
:103400009091F3208B5B984821F485E062E00E9464
:10341000430E8091A80685FD19C08091F2209091FD
:10342000F32081589B4B91F480912026813071F4D8
:103430001092F2201092F32086E063E00E94430E87
:1034400080EB98E06BE770E00E94D82E8091A80690
:1034500085FD19C08091F2209091F32083589B4BF9
:1034600091F480912026823071F41092F220109213
:10347000F32086E063E00E94430E80EB98E06AE967
:1034800070E00E94D82E8091F2209091F320815814
:103490009B4B69F486E061E00E94430E8091A80690
:1034A00085FF05C081E0809320261092EB2080915B
:1034B000F2209091F32082589B4B41F486E063E028
:1034C0000E94430E1092F2201092F3208091F2207D
:1034D0009091F32083589B4B69F486E062E00E9450
:1034E000430E8091A80685FF05C082E080932026C8
:1034F0001092EB202091F2203091F320C901049723
:1035000084559B4178F4C901A0E0B0E08093092183
:1035100090930A21A0930B21B0930C211092F220DA
:103520001092F3202091F2203091F320C9018C55A4
:103530009B4184559B4188F428553B41C901A0E03B
:10354000B0E080936B2190936C21A0936D21B09398
:103550006E211092F2201092F3202091F2203091EF
:10356000F320C901845B964384559B4188F4205B1A
:103570003643C901A0E0B0E08093CD219093CE21E5
:10358000A093CF21B093D0211092F2201092F3207B
:103590002091F2203091F320C9018C50924584553E
:1035A0009B4188F428503245C901A0E0B0E08093E7
:1035B0002F2290933022A0933122B0933222109286
:1035C000F2201092F3202091F2203091F320C901D3
:1035D00084569D4684559B4188F420563D46C9013A
:1035E000A0E0B0E08093912290939222A093932246
:1035F000B09394221092F2201092F3202091F220A6
:103600003091F320C9018C5B984884559B4198F414
:10361000C901A0E0B0E0885B9848A040B04080932A
:10362000F3229093F422A093F522B093F622109205
:10363000F2201092F3202091F2203091F320C90162
:103640008251944A865E934098F4C901A0E0B0E0AC
:103650008051944AA040B04080934D2190934E21D8
:10366000A0934F21B09350211092F2201092F3209A
:103670002091F2203091F320C9018A5F974A865E3B
:10368000934098F4C901A0E0B0E0885F974AA04059
:10369000B0408093AF219093B021A093B121B0931B
:1036A000B2211092F2201092F3202091F22030915A
:1036B000F320C901825E9B4A865E934098F4C9015B
:1036C000A0E0B0E0805E9B4AA040B0408093112211
:1036D00090931222A0931322B09314221092F220FE
:1036E0001092F3202091F2203091F320C9018A5CDE
:1036F0009F4A865E934098F4C901A0E0B0E0885CE0
:103700009F4AA040B0408093732290937422A0936C
:103710007522B09376221092F2201092F32020911D
:10372000F2203091F320C901825B934B865E934077
:1037300098F4C901A0E0B0E0805B934BA040B0409A
:103740008093D5229093D622A093D722B093D822EB
:103750001092F2201092F3202091F2203091F32069
:10376000C9018A59974B865E934098F4C901A0E03D
:10377000B0E08859974BA040B04080933723909396
:103780003823A0933923B0933A231092F220109259
:10379000F3202091F2203091F320C90184589B4BF3
:1037A000845E934050F420583B4BE0E0FBE024AFB4
:1037B00035AF1092F2201092F3208091F220909178
:1037C000F3208E569F4B09F088C010924D23109223
:1037D000F2201092F32010E055246624772400E0B4
:1037E000AA24BB24EE24FF24CC24DD24C0E0D0E0B6
:1037F0000E94FA188093F2209093F320009709F426
:1038000069C0112349F4582E5A941092F220109254
:10381000F320CE0111E05FC0113041F4682E109208
:10382000F2201092F320CE0112E055C0123041F484
:10383000782E1092F2201092F320CE0113E04BC0AC
:10384000133041F4082F1092F2201092F320CE0191
:1038500014E041C0143041F41092F2201092F32091
:103860005C01CE0115E037C0153041F41092F22012
:103870001092F3207C01CE0116E02DC0163041F4E9
:103880001092F2201092F3206C01CE0117E023C0B9
:10389000173031F41092F2201092F32018E01BC080
:1038A0001830C1F44C010894810891081092F2205C
:1038B0001092F3200E94412AB40180E090E00E941F
:1038C000A12A852D662D472D202F85015E010E949E
:1038D000221003C0CE01EC018BCF8091F220909199
:1038E000F3208D569F4B31F40E9463151092F22005
:1038F0001092F3208091F2209091F3208F569F4BED
:1039000061F4609124267091252680EB98E00E9456
:10391000D82E1092F2201092F3208091F2209091F4
:10392000F32080579F4B61F46091262670912726E3
:1039300080EB98E00E94D82E1092F2201092F32093
:103940008091F2209091F32081579F4B61F4609118
:1039500028267091292680EB98E00E94D82E10929C
:10396000F2201092F3208091F2209091F320825760
:103970009F4B61F4609122267091232680EB98E0A2
:103980000E94D82E1092F2201092F3208091F22003
:103990009091F32083579F4B61F460912C26709196
:1039A0002D2680EB98E00E94D82E1092F2201092E3
:1039B000F3208091F2209091F32084579F4B61F483
:1039C00060912E2670912F2680EB98E00E94D82ED1
:1039D0001092F2201092F3208091F2209091F32027
:1039E0008E579F4B09F09CC060912426709125262C
:1039F00080EB98E00E94D82E20914D2130914E21ED
:103A000040914F215091502180EB98E0B9010E94E4
:103A1000D82E609126267091272680EB98E00E9490
:103A2000D82E2091AF213091B0214091B1215091F9
:103A3000B22180EB98E0B9010E94D82E609128262F
:103A40007091292680EB98E00E94D82E20911122B7
:103A500030911222409113225091142280EB98E071
:103A6000B9010E94D82E609122267091232680EB06
:103A700098E00E94D82E20917322309174224091B8
:103A800075225091762280EB98E0B9010E94D82EE1
:103A900060912C2670912D2680EB98E00E94D82E04
:103AA0002091D5223091D6224091D7225091D82210
:103AB00080EB98E0B9010E94D82E60912E2670917B
:103AC0002F2680EB98E00E94D82E2091372330914A
:103AD00038234091392350913A2380EB98E0B90183
:103AE0000E94D82E80EB98E061E070E00E94D82E12
:103AF00060913C0B70913D0B80EB98E00E94D82EBA
:103B000080EB98E062E070E00E94D82E80EB98E0B5
:103B10006BE070E00E94D82E1092F2201092F320F9
:103B20008091F2209091F32085579F4B09F04FC26E
:103B300010924D2310924F231092F2201092F320F6
:103B400068E0A62E57E0E52E46E0D42E35E0C32EE1
:103B500024E0B22E13E002E0FF24F3942091F2203F
:103B60003091F3202115310509F412C180914D23C4
:103B7000882379F4E0914F23F0E095E0EE0FFF1FEA
:103B80009A95E1F7E05BFC4D20833183F0924D2361
:103B9000FBC0813079F4E0914F23F0E085E0EE0F37
:103BA000FF1F8A95E1F7EE5AFC4D20833183009385
:103BB0004D23EAC0823079F4E0914F23F0E0B5E084
:103BC000EE0FFF1FBA95E1F7EC5AFC4D20833183CD
:103BD00010934D23D9C0833079F4E0914F23F0E066
:103BE000A5E0EE0FFF1FAA95E1F7E05BFC4D2683F1
:103BF0003783B0924D23C8C0843079F4E0914F23CD
:103C0000F0E075E0EE0FFF1F7A95E1F7E85AFC4D02
:103C100020833183C0924D23B7C0853079F4E09181
:103C20004F23F0E065E0EE0FFF1F6A95E1F7E05BE0
:103C3000FC4D22873387D0924D23A6C0863079F47D
:103C4000E0914F23F0E055E0EE0FFF1F5A95E1F7AA
:103C5000E05BFC4D24873587E0924D2395C087308B
:103C600079F4E0914F23F0E045E0EE0FFF1F4A9515
:103C7000E1F7E05BFC4D26873787A0924D2384C097
:103C8000883069F4E0914F23F0E095E0EE0FFF1FDC
:103C90009A95E1F7E05AFC4D2083318359C0893071
:103CA00069F4E0914F23F0E085E0EE0FFF1F8A9565
:103CB000E1F7E05BFC4D228B338B4AC08A3069F41C
:103CC000E0914F23F0E0B5E0EE0FFF1FBA95E1F76A
:103CD000E05BFC4D248B358B3BC08B3069F4E0916D
:103CE0004F23F0E0A5E0EE0FFF1FAA95E1F7E05BA0
:103CF000FC4D268B378B2CC08C3069F4E0914F2320
:103D0000F0E075E0EE0FFF1F7A95E1F7E05BFC4D08
:103D1000208F318F1DC08D3069F4E0914F23F0E08A
:103D200065E0EE0FFF1F6A95E1F7E05BFC4D228F27
:103D3000338F0EC08E3091F4E0914F23F0E055E0C8
:103D4000EE0FFF1F5A95E1F7E05BFC4D248F358F96
:103D500080914D238F5F80934D2316C08F30C1F427
:103D600080914F23E82FF0E045E0EE0FFF1F4A95CA
:103D7000E1F7E05BFC4D268F378F10924D238F5F6C
:103D800080934F23809321261092F2201092F320EB
:103D90000E94FA188093F2209093F32086579F4B4D
:103DA00009F0DCCE10924D230BC180EB98E067E662
:103DB0007BE20E94D82EE0914D23F0E025E0EE0F4B
:103DC000FF1F2A95E1F7E05BFC4D6081718180EB7C
:103DD00098E00E94D82EE0914D23F0E095E0EE0FA0
:103DE000FF1F9A95E1F7EE5AFC4D6081718180EBDF
:103DF00098E00E94D82EE0914D23F0E085E0EE0F90
:103E0000FF1F8A95E1F7EC5AFC4D6081718180EBD0
:103E100098E00E94D82EE0914D23F0E005E0EE0FEF
:103E2000FF1F0A95E1F7E05BFC4D6681778180EB2F
:103E300098E00E94D82EE0914D23F0E015E0EE0FBF
:103E4000FF1F1A95E1F7E85AFC4D6081718180EB04
:103E500098E00E94D82EE0914D23F0E0B5E0EE0FFF
:103E6000FF1FBA95E1F7E05BFC4D6285738580EB3F
:103E700098E00E94D82EE0914D23F0E0A5E0EE0FEF
:103E8000FF1FAA95E1F7E05BFC4D6485758580EB2B
:103E900098E00E94D82EE0914D23F0E075E0EE0FFF
:103EA000FF1F7A95E1F7E05BFC4D6685778580EB37
:103EB00098E00E94D82EE0914D23F0E065E0EE0FEF
:103EC000FF1F6A95E1F7E05AFC4D6081718180EB3C
:103ED00098E00E94D82EE0914D23F0E055E0EE0FDF
:103EE000FF1F5A95E1F7E05BFC4D6289738980EB17
:103EF00098E00E94D82EE0914D23F0E045E0EE0FCF
:103F0000FF1F4A95E1F7E05BFC4D6489758980EB02
:103F100098E00E94D82EE0914D23F0E035E0EE0FBE
:103F2000FF1F3A95E1F7E05BFC4D6689778980EBEE
:103F300098E00E94D82EE0914D23F0E025E0EE0FAE
:103F4000FF1F2A95E1F7E05BFC4D608D718D80EBE2
:103F500098E00E94D82EE0914D23F0E095E0EE0F1E
:103F6000FF1F9A95E1F7E05BFC4D628D738D80EB4E
:103F700098E00E94D82EE0914D23F0E085E0EE0F0E
:103F8000FF1F8A95E1F7E05BFC4D648D758D80EB3A
:103F900098E00E94D82EE0914D23F0E005E0EE0F6E
:103FA000FF1F0A95E1F7E05BFC4D668D778D80EB96
:103FB00098E00E94D82E80914D238F5F80934D23EF
:103FC00090914D2380914F23981708F4EECE809165
:103FD000F2209091F32087579F4B09F00CC110926B
:103FE0004E23DD24D394E12C1BE0F12E00E213E0FC
:103FF000F7C0D0922B2630E0E901B5E0CC0FDD1FF1
:10400000BA95E1F7C05BDC4D88819981A0E0B0E012
:104010008093092190930A21A0930B21B0930C2146
:10402000F901A5E0EE0FFF1FAA95E1F7EE5AFC4D4E
:1040300080819181A0E0B0E080934D2190934E214A
:10404000A0934F21B0935021F90175E0EE0FFF1FAF
:104050007A95E1F7EC5AFC4D80819181A0E0B0E0C7
:1040600080936B2190936C21A0936D21B0936E216E
:104070008E819F81A0E0B0E08093AF219093B0212A
:10408000A093B121B093B22165E0220F331F6A954E
:10409000E1F7F901E85AFC4D80819181A0E0B0E0A0
:1040A0008093CD219093CE21A093CF21B093D021A6
:1040B0008A859B85A0E0B0E0809311229093122224
:1040C000A0931322B09314228C859D85A0E0B0E0CC
:1040D00080932F2290933022A0933122B0933222EA
:1040E0008E859F85A0E0B0E0809373229093742228
:1040F000A0937522B0937622205A3C4DF90180811D
:104100009181A0E0B0E08093912290939222A093BD
:104110009322B09394228A899B89A0E0B0E0809397
:10412000D5229093D622A093D722B093D8228C89FF
:104130009D89A0E0B0E08093F3229093F422A093B5
:10414000F522B093F6228E899F89A0E0B0E080939B
:10415000372390933823A0933923B0933A23288DA3
:104160002093E9208A8D9B8DF70184AF95AF223093
:1041700089F486E061E00E94430E1092EB20D09219
:1041800020268091A80685FDFCCF86E063E00E9492
:10419000430E0DC0233059F48C8D8093EB2086E0C4
:1041A00062E00E94430E80912B268823E1F3609108
:1041B0004E2370E06F5F7F4F80EB98E00E94D82E17
:1041C00084E690E0F8013197F1F70197D9F70E9462
:1041D000A7138823E1F380914E238F5F80934E23B2
:1041E00020914E2380912126281708F402CF1092A7
:1041F000F2201092F3202091F2203091F320C90197
:1042000088579F4B069708F0E3C0C901A0E0B0E0D3
:1042100088579F4BA040B04002E610E0809FF0011D
:10422000819FF00D909FF00D1124EF5FFE4D248DC6
:10423000358D468D578D80EB98E0B9010E94D82EC0
:104240008091F2209091F320A0E0B0E088579F4B3E
:10425000A040B040809FF001819FF00D909FF00D35
:104260001124EF5FFE4D20A131A142A153A180EBAB
:1042700098E0B9010E94D82E8091F2209091F3200D
:10428000A0E0B0E088579F4BA040B040809FF00175
:10429000819FF00D909FF00D1124EF5BFE4D20816A
:1042A00031814281538180EB98E0B9010E94D82E80
:1042B0008091F2209091F320A0E0B0E088579F4BCE
:1042C000A040B040809FF001819FF00D909FF00DC5
:1042D0001124EF5FFE4D208931894289538980EB9B
:1042E00098E0B9010E94D82E8091F2209091F3209D
:1042F000A0E0B0E088579F4BA040B040809FF00105
:10430000819FF00D909FF00D1124EF5FFE4D20A5D1
:1043100031A542A553A580EB98E0B9010E94D82EA3
:104320008091F2209091F320A0E0B0E088579F4B5D
:10433000A040B040809FF001819FF00D909FF00D54
:104340001124EF5FFE4D20AD31AD42AD53AD80EB9A
:1043500098E0B9010E94D82E8091F2209091F3202C
:10436000A0E0B0E088579F4BA040B040809FF00194
:10437000819FF00D909FF00D1124E35BFE4D208195
:1043800031814281538180EB98E0B9010E94D82E9F
:104390008091F2209091F320A0E0B0E088579F4BED
:1043A000A040B040809FF001819FF00D909FF00DE4
:1043B0001124EF5FFE4D248935894689578980EBAA
:1043C00098E0B9010E94D82E1092F2201092F320AA
:1043D0008091F2209091F3208055934C19F482E063
:1043E0008093EB208091F2209091F3208853974C9A
:1043F00011F41092EB208091F2209091F3208F57CE
:104400009F4B09F085C081E080932B264CEAE42E77
:104410004DE0F42E012D112DE0920921F0920A2198
:1044200000930B2110930C2128E532E040E050E08E
:1044300020934D2130934E2140934F215093502192
:1044400086ED96E0A0E0B0E080936B2190936C2124
:10445000A0936D21B0936E2184EF91E0A0E0B0E0D5
:104460008093AF219093B021A093B121B093B2215A
:1044700080ED97E0A0E0B0E08093CD219093CE2135
:10448000A093CF21B093D0212093112230931222F8
:104490004093132250931422E0922F22F092302264
:1044A000009331221093322220937322309374228E
:1044B0004093752250937622E0929122F0929222BC
:1044C000009393221093942280E991E0A0E0B0E061
:1044D0008093D5229093D622A093D722B093D8224E
:1044E00084EC99E0A0E0B0E08093F3229093F42272
:1044F000A093F522B093F6222093372330933823EC
:104500004093392350933A231092F2201092F320D3
:104510008091F2209091F32080589F4B09F0A4C025
:1045200081E080932B2687E493E1A0E0B0E08093C4
:10453000092190930A21A0930B21B0930C2128E527
:1045400032E040E050E020934D2130934E214093E3
:104550004F215093502186EB98E0A0E0B0E080938B
:104560006B2190936C21A0936D21B0936E212093C9
:10457000AF213093B0214093B1215093B22180E418
:104580009BE0A0E0B0E08093CD219093CE21A0935A
:10459000CF21B093D0212093112230931222409347
:1045A0001322509314228CEA9DE0A0E0B0E08093A7
:1045B0002F2290933022A0933122B0933222209365
:1045C0007322309374224093752250937622809305
:1045D000912290939222A0939322B09394222093BD
:1045E000D5223093D6224093D7225093D82284EC00
:1045F00099E0A0E0B0E08093F3229093F422A0939E
:10460000F522B093F622209337233093382340933A
:10461000392350933A2384E690E020E233E0F90115
:104620003197F1F70197D9F70E94A7138823E1F397
:104630008BE39BE0A0E0B0E080936B2190936C2132
:10464000A0936D21B0936E2184EF91E0A0E0B0E0E3
:104650008093AF219093B021A093B121B093B22168
:104660001092F2201092F3208091F2209091F3208A
:1046700081589F4B09F040C181E080932B2687E44D
:1046800093E1809324269093252687E493E1A0E08C
:10469000B0E08093092190930A21A0930B21B0935D
:1046A0000C2128E532E040E050E020934D2130938A
:1046B0004E2140934F21509350218BE39BE08093F8
:1046C0002626909327268BE39BE0A0E0B0E0809322
:1046D0006B2190936C21A0936D21B0936E2184EF98
:1046E00091E0A0E0B0E08093AF219093B021A0933F
:1046F000B121B093B22180E49BE08093282690936F
:10470000292680E49BE0A0E0B0E08093CD21909347
:10471000CE21A093CF21B093D021209311223093AA
:10472000122240931322509314226CEA7DE060938E
:104730002226709323268CEA9DE0A0E0B0E08093CF
:104740002F2290933022A0933122B09332222093D3
:104750007322309374224093752250937622609393
:104760002C2670932D268093912290939222A093D1
:104770009322B09394222093D5223093D622409353
:10478000D7225093D82284EC99E080932E269093E0
:104790002F2684EC99E0A0E0B0E08093F322909380
:1047A000F422A093F522B093F6222093372330937E
:1047B00038234093392350933A2386EB98E0A0E0C6
:1047C000B0E080936B2190936C21A0936D21B09306
:1047D0006E212093AF213093B0214093B1215093AB
:1047E000B22184E690E020E233E0F9013197F1F75D
:1047F0000197D9F70E94A7138823E1F33CEAE32E3F
:104800003DE0F32E012D112DE0920921F0920A21B5
:1048100000930B2110930C2128E532E040E050E09A
:1048200020934D2130934E2140934F21509350219E
:1048300086ED96E0A0E0B0E080936B2190936C2130
:10484000A0936D21B0936E2184EF91E0A0E0B0E0E1
:104850008093AF219093B021A093B121B093B22166
:1048600080ED97E0A0E0B0E08093CD219093CE2141
:10487000A093CF21B093D021209311223093122204
:104880004093132250931422E0922F22F092302270
:10489000009331221093322220937322309374229A
:1048A0004093752250937622E0929122F0929222C8
:1048B00000939322109394222093D5223093D622F2
:1048C0004093D7225093D82284EC99E0A0E0B0E046
:1048D0008093F3229093F422A093F522B093F622D2
:1048E00020933723309338234093392350933A232E
:1048F0001092F2201092F3208091F2209091F320F8
:1049000082589F4B09F09DC082E493E1A0E0B0E0A3
:104910008093092190930A21A0930B21B0930C213D
:1049200084E893E0A0E0B0E080934D2190934E2185
:10493000A0934F21B093502184E690E020E233E031
:10494000F9013197F1F70197D9F70E94A71388234E
:10495000E1F38AEA9AE0A0E0B0E080936B219093C3
:104960006C21A0936D21B0936E218EE591E0A0E0C3
:10497000B0E08093AF219093B021A093B121B09388
:10498000B22182E699E0A0E0B0E08093CD2190933F
:10499000CE21A093CF21B093D02180E991E0A0E077
:1049A000B0E08093112290931222A0931322B0932F
:1049B00014228CEA9DE0A0E0B0E080932F22909337
:1049C0003022A0933122B093322228E532E040E039
:1049D00050E02093732230937422409375225093B9
:1049E000762286EA9EE0A0E0B0E080939122909348
:1049F0009222A0939322B09394228CE291E0A0E0C3
:104A0000B0E08093D5229093D622A093D722B09382
:104A1000D82284EC99E0A0E0B0E08093F322909358
:104A2000F422A093F522B093F622209337233093FB
:104A300038234093392350933A231092F220109256
:104A4000F3208091F2209091F32083589F4B09F03E
:104A500030C18CEA9DE0A0E0B0E080939122909379
:104A60009222A0939322B093942288EC90E0A0E04D
:104A7000B0E08093D5229093D622A093D722B09312
:104A8000D82286ED96E0A0E0B0E080936B21909371
:104A90006C21A0936D21B0936E2184EF91E0A0E092
:104AA000B0E08093AF219093B021A093B121B09357
:104AB000B22184E690E020E233E0F9013197F1F78A
:104AC0000197D9F70E94A7138823E1F32CEA3DE070
:104AD00040E050E02093092130930A2140930B21BC
:104AE00050930C2188EE93E0A0E0B0E080934D213C
:104AF00090934E21A0934F21B093502180ED97E0E9
:104B0000A0E0B0E08093CD219093CE21A093CF215F
:104B1000B093D02184EF91E0A0E0B0E08093112227
:104B200090931222A0931322B093142220932F2249
:104B300030933022409331225093322288E592E024
:104B4000A0E0B0E08093732290937422A09375222A
:104B5000B093762284EC99E0A0E0B0E08093F32259
:104B60009093F422A093F522B093F6228CE291E088
:104B7000A0E0B0E08093372390933823A0933923AB
:104B8000B0933A2384E690E020E233E0F9013197D4
:104B9000F1F70197D9F70E94A7138823E1F32CEAD4
:104BA000E22E2DE0F22E012D112DE0920921F0923E
:104BB0000A2100930B2110930C2128E532E040E0FC
:104BC00050E020934D2130934E2140934F2150933C
:104BD00050218CE89AE0A0E0B0E080936B219093A4
:104BE0006C21A0936D21B0936E2180E991E0A0E04B
:104BF000B0E08093AF219093B021A093B121B09306
:104C0000B22188E49DE0A0E0B0E08093CD219093B4
:104C1000CE21A093CF21B093D02182EC91E0A0E0EF
:104C2000B0E08093112290931222A0931322B093AC
:104C30001422E0922F22F09230220093312210931E
:104C40003222209373223093742240937522509322
:104C5000762284E79EE0A0E0B0E0809391229093DA
:104C60009222A0939322B093942288EC90E0A0E04B
:104C7000B0E08093D5229093D622A093D722B09310
:104C8000D82284EC99E0A0E0B0E08093F3229093E6
:104C9000F422A093F522B093F62220933723309389
:104CA00038234093392350933A231092F2201092E4
:104CB000F3208091F2209091F3208A589F4B09F0C5
:104CC0003FC28CE493E1A0E0B0E08093092190938F
:104CD0000A21A0930B21B0930C2128E532E040E09B
:104CE00050E020934D2130934E2140934F2150931B
:104CF000502180EA9AE0A0E0B0E080936B2190938D
:104D00006C21A0936D21B0936E212093AF2130933D
:104D1000B0214093B1215093B22182E49EE0A0E003
:104D2000B0E08093CD219093CE21A093CF21B0937A
:104D3000D02182EC91E0A0E0B0E08093112290932A
:104D40001222A0931322B093142287E694E1A0E0EC
:104D5000B0E080932F2290933022A0933122B09321
:104D60003222209373223093742240937522509301
:104D700076228DE690E1A0E0B0E0809391229093BE
:104D80009222A0939322B09394228CE291E0A0E02F
:104D9000B0E08093D5229093D622A093D722B093EF
:104DA000D82287ED92E0A0E0B0E08093F3229093C8
:104DB000F422A093F522B093F62288EC90E0A0E0D4
:104DC000B0E08093372390933823A0933923B09396
:104DD0003A2380E29EE420E233E0F9013197F1F7D3
:104DE0000197D9F70E94A7138823E1F32CEA3DE04D
:104DF00040E050E02093092130930A2140930B2199
:104E000050930C218CEB92E0A0E0B0E080934D2118
:104E100090934E21A0934F21B093502186ED96E0C0
:104E2000A0E0B0E080936B2190936C21A0936D2162
:104E3000B0936E2184EF91E0A0E0B0E08093AF21C9
:104E40009093B021A093B121B093B22180ED97E06F
:104E5000A0E0B0E08093CD219093CE21A093CF210C
:104E6000B093D02188E592E0A0E0B0E080931122D9
:104E700090931222A0931322B093142220932F22F6
:104E80003093302240933122509332228093732208
:104E900090937422A0937522B0937622209391224E
:104EA00030939222409393225093942228EC30E046
:104EB00040E050E02093D5223093D6224093D72271
:104EC0005093D82284EC99E0A0E0B0E08093F322E4
:104ED0009093F422A093F522B093F62220933723E7
:104EE000309338234093392350933A2384E690E05B
:104EF00020E233E0F9013197F1F70197D9F70E94E9
:104F0000A7138823E1F384E398E0A0E0B0E0809366
:104F1000092190930A21A0930B21B0930C2180E2E8
:104F200093E0A0E0B0E080934D2190934E21A093B8
:104F30004F21B093502180EA9AE0A0E0B0E0809346
:104F40006B2190936C21A0936D21B0936E2128E585
:104F500032E040E050E02093AF213093B021409305
:104F6000B1215093B22182E49EE0A0E0B0E08093B2
:104F7000CD219093CE21A093CF21B093D02182EC6C
:104F800091E0A0E0B0E08093112290931222A093D0
:104F90001322B093142287E694E1A0E0B0E080935E
:104FA0002F2290933022A0933122B093322220936B
:104FB00073223093742240937522509376228DE6AB
:104FC00090E1A0E0B0E08093912290939222A09390
:104FD0009322B09394228CE291E0A0E0B0E0809321
:104FE000D5229093D622A093D722B093D82287EDD2
:104FF00092E0A0E0B0E08093F3229093F422A0939B
:10500000F522B093F62288EC90E0A0E0B0E0809327
:10501000372390933823A0933923B0933A2380E227
:105020009EE420E233E0F9013197F1F70197D9F7D7
:105030000E94A7138823E1F32CEA3DE040E050E012
:105040002093092130930A2140930B2150930C2186
:105050008CEB92E0A0E0B0E080934D2190934E2144
:10506000A0934F21B093502186ED96E0A0E0B0E0F0
:1050700080936B2190936C21A0936D21B0936E214E
:1050800084EF91E0A0E0B0E08093AF219093B02155
:10509000A093B121B093B22180ED97E0A0E0B0E001
:1050A0008093CD219093CE21A093CF21B093D02196
:1050B00088E592E0A0E0B0E0809311229093122264
:1050C000A0931322B093142220932F2230933022E6
:1050D0004093312250933222809373229093742212
:1050E000A0937522B093762220939122309392223E
:1050F000409393225093942228EC30E040E050E01B
:105100002093D5223093D6224093D7225093D82291
:1051100084EC99E0A0E0B0E08093F3229093F42235
:10512000A093F522B093F6222093372330933823AF
:105130004093392350933A231092F2201092F32097
:105140008091F2209091F32084589F4B29F5109282
:10515000EA208091EA2090E022E630E0829FF00190
:10516000839FF00D929FF00D1124EF5FFE4D80851F
:105170009185A285B3858C599F4FAF4FBF4F8087D4
:105180009187A287B38787E08093000880934009C6
:105190001092F2201092F3208091F2209091F3204F
:1051A00085589F4B31F581E08093EA208091EA2079
:1051B00090E022E630E0829FF001839FF00D929F05
:1051C000F00D1124EF5FFE4D80859185A285B3859A
:1051D0008C599F4FAF4FBF4F80879187A287B3876E
:1051E00087E080930008809340091092F22010928B
:1051F000F3208091F2209091F32086589F4B31F557
:1052000082E08093EA208091EA2090E022E630E07C
:10521000829FF001839FF00D929FF00D1124EF5FAC
:10522000FE4D80859185A285B3858C599F4FAF4FE8
:10523000BF4F80879187A287B38787E0809300085C
:10524000809340091092F2201092F3208091F22076
:105250009091F32087589F4B31F583E08093EA20AB
:105260008091EA2090E022E630E0829FF001839F67
:10527000F00D929FF00D1124EF5FFE4D808591851A
:10528000A285B3858C599F4FAF4FBF4F80879187C1
:10529000A287B38787E0809300088093400910922B
:1052A000F2201092F3208091F2209091F320885800
:1052B0009F4B31F584E08093EA208091EA2090E0D2
:1052C00022E630E0829FF001839FF00D929FF00D67
:1052D0001124EF5FFE4D80859185A285B3858C59A1
:1052E0009F4FAF4FBF4F80879187A287B38787E0DB
:1052F00080930008809340091092F2201092F320CE
:105300008091F2209091F32089589F4B31F585E0F0
:105310008093EA208091EA2090E022E630E0829FAC
:10532000F001839FF00D929FF00D1124EF5FFE4D71
:1053300080859185A285B3858C599F4FAF4FBF4F14
:1053400080879187A287B38787E080930008809346
:1053500040091092F2201092F320DF91CF911F911B
:105360000F91FF90EF90DF90CF90BF90AF909F9004
:105370008F907F906F905F900895282F80FF05C0D9
:1053800088E0E0E2F7E0858304C088E0E0E2F7E04F
:10539000868321FF05C084E0E0E2F7E0858304C056
:1053A00084E0E0E2F7E0868322FF05C082E0E0E2ED
:1053B000F7E0858304C082E0E0E2F7E0868323FF24
:1053C00005C081E0E0E2F7E08583089581E0E0E256
:1053D000F7E086830895EF92FF920F931F93182FA3
:1053E00080E2E82E87E0F82E00E1F7010583812FA7
:1053F00082958F700E94BD29F70106830000058306
:10540000812F0E94BD29F701068380E991E0019771
:10541000F1F71F910F91FF90EF90089590E2E0E275
:10542000F7E096830E94EB29089590E2E0E2F7E02E
:1054300095830E94EB290895CF93DF93EC0103C07D
:1054400021960E94152A88818823D1F7DF91CF9178
:105450000895CF93DF93EC0102C00E94152AFE014C
:10546000219684918823C9F7DF91CF9108956295A1
:10547000660F660F607C680F862F80680E940E2A78
:10548000089581E00E940E2A80E89EE30197F1F7DB
:105490000895AF92BF92CF92DF92EF92FF920F9357
:1054A0001F93CF93DF93E0E2F7E08FE3818380E403
:1054B0009CE90197F1F780E3868310E040E2E42E57
:1054C00047E0F42E30E1A32E20E1B22E90E4C92E65
:1054D0009CE9D92EC0E2D7E000E1F701B58283E074
:1054E0000E94BD29F701A682C6010197F1F71F5F4F
:1054F000133081F70D8382E00E94BD290E8380E482
:105500009FE10197F1F788E20E940E2A88E00E944D
:105510000E2A81E00E940E2A80E89EE30197F1F7AF
:1055200086E00E940E2A8CE00E940E2ADF91CF9125
:105530001F910F91FF90EF90DF90CF90BF90AF90B1
:105540000895AF92BF92DF92EF92FF920F931F9355
:10555000DF93CF93CDB7DEB72A97CDBFDEBF7B01F8
:105560008C01611571058105910521F480E30E948C
:10557000152A3BC05E010894A11CB11CDD24C801A2
:10558000B7012AE030E040E050E00E944D2FF501E5
:1055900061935F01C801B7012AE030E040E050E0CC
:1055A0000E944D2FC901DA017C018D01D394E114D1
:1055B000F1040105110519F7DA948D2D992787FD5E
:1055C0009095D3948E010F5F1F4F080F191F78011C
:1055D000ED18F10807C0F8018081805D0E94152A4E
:1055E000015010400E151F05B1F72A96CDBFDEBF42
:1055F000CF91DF911F910F91FF90EF90DF90BF90BF
:10560000AF9008951F920F920FB60F9208B60F92A7
:10561000112418BE8F939F938091E80683FF06C0E4
:105620008091242690912526019605C080912426FC
:1056300090912526019780932426909325269F916B
:105640008F910F9008BE0F900FBE0F901F9018956E
:105650001F920F920FB60F9208B60F92112418BE28
:105660008F939F938091E80685FF06C08091262640
:1056700090912726019605C0809126269091272695
:10568000019780932626909327269F918F910F90C4
:1056900008BE0F900FBE0F901F9018951F920F928B
:1056A0000FB60F9208B60F92112418BE8F939F93D6
:1056B0008091E80680FF06C08091282690912926D7
:1056C000019605C080912826909129260197809304
:1056D0002826909329269F918F910F9008BE0F90B6
:1056E0000FBE0F901F9018951F920F920FB60F923A
:1056F00008B60F92112418BE8F939F9380910807CC
:1057000084FF06C08091222690912326019705C030
:1057100080912226909123260196809322269093B1
:1057200023269F918F910F9008BE0F900FBE0F9070
:105730001F9018951F920F920FB60F9208B60F92F6
:10574000112418BE8F939F938091080780FF06C095
:1057500080912C2690912D26019705C080912C26B2
:1057600090912D26019680932C2690932D269F9123
:105770008F910F9008BE0F900FBE0F901F9018953D
:105780001F920F920FB60F9208B60F92112418BEF7
:105790008F939F938091080783FF06C080912E26E8
:1057A00090912F26019705C080912E2690912F264B
:1057B000019680932E2690932F269F918F910F9084
:1057C00008BE0F900FBE0F901F9018951F920F925A
:1057D0000FB60F9208B60F9209B60F920BB60F9242
:1057E000112418BE19BE1BBE2F933F934F935F9396
:1057F0006F937F938F939F93AF93BF93EF93FF9399
:105800000E94E52EFF91EF91BF91AF919F918F91F3
:105810007F916F915F914F913F912F910F900BBEB0
:105820000F9009BE0F9008BE0F900FBE0F901F90F3
:1058300018951F920F920FB60F9208B60F9209B6E5
:105840000F920BB60F92112418BE19BE1BBE2F93D8
:105850003F934F935F936F937F938F939F93AF93F8
:10586000BF93EF93FF9380E69AEEE0E0F9E080A328
:1058700091A30E943C018091EB20823089F48091B9
:10588000EC209091ED208E5A9D408A5D954040F429
:105890008091A40688618093A40681E080932B26E2
:1058A000FF91EF91BF91AF919F918F917F916F91F8
:1058B0005F914F913F912F910F900BBE0F9009BEBA
:1058C0000F9008BE0F900FBE0F901F9018951F925B
:1058D0000F920FB60F9208B60F9209B60F920BB641
:1058E0000F92112418BE19BE1BBE2F933F934F93E6
:1058F0005F936F937F938F939F93AF93BF93EF9338
:10590000FF93E0E4F9E010A211A2108210920008C7
:1059100080EB98E068E273E20E94D82EFF91EF914D
:10592000BF91AF919F918F917F916F915F914F91B7
:105930003F912F910F900BBE0F9009BE0F9008BEA4
:105940000F900FBE0F901F9018951F920F920FB6D9
:105950000F9208B60F9209B60F920BB60F92112450
:1059600018BE19BE1BBE2F933F934F935F936F9347
:105970007F938F939F93AF93BF93EF93FF9380EBAE
:105980009EEFE0E0F8E080A391A38091EA208823D5
:1059900029F460912426709125262CC08091EA205C
:1059A000813029F4609126267091272623C08091AA
:1059B000EA20823029F460912826709129261AC0A5
:1059C0008091EA20833029F4609122267091232669
:1059D00011C08091EA20843029F460912C267091C6
:1059E0002D2608C08091EA20853041F460912E2652
:1059F00070912F2680EB98E00E94D82EFF91EF91B6
:105A0000BF91AF919F918F917F916F915F914F91D6
:105A10003F912F910F900BBE0F9009BE0F9008BEC3
:105A20000F900FBE0F901F9018951F920F920FB6F8
:105A30000F9208B60F9209B60F920BB60F9211246F
:105A400018BE19BE1BBE2F933F934F935F936F9366
:105A50007F938F939F93AF93BF93EF93FF9388E9C7
:105A60009FEFE0E4F8E080A391A3809100218630CD
:105A700011F410920021809100210E94430880912E
:105A800000218F5F80930021FF91EF91BF91AF9133
:105A90009F918F917F916F915F914F913F912F9146
:105AA0000F900BBE0F9009BE0F9008BE0F900FBE57
:105AB0000F901F9018950E94F0010E94492A0E94A1
:105AC0000D0384E00E94E7028091080782FDFCCF6D
:105AD0000E94F0010E9495010E94C6020E947E026F
