:020000020000FC
:0400000011C0F5C076
:100024002224E0E6F0E002E0662721926A95E9F7EF
:100034000A95D9F702E00EBF0FE50DBF0F9300E05C
:10004400009361000F9106EC0ABB04E00BBB0DE3C7
:1000540007BB08E008BBC5987727332700E105BF35
:10006400A2D508F0D3D55CD5F0D3B8D07894CDD24E
:100074003FD1C598C2D3C59A48D140916400A0E746
:10008400B0E040D379D3F4CFFF91EF910F930F9267
:10009400EE0FFF1FC8953196002D003011F054D09B
:1000A400F9CFF695E7950F900F91EF93FF9308958D
:1000B400EF93FF93ECECF0E00F70E00F08F4F3958E
:1000C4000491FF91EF91089530313233343536374E
:1000D40038394142434445466F932F930F931F93FE
:1000E400102F66272227145610F02395FCCF1C5995
:1000F4001A5010F06395FCCF165F022FD9DF24D07D
:10010400062FD6DF21D0012FD3DF1ED01F910F91F0
:100114002F916F910895AF93BF930F930091640053
:10012400023671F0039500936400A0916200B091CF
:1001340063000F910D93A0936200B093630001C01C
:100144000F91BF91AF9108951F93109161001123F6
:1001540009F405C0123009F401C001C0DCDF1F91AD
:10016400089588E39FE10497F0F78D3F18F011F0AC
:100174008F3F01F008958F939F93F3DF0A95E9F77A
:100184009F918F9108950F931F932F932227169574
:1001940008F4200F2795179508F4200F2795179535
:1001A40008F4200F2795179508F4200F2795179525
:1001B40008F4200F2795179508F4200F2795179515
:1001C40008F4200F2795179508F4200F2795179505
:1001D400012E122E2F911F910F91089500E40ABF52
:1001E40005B70C7F026005BF089577FD70C00F93BB
:1001F4000FB70F931F932F938F939F933A3009F464
:1002040054C071D208F017C00993353009F437C0CF
:1002140053D3343009F42DC0333009F41DC03230C7
:1002240009F418C0313009F40EC0303009F40BC0A1
:1002340001E0009360009F918F912F911F910F9186
:100244000FBF0F9118950BB70F7B0BBF92E889E591
:100254002DD2F1CF33E0EFCF402F003009F40BC0A3
:10026400053610F434E0E7CF01E00093600031E09C
:10027400EACF4A9501F735E002E0402FDCCF4A95FA
:10028400D1F62091F100021759F40A910A912091B4
:10029400F000021729F436E000E000936000D3CFA9
:1002A40002E00093600031E0CECF0991D4D20091F6
:1002B40070000A950093700009F0BDCF0BB70F7B57
:1002C4000BBF92E889E5F2D13BE0C39AB4CF0F9318
:1002D4000FB70F930BB70F7B0BBF7F7705B70C7D61
:1002E400026005BF00E40ABF0F910FBF0F9118957C
:1002F400C39AF894C49ABC9AACD00CEC52D004E4DF
:1003040050D0BC9AC49878940895F894BC9AC49830
:10031400A0D00CEC46D00EEB44D0E5E6F0E069E06A
:100324003AD001936A95E1F7BC9AC4987894009105
:100334006F000395017000936F000091E300009338
:1003440079000091E70000937A005EE0ABE7B0E04B
:10035400A0936200B093630002E0009364000F93E3
:1003640002E0009361000F91A5E6B0E068E099D047
:100374000C91011709F407C087DE426164204352DF
:100384004320000001C09FD031D10F9300E00093BF
:1003940061000F91089517E00FD01A951F3FE1F700
:1003A400089517E0079508F010F429D001C03CD057
:1003B4001A951F3FB9F70895C49886E290E0049710
:1003C400F0F78D3F18F011F08F3F01F0C49A8EE3DF
:1003D40090E00497F0F78D3F18F011F08F3F01F093
:1003E4008894B49B01C0089407958CEA91E0049723
:1003F400F0F78D3F18F011F08F3F01F00895C49885
:1004040086E290E00497F0F78D3F18F011F08F3FEB
:1004140001F0C49A82EF91E00497F0F78D3F18F051
:1004240011F08F3F01F00895C49884ED91E0049792
:10043400F0F78D3F18F011F08F3F01F0C49A86E475
:1004440090E00497F0F78D3F18F011F08F3F01F022
:100454000895BC9AC49888EF9EE00497F0F78D3F06
:1004640018F011F08F3F01F0C49ABC9888E292E032
:100474000497F0F78D3F18F011F08F3F01F0889446
:10048400B49908940FB70F9388EC9CE00497F0F7A5
:100494008D3F18F011F08F3F01F00F910FBFBC9A00
:1004A40008958F9311272D9188E0022F0127169527
:1004B4002695069510F40CE810278A95B1F76A95ED
:1004C40091F78F910895E5E6F0E01191019107FF0E
:1004D4000BC00DE239DE009510956F9361E0160FA5
:1004E4006627061F6F9104C00F930BE22DDE0F9158
:1004F400110F001F110F001F110F001F110F001FFC
:100504001295EADD0EE220DE012F03D000E21CDEAC
:1005140008958894001F1127E0E3F5E0E00FF11F30
:1005240005900F920490F02DEF910994A802AD026A
:10053400B202B702BC02C102C602CB02D002D5028B
:10054400DA02DF02E402E902EE02F30200E3FCDD78
:1005540000E3FADD089500E3F7DD06E3F5DD089531
:1005640001E3F2DD02E3F0DD089501E3EDDD08E3EC
:10057400EBDD089502E3E8DD05E3E6DD089503E33A
:10058400E3DD01E3E1DD089503E3DEDD07E3DCDD24
:10059400089504E3D9DD03E3D7DD089505E3D4DD4D
:1005A40000E3D2DD089505E3CFDD06E3CDDD089554
:1005B40006E3CADD02E3C8DD089506E3C5DD08E30A
:1005C400C3DD089507E3C0DD05E3BEDD089508E358
:1005D400BBDD01E3B9DD089508E3B6DD07E3B4DD6F
:1005E400089509E3B1DD03E3AFDD089500916F00E1
:1005F400003009F404C0013009F404C0089503E292
:10060400A3DD02C00AE2A0DD089566D090E887ED7C
:100614004DD092E889E54AD00091E500B9D0009127
:10062400E600CBD094E982EA41D092EC8CEA3ED049
:100634000091E400A8D09AEC83E838D094EC8AE8DE
:1006440035D098E980E532D09CEC87E72FD090EE46
:1006540080E02CD098EC80E029D094EC80E026D087
:1006640008950F931F93A091E100B091E2001696B4
:100674001BD1642F6395639563950D911DD16A9584
:10068400E1F70091F0000D930091F1000D930AEA57
:100694000D930C93A091E100B091E2001196042F08
:1006A4001CE0010F0C931F910F910895C398092F1B
:1006B400D2D0082FD0D0C39A0895C3980027CBD0A6
:1006C400902F0027C8D0802FC39A0895C39800277D
:1006D400C2D0902FC39A0895F0DF96FD01C008950B
:1006E40008EC49DD0895C3980027B5D0902F002762
:1006F400B2D0802F889497FF03C00027ACD0089411
:10070400C39A08950BB70F7B0BBFA093E100B0937E
:10071400E20012960AEA0D930D930D930DE20D93E8
:100724000091E4000D935D934C939BDF01D00895F9
:100734003AE0A091E100B091E20011960C910A9583
:100744000E931296CA2FDB2F92E889E2AFDF09914C
:1007540006D000E40ABF0BB700640BBF08950F93E3
:10076400B5DF97FFFDCF0F9198EB802FC398092F2A
:1007740072D0082F70D008953B30F1F792E889E5E4
:1007840095DF9BDF0895802F9EEC90DF08940895F9
:10079400043108F010C0002309F40DC00F9318ECC5
:1007A400F2DC10EA112AF894802D912D7FDF7894E1
:1007B4000F9108940895889408950031E0F7EF9319
:1007C400FF930F93E6EEF7E00F70E00F08F4F39554
:1007D4000491802F96EC6ADF0F91FF91EF910894BA
:1007E4000895C6A29188302317110B080706050443
:1007F400030291EE82E05ADF14C093EE8CE856DFD8
:1008040010C095EE8CE852DF0CC099EE8FE74EDFF6
:1008140008C099EE82E84ADF04C09AEE82E846DF17
:1008240000C092E883E042DF706805B70C7F006285
:1008340005BF00E40ABF0BB700640BBF88953DDF1A
:1008440092E889E533DF33270895C39ADA98D99873
:1008540001E001BB08951F930FB901E113E10DB944
:1008640000001DB900000DB900001DB900000DB94C
:1008740000001DB900000DB900001DB900000DB93C
:1008840000001DB900000DB900001DB900000DB92C
:1008940000001DB900000DB900001DB900000FB122
:1008A400DA98D9981F9108950F9300270093F000C8
:1008B4000093F1000F910895EF93FF930F931F930B
:1008C4002F932227102F0091F1000127EEEFF8E07B
:1008D400E00FF21FE00FF21F24911091F000022F9D
:1008E4003196249112270093F0001093F1002F9178
:1008F4001F910F91FF91EF91089500002110422064
:1009040063308440A550C660E770088129914AA1EC
:100914006BB18CC1ADD1CEE1EFF131121002733263
:100924005222B5529442F772D662399318837BB33C
:100934005AA3BDD39CC3FFF3DEE3622443342004F3
:100944000114E664C774A44485546AA54BB528858C
:100954000995EEE5CFF5ACC58DD553367226111643
:100964003006D776F6669556B4465BB77AA71997DC
:100974003887DFF7FEE79DD7BCC7C448E5588668CB
:10098400A7784008611802282338CCC9EDD98EE92C
:10099400AFF9488969990AA92BB9F55AD44AB77AA3
:1009A400966A711A500A333A122AFDDBDCCBBFFB7C
:1009B4009EEB799B588B3BBB1AABA66C877CE44CB3
:1009C400C55C222C033C600C411CAEED8FFDECCDCC
:1009D400CDDD2AAD0BBD688D499D977EB66ED55E83
:1009E400F44E133E322E511E700E9FFFBEEFDDDF1C
:1009F400FCCF1BBF3AAF599F788F8891A981CAB1A8
:100A0400EBA10CD12DC14EF16FE18010A100C230D9
:100A1400E3200450254046706760B9839893FBA394
:100A2400DAB33DC31CD37FE35EF3B1029012F32229
:100A3400D2323542145277625672EAB5CBA5A895E4
:100A440089856EF54FE52CD50DC5E234C324A01479
:100A540081046674476424540544DBA7FAB7998774
:100A6400B8975FE77EF71DC73CD7D326F2369106C9
:100A7400B01657667676154634564CD96DC90EF9BC
:100A84002FE9C899E9898AB9ABA944586548067819
:100A94002768C018E1088238A3287DCB5CDB3FEBD4
:100AA4001EFBF98BD89BBBAB9ABB754A545A376A69
:100AB400167AF10AD01AB32A923A2EFD0FED6CDDA4
:100AC4004DCDAABD8BADE89DC98D267C076C645CB9
:100AD400454CA23C832CE01CC10C1FEF3EFF5DCFB4
:100AE4007CDF9BAFBABFD98FF89F176E367E554E09
:100AF400745E932EB23ED10EF01EA0E0B0E0A0933F
:100B0400F200B093F3006DE0E3EEF0E0F3D0119661
:100B1400A093F200B093F30000836A95B9F70895A7
:100B2400A0E0B0E0A093F200B093F300E3D0009310
:100B3400E300A1E0B0E0A093F200B093F300DAD0B8
:100B44000093E40020DEA2E0B0E0A093F200B093B2
:100B5400F300D0D00093E5001BDEA3E0B0E0A09347
:100B6400F200B093F300C6D00093E60026DEA4E0C2
:100B7400B0E0A093F200B093F300BCD00093E8007F
:100B8400A5E0B0E0A093F200B093F300B3D00093DB
:100B9400E900A6E0B0E0A093F200B093F300AAD07D
:100BA4000093E700089580DEA0E0B0E0A093F20097
:100BB400B093F3006DE09ED07FDEA091F200B0917F
:100BC400F3001196A093F200B093F3006A9599F79D
:100BD40091D01091F000011761F41196A093F200E6
:100BE400B093F30087D01091F100011711F4089429
:100BF40008954ADA636F6E6669672043524320663C
:100C040061696C7572650000889408954DDEA0E0FA
:100C1400B0E0A093F200B093F3006DE004E028D0BC
:100C240004ED26D006E024D00BE022D000E020D052
:100C340000E01ED00FEF1CD000271AD0E9F7009176
:100C4400F00048D0A091F200B091F3001196A09367
:100C5400F200B093F3000091F1003CD0A091F200B7
:100C6400B091F3001196A093F200B093F3000895AD
:100C740023DE30D0A091F200B091F3001196A0933E
:100C8400F200B093F3006A9508950EDEA0E0B0E0A0
:100C9400A093F200B093F3006DE02CD00DDEA09190
:100CA400F200B091F3001196A093F200B093F30018
:100CB4006A9599F70091F0000DD0A091F200B091DF
:100CC400F3001196A093F200B093F3000091F100A9
:100CD40001D00895E199FECF0F930091F2000EBB6D
:100CE4000091F3000FBB0F910DBBF894E29AE19AC7
:100CF40078940895E199FECF0091F2000EBB009123
:0E0D0400F3000FBBF894E09A78940DB30895B5
:00000001FF
