:100000000EC028C027C026C025C024C023C022C0DF
:1000100021C020C0A7C01EC01DC01CC01BC0112411
:100020001FBECFE5D2E0DEBFCDBF10E0A0E6B0E05E
:10003000EAE0F5E002C005900D92A639B107D9F7C4
:1000400010E0A6E9B0E001C01D92AC39B107E1F7BC
:100050002FD15AC2D5CF83E680BF80E68CBD1EBCAF
:100060001BBC82E08ABD85E083BF80E189BF89E156
:1000700089BD089540E050E0FA01E05AFF4F8081C9
:100080008D6088BB20E030E098B3F901EE59FF4F56
:1000900080818095892388BB8AE698E10197F1F7F2
:1000A00088B38D6088BB2F5F3F4F2330310561F7E8
:1000B0004F5F5F4F42305105F9F6089589D1909313
:1000C000970080939600809196009091970063E04E
:1000D00070E00AD180939800E0919800FF27EE59D4
:1000E000FF4F808180939B008091960090919700B4
:1000F000817021B32E7F282B21BB31B332953695E9
:10010000377031709091980080919A0061B361705E
:1001100021B326952695217040E050E0981711F400
:1001200041E050E0832F99278423952340E050E05D
:10013000621711F441E050E084239523892B49F0A4
:1001400081B3869586958095817091B39E7F982B1B
:1001500091BB81B380958170880F91B39D7F982B5F
:1001600091BB08951F920F920FB60F9211242F93F7
:100170003F934F935F936F937F938F939F93AF932F
:10018000BF93EF93FF93809199008F5F80939900C5
:10019000809199008431B0F480919B00809588BB58
:1001A000889B07C0E0919900FF27EB59FF4F8081A2
:1001B0008EBD899B07C0E0919900FF27EB59FF4F47
:1001C00080818BBD8D9B33C09091990080918D0073
:1001D0002091990040918D00891748F53327842F8D
:1001E000992744962817390714F5E0919A00FF27BC
:1001F000EE59FF4F8081809588BB8A9B0BC0E091B0
:10020000990080918D00FF27E81BF109E758FF4F07
:1002100080818EBD8B9B0BC0E091990080918D00F9
:10022000FF27E81BF109E758FF4F80818BBD9091B4
:10023000990080918E00981751F5CAD08770907000
:10024000892B11F58D9B02C08D981EC0C1D063E033
:1002500070E05ED080939A00BBD062E070E058D02E
:100260008170880F880F91B39B7F982B91BB81B3CE
:100270008695869580958170880F880F880F91B339
:10028000977F982B91BB8D9A1092990017DFFF9161
:10029000EF91BF91AF919F918F917F916F915F91FE
:1002A0004F913F912F910F900FBE0F901F90189577
:1002B000CFE5D2E0DEBFCDBF8FE187BB8DE088BB4D
:1002C000D9DE80918F009091900086D0F7DE85B7BF
:1002D000877E85BFC0DE789485B7806285BF8895AC
:1002E00085B78F7D85BFF8CFAA1BBB1B51E107C027
:1002F000AA1FBB1FA617B70710F0A61BB70B881FB6
:10030000991F5A95A9F780959095BC01CD01089544
:1003100097FB092E07260AD077FD04D0E5DF06D02B
:1003200000201AF4709561957F4F0895F6F7909527
:1003300081959F4F0895A0E0B0E0E0EAF1E093C01E
:10034000EC01688179818A819B8161157105810544
:10035000910549F484E2A82E89EDB82E8BE5C82ECC
:1003600087E0D82E02C05B016C01C601B5012DE10A
:1003700033EF41E050E054D027EA31E440E050E070
:1003800036D07B018C01C601B5012DE133EF41E090
:1003900050E046D0CA01B90124E13BE040E050E022
:1003A00026D0E61AF70A080B190BD801C70117FF68
:1003B00004C081509040A040B04888839983AA83AC
:1003C000BB839F77EAE0CDB7DEB769C0B4DF08959D
:1003D00081E990E0B0DF0895AA27BB2780939100C0
:1003E00090939200A0939300B09394000895FF27F8
:1003F000EE27BB27AA2760FF04C0A20FB31FE41F8C
:10040000F51F220F331F441F551F9695879577952B
:10041000679589F70097760771F7CF01BD010895B9
:1004200097FB092E05260ED057FD04D04BD00AD0DD
:10043000001C38F450954095309521953F4F4F4F13
:100440005F4F0895F6F790958095709561957F4F71
:100450008F4F9F4F08952F923F924F925F926F92CE
:100460007F928F929F92AF92BF92CF92DF92EF9244
:10047000FF920F931F93CF93DF93CDB7DEB7CA1BC5
:10048000DB0B0FB6F894DEBF0FBECDBF09942A88F0
:10049000398848885F846E847D848C849B84AA8498
:1004A000B984C884DF80EE80FD800C811B81AA8125
:1004B000B981CE0FD11D0FB6F894DEBF0FBECDBFF0
:1004C000ED010895A1E21A2EAA1BBB1BFD010DC070
:1004D000AA1FBB1FEE1FFF1FA217B307E407F507F4
:1004E00020F0A21BB30BE40BF50B661F771F881FD0
:1004F000991F1A9469F760957095809590959B0166
:0A050000AC01BD01CF010895FFCF4B
:10050A000210080401005AA8DFFCFFECCAA27A56BE
:10051A003A25160C0703020100000911171A1A18C6
:10052A0015110D090604030201010101004EEA91A9
:06053A00D00100000000EA
:00000001FF
