:1000000019C033C032C031C030C02FC02EC02DC087
:100010002CC056C62AC029C028C0D5C626C025C0B7
:1000200024C023C022C021C020C01FC01EC01DC0CC
:100030001CC01BC011241FBECFEFD2E0DEBFCDBF5E
:1000400011E0A0E0B1E0E4E9FEE002C005900D920D
:10005000A23EB107D9F722E0A2EEB1E001C01D92A5
:10006000A33CB207E1F7B1D313C7CACFE1ECF0E08C
:1000700010828093C5006093C40082E08093C0002A
:1000800088E1808386E88093C2000895E0ECF0E088
:1000900080818823ECF78091C6000895E0ECF0E0C1
:1000A000908195FFFDCF8093C60008950F931F9315
:1000B000CF93DF93FC018081811109C00FC089912A
:1000C000882361F0EBDF0C171D07C9F707C08F010C
:1000D000E5DFE801219608531F4FF1CFDF91CF9163
:1000E0001F910F9108952F923F924F925F926F92BE
:1000F0007F928F929F92AF92BF92CF92DF92EF92B8
:10010000FF920F931F93CF93DF931C012A013B01B2
:10011000411551056105704861F52A3019F020310B
:10012000B9F063C098E3F101908384E3818326E30F
:10013000228323E323839483858397E396838783B2
:1001400081E3808782E381878DE2828713864DC0B9
:1001500080E3F10180838183828383838483858329
:10016000868388E387838DE28087118612861386D3
:100170003CC0E101C1010C96F1011192E817F907A9
:10018000E1F77301620177203CF4CC24DD24760191
:10019000C418D508E608F70800E010E0822E912C7C
:1001A000A12CB12CC701B601A50194011DD668830D
:1001B0006A3018F4605D688302C0695C68830F5F11
:1001C0001F4FC701B601A50194010ED669017A013E
:1001D0002196121613061406150624F377202CF424
:1001E000F101E00FF11F8DE28083DF91CF911F912C
:1001F0000F91FF90EF90DF90CF90BF90AF909F90C6
:100200008F907F906F905F904F903F902F900895C8
:100210000F931F93CF93DF93FC012081222391F052
:100220003196C0E0D0E0219621912111FCCF20979A
:1002300049F08C010C0F1D1FF80182918F012EDFF8
:100240002197D1F7DF91CF911F910F910895CF930F
:10025000DF93CDB7DEB72C970FB6F894DEBF0FBE95
:10026000CDBF282FCE0101963EDFCE010196D0DF13
:100270002C960FB6F894DEBF0FBECDBFDF91CF91A5
:10028000089570938500609384009FEF96BB8093E0
:100290008100B09BFECFB09A109281000895CF9359
:1002A000DF93D82FC62F62EF7CEF85E0EADFE1EC29
:1002B000F0E01082D093C500C093C40082E0809328
:1002C000C00088E1808386E08093C200DF91CF91F7
:1002D0000895CF93C82F8091E2019091E3016C2F94
:1002E0000197C8D58091E2019091E3016C2F0297AC
:1002F000C1D58091E2019091E3016091E8010397FB
:10030000B9D5CF91089580E091E0D0DE8091E201EF
:100310009091E3010197A6D5482F50E060E070E08E
:100320008AE095DF89E0BADE8091E2019091E301F5
:10033000029798D5482F50E060E070E08AE087DFB0
:100340008BE191E0B3DE8091E2019091E3010397AC
:1003500089D5482F50E060E070E08AE078DF8CE2D9
:1003600091E0A4DE0895109285001092840010920E
:1003700081001092B100E6EBF0E0808180FDFDCFBE
:100380001092B000E6EBF0E0808181FDFDCF10928D
:10039000B200E6EBF0E0808184FDFDCF089581E0BE
:1003A0008093B100E6EBF0E0808180FDFDCF81E03D
:1003B0008093810008958F929F92AF92BF92CF92C7
:1003C000DF92EF92FF920F931F93CF93623029F049
:1003D000653031F4CAE0EFE005C0C4E0E6E002C0F9
:1003E000C1E0E2E01092FD011092FC011092BF0208
:1003F0001092C0021092C1021092C202F0E060910D
:10040000FC017091FD016E177F07CCF31092FD0186
:100410001092FC01C090BF02D090C002E090C102D7
:10042000F090C20241110AC0FF2044F4F094E0941D
:10043000D094C094C11CD11CE11CF11C882309F18B
:100440000091B6021091B702000F111F000F111F8B
:100450000E5F1D4F8C2E912CA12CB12CC701B60123
:10046000A5019401C1D4F8012083318342835383D1
:100470008091B6029091B70201969093B702809353
:10048000B6022C2F30E040E050E0C701B601ACD4FA
:10049000CA01B901CF911F910F91FF90EF90DF90AA
:1004A000CF90BF90AF909F908F9008954F925F92A2
:1004B0006F927F928F929F92AF92BF92CF92DF9274
:1004C000EF920F931F93CF93DF932C01EB016A01FF
:1004D0005901FA019081943168F50F2EF6E68F2EBE
:1004E000912CF02D052C000C660877088881F4010A
:1004F000808340E06E2D80E05EDFF50160837183D4
:1005000082839383641575058605970554F0888169
:1005100081508883F60180818F5F8083843130F33E
:1005200009C0F6018081843128F480916600F801C9
:10053000808304C0F801808180936600DF91CF91B1
:100540001F910F91EF90DF90CF90BF90AF909F9051
:100550008F907F906F905F904F9008954F925F9231
:100560006F927F928F929F92AF92BF92CF92DF92C3
:10057000EF920F931F93CF93DF932C01EB016A014E
:100580005901FA019081943168F50F2EF6E68F2E0D
:10059000912CF02D052C000C660877088881F40159
:1005A000808340E06E2D80E006DFF501608371837B
:1005B00082839383641575058605970554F08881B9
:1005C0008F5F8883F60180818F5F8083843130F371
:1005D00009C0F6018081843128F480916600F80119
:1005E000808304C0F801808180936600DF91CF9101
:1005F0001F910F91EF90DF90CF90BF90AF909F90A1
:100600008F907F906F905F904F900895CF92DF9280
:10061000EF920F931F93CF93DF93CDB7DEB727975A
:100620000FB6F894DEBF0FBECDBF182F1B82E1ECD2
:10063000F0E080818F7E80836DE771EE85E021DEC2
:10064000789481E08093E601E0E7F0E080818160CA
:100650008083EFE6F0E080818160808384DE9FDE2E
:100660001111A0C081EF898306E610E08EE216DD4D
:10067000898181508983F80180836091E60140E09F
:1006800080E099DE6C837D838E839F832981213E68
:1006900068F7683E73408105910544F780916600D4
:1006A0008B831A8285E08093E6010F2EF8EECF2E21
:1006B000F3E0DF2EF02D8EE2F1DC24E6C21AD10841
:1006C000E090E6018E010D5F1F4F9E012C5F3F4FB2
:1006D000AE014E5F5F4FBE016F5F7F4FC601E6DE2A
:1006E00084E6C816D10439F73EC08EE2D7DC898192
:1006F0008F5F8983F80180836091E60140E080E0AC
:100700005ADE6C837D838E839F832981203268F338
:10071000683E73408105910544F7809166008B83A4
:100720001A8285E08093E6010F2EF8EECF2EF3E0DB
:10073000DF2EF02D8EE2B2DC24E6C21AD108E09062
:10074000E6018E010D5F1F4F9E012C5F3F4FAE01F2
:100750004E5F5F4FBE016F5F7F4FC601FFDE84E6D5
:10076000C816D10439F76091E60140E080E023DE4D
:100770006C837D838E839F83809166008093FB01D1
:10078000F2DDE0E7F0E080818E7F8083EFE6F0E04D
:1007900080818E7F8083E1ECF0E0808180618083C6
:1007A000F89405C08FE0898306E610E09ECF279677
:1007B0000FB6F894DEBF0FBECDBFDF91CF911F9172
:1007C0000F91EF90DF90CF900895A89584B7877F21
:1007D00084BFE0E6F0E08081886180831082ECE7EE
:1007E000F0E080818064808385B78F7E85BF14B8F8
:1007F00017B81AB88FEF85B988B98BB9E9EEF1E06F
:100800008EE391E09183808383E491E093838283FC
:1008100088E491E0958384838EE491E097838683D6
:1008200084E591E09187808788E591E093878287CE
:100830008CE591E095878487E9EBF2E089EA91E025
:100840009183808380E691E0938382838CEF9FE1A4
:1008500009D3C82F90E09093BE028093BD028BEF26
:100860009FE100D3282F30E0309301022093000253
:10087000C43909F452C028F4C23951F0C33989F19E
:10088000AAC0C53909F465C0C63909F48BC0A3C034
:1008900040E058E05093FF014093FE0140E051E0FA
:1008A0005093E3014093E201873071F08A3019F0F0
:1008B000853009F090C01092FA011092F90110925F
:1008C000E5011092E40194C086E090E09093FA0173
:1008D0008093F90181E090E09093E5018093E40139
:1008E00087C040E050E15093FF014093FE0140E09B
:1008F00052E05093E3014093E2018A3019F08F30C7
:1009000009F069C081E090E09093FA018093F901C9
:100910001092E5011092E4016BC040E050E2509368
:10092000FF014093FE0140E052E05093E301409309
:10093000E201863019F08B3009F04DC082E090E082
:100940009093FA018093F9011092E5011092E4016D
:100950004FC040E050E45093FF014093FE0140E05F
:1009600054E05093E3014093E2018F3029F0843149
:1009700019F0823081F50BC083E090E09093FA018A
:100980008093F9011092E5011092E40126C085E000
:1009900090E09093FA018093F9011092E501109292
:1009A000E4011BC040E050E85093FF014093FE017A
:1009B00040E058E05093E3014093E201893059F45C
:1009C00084E090E09093FA018093F9011092E501A0
:1009D0001092E4010DC0C53959F42230310521F0DF
:1009E00069E180E05CDC07C069E180E03FDB03C0D7
:1009F00069E180E054DC80E28093B600C6E6D0E096
:100A000088818093E80180E001DE88818F5F8883A0
:100A10000F2EF0E7EF2EF12CF02DF7018081816091
:100A200080830FE610E0F8018081816080839BDC89
:100A3000B6DC789440E062E080E0BDDC2B013C0154
:100A400088818250888340E062E080E0B4DC4B0122
:100A50005C0189DCF70180818E7F8083F8018081D1
:100A60008E7F8083F89488818F5F8883F9EE4F169C
:100A7000F3E05F06610471043CF489EE881683E0BC
:100A80009806A104B1042CF088E691E00FDB81E028
:100A9000BDDDE9EEF1E08EE391E09183808383E4B4
:100AA00091E09383828388E491E0958384838EE44C
:100AB00091E09783868384E591E09187808788E53C
:100AC00091E0938782878CE591E095878487E9EBB5
:100AD000F2E089EA91E09183808380E691E093835C
:100AE00082838CEF9FE1BED1C82F90E09093BE022D
:100AF0008093BD028BEF9FE1B5D1282F30E030937A
:100B0000010220930002C43909F452C028F4C2390A
:100B100051F0C33989F1A9C0C53909F465C0C63996
:100B200009F48BC0A2C020E038E03093FF0120938D
:100B3000FE0120E031E03093E3012093E2018730B1
:100B400071F08A3019F0853009F08FC01092FA01E7
:100B50001092F9011092E5011092E40186C086E03E
:100B600090E09093FA018093F90181E090E09093F6
:100B7000E5018093E40179C020E030E13093FF018A
:100B80002093FE0120E032E03093E3012093E20164
:100B90008A3019F08F3009F068C081E090E09093BE
:100BA000FA018093F9011092E5011092E4015DC011
:100BB00020E030E23093FF012093FE0120E032E09C
:100BC0003093E3012093E201863019F08B3009F075
:100BD0004CC082E090E09093FA018093F90110926A
:100BE000E5011092E40141C020E030E43093FF01C0
:100BF0002093FE0120E034E03093E3012093E201F2
:100C00008F3029F0843119F0823079F50BC083E000
:100C100090E09093FA018093F9011092E50110920F
:100C2000E40123C085E090E09093FA018093F901FC
:100C30001092E5011092E40118C020E030E83093F2
:100C4000FF012093FE0120E038E03093E301209380
:100C5000E201893051F484E090E09093FA018093AE
:100C6000F9011092E5011092E40189E991E01EDAA0
:100C7000E091F901F091FA01EE0FFF1FE751FE4FED
:100C80008081918113DA8091FB0123DB81EB91E07C
:100C90000DDA4091FB0150E060E070E08AE0D7DAC5
:100CA00032DB85EC91E002DAF1D999E088E10FB608
:100CB000F894A895809360000FBE90936000FFCFDA
:100CC0001F920F920FB60F921124CF92DF92EF92E4
:100CD000FF922F933F934F935F936F937F938F93E5
:100CE0009F93AF93BF93EF93FF93E1E8F0E01082FF
:100CF000A4E8B0E02D913C91119711961C921E92A0
:100D000081E080838091E6014091FC015091FD01DA
:100D100090E0481759071CF41092E70136C0809103
:100D2000E701813019F0823031F00BC0C12CD12C99
:100D30007601E39409C0C12CD12C76016894E1F8C6
:100D400003C0C12CD12C76014091BF025091C0024A
:100D50006091C1027091C202C901A0E0B0E084526A
:100D6000944FA109B1098C0D9D1DAE1DBF1D840FAF
:100D7000951FA61FB71F8093BF029093C002A09338
:100D8000C102B093C2021092E7018091FC019091E0
:100D9000FD0101969093FD018093FC01FF91EF917D
:100DA000BF91AF919F918F917F916F915F914F9183
:100DB0003F912F91FF90EF90DF90CF900F900FBE5B
:100DC0000F901F9018951F920F920FB60F9211243B
:100DD0008F938091E7018F5F8093E7018F910F9050
:100DE0000FBE0F901F901895052E97FB16F40094D8
:100DF0000FD057FD05D014D007FC02D046F408C030
:100E000050954095309521953F4F4F4F5F4F089536
:100E100090958095709561957F4F8F4F9F4F089566
:100E2000A1E21A2EAA1BBB1BFD010DC0AA1FBB1FEE
:100E3000EE1FFF1FA217B307E407F50720F0A21B60
:100E4000B30BE40BF50B661F771F881F991F1A94CD
:100E500069F760957095809590959B01AC01BD01F7
:100E6000CF010895F999FECF12BC81BDF89A992758
:100E700080B50895262FF999FECF1FBA12BC81BD07
:100E800020BD0FB6F894FA9AF99A0FBE019608950C
:040E9000F894FFCF04
:100E94000D0A56616C756573207361766564207400
:100EA4006F20454550524F4D2020000955736572FF
:100EB4002076616C75650D0A090909000909446504
:100EC4006661756C742076616C75650D0A00343842
:100ED4002F500038382F50003136382F500033321D
:100EE400382F50003634340033324100343441005A
:100EF400415474696E7920000D0A506F6F7220722C
:100F04006573756C743A20536561726368696E67C2
:100F140020666F7220616C7465726E6174697665A7
:100F24002076616C75650D0A000D0A0D0A43616C2B
:100F34006962726174696E672041746D65676120CE
:100F4400000D0A4E6577204F534343414C20766190
:100F54006C756520000D0A416C6C20646F6E653AF7
:100F640020414B20746F207265706561742E0D0AE8
:020F740000007B
:00000001FF
