:100000000C9484040C94510F0C949F040C949F0442
:100010000C949F040C949F040C949F040C949F04D4
:100020000C949F040C949F040C949F040C949F04C4
:100030000C949F040C949F040C949F040C949F04B4
:100040000C949F040C949F040C949F040C949F04A4
:100050000C949F04122DF02D24F0243AF03AF01263
:1000600029F0291246F04621F02145F045F01229E9
:10007000F02972F07270F07070F0706CF06C29F012
:100080002932F03235F03529F029123AF03AF012DF
:1000900049F0491232F032F0122DF02D24F02431C3
:1000A000F0312CF02C29F0291CF01C42F0421CF0FD
:1000B0001C5AF05A122DF02D24F0243AF03AF01286
:1000C00029F029122CF02CF0123CF03C2DF02D1BC5
:1000D000F01B43F0434EF04E29F02933F0331CF06F
:1000E0001C2DF02D3AF03A4BF04B24F0241BF01B62
:1000F0001BF01B4BF04B43F04344F04431F03149CB
:10010000F04921F02144F0443AF03A5AF05A122DC5
:10011000F02D24F0243AF03AF01229F029124BF095
:100120004BF01243F04321F02124F02431F0311B35
:10013000F01B24F02423F02329F0292BF02B44F08A
:10014000442DF02D29F0294DF04D24F0242DF02DD3
:100150001BF01B44F04431F0311CF01C4BF04B5AA7
:10016000F05A122DF02D24F0243AF03AF01229F032
:10017000293CF03C1BF01B24F02429F02944F044D6
:1001800031F0314BF04B35F03549F0495AF05A1205
:100190002DF02D24F0243AF03AF01229F029122CF7
:1001A000F02CF01233F03343F0431BF01B29F029FD
:1001B0001BF01B44F0442BF02B2CF02C1DF01D1CCD
:1001C000F01C2DF02D24F02429F0293AF03A1CF0EF
:1001D0001C35F03529F02931F03144F0442CF02C55
:1001E0005AF05A122DF02D24F0243AF03AF0122948
:1001F000F02932F03224F02429F0292DF02D24F0BA
:10020000244EF04E23F02343F0431BF01B2CF02C24
:100210002DF02D43F04332F0323CF03C2CF02C24F6
:10022000F02423F02329F02944F0442DF02D5AF036
:100230005A122DF02D24F0243AF03AF01229F02928
:100240001BF01B44F0444BF04B23F02329F0291DF5
:10025000F01D43F0432CF02C33F03344F0443CF0D9
:100260003C2CF02C29F0291DF01D2DF02D43F043DE
:100270002CF02C2CF02C24F02431F0315AF05A12AE
:100280002DF02D24F0243AF03AF01229F0294DF007
:100290004D24F0242DF02D3AF03A43F0431BF01B8F
:1002A0001BF01B43F04344F04431F03129F0292B7B
:1002B000F02B2DF02D44F0443AF03A29F0292CF09F
:1002C0002C33F03324F0245AF05A122DF02D24F060
:1002D000243AF03AF01229F0291CF01C3CF03C2C96
:1002E000F02C33F03344F0442DF02D49F04929F03F
:1002F0002929F029122AF02AF01269F06949F049F7
:100300006BF06B5AF05A00FFFFFFFFFFFFFFFFFF8C
:10031000FFFFFFFFFFFFFFFFFFFFFFFFFFFFFFFFED
:10032000FFFFFFFFFFFFFFFFFFFFFFFFFFFFFFFFDD
:10033000FFFFFFFFFFFFFFFFFFFFFFFFFFFFFFFFCD
:10034000FFFFFFFFFFFFFF060700060407FFFF0692
:10035000070502FFFFFFFF0607FFFF04070401FF79
:10036000FFFFFFFFFFFFFF06070606FFFFFFFFFF80
:10037000FFFFFFFFFFFFFFFFFFFFFFFFFFFFFFFF8D
:10038000FFFFFF0507FFFF0607050306070205FF3E
:10039000FFFFFF06070506FFFFFFFFFFFFFFFFFF51
:1003A000FFFFFF0507FFFF06070601FFFFFFFFFF37
:1003B000FFFFFF06070103FFFFFFFFFFFFFFFFFF38
:1003C000FFFFFF0607070206070602FFFFFFFF0603
:1003D000070106FFFFFFFF06070501FFFFFFFFFF05
:1003E000FFFFFF0607070506070202FFFFFFFF06E4
:1003F00007020304070401FFFFFFFFFFFFFFFFFFEA
:10040000FFFFFF0607050506070001FFFFFFFFFFCF
:10041000FFFFFFFFFFFFFFFFFFFFFFFFFFFFFFFFEC
:10042000FFFFFFFFFFFFFF06070105FFFFFFFF00C4
:1004300002FFFFFFFFFFFFFFFFFFFF04070306FFB1
:10044000FFFFFFFFFFFFFF06070101FFFFFFFFFFA9
:10045000FFFFFFFFFFFFFFFFFFFFFFFFFFFFFFFFAC
:10046000FFFFFFFFFFFFFFFFFFFFFFFFFFFFFF0299
:1004700007FFFFFFFFFFFFFFFFFFFFFFFFFFFF067D
:10048000070605FFFFFFFFFFFFFFFFFFFFFFFFFF67
:10049000FFFFFFFFFFFFFFFFFFFFFFFFFFFFFFFF6C
:1004A000FFFFFFFFFFFFFFFFFFFFFF06070701FF43
:1004B000FFFFFF0407050306070201FFFFFFFFFF21
:1004C000FFFFFFFFFFFFFF0407040304070402040C
:1004D000070703FFFFFFFF0407050504070605FFE5
:1004E000FFFFFFFFFFFFFFFFFFFFFFFFFFFFFF0417
:1004F000070401FFFFFFFF060705020407030604C8
:10050000070401FFFFFFFFFFFFFFFF04070303FFD7
:10051000FFFFFF04070406040704050407040204A0
:1005200007040306070403FFFFFFFF040703020499
:100530000703050407030604070401040703010475
:10054000070603FFFFFFFFFFFFFFFF0407FFFF0595
:1005500007FFFFFFFFFFFF0607FFFF060205070477
:10056000020507FFFFFFFFFFFFFFFFFFFFFFFF0782
:10057000020507050305070502050706030507042D
:10058000030507FFFFFFFFFFFFFFFF070505070745
:10059000030507050505070605050704010507040A
:1005A000050507FFFFFFFFFFFFFFFF0107FFFF0735
:1005B00001050705010507060605070601050704ED
:1005C000060507FFFFFFFFFFFFFFFF000605070708
:1005D00006050701060507050605070206050703C8
:1005E000060507FFFFFFFFFFFFFFFFFFFFFFFF0005
:1005F00001050701010507020105070301050703BE
:10060000050507FFFFFFFFFFFFFFFF0005050701CF
:100610000505070205050702030507030205070391
:10062000030507FFFFFFFFFFFFFFFF0003050704B0
:100630000702050103050701020507020205070479
:10064000070201FFFFFFFFFFFFFFFFFFFFFFFF04A8
:10065000070202FFFFFFFF0407050100070507FF70
:10066000FFFFFFFFFFFFFFFFFFFFFF0507FFFF0289
:1006700007FFFF04070506FFFFFFFF04070502FF52
:10068000FFFFFFFFFFFFFFFFFFFFFFFFFFFFFFFF7A
:10069000FFFFFFFFFFFFFFFFFFFFFFFFFFFFFF0465
:1006A000070503FFFFFFFFFFFFFFFF0402FFFFFF40
:1006B000FFFFFF0401FFFF0301FFFFFFFFFFFFFF3D
:1006C000FFFFFFFFFFFFFF0302FFFF0003FFFF0429
:1006D00003FFFF0406FFFF0306FFFF0305FFFF06FE
:1006E00007000306070603060704020507000704C0
:1006F00005FFFF05070002050703050303FFFF06CB
:1007000007070604070301FFFFFFFF04070303FFBA
:10071000FFFFFF040704060407040504070402049E
:1007200007040306070403FFFFFFFF040703020497
:100730000703050407030604070401040703010473
:10074000070705FFFFFFFFFFFFFFFF0407FFFF0590
:1007500007FFFFFFFFFFFF0607FFFF0602FFFF0483
:1007600002FFFFFFFFFFFFFFFFFFFFFFFFFFFF078E
:1007700002FFFF0503FFFF0502FFFF0603FFFF0463
:1007800003FFFFFFFFFFFFFFFFFFFF0705FFFF075F
:1007900003FFFF0505FFFF0605FFFF0401FFFF0440
:1007A00005FFFFFFFFFFFFFFFFFFFF0107FFFF0741
:1007B00001FFFF0501FFFF0606FFFF0601FFFF0423
:1007C00006FFFFFFFFFFFFFFFFFFFF0006FFFF0722
:1007D00006FFFF0106FFFF0506FFFF0206FFFF03FE
:1007E00006FFFFFFFFFFFFFFFFFFFFFFFFFFFF0011
:1007F00001FFFF0101FFFF0201FFFF0301FFFF03F4
:1008000005FFFFFFFFFFFFFFFFFFFF0005FFFF01E9
:1008100005FFFF0205FFFF0203FFFF0302FFFF03C7
:1008200003FFFFFFFFFFFFFFFFFFFF0003FFFF00CE
:1008300002FFFF0103FFFF0102FFFF0202FFFF05AE
:10084000070002FFFFFFFFFFFFFFFFFFFFFFFF04A7
:10085000070203FFFFFFFF040706010007FFFFFF7A
:10086000FFFFFFFFFFFFFFFFFFFFFF0507FFFF0287
:1008700007FFFF04070606FFFFFFFF04070702FF4D
:10088000FFFFFFFFFFFFFFFFFFFFFFFFFFFFFFFF78
:10089000FFFFFFFFFFFFFFFFFFFFFFFFFFFFFF0463
:1008A000070503FFFFFFFFFFFFFFFF0402FFFFFF3E
:1008B000FFFFFF0401FFFF0301FFFFFFFFFFFFFF3B
:1008C000FFFFFFFFFFFFFF0302FFFF0003FFFF0427
:1008D00003FFFF0406FFFF0306FFFF0305FFFF04FE
:1008E00007030306070603060704020507000704BB
:1008F00005FFFF05070002050703050303FFFF06C9
:10090000070706040703010011241FBECFE5D4E04A
:10091000DEBFCDBF11E0A0E6B0E0E8E4F3E202C044
:1009200005900D92A235B107D9F711E0A2E5B1E02B
:1009300001C01D92A23CB107E1F70C94A1040C94F4
:100940000000CFE5D4E0DEBFCDBF0E94C4100E94FE
:1009500021050E942A0510925201C3E6D0E0809141
:100960005201882309F053C081E00E94D0102197E2
:1009700040915201442309F04AC081E00E94D01006
:10098000219750915201552309F041C081E00E9406
:10099000D0102197609152016623C9F581E00E9431
:1009A000D010219770915201772389F581E00E9440
:1009B000D010219790915201992349F581E00E942E
:1009C000D0102197A0915201AA2309F581E00E943D
:1009D000D0102197B0915201BB23C9F481E00E944D
:1009E000D0102197E0915201EE2389F481E00E941A
:1009F000D0102197F0915201FF2349F481E00E9429
:100A0000D01021978FEFCF3FD80709F0A8CF2091C2
:100A10005201222339F00E9452070E9480100E9446
:100A20008010FBCF61E08FEF0E94E40503C081E0FE
:100A30000E94D010309152013323C9F30E94520713
:100A4000ECCF10BC3AE039B91BB828E02AB986E8E7
:100A500080BD08954CE751E05093590140935801EF
:100A600050936601409365011092BE019FEF9093F1
:100A7000BD011092770110925F0110926B011092EC
:100A800064011092C1018B98939A109276018A9812
:100A900032E035BF20E42BBF8BE0809363019ABF27
:100AA000789408951F93CF9380917901882321F042
:100AB000F8941BBE8A9A92984CE751E050935901E2
:100AC0004093580150936601409365011092BE0116
:100AD0001FEF1093BD011092C101CBE0C0936301E1
:100AE00020917901222381F081E00E94D0101092A0
:100AF00076018A9852E055BF30E43BBFC093630152
:100B00001ABF789410927901CF911F910895CF93D5
:100B1000DF93CDB7DEB722970FB6F894DEBF0FBED6
:100B2000CDBF1A8280917901882309F044C0F894DE
:100B30001BBE8A9A92981A822A81253070F41982F3
:100B400003C049814F5F498339813A35D0F35A81D7
:100B50005F5F5A832A81253090F393988B9A1A828B
:100B60006A81653070F4198203C099819F5F99830F
:100B700079817A35D0F3AA81AF5FAA836A81653023
:100B800090F351E05093790140917B0140934D01E6
:100B90003091600130937A012FED28BB10927601DD
:100BA0008A9882E085BFF0E4FBBFEBE0E09363014D
:100BB000BFEFBABF789422960FB6F894DEBF0FBE8F
:100BC000CDBFDF91CF910895CF93DF93CDB7DEB73F
:100BD00022970FB6F894DEBF0FBECDBF80937B0186
:100BE00060936001109279012AE02093BD011A827E
:100BF00080917901882309F044C0F8941BBE8A9A39
:100C000092981A823A81353070F4198203C0598162
:100C10005F5F598349814A35D0F36A816F5F6A8388
:100C20003A81353090F393988B9A1A827A81753095
:100C300070F4198203C0B981BF5FB983A981AA3555
:100C4000D0F3EA81EF5FEA837A81753090F361E057
:100C50006093790150917B0150934D014091600167
:100C600040937A013FED38BB109276018A9892E06A
:100C700095BF20E42BBF8BE080936301FFEFFABFA9
:100C8000789481E090E022960FB6F894DEBF0FBE14
:100C9000CDBFDF91CF9108951F93CF93182FC0E060
:100CA0000E943C11812F99278730910571F088307F
:100CB00091051CF4019771F40CC08930910539F04D
:100CC0008837910539F4C0E405C0C0E803C0C0E22C
:100CD00001C0C0E18C2F9927CF911F9108951F93D8
:100CE000CF93182FC0E00E943C11812F99278730A5
:100CF000910501F188309105ACF40197F9F08C2F42
:100D00009927282F8823E1F0982F909542B3492303
:100D100042BB31B3322B31BB80916201822B809375
:100D200062010EC08930910539F08837910539F795
:100D3000C0E4E5CFC0E8E3CFC0E2E1CFC0E1DFCF60
:100D4000CF911F9108951F93CF93182FC0E00E9459
:100D50003C11812F99278730910501F18830910549
:100D6000ACF40197F9F08C2F9927282F8823E1F014
:100D7000982F909541B3492341BB32B3322B32BBFC
:100D8000809162019823909362010EC08930910591
:100D900039F08837910539F7C0E4E5CFC0E8E3CFF3
:100DA000C0E2E1CFC0E1DFCFCF911F910895282F9E
:100DB0008F3F49F16F3F39F1673031F1442399F4A6
:100DC000E62FFF27E7FDF095ED5BFE4F81E090E019
:100DD00002C0880F991F2A95E2F7982F909580817D
:100DE000892380830895E62FFF27E7FDF095ED5BCB
:100DF000FE4F81E090E002C0880F991F2A95E2F72C
:100E00002081282B208308958430B1F0853019F19A
:100E10008630A1F6442309F441C0809164018823FF
:100E200019F08150809364018823A1F180914A01D7
:100E30008F7B80934A0108954423E1F080915F0104
:100E4000882319F0815080935F018823B9F0809145
:100E50004A018F7EEECF4423A9F080916B01882355
:100E600019F0815080936B01882381F080914A01B1
:100E70008F7DDFCF80915F018F5FE5CF80914A0149
:100E80008061D7CF80916B018F5FECCF80914A0159
:100E90008062CFCF80914A018064CBCF8091640182
:100EA0008F5FC0CFCF93DF93CDB7DEB722970FB65A
:100EB000F894DEBF0FBECDBF90E0292F3FEF3BBBC4
:100EC00080915F01882339F090935F0140914A013E
:100ED0004F7E40934A0150916B01552339F0909316
:100EE0006B0160914A016F7D60934A0170916401CA
:100EF000772339F090936401A0914A01AF7BA093CE
:100F00004A01B0914C01BB2311F021E094E0E09143
:100F10007801EE2311F02F5F9160F0914B01FF23D8
:100F200011F02F5F926020FF61C01092BC0190937E
:100F3000560155E0509377014DEE40937B0131E02F
:100F400030936001109279018AE08093BD011A828A
:100F500090917901992309F044C0F8941BBE8A9AB4
:100F600092981A826A81653070F4198203C0A9814F
:100F7000AF5FA98379817A35D0F3BA81BF5FBA8335
:100F80006A81653090F393988B9A1A82EA81E530F2
:100F900070F4198203C029812F5F2983F981FA3502
:100FA000D0F39A819F5F9A83EA81E53090F3B1E0B4
:100FB000B0937901A0917B01A0934D0170916001E4
:100FC00070937A016FED68BB109276018A9852E0B7
:100FD00055BF40E44BBF3BE0309363018FEF8ABFC6
:100FE0007894E0917701EE2399F004C021E02093FA
:100FF000BC019DCF81E00E94D010F0917701FF23CA
:1010000039F081E00E94D010F0917701FF2391F731
:1010100022960FB6F894DEBF0FBECDBFDF91CF9101
:101020000895982F80915A01882319F0892F9927C4
:101030000895292F332723373105A4F420373105AC
:1010400064F42936310549F0293631054CF0A901FF
:101050004B5650404230510518F451E050935A011C
:10106000C901089524373105DCF326373105ACF387
:101070002A37310591F32D37310579F3C9010895E8
:10108000982F80915A01882361F0892F9927823700
:101090009105A9F0833791053CF48B369105A1F0B9
:1010A0000895892F992708958437910591F0853700
:1010B0009105B1F710925A0184E290E008951092E0
:1010C0005A0182E290E0089510925A018BE190E07B
:1010D000089510925A0183E290E00895FF920F93D1
:1010E0001F93CF93DF93CDB7DEB723970FB6F89456
:1010F000DEBF0FBECDBFF82E2091C101222341F0EB
:1011000080EFF81609F4C1C621502093C101BDC675
:10111000082F11270E37110509F468C00F37110584
:101120000CF04FC00231110509F46CC103311105F7
:101130000CF059C10130110559F0023011050CF4C1
:101140001CC40730110521F00930110509F06AC0EF
:1011500090915701992309F440C3B0916201BB23D8
:1011600009F460C0E0E0EB830E943C118B81073002
:10117000110509F40AC6083011050CF0E8C5013064
:10118000110509F439C69927282F882369F0F82E0C
:10119000F09401B30F2101BB82B3822B82BBF0918B
:1011A0006201FF22F0926201109261010FEF10E0E4
:1011B00010934F0100934E0110925A011092570163
:1011C00064C60E3E110509F460C60F3E1105D4F445
:1011D0000A3A110509F464C10B3A11050CF0F1C289
:1011E00003381105F9F45FE7F52E1CC090915A0100
:1011F0009923C1F420915701222309F410C190933F
:10120000570143C60C3F110509F422C10D3F1105DA
:101210000CF0CEC2003F110509F419C40A3F1105B4
:1012200009F4E8C460914B01662341F470915A01BE
:10123000772309F4B3C18F2D9927F82EE091780117
:10124000EE23A1F0F0915A01FF2309F4A4C18F2DE0
:1012500099278237910509F455C3833791050CF01E
:1012600040C38B36910509F425C1F82E0E943C112C
:10127000F7FCB3C080915A01882309F06BC100913B
:101280005D01002329F420916101222309F406C3A2
:101290002F2D3327F901EE0FFF1FEE0FFF1FE95F20
:1012A000FA4F11E01093610140915701442341F43A
:1012B00060914E0170914F012617370709F46CC0F9
:1012C0006FEF762F30934F0120934E0134913617F4
:1012D00019F03196649131973296549132975F3F6D
:1012E00011F0339674914423B1F480915E01882308
:1012F00081F0673071F0773061F099278230910585
:1013000009F43DC4833091050CF0DDC3019709F465
:10131000D6C010925E013F3FD9F06F3FC9F06730F1
:1013200009F484C2442309F00DC2E62FFF27E7FD2C
:10133000F095ED5BFE4F81E090E0032E02C0880F38
:10134000991F0A94E2F7182F1095208121232083FA
:101350005F3F11F17F3F09F41AC1773009F482C26F
:10136000442309F001C2E72FFF27E7FDF095ED5B6D
:10137000FE4F81E090E0052E02C0880F991F0A946D
:10138000E2F7082F0095B081B023B083673009F4ED
:101390008FC2773009F4C0C22091690130916A018F
:1013A0002115310509F0BFC0442309F010C14AE5F9
:1013B000F41689F080915B0190915C01FC01E45985
:1013C000FE4FF08201968A3091050CF4A0C2309352
:1013D0005C0120935B010E943C1110915701112385
:1013E00009F4EACEE1CE0137110509F4AEC20237A5
:1013F00011052CF50835110509F4F0C20935110560
:1014000009F010CF90915A01992309F0D5CEB091EF
:101410005701BB2309F472C290935D01CDCE809138
:101420007701882309F031C5982F30917801332353
:1014300009F491E0909378010E94520726C507377E
:10144000110509F4E6C20837110509F0EBCE80CE8C
:10145000209352016FEF60937B0151E05093600144
:10146000209379014AE04093BD012983F0907901EE
:10147000FF2009F00AC5F8941BBE8A9A9298198237
:101480007981753008F07DC21A8203C0BA81BF5FCE
:10149000BA83AA81AA35D0F3E981EF5FE983F0CF5F
:1014A00041E04093520120935F0120936B01209310
:1014B0006401EBC410925A018BE190E0D6CE343037
:1014C00009F427CF543009F424CF90915F01992378
:1014D00029F0A92FA150A0935F019A2F992309F415
:1014E00093C480914A018F7E80934A0120913801F4
:1014F000E09137012F3F09F40CCFEF3F09F409CFFA
:10150000E73009F489C4FF27E7FDF095ED5BFE4F56
:1015100081E090E002C0880F991F2A95E2F7908140
:10152000982B9083F6CEE091BF01F091C001EF2B94
:1015300009F451CF442309F44ECF2AE5F21609F0FD
:101540004ACF10926A01109269011092C001109264
:10155000BF0141CF2F2D3327F901EE0FFF1FEE0FF3
:10156000FF1FE95FFC4F306E9FCE442309F4C4C3D4
:1015700080915F01882319F0815080935F01882357
:1015800009F4C2C380914A018F7E80934A014423AB
:1015900009F002CFFBCE8F2D992767CE2F2D332751
:1015A000233731050CF0F2C0203731055CF42936C1
:1015B000310541F02936310544F0D901AB56B04030
:1015C000129718F4B1E0B0935A01C90136CE7AE50A
:1015D000F71609F000CF40915B0150915C0120E0CB
:1015E00030E0FA01E459FE4F908170913901AAE38D
:1015F000B1E0971709F095C04F5F5F4F4A30510532
:101600000CF0A9012F5F3F4FFA01E459FE4F6081B2
:10161000FD906F1509F085C04F5F5F4F4A3051054F
:1016200014F040E050E02F5F3F4FFA01E459FE4FC5
:1016300010818D91181709F074C04F5F5F4F4A30C9
:10164000510514F040E050E02F5F3F4FFA01E4599C
:10165000FE4F0081FD910F1709F063C04F5F5F4F90
:101660004A30510514F040E050E02F5F3F4FFA013F
:10167000E459FE4F90817D91971709F052C04F5F5A
:101680005F4F4A30510514F040E050E02F5F3F4F6C
:10169000FA01E459FE4F6081FD906F1509F041C0D9
:1016A0004F5F5F4F4A30510514F040E050E02F5F2C
:1016B0003F4FFA01E459FE4F10818D91181789F5BB
:1016C0004F5F5F4F4A30510514F040E050E02F5F0C
:1016D0003F4FFA01E459FE4F0081FD910F1709F5C4
:1016E0004F5F5F4F4A30510514F040E050E02F5FEC
:1016F0003F4FFA01E459FE4F90817D91971789F48D
:10170000FA013196EA30F10514F0E0E0F0E02F5FE5
:101710003F4FE459FE4F6081FC906F1511F42F5F2D
:101720003F4F2A3031050CF456CEFAE0ACE6B1E07A
:101730001D92FA95E9F784E590E090936A01809311
:10174000690103CFE62FFF27E7FDF095ED5BFE4F24
:1017500081E090E0032E02C0880F991F0A94E2F7FF
:10176000A081A82BA083F4CDE72FFF27E7FDF095FC
:10177000ED5BFE4F81E090E0052E02C0880F991FBF
:101780000A94E2F79081982B908301CF243731059A
:101790000CF41BCF263731050CF414CF2A37310552
:1017A00009F410CF2D37310509F40CCFC90145CD0F
:1017B0000E3F110509F44FC10F3F110509F032CD5D
:1017C00064C3003E110509F473C1013E110509F01F
:1017D00029CD82E08093C10158C320915F0122236B
:1017E00009F420CD9B830E943C118B8107301105A9
:1017F00009F4CDC2083011050CF09FC2013011056B
:1018000009F4FEC29927282F882369F0982F909514
:1018100052B3592352BB41B3422B41BB10916201D9
:10182000122B1093620110925A012FC3343009F425
:101830008AC1353009F430C2363009F073CD442303
:1018400009F4ABC280916401882319F08150809320
:101850006401882309F4AFC280914A018F7B809391
:101860004A0176CD543009F480CE553009F427C2B0
:10187000563009F075CD442309F499C28091640172
:10188000882319F0815080936401882309F489C268
:1018900080914A018F7B80934A0179CE2F2D332787
:1018A000F901EE0FFF1FEE0FFF1FE95FF84FFCCCB1
:1018B000832F992787FD90958530910509F456C1AE
:1018C000863091050CF0F8C0049709F462C230919B
:1018D0005E01332309F460CD5093380170933701D2
:1018E0005BCD8437910509F445C18537910509F031
:1018F000BCCC10925A0184E290E0B7CCE1E0E093D6
:101900005D015ACC10925A0182E290E0AECC9093E5
:101910005C0180935B015FCD852F992787FD9095B2
:101920008530910509F4DEC1863091050CF0ADC11A
:10193000049709F459C250915E01552309F42CCD46
:10194000309338016093370127CD90915A01992344
:1019500009F468CC60915701662309F463CC709157
:101960006401772309F45ECCA0915F01AA2309F4F6
:1019700059CCF8940E94000055CC012B09F485C283
:1019800051CC93988B9A1982F981F53060F41A82C0
:1019900003C00A810F5F0A838A818A35D0F31981D7
:1019A0001F5F1983F1CF71E07093790160917B0122
:1019B00060934D01F0906001F0927A015FED58BBA9
:1019C000109276018A9842E045BF30E43BBF2BE09D
:1019D000209363019FEF9ABF789457C290915A0168
:1019E000992309F020CF00915701002359F58091E8
:1019F0007701882309F017CF982F10914C011123FC
:101A000009F491E090934C010E94520710925A0100
:101A10003CC290915A01992309F005CF409157019A
:101A2000442381F480917701882309F0FCCE982F1C
:101A300050914B01552309F491E090934B010E9482
:101A40005207E4CF9093570110925A011EC2A1E0B1
:101A5000A09357011AC250914D015E3E09F415C280
:101A6000B0914D01A0917A01B0937B01A0936001E8
:101A7000209379017AE07093BD0129836091790107
:101A8000662309F002C2F8941BBE8A9A92981982C2
:101A9000E981E53008F03EC11A8203C08A818F5F78
:101AA0008A83FA81FA35D0F309810F5F0983F0CF79
:101AB000F1E0F0935A01E9C1069709F008CF82E0FE
:101AC00080935E0104CF039709F023CC353009F4ED
:101AD00020CC553009F41DCC90916B01992329F04D
:101AE000892F815080936B01982F992309F490C11D
:101AF00080914A018F7D80934A0120913801E091C5
:101B000037012F3F09F405CCEF3F09F402CCE73051
:101B100009F0F9CC243009F491C1253009F4A8C1A9
:101B2000263009F0F0CC80916401882319F08150AF
:101B300080936401882309F459C080914A018F7B06
:101B400080934A01E6CB442309F4DAC080915F0117
:101B5000882319F0815080935F01882309F4C6C05F
:101B600080914A018F7E80934A01F2CB83E080937B
:101B70005E01ADCE10925A0183E290E076CB363012
:101B800009F4C7CB563009F4C4CB90916401992372
:101B900029F0E92FE150E09364019E2F992309F485
:101BA00027C180914A018F7B80934A01209138019F
:101BB000E09137012F3F09F4ACCBEF3F09F4A9CBFB
:101BC000E73009F0A0CC243009F438C1253009F4FD
:101BD00028C1263009F097CC992329F0F92FF1502C
:101BE000F09364019F2F992309F0A7CF80914A01B8
:101BF0008064A6CFF0907701FF2009F441C02091C6
:101C000056019091BC0120937B019093600110924A
:101C100079011AE01093BD011A8200917901002325
:101C200079F5F8941BBE8A9A92981A823A813530D7
:101C300008F0C7C0198203C059815F5F5983498189
:101C40004A35D0F36A816F5F6A83F0CF31E0309319
:101C5000790120917B0120934D01F0906001F09279
:101C60007A019FED98BB109276018A9812E015BF19
:101C700000E40BBF8BE080936301FFEFFABF789421
:101C8000109277011092BC0100C1069709F053CE63
:101C900082E080935E014FCE442309F46CC08091B2
:101CA0006B01882319F0815080936B01882309F41C
:101CB00058C080914A018F7D80934A0149CB4423CB
:101CC00009F455C080916B01882319F081508093ED
:101CD0006B01882309F453C080914A018F7D809362
:101CE0004A0155CC83E080935E0125CE80914A0164
:101CF000806180934A012CCB80915F018F5F3DCC46
:101D000080915F018F5F27CF80914A01806180932E
:101D10004A013DCC93988B9A19821981153008F0AD
:101D200042CE1A8203C02A812F5F2A839A819A3574
:101D3000D0F339813F5F3983F0CF0930110509F4C1
:101D40005DC00837110509F05DCD80E45BCD093039
:101D5000110509F457C00837110509F014CA80E4C9
:101D600012CA80914A01806280934A01F1CA80912F
:101D70006B018F5FACCF80916B018F5F95CF8091AE
:101D80004A01806280934A0102CC80E8FCC980E865
:101D900039CD81E080935E019ACD809164018F5F9F
:101DA00056CD80914A01806480934A01F0CB8091A6
:101DB00064018F5F68CD80914A01806480934A01FD
:101DC000C7CA93988B9A1A827A81753008F03ECFF1
:101DD000198203C0B981BF5FB983A981AA35D0F345
:101DE000EA81EF5FEA83F0CF81E080935E01A3CDCB
:101DF00080914A018064D8CE80E1C5C980E202CDDD
:101E000080E100CD80E2BFC980914A0180616CCB46
:101E100080914A0180626FCE2430E9F0253009F0CC
:101E20007FCE80916B01882319F0815080936B01E4
:101E3000882339F180914A018F7D82CE80915F01A4
:101E4000882319F0815080935F01882369F0809185
:101E50004A018F7E75CE992329F0B92FB150B093E6
:101E60005F019B2F992399F780914A01806168CE89
:101E7000992329F0092F015000936B01902F99238A
:101E8000C9F680914A0180625BCE23960FB6F89422
:101E9000DEBF0FBECDBFDF91CF911F910F91FF909D
:101EA00008951F920F920FB60F9211242F933F9314
:101EB0004F935F936F937F938F939F93AF93BF9352
:101EC000EF93FF93CF93DF93CDB7DEB72297DEBFBB
:101ED000CDBF2FEF3FEF30936801209367018091D2
:101EE0007901882351F030917601332309F451C0F0
:101EF00052E055BF10927601C7C04091760144234D
:101F0000B1F490916301592F5350583038F48091B7
:101F100053018695839980688093530191509093E3
:101F2000630173E075BF61E060937601ADC090918D
:101F300063019923E9F6A0916901B0916A01AB2B85
:101F400009F48FC0E1E0F0E0F093C001E093BF013D
:101F50009BE0B091BD011B160CF04FC01A82F091AE
:101F60007901FF2309F049C0F8941BBE8A9A929820
:101F70001A828A81853008F049C0198203C03981EC
:101F80003F5F398329812A35D0F34A814F5F4A83E5
:101F9000F0CF63E065BF51E0509376014091BD0101
:101FA00047FD72C07091BD01733064F090917B0168
:101FB00090FD26C093988B9AA0917B01A695A09343
:101FC0007B0115C0B091BD01B23009F44FC0F09152
:101FD000BD01F130C1F08091BD01882341F48399A6
:101FE0004DC0809379018BE080936301C59A309155
:101FF000BD0131503093BD0147C09093630178CF4C
:102000008B98939AD9CF8B98939AF1CF93988B9A78
:102010001A825A81553060F4198203C079817F5F3A
:10202000798369816A35D0F39A819F5F9A83F1CF72
:1020300041E04093790130917B0130934D01209133
:10204000600120937A018FED88BB8A98F2E0F5BF9A
:10205000B0E4BBBFEBE0E0936301AFEFAABF7894BD
:1020600047CF809153010E946E0872CFC198E091D2
:102070006001EE2341F693988B9AB9CF2091BD0170
:102080002F5F2093BD01B3CF2296F894DEBFCDBF62
:10209000DF91CF91FF91EF91BF91AF919F918F9180
:1020A0007F916F915F914F913F912F910F900FBE54
:1020B0000F901F901895982F8091BE018034F8F4EE
:1020C000E0915801F091590190832091580130918D
:1020D00059012F5F3F4F4091BE014F5F4093BE01BA
:1020E00081E02C3B380738F02CE731E03093590180
:1020F0002093580108953093590120935801089571
:102100002091BE01222349F40E943C1180E00E94EC
:10211000D0102091BE012223B9F3E0916501F09126
:1021200066018191482F552781E0EC3BF80728F4A0
:10213000F0936601E093650106C06CE771E070936F
:1021400066016093650121502093BE01CA01089584
:10215000CF93E0916901F0916A01309799F0CF0136
:102160000196C491CC2351F090936A018093690148
:102170008C2F0E946E08C03F61F304C010926A0168
:1021800010926901CF9108958FEF8ABB8BBB87BBFB
:1021900088BB14BA85BB11BA82BB81E090E0089578
:1021A0001F93CF93DF93CDB7DEB723970FB6F89485
:1021B000DEBF0FBECDBF182F8823C9F12FEF2BBB79
:1021C00019828981811708F04DC01A823A81323311
:1021D00090F41B824B81403540F40E943C115B819E
:1021E0005F5F5B834B814035C0F36A816F5F6A83B9
:1021F0003A81323370F3A0916701B0916801AB2B43
:1022000079F080916701909168010197909368013E
:1022100080936701E0916701F0916801EF2BF9F07D
:1022200099819F5F99837981711778F21BC0A09182
:102230006701B0916801AB2BA9F080916701909183
:10224000680101979093680180936701E0916701AD
:10225000F0916801EF2B31F40E94520503C00E94F7
:102260005205DECF23960FB6F894DEBF0FBECDBF6A
:10227000DF91CF911F91089593B39F3F39F18FEF75
:102280008ABB292F3327273F310519F1283F310514
:102290008CF42F3D310509F442C02F3E310509F47D
:1022A00050C026FD42C040914C01442309F447C070
:1022B0008FEE11C02D3F310579F12E3F3105C4F568
:1022C0002B3F310571F78091480105C01ABA1BBA3E
:1022D0000895809144018BBB609150017091510130
:1022E00026173707C1F030935101209350012091F8
:1022F0005401309155012F5F3F4F3093550120938A
:102300005401A0916901B0916A01AB2B21F02770B3
:102310003070232B39F0089580914601DCCF8091F5
:102320004501D9CF0E94A81008952FEF2BBB089527
:102330002E3F310509F0B5CF80914A01CCCF8FEF08
:08234000CACF80914901C7CF0B
:1023480052454D20284329203230303720627920E9
:102358004D2E4272656E7420616B610A52454D20A4
:1023680054757273692D206861726D6C6573736C36
:10237800696F6E2E636F6D0A52454D204C69636517
:102388006E73656420666F7220706572736F6E611C
:102398006C0A52454D20757365206F6E6C792E0A54
:1023A80052454D205468697320736F667477617263
:1023B80065206D6179206E6F740A52454D20626503
:1023C8002072652D6469737472696275746564201E
:1023D8006F720A52454D20736F6C64207769746878
:1023E8006F7574207772697474656E0A52454D2052
:1023F8007065726D697373696F6E2066726F6D2098
:102408007468650A52454D20617574686F722E2094
:102418002056312E340A00FFFF757572726B746B8B
:1024280074321CFFFFFFFFFFFFFFFF0101EEFF00FB
:02243800FFFFA4
:00000001FF
