S021000041546D656761333238505F586D696E695F546573745F4153462E737265634B
S113000033C000000EC2000035C200005CC2000014
S113001083C20000AAC2000037C000009BC00000D9
S113002014C10000B6C1000039C100006AC000005C
S1130030E3C0000085C100003BC00000B4C0000064
S113004056C1000021C000001FC000001DC00000F8
S11300501BC0000019C0000017C0000015C000003C
S113006013C0000011C0000011241FBECFEFD8E060
S1130070DEBFCDBF21E0A0E0B1E001C01D92A032FF
S1130080B207E1F78CD3C1C3BBCF8FEF8093640079
S113009080916100833059F08FB7F8945F9350E8F2
S11300A05093610053E0509361005F918FBF0895B6
S11300B01F920F920FB60F9211242F933F934F93D9
S11300C05F936F937F938F939F93AF93BF93EF93BC
S11300D0FF93E0911201F0911301309709F0099513
S11300E0FF91EF91BF91AF919F918F917F916F910C
S11300F05F914F913F912F910F900FBE0F901F90E2
S113010018951F920F920FB60F9211242F933F93BD
S11301104F935F936F937F938F939F93AF93BF930B
S1130120EF93FF93E0910C01F0910D01309709F0EA
S11301300995FF91EF91BF91AF919F918F917F911D
S11301406F915F914F913F912F910F900FBE0F9040
S11301501F9018951F920F920FB60F9211242F9390
S11301603F934F935F936F937F938F939F93AF933B
S1130170BF93EF93FF93E0910401F0910501309751
S113018009F00995FF91EF91BF91AF919F918F91E4
S11301907F916F915F914F913F912F910F900FBE7F
S11301A00F901F9018951F920F920FB60F92112463
S11301B02F933F934F935F936F937F938F939F936B
S11301C0AF93BF93EF93FF93E0911001F09111016E
S11301D0309709F00995FF91EF91BF91AF919F91ED
S11301E08F917F916F915F914F913F912F910F90DC
S11301F00FBE0F901F9018951F920F920FB60F927B
S113020011242F933F934F935F936F937F938F9317
S11302109F93AF93BF93EF93FF93E0910A01F09103
S11302200B01309709F00995FF91EF91BF91AF91C0
S11302309F918F917F916F915F914F913F912F91FA
S11302400F900FBE0F901F9018951F920F920FB62C
S11302500F9211242F933F934F935F936F937F9348
S11302608F939F93AF93BF93EF93FF93E09102011A
S1130270F0910301309709F00995FF91EF91BF9137
S1130280AF919F918F917F916F915F914F913F912A
S11302902F910F900FBE0F901F9018951F920F92E1
S11302A00FB60F9211242F933F934F935F936F9345
S11302B07F938F939F93AF93BF93EF93FF93E091BB
S11302C00601F0910701309709F00995FF91EF912C
S11302D0BF91AF919F918F917F916F915F914F915A
S11302E03F912F910F900FBE0F901F9018951F9262
S11302F00F920FB60F9211242F933F934F935F9356
S11303006F937F938F939F93AF93BF93EF93FF93D9
S1130310E0910E01F0910F01309709F00995FF91DA
S1130320EF91BF91AF919F918F917F916F915F9169
S11303304F913F912F910F900FBE0F901F901895E2
S11303401F920F920FB60F9211242F933F934F9346
S11303505F936F937F938F939F93AF93BF93EF9329
S1130360FF93E0910801F0910901309709F0099594
S1130370FF91EF91BF91AF919F918F917F916F9179
S11303805F914F913F912F910F900FBE0F901F904F
S113039018951F920F920FB60F9211242F933F932B
S11303A04F935F936F937F938F939F93AF93BF9379
S11303B0EF93FF93E0910001F0910101309709F070
S11303C00995FF91EF91BF91AF919F918F917F918B
S11303D06F915F914F913F912F910F900FBE0F90AE
S11303E01F901895E4E6F0E08081877F808308956C
S11303F0E4E6F0E080818860808308952FB7F89464
S11304009093090180930801B09AEFE6F0E08081AF
S1130410816080832FBF08952D98259A27982F9A5D
S113042008951F920F920FB60F9211242F933F93AA
S11304304F935F936F937F938F939F93AF93BF93E8
S1130440EF93FF93E0911C01F0911D01309709F0A7
S11304500995FF91EF91BF91AF919F918F917F91FA
S11304606F915F914F913F912F910F900FBE0F901D
S11304701F9018951F920F920FB60F9211242F936D
S11304803F934F935F936F937F938F939F93AF9318
S1130490BF93EF93FF93E0911A01F0911B01309702
S11304A009F00995FF91EF91BF91AF919F918F91C1
S11304B07F916F915F914F913F912F910F900FBE5C
S11304C00F901F9018951F920F920FB60F92112440
S11304D02F933F934F935F936F937F938F939F9348
S11304E0AF93BF93EF93FF93E0911801F09119013B
S11304F0309709F00995FF91EF91BF91AF919F91CA
S11305008F917F916F915F914F913F912F910F90B8
S11305100FBE0F901F9018951F920F920FB60F9257
S113052011242F933F934F935F936F937F938F93F4
S11305309F93AF93BF93EF93FF93E0911601F091D4
S11305401701309709F00995FF91EF91BF91AF9191
S11305509F918F917F916F915F914F913F912F91D7
S11305600F900FBE0F901F9018951F920F920FB609
S11305700F9211242F933F934F935F936F937F9325
S11305808F939F93AF93BF93EF93FF93E0911401E5
S1130590F0911501309709F00995FF91EF91BF9102
S11305A0AF919F918F917F916F915F914F913F9107
S11305B02F910F900FBE0F901F90189598EE980FE3
S11305C0953010F4DA9A089590EF980F973010F45C
S11305D0D99A08958850883008F4D89A089598EEE6
S11305E0980F9530A8F4E8E6F0E090819460908349
S11305F0EDE6F0E04081877021E030E0B90102C00F
S1130600660F771F8A95E2F7CB01842B80830895C8
S113061090EF980F9730A8F4E8E6F0E090819260AC
S11306209083ECE6F0E04081877021E030E0B9018E
S113063002C0660F771F8A95E2F7CB01842B808373
S1130640089598EF980F9830A0F4E8E6F0E09081D0
S113065091609083EBE6F0E04081877021E030E028
S1130660B90102C0660F771F8A95E2F7CB01842B8C
S11306708083089598EE980F953088F4EDE6F0E0C5
S11306804081877021E030E0B90102C0660F771F16
S11306908A95E2F7CB01809584238083089590EFB7
S11306A0980F973088F4ECE6F0E04081877021E001
S11306B030E0B90102C0660F771F8A95E2F7CB01DB
S11306C0809584238083089598EF980F983080F460
S11306D0EBE6F0E04081877021E030E0B90102C030
S11306E0660F771F8A95E2F7CB0180958423808378
S11306F00895CF93C82FBEDF8C2F877021E030E0A0
S113070002C0220F331F8A95E2F7EC2FE695E69597
S1130710E695F0E0AF01440F551FE40FF51FB096C6
S1130720822F80959181892381838281282B228342
S11307308C2F44DF8C2F53DFCF9108958A3129F415
S113074070931D0160931C0108958B3129F47093FB
S11307501B0160931A01089598EF980F983028F4BC
S11307607093190160931801089590EF980F9730D2
S113077028F4709317016093160108958851853009
S113078020F4709315016093140108951F9903C018
S113079081E080931E01089580E283B9089575DC99
S11307A03BDE10921E0181E080931F01F8948FB705
S11307B0F89410928500109284008FBF13DEE1E854
S11307C0F0E08081887F826080838CEC93E016DE89
S11307D00FDE66EC73E08FE0B1DF8FE08ADF7894A0
S11307E0C1E080911E018823E1F380911F018823D9
S11307F011F0F8DD02C0FCDD2D9810921E018091ED
S11108001F018C2780931F01ECCFF894FFCFCB
S9030000FC
