:100000000C941C030C9437030C9437030C949A073C
:100010000C9437030C9437030C9437030C94370378
:100020000C9437030C9437030C9437030C94370368
:100030000C9437030C9437030C9437030C94370358
:100040000C9437030C9437030C9437030C94370348
:100050000C943703560A210A8B0A0708DB080708A5
:100060000708070807080708B709070882090708EB
:1000700007080708070807080708EC090708070822
:100080000708070807080708070896080708070869
:10009000C80A0708C00AD308CB080708450907089B
:1000A000070810094D0907088E0807088608520836
:1000B00007080708070807081C0814084175746F2B
:1000C0006D61746963206F7065726174696F6E2011
:1000D0006D6F64652C205020726567756C61746962
:1000E0006F6E3A20000A202D2D2D204D6F6E697401
:1000F0006F72206F7065726174696F6E206D6F64CE
:10010000653A202D2D2D0A0D0A63496E3B634D6F14
:100110003B4144433B50574D0A0D004D616E7561A4
:100120006C206F7065726174696F6E206D6F6465AD
:100130003A2000536C656570206D6F64652E205405
:100140006F2077616B652075702C207072657373FA
:1001500020276F2720286F6E293A20004175746F81
:100160006D61746963206F7065726174696F6E2070
:100170006D6F64652C206F70656E2D6C6F6F7020D5
:100180006469676974616C20726567756C61746914
:100190006F6E3A2000BC00E5001B0133015C010AD0
:1001A0000D204572726F72206D6573736167653AD9
:1001B00020000A0D20466F722073687572652068F2
:1001C000617070656E656420736F6D657468696ECB
:1001D000672077696572642E2054686973206D65A5
:1001E000737361676520776173206E6F7420737518
:1001F00070706F73656420746F206265207365652D
:100200006E2E0A0D0A0D000A0D205061636B657495
:1002100020776974686F757420646174612E0A0DAB
:100220000A0D000A0D20546869732069732061204B
:10023000636F6D6D616E642C206E6F742061207031
:100240006172616D657465722E20547279206C6FD5
:10025000776572636173652E0A0D0A0D000A0D2021
:10026000546869732069732061206F7065726174CE
:10027000696F6E206D6F646520636F6D6D616E6474
:100280002E0A0D0A0D000A0D2027782720726574AA
:1002900075726E7320636F6E74726F6C6C65722012
:1002A000746F20697473202064656661756C7420B6
:1002B000737461746520284175746F6D617469632E
:1002C000292E0A0D0A0D000A0D20496E76616C690F
:1002D0006420696E7075742E20417420656E6420F0
:1002E0006F6620737472696E672070726573732015
:1002F000656E746572202872657475726E292E0A97
:100300000D0A0D000A0D20556E6B6E6F776E20631F
:100310006F6D6D616E64206F7220706172616D65CA
:100320007465722E0A0D0A0D00B201070223025DE8
:10033000028602C7020403303030303031303032B0
:100340003030333030343030353030363030373094
:100350003038303039303130303131303132303185
:100360003330313430313530313630313730313867
:100370003031393032303032313032323032333065
:100380003234303235303236303237303238303243
:10039000393033303033313033323033333033343B
:1003A000303335303336303337303338303339301B
:1003B000343030343130343230343330343430341B
:1003C00035303436303437303438303439303530F5
:1003D00030353130353230353330353430353530F5
:1003E00035363035373035383035393036303036CF
:1003F00031303632303633303634303635303636CA
:1004000030363730363830363930373030373130B3
:10041000373230373330373430373530373630379E
:10042000373037383037393038303038313038328B
:10043000303833303834303835303836303837307B
:100440003838303839303930303931303932303964
:10045000333039343039353039363039373039384E
:10046000303939313030313031313032313033316F
:100470003034313035313036313037313038313059
:10048000393131303131313131323131333131344F
:10049000313135313136313137313138313139312E
:1004A0003230313231313232313233313234313231
:1004B0003531323631323731323831323931333009
:1004C0003133313133323133333133343133353108
:1004D00033363133373133383133393134303134E5
:1004E00031313432313433313434313435313436DE
:1004F00031343731343831343931353031353131C7
:1005000035323135333135343135353135363135B4
:10051000373135383135393136303136313136329F
:10052000313633313634313635313636313637318E
:10053000363831363931373031373131373231377A
:100540003331373431373531373631373731373862
:10055000313739313830313831313832313833315F
:100560003834313835313836313837313838313838
:100570003931393031393131393231393331393436
:100580003139353139363139373139383139393214
:100590003030323031323032323033323034323047
:1005A000353230363230373230383230393231301D
:1005B000323131323132323133323134323135321B
:1005C00031363231373231383231393232303232FB
:1005D00031323232323233323234323235323236F2
:1005E00032323732323832323932333032333132DA
:1005F00033323233333233343233353233363233CB
:1006000037323338323339323430323431323432B3
:1006100032343332343432343532343632343732A1
:100620003438323439323530323531323532323590
:10063000333235343235350011241FBECFE5D4E0D6
:10064000DEBFCDBF10E0A0E6B0E0E4E3F3E202C01D
:1006500005900D92A836B107D9F710E0A8E6B0E0F2
:1006600001C01D92A43DB107E1F70C94C00E0C949B
:100670000000BB9A83B7896683BF1CBE0895882398
:1006800011F4BB980895BB9A8CBF089587B181621D
:1006900087B986B1876086B9379AA89A85B3A09A38
:1006A00084B30895369A90E020E030E0349BFECF8A
:1006B00085B1280F311D9F5F9032C0F33695279585
:1006C000329522952F7023273F7023278091D000E9
:1006D000882379F49091D100E92FFF27E459FF4F47
:1006E0002083943629F19F5F9093D10080E090E0C1
:1006F00008958130D9F7ACE6B0E0FD0181818D939A
:10070000F0E0A03DBF07C9F72093CF00ECE6F0E092
:1007100020E030E08191280F311DAE17BF07D1F7DF
:10072000C90164E670E00E948611862F992708951A
:1007300081E08093D000D7CF0895292F332720BDA3
:1007400089B980B58E6880BD8AB188618AB90895FB
:10075000382FEFE9F1E08491882369F090E05D9B08
:10076000FECF9F5F84918CB9E92FFF27E156FE4FA2
:1007700084918823A1F783E0389FC0011124895C0C
:100780009C4F20E05D9BFECFFC01E20FF11DE49148
:10079000ECB92F5F2330B0F3E32FFF27EE0FFF1FDD
:1007A000E75DFC4F0190F081E02D9F01849188234B
:1007B00061F090E05D9BFECF9F5F84918CB9F90161
:1007C000E90FF11D84918823A9F70895BC0140E049
:1007D0005F9BFECF242F3327F901E60FF71F8CB163
:1007E00080835D9BFECF80818CB980818D3029F024
:1007F0004F5F453068F3242F33275D9BFECF8AE09F
:100800008CB9C9010895CF93DF93DA018C938DE3FE
:10081000EA0189839A012E5F3F4F7727FB01EE0F94
:10082000FF1FE60FF71FE95CFC4F84918A83319626
:100830008491E90189833196E491EA83DF91CF9134
:100840000895662349F0FC0190E05D9BFECF819105
:100850008CB99F5F9617C9F75D9BFECF8DE08CB971
:100860005D9BFECF8AE08CB90895FC019C018491C8
:10087000882361F090E05D9BFECF9F5F84918CB9EF
:10088000F901E90FF11D84918823A9F7089593E0F8
:10089000899FC0011124895C9C4F20E05D9BFECFA5
:1008A000FC01E20FF11DE491ECB92F5F2330B0F3AE
:1008B0005D9BFECF8AE08CB95D9BFECF8DE08CB94D
:1008C0000895982F5D9BFECF84E58CB983E0989FB7
:1008D000C0011124895C9C4F20E05D9BFECFFC0190
:1008E000E20FF11DE491ECB92F5F2330B0F35D9B73
:1008F000FECF8AE08CB95D9BFECF8DE08CB9089568
:1009000085B58E6085BD89B7806889BF8AEF83BD54
:100910008AB3806F8ABBBB9A83B7896683BF1CBECC
:1009200087B1816287B986B1876086B9379AA89AFC
:1009300085B3A09A84B310BC88E189B980B58E686C
:1009400080BD8AB188618AB9789408955F9962C040
:1009500090916A0083E0989FC0011124895C9C4FAC
:1009600020E05D9BFECFFC01E20FF11DE491ECB9AC
:100970002F5F2330B0F390916B009F5F90936B00DB
:100980005D9BFECF8BE38CB983E0989FC00111245F
:10099000895C9C4F20E05D9BFECFFC01E20FF11DC6
:1009A000E491ECB92F5F2330B0F35D9BFECF8BE376
:1009B0008CB99091D30083E0989FC0011124895C89
:1009C0009C4F20E05D9BFECFFC01E20FF11DE49106
:1009D000ECB92F5F2330B0F35D9BFECF8BE38CB976
:1009E0009091D20083E0989FC0011124895C9C4FB4
:1009F00020E05D9BFECFFC01E20FF11DE491ECB91C
:100A00002F5F2330B0F35D9BFECF8DE08CB95D9BF3
:100A1000FECF09C08CB1883709F09ACF8091690068
:100A20008093680095CF8AE08CB908955F9B16C0CB
:100A30008CB18F3699F485B78F7B85BF5D9BFECFD8
:100A40008FE68CB95D9BFECF8DE08CB95D9BFECFB0
:100A50008AE08CB9809169008093680085B78064D2
:100A600085BF85B78F7485BF85B7806485BF88953E
:100A700085B78F7B85BF0895369A90E020E030E0FF
:100A8000349BFECF85B1280F311D9F5F9032C0F39C
:100A900036952795329522952F7023273F7023276F
:100AA0008091D0008823A9F49091D100E92FFF27ED
:100AB000E459FF4F2083943689F19F5F9093D100D2
:100AC00060E06093D3008091D200882321F5BB9829
:100AD00029C08130A9F7ACE6B0E0FD0181818D939A
:100AE000F0E0A03DBF07C9F72093CF00ECE6F0E0AF
:100AF00020E030E08191280F311DAE17BF07D1F7FC
:100B0000C90164E670E00E9486116093D300809171
:100B1000D2008823E1F2BB9A8CBF04C081E08093AD
:100B2000D000CBCF809161008093D2000895809156
:100B30006A008F5F80936A00369A90E020E030E090
:100B4000349BFECF85B1280F311D9F5F9032C0F3DB
:100B500036952795329522952F7023273F702327AE
:100B60008091D000882371F59091D100E92FFF2763
:100B7000E459FF4F2083943609F452C09F5F90934D
:100B8000D10060E04FEF50E06093D3009091D2002D
:100B90009923F1F5BB98209161003327241B350B75
:100BA000809160009927A901489F9001499F300DCD
:100BB000589F300D112437FD30C02F3F3105A1F172
:100BC0009CF129C08130E9F6ACE6B0E0FD018181FD
:100BD0008D93F0E0A03DBF07C9F72093CF00ECE66E
:100BE000F0E020E030E08191280F311DAE17BF0703
:100BF000D1F7C90164E670E00E948611862F8095C6
:100C0000482F55276093D3009091D200992311F279
:100C1000BB9A9CBFC0CF2FEF07C020E030E004C0DC
:100C200081E08093D000AACF2093D2000895369A15
:100C300090E020E030E0349BFECF85B1280F311DDD
:100C40009F5F9032C0F336952795329522952F708D
:100C500023273F7023278091D000882381F490912F
:100C6000D100E92FFF27E459FF4F2083943609F480
:100C700048C09F5F9093D1001092D30008958130B7
:100C8000D1F060E020E030E080E090E06093D300BD
:100C9000892BB1F180916600482F5527809165001E
:100CA0009927841B950B281739077CF1DC9ADD9A6C
:100CB000DE9ADF9A0895ACE6B0E0FD0181818D9364
:100CC000F0E0A03DBF07C9F72093CF00ECE6F0E0CD
:100CD00020E030E08191280F311DAE17BF07D1F71A
:100CE000C90164E670E00E948611262F3327882709
:100CF0009927821B930BCACFDC98DD98DE98DF988A
:100D0000089581E08093D000B4CF8091640099274A
:100D1000841B950B281739076CF480916300992781
:100D2000841B950B2817390754F0DC9ADD9ADE985E
:100D3000DF980895DC9ADD9ADE9ADF980895809115
:100D400062009927841B950B28173907ACF2DC9AAF
:100D5000DD98DE98DF9808954091680080916900E1
:100D6000481729F0BB98DC98DD98DE98DF98423070
:100D7000E0F1423031F0443009F008950E94170646
:100D80000895369A90E020E030E0349BFECF85B1A4
:100D9000280F311D9F5F9032C0F33695279532950D
:100DA00022952F7023273F7023278091D00088231E
:100DB00009F061C09091D100E92FFF27E459FF4F5E
:100DC0002083943609F4AEC09F5F9093D10060E019
:100DD0006093D3008091D200882309F077C0BB983C
:100DE000809161008093D200089580916A008F5FA6
:100DF00080936A00369A90E020E030E0349BFECF8A
:100E000085B1280F311D9F5F9032C0F3369527952D
:100E1000329522952F7023273F7023278091D00091
:100E2000882309F446C0813009F45AC060E0EFEF2E
:100E3000F0E06093D3009091D200992309F04DC067
:100E4000BB982091610033272E1B3F0B80916000DF
:100E50009927F901E89F9001E99F300DF89F300D27
:100E6000112437FD5CC02F3F310511F00CF02FEF3E
:100E70002093D2007ECF813009F0A9CFACE6B0E05C
:100E8000FD0181818D93F0E0A03DBF07C9F720935C
:100E9000CF00ECE6F0E020E030E08191280F311D3A
:100EA000AE17BF07D1F7C90164E670E00E94861152
:100EB0008FCF9091D100E92FFF27E459FF4F208376
:100EC0009436A1F19F5F9093D100B0CFBB9A8CBFB5
:100ED000809161008093D2000895BB9A9CBFB1CFEE
:100EE000ECE6F0E08181819360E0E03DF607D1F728
:100EF0002093CF00ECE6F0E020E030E08191280F75
:100F0000311D70E0E03DF707C9F7C90164E670E004
:100F10000E948611862F8095E82FFF278ACF20E038
:100F200030E0A6CF81E08093D0004ECF81E0809367
:100F3000D000C8CF1F920F920FB60F9211242F939B
:100F40003F934F935F936F937F938F939F93AF9351
:100F5000BF93EF93FF930E94AC06FF91EF91BF9177
:100F6000AF919F918F917F916F915F914F913F9141
:100F70002F910F900FBE0F901F901895CF92DF9278
:100F8000EF92FF920F931F93CF93DF93CDB7DEB70E
:100F9000582FDB01EDB6FEB68DB79EB705970FB69D
:100FA000F8949EBF0FBE8DBF0DB71EB70F5F1F4FCA
:100FB0005230C0F1E52FFF273197E60FF71F41E0D0
:100FC00021E060E0808133279927C0976C01C29EA1
:100FD000C001C39E900DD29E900D1124680FC901CF
:100FE000880F991F880F991F880F991F220F331F91
:100FF000280F4F5F3197451729F78C919927AA271A
:10100000BB27FC01E654F040E433F10518F081E021
:1010100090E001C6E65DFF4FEE0FFF1F0590F491D3
:10102000E02D099460E0E9CF513009F4F9C26093F2
:10103000660080E090E0EFC5513009F4DEC2EFE9D0
:10104000F1E08491882369F090E05D9BFECF9F5F83
:1010500084918CB9E92FFF27E156FE4F84918823B4
:10106000A1F780E05D9BFECFE82FFF27ED5BFC4FF3
:10107000E491ECB98F5F8330A8F3E6E8F2E0849165
:10108000882369F090E05D9BFECF9F5F84918CB9CF
:10109000E92FFF27EA57FD4F84918823A1F780E0CD
:1010A00090E0B9C5513009F405C5EFE9F1E084914C
:1010B000882369F090E05D9BFECF9F5F84918CB99F
:1010C000E92FFF27E156FE4F84918823A1F780E0A6
:1010D0005D9BFECFE82FFF27E05CFC4FE491ECB96D
:1010E0008F5F8330A8F3EDE5F2E084918823B9F2B5
:1010F00090E05D9BFECF9F5F84918CB9E92FFF2725
:10110000E35AFD4F84918823A1F7C9CF513009F4E8
:101110006DC46093610080E090E07DC5513009F4BA
:10112000ABC36093600080E090E075C5513009F476
:1011300064C2EFE9F1E08491882369F090E05D9B5F
:10114000FECF9F5F84918CB9E92FFF27E156FE4FB8
:1011500084918823A1F780E05D9BFECFE82FFF27D5
:10116000E05CFC4FE491ECB98F5F8330A8F3EDE5D0
:10117000F2E08491882309F492CF90E05D9BFECF4A
:101180009F5F84918CB9E92FFF27E35AFD4F84912B
:101190008823A1F784CF513009F4A8C46093640078
:1011A00080E090E038C5513009F4A1C2609363003B
:1011B00080E090E030C5513009F4E7C3EFE9F1E099
:1011C0008491882369F090E05D9BFECF9F5F8491BE
:1011D0008CB9E92FFF27E156FE4F84918823A1F7B0
:1011E00080E05D9BFECFE82FFF27E35CFC4FE4919E
:1011F000ECB98F5F8330A8F3E3E2F2E084918823B7
:1012000009F44DCF90E05D9BFECF9F5F84918CB938
:10121000E92FFF27ED5DFD4F84918823A1F73FCF94
:10122000513009F4A8C3EFE9F1E08491882369F013
:1012300090E05D9BFECF9F5F84918CB9E92FFF27E3
:10124000E156FE4F84918823A1F780E05D9BFECF9D
:10125000E82FFF27E05CFC4FE491ECB98F5F83300F
:10126000A8F3EDE5F2E08491882309F418CF90E02B
:101270005D9BFECF9F5F84918CB9E92FFF27E35AD6
:10128000FD4F84918823A1F70ACF513009F4E0C3C0
:101290006093650080E090E0BEC4513009F44FC314
:1012A000EFE9F1E08491882369F090E05D9BFECF47
:1012B0009F5F84918CB9E92FFF27E156FE4F8491FF
:1012C0008823A1F780E05D9BFECFE82FFF27E05C3D
:1012D000FC4FE491ECB98F5F8330A8F3EDE5F2E0C9
:1012E0008491882309F4DBCE90E05D9BFECF9F5F65
:1012F00084918CB9E92FFF27E35AFD4F849188230D
:10130000A1F7CDCE513009F4E9C2EFE9F1E08491C3
:10131000882369F090E05D9BFECF9F5F84918CB93C
:10132000E92FFF27E156FE4F84918823A1F780E043
:101330005D9BFECFE82FFF27E35CFC4FE491ECB907
:101340008F5F8330A8F3E3E2F2E08491882309F40D
:10135000A6CE90E05D9BFECF9F5F84918CB9E92F74
:10136000FF27ED5DFD4F84918823A1F798CE513082
:1013700009F451C2EFE9F1E08491882369F090E02B
:101380005D9BFECF9F5F84918CB9E92FFF27E156CB
:10139000FE4F84918823A1F780E05D9BFECFE82F6C
:1013A000FF27E35CFC4FE491ECB98F5F8330A8F337
:1013B000E3E2F2E08491882309F471CE90E05D9B32
:1013C000FECF9F5F84918CB9E92FFF27ED5DFD4F24
:1013D00084918823A1F763CE513009F4EBC1EFE982
:1013E000F1E08491882369F090E05D9BFECF9F5FE0
:1013F00084918CB9E92FFF27E156FE4F8491882311
:10140000A1F780E05D9BFECFE82FFF27E35CFC4F58
:10141000E491ECB98F5F8330A8F3E3E2F2E08491CA
:10142000882309F43CCE90E05D9BFECF9F5F8491C2
:101430008CB9E92FFF27ED5DFD4F84918823A1F73B
:101440002ECE513009F485C1EFE9F1E08491882373
:1014500069F090E05D9BFECF9F5F84918CB9E92F8E
:10146000FF27E156FE4F84918823A1F780E05D9B22
:10147000FECFE82FFF27E35CFC4FE491ECB98F5FD0
:101480008330A8F3E3E2F2E08491882309F407CEE5
:1014900090E05D9BFECF9F5F84918CB9E92FFF2781
:1014A000ED5DFD4F84918823A1F7F9CD513009F40A
:1014B000E9C0EFE9F1E08491882369F090E05D9B59
:1014C000FECF9F5F84918CB9E92FFF27E156FE4F35
:1014D00084918823A1F780E05D9BFECFE82FFF2752
:1014E000E35CFC4FE491ECB98F5F8330A8F3E3E257
:1014F000F2E08491882309F4D2CD90E05D9BFECF89
:101500009F5F84918CB9E92FFF27ED5DFD4F84919A
:101510008823A1F7C4CD513009F41AC3EFE9F1E0F3
:101520008491882369F090E05D9BFECF9F5F84915A
:101530008CB9E92FFF27E156FE4F84918823A1F74C
:1015400080E05D9BFECFE82FFF27E35CFC4FE4913A
:10155000ECB98F5F8330A8F3E3E2F2E08491882353
:1015600009F49DCD90E05D9BFECF9F5F84918CB987
:10157000E92FFF27ED5DFD4F84918823A1F78FCDE3
:10158000513009F416C36093620080E090E043C3D9
:10159000513009F43BC0EFE9F1E08491882369F010
:1015A00090E05D9BFECF9F5F84918CB9E92FFF2770
:1015B000E156FE4F84918823A1F780E05D9BFECF2A
:1015C000E82FFF27E05CFC4FE491ECB98F5F83309C
:1015D000A8F3EDE5F2E08491882309F460CD90E072
:1015E0005D9BFECF9F5F84918CB9E92FFF27E35A63
:1015F000FD4F84918823A1F752CD8091680080939C
:1016000069001092680080E090E005C38091680056
:101610008093690084E08093680080E090E0FBC2E2
:10162000EFE9F1E08491882369F090E05D9BFECFC3
:101630009F5F84918CB9E92FFF27E156FE4F84917B
:101640008823A1F780E05D9BFECFE82FFF27E65CB3
:10165000FC4FE491ECB98F5F8330A8F3E7E0F2E050
:101660008491882309F41BCD90E05D9BFECF9F5FA2
:1016700084918CB9E92FFF27E95FFD4F849188237E
:10168000A1F70DCD8091620026E6F80120832DE3BD
:10169000218399279C01220F331F280F391F295CB2
:1016A0003C4FF9018491F80182832F5F3F4FF9018C
:1016B0008491F80183832F5F3F4FF9018491F801F2
:1016C000848390E05D9BFECFF801E90FF11D8081DE
:1016D0008CB99F5F9530B0F35D9BFECF8DE08CB9E8
:1016E0005D9BFECF8AE08CB980E090E094C2EFE988
:1016F000F1E08491882369F090E05D9BFECF9F5FCD
:1017000084918CB9E92FFF27E156FE4F84918823FD
:10171000A1F780E05D9BFECFE82FFF27E65CFC4F42
:10172000E491ECB98F5F8330A8F3E7E0F2E08491B5
:10173000882309F4B4CC90E05D9BFECF9F5F849139
:101740008CB9E92FFF27E95FFD4F84918823A1F72A
:10175000A6CC8091630027E6F80120832DE3218346
:1017600099279C01220F331F280F391F295C3C4FFA
:10177000F9018491F80182832F5F3F4FF901849131
:10178000F80183832F5F3F4FF9018491F80184832F
:1017900090E05D9BFECFF801E90FF11D80818CB9CF
:1017A0009F5F9530B0F35D9BFECF8DE08CB95D9B64
:1017B000FECF98CF8091660029E7F80120832DE3C2
:1017C000218399279C01220F331F280F391F295C81
:1017D0003C4FF9018491F80182832F5F3F4FF9015B
:1017E0008491F80183832F5F3F4FF9018491F801C1
:1017F000848390E05D9BFECFF801E90FF11D8081AD
:101800008CB99F5F9530B0F35D9BFECF8DE08CB9B6
:101810005D9BFECF67CF8091600020E7F8012083B9
:101820002DE3218399279C01220F331F280F391F95
:10183000295C3C4FF9018491F80182832F5F3F4F6F
:10184000F9018491F80183832F5F3F4FF90184915F
:10185000F801848390E05D9BFECFF801E90FF11D54
:1018600080818CB99F5F9530B0F35D9BFECF8DE09A
:101870008CB95D9BFECF36CFEFE9F1E084918823F0
:1018800069F090E05D9BFECF9F5F84918CB9E92F5A
:10189000FF27E156FE4F84918823A1F780E05D9BEE
:1018A000FECFE82FFF27E65CFC4FE491ECB98F5F99
:1018B0008330A8F3E7E0F2E08491882309F4EFCBCA
:1018C00090E05D9BFECF9F5F84918CB9E92FFF274D
:1018D000E95FFD4F84918823A1F7E1CB80916100FE
:1018E00022E7F80120832DE3218399279C01220F11
:1018F000331F280F391F295C3C4FF9018491F801EF
:1019000082832F5F3F4FF9018491F80183832F5F1A
:101910003F4FF9018491F801848390E05D9BFECFF5
:10192000F801E90FF11D80818CB99F5F9530B0F30C
:101930005D9BFECF8DE08CB95D9BFECFD3CE8091B9
:10194000680080936900E5EEF0E08491882369F0F7
:1019500090E05D9BFECF9F5F84918CB9E92FFF27BC
:10196000EB51FF4F84918823A1F781E080936800B9
:1019700080E090E050C1809168008093690082E02F
:101980008093680080E090E046C1809165002AE67F
:10199000F80120832DE3218399279C01220F331F17
:1019A000280F391F295C3C4FF9018491F80182838B
:1019B0002F5F3F4FF9018491F80183832F5F3F4FE1
:1019C000F9018491F801848390E05D9BFECFF801DA
:1019D000E90FF11D80818CB99F5F9530B0F35D9B5D
:1019E000FECF8DE08CB95D9BFECF7CCEEFE9F1E0C0
:1019F0008491882369F090E05D9BFECF9F5F849186
:101A00008CB9E92FFF27E156FE4F84918823A1F777
:101A100080E05D9BFECFE82FFF27E65CFC4FE49162
:101A2000ECB98F5F8330A8F3E7E0F2E0849188237C
:101A300009F435CB90E05D9BFECF9F5F84918CB91C
:101A4000E92FFF27E95FFD4F84918823A1F727CB7A
:101A5000EFE9F1E08491882369F090E05D9BFECF8F
:101A60009F5F84918CB9E92FFF27E156FE4F849147
:101A70008823A1F780E05D9BFECFE82FFF27E65C7F
:101A8000FC4FE491ECB98F5F8330A8F3E7E0F2E01C
:101A90008491882309F403CB90E05D9BFECF9F5F88
:101AA00084918CB9E92FFF27E95FFD4F849188234A
:101AB000A1F7F5CA8091680080936900E3E3F1E043
:101AC0008491882369F090E05D9BFECF9F5F8491B5
:101AD0008CB9E92FFF27ED5CFE4F84918823A1F795
:101AE00083E08093680080E090E095C0EFE9F1E04A
:101AF0008491882369F090E05D9BFECF9F5F849185
:101B00008CB9E92FFF27E156FE4F84918823A1F776
:101B100080E05D9BFECFE82FFF27E65CFC4FE49161
:101B2000ECB98F5F8330A8F3E7E0F2E0849188237B
:101B300009F4B5CA90E05D9BFECF9F5F84918CB99C
:101B4000E92FFF27E95FFD4F84918823A1F7A7CAFA
:101B50008091640028E6F80120832DE321839927F2
:101B60009C01220F331F280F391F295C3C4FF901BC
:101B70008491F80182832F5F3F4FF9018491F8012E
:101B800083832F5F3F4FF9018491F801848390E0B4
:101B90005D9BFECFF801E90FF11D80818CB99F5F3D
:101BA0009530B0F35D9BFECF8DE08CB95D9BFECF91
:101BB00099CDEFE9F1E08491882369F090E05D9B95
:101BC000FECF9F5F84918CB9E92FFF27E156FE4F2E
:101BD00084918823A1F780E05D9BFECFE82FFF274B
:101BE000E65CFC4FE491ECB98F5F8330A8F3E7E04B
:101BF000F2E08491882309F452CA90E05D9BFECF05
:101C00009F5F84918CB9E92FFF27E95FFD4F849195
:101C10008823A1F744CA0FB6F894FEBE0FBEEDBEEE
:101C2000DF91CF911F910F91FF90EF90DF90CF90B8
:101C30000895CF93DF93CDB7DEB725970FB6F8940D
:101C4000DEBF0FBECDBF90E0BE016F5F7F4F5F9BD9
:101C5000FECFFB01E90FF11D8CB180835D9BFECFB0
:101C600080818CB980818D3019F09F5F953078F339
:101C70005D9BFECF8AE08CB9992309F46BC0953047
:101C800008F432C0EFE9F1E08491882369F090E034
:101C90005D9BFECF9F5F84918CB9E92FFF27E156B2
:101CA000FE4F84918823A1F780E05D9BFECFE82F53
:101CB000FF27EA5BFC4FE491ECB98F5F8330A8F318
:101CC000E7ECF2E08491882309F444C090E05D9B46
:101CD000FECF9F5F84918CB9E92FFF27E953FD4F19
:101CE00084918823A1F736C0892F0E94BE078130D6
:101CF00009F030C0EFE9F1E08491882369F090E0C9
:101D00005D9BFECF9F5F84918CB9E92FFF27E15641
:101D1000FE4F84918823A1F780E05D9BFECFE82FE2
:101D2000FF27E75BFC4FE491ECB98F5F8330A8F3AA
:101D3000E4E0F3E08491882369F090E05D9BFECFBE
:101D40009F5F84918CB9E92FFF27EC5FFC4F849152
:101D50008823A1F785B7806485BF85B78F7485BF59
:101D600085B7806485BF889585B78F7B85BF2596AD
:101D70000FB6F894DEBF0FBECDBFDF91CF910895AF
:101D8000C1E5D4E0DEBFCDBF85B58E6085BD89B726
:101D9000806889BF8AEF83BD8AB3806F8ABBBB9A94
:101DA00083B7896683BF1CBE87B1816287B986B15C
:101DB000876086B9379AA89A85B3A09A84B310BC75
:101DC00088E189B980B58E6880BD8AB188618AB999
:101DD0007894309168008E010F5F1F4FBCE5EB2EA9
:101DE000B1E0FB2EF701D490AFE9AA2EA1E0BA2E04
:101DF000F501C490F4E08F2EF3E09F2EF40174906F
:101E00006C2CE7EC4E2EE2E05E2EF2013490ECEB0F
:101E1000F0E02490CE827F82C8863986EBE1F1E043
:101E2000F491FA87CB867C86CD863E86323009F4E3
:101E300070C0333008F0D9C0332309F446C13130C3
:101E4000A9F75F9942C290916A0083E0989FC00110
:101E50001124895C9C4F20E05D9BFECFFC01E20FCA
:101E6000F11DE491ECB92F5F2330B0F390916B003A
:101E70009F5F90936B005D9BFECF8BE38CB983E0FB
:101E8000989FC0011124895C9C4F20E05D9BFECF90
:101E9000FC01E20FF11DE491ECB92F5F2330B0F3A8
:101EA0005D9BFECF8BE38CB99091D30083E0989F2C
:101EB000C0011124895C9C4F20E05D9BFECFFC019A
:101EC000E20FF11DE491ECB92F5F2330B0F35D9B7D
:101ED000FECF8BE38CB99091D20083E0989FC00134
:101EE0001124895C9C4F20E05D9BFECFFC01E20F3A
:101EF000F11DE491ECB92F5F2330B0F35D9BFECF71
:101F00008DE08CB95D9BFECF8AE08CB9323009F050
:101F100090CFEBE1F1E08A85882369F090E05D9B4A
:101F2000FECF9F5F84918CB9E92FFF27E55EFE4FBE
:101F300084918823A1F790E05F9BFECFF801E90F21
:101F4000F11D8CB180835D9BFECF80818CB9808137
:101F50008D3019F09F5F953078F35D9BFECF8AE05E
:101F60008CB9992309F431C0953008F442C1F501C8
:101F70008D85882369F090E05D9BFECF9F5F849103
:101F80008CB9E92FFF27E156FE4F84918823A1F7F2
:101F900080E05D9BFECFE82FFF27EA5BFC4FE491DA
:101FA000ECB98F5F8330A8F3F2018E85882369F046
:101FB00090E05D9BFECF9F5F84918CB9E92FFF2756
:101FC000E953FD4F84918823A1F785B7806485BFCD
:101FD00085B78F7485BF85B7806485BF889585B7C1
:101FE0008F7B85BF3091680021CF333009F45DC00D
:101FF000343009F01BCFF701DD2069F090E05D9BE4
:10200000FECF9F5F84918CB9E92FFF27E45AFE4FE2
:1020100084918823A1F790E05F9BFECFF801E90F40
:10202000F11D8CB180835D9BFECF80818CB9808156
:102030008D3019F09F5F953078F35D9BFECF8AE07D
:102040008CB9992309F4C1CF953008F409C1F50181
:10205000662069F090E05D9BFECF9F5F84918CB914
:10206000E92FFF27E156FE4F84918823A1F780E0F6
:102070005D9BFECFE82FFF27EA5BFC4FE491ECB9B4
:102080008F5F8330A8F3F201332009F49ECF90E0F4
:102090005D9BFECF9F5F84918CB9E92FFF27E953A9
:1020A000FD4F84918823A1F790CF5F9917C185B721
:1020B000806485BF85B78F7485BF85B7806485BF11
:1020C000889585B78F7B85BFB1CEECEBF0E0222001
:1020D00069F090E05D9BFECF9F5F84918CB9E92F02
:1020E000FF27E454FF4F84918823A1F790E05F9B82
:1020F000FECFF801E90FF11D8CB180835D9BFECF0F
:1021000080818CB980818D3019F09F5F953078F394
:102110005D9BFECF8AE08CB9992309F456CF9530A8
:1021200008F430C0F5018885882369F090E05D9B54
:10213000FECF9F5F84918CB9E92FFF27E156FE4FB8
:1021400084918823A1F780E05D9BFECFE82FFF27D5
:10215000EA5BFC4FE491ECB98F5F8330A8F3F201A6
:102160008985882309F431CF90E05D9BFECF9F5F86
:1021700084918CB9E92FFF27E953FD4F849188237F
:10218000A1F723CFB801892F0E94BE07813009F043
:102190001CCFF5018E81882369F090E05D9BFECF16
:1021A0009F5F84918CB9E92FFF27E156FE4F849100
:1021B0008823A1F780E05D9BFECFE82FFF27E75B38
:1021C000FC4FE491ECB98F5F8330A8F3F4018F8169
:1021D000882309F4FACE90E05D9BFECF9F5F849147
:1021E0008CB9E92FFF27EC5FFC4F84918823A1F77E
:1021F000ECCEB801892F0E94BE07813009F0E5CEF0
:10220000F5018B85882369F090E05D9BFECF9F5F91
:1022100084918CB9E92FFF27E156FE4F84918823E2
:10222000A1F780E05D9BFECFE82FFF27E75BFC4F27
:10223000E491ECB98F5F8330A8F3F4018C85882397
:1022400009F4C3CE90E05D9BFECF9F5F84918CB973
:10225000E92FFF27EC5FFC4F84918823A1F7B5CECF
:10226000B801892F0E94BE07813009F0AECEF5017A
:10227000CC2069F090E05D9BFECF9F5F84918CB98C
:10228000E92FFF27E156FE4F84918823A1F780E0D4
:102290005D9BFECFE82FFF27E75BFC4FE491ECB995
:1022A0008F5F8330A8F3F401772009F48ECE90E09D
:1022B0005D9BFECF9F5F84918CB9E92FFF27EC5F78
:1022C000FC4F84918823A1F780CE8CB1883709F028
:1022D000BACD3091690030936800B5CD8CB18F369E
:1022E00009F0E5CE85B78F7B85BF5D9BFECF8FE67E
:1022F0008CB95D9BFECF8DE08CB95D9BFECF8AE0F3
:102300008CB93091690030936800D1CEAA1BBB1BF9
:1023100051E107C0AA1FBB1FA617B70710F0A61BE5
:10232000B70B881F991F5A95A9F780959095BC0106
:04233000CD0108953E
:08233400093296AFC8E1010077
:00000001FF
