:100000002BC043C042C041C040C03FC03EC03DC005
:100010003CC03BC03B0D0A00494E3B49503B444964
:100020003B5350313B5343005859506C6F747465C7
:100030007220427920456D696C652076616E20647E
:100040006572204C61616E207777772E656D7369DC
:10005000676E2E6E6C0D0A0011241FBECFE9CDBF56
:1000600010E0A0E6B0E0EEEBF3E003C0C8953196F7
:100070000D92A236B107D1F710E0A2E6B0E001C0C0
:100080001D92AF36B107E1F70EC1BACFCF93DF9320
:10009000CDB7DEB724970FB6F894DEBF0FBECDBF45
:1000A0001A8280E197E29C838B838B819C818230D2
:1000B000910588F180916600909167002B813C81C9
:1000C000732F622F66D1972F862F8983898188238A
:1000D00021F48A81882309F405C08981805D2ED1AD
:1000E00081E08A8380916600909167002B813C813A
:1000F000732F622F4ED190936700809366008B819F
:100100009C812AE030E0732F622F43D1972F862FF6
:100110009C838B83CACF80916600805D0FD124962B
:100120000FB6F894DEBF0FBECDBFDF91CF9108951B
:10013000CF93DF93CDB7DEB784E190E0F9D0DF91C4
:10014000CF910895CF93DF93CDB7DEB780916C0048
:1001500090916D009093650080936400809162009F
:100160009091630090936A0080936900809164008D
:1001700090916500909367008093660087DF8CE222
:10018000DDD08091690090916A0090936700809320
:1001900066007CDFDF91CF910895CF93DF93CDB7D9
:1001A000DEB721970FB6F894DEBF0FBECDBF198220
:1001B000898189312CF4DED089818F5F8983F8CFE2
:1001C00021960FB6F894DEBF0FBECDBFDF91CF9161
:1001D0000895CF93DF93CDB7DEB788E190E0A8D044
:1001E00010926D0010926C0080E094E09093630098
:1001F00080936200A7DF8CE2A1D0A4DF99DFDF91BA
:10020000CF910895CF93DF93CDB7DEB780913600BD
:10021000992784709070009721F085E580936B009A
:1002200003C084E480936B0082E0A8D08091240016
:100230009091250090936D0080936C0083E09ED098
:100240008091240090912500909363008093620038
:10025000209164003091650080916C0090916D0058
:100260002817390791F42091690030916A00809134
:100270006200909163002817390739F490916E005D
:1002800080916B00981709F40BC080916B008093EC
:100290006E0080E553D080916B0050D053DF48DF73
:1002A000DF91CF910895CFE9D0E0DEBFCDBF1092AE
:1002B000380081E08093370080E78093550083E029
:1002C0008093530082E08093590080E88093460039
:1002D0001092460082E08093350081E080936800B0
:1002E00088E290E025D080915A0099278072907022
:1002F0000097C1F052DF80916800882369F069DFC0
:100300008FE380936B008FEF9FEF90936500809356
:1003100064001092680003C081E08093680080E26E
:1003200080935A00809168008823E9F66BDFDBCF69
:10033000FC018591882379F001D0FBCF0BE08095FB
:10034000089410F0C09802C0C09A000013D012D0D8
:1003500086950A95B1F7089509E0B19BFECF0AD0C2
:1003600009D008D00894B19988940A9511F087951E
:10037000F7CF089512EA1A95F1F7089580648093F3
:10038000270087ED80932600809126008071E1F39D
:100390000895AA1BBB1B51E107C0AA1FBB1FA617CC
:1003A000B70710F0A61BB70B881F991F5A95A9F71E
:0E03B00080959095682F792F8A2F9B2F0895A6
:0203BE0000003D
:00000001FF
