:100000000C943E000C945B000C945B000C945B0021
:100010000C945B000C945B000C945B000C945B00F4
:100020000C945B000C945B000C945B000C945B00E4
:100030000C945B000C945B000C945B000C945B00D4
:100040000C945B000C945B000C945B000C945B00C4
:100050000C945B000C945B000C945B000C945B00B4
:100060000C945B000C945B000B04EC03F103F603AF
:10007000F903FC03FF0302040504080411241FBE56
:10008000CFEFD8E0DEBFCDBF11E0A0E0B1E0E0E00F
:10009000F9E002C005900D92AE3DB107D9F721E01D
:1000A000AEEDB1E001C01D92A83EB207E1F70E949B
:1000B0000F030C947E040C940000E1ECF0E010823D
:1000C0008093C5006093C40082E08093C00088E103
:1000D000808386E08093C200089566BD85BDA89B9D
:1000E000FECFA89A15BC08950F931F93CF93DF936B
:1000F000181619065CF48C01C0E0D0E062EB85E0D4
:100100000E946D0021960C171D07C1F7DF91CF915A
:100110001F910F910895E0ECF0E080818823ECF7C7
:100120008091C600089520E030E0E0ECF0E00CC0E3
:100130002F5F3F4F21349FE1390724F08150A8956C
:1001400020E030E0882329F0908199238CF781E02A
:10015000089580E00895E0ECF0E0908195FFFDCFF8
:100160008093C60008950F931F93CF93DF93FC01F4
:10017000808181110AC011C08991882371F00E9489
:10018000AB000C171D07C1F708C08F010E94AB0020
:10019000E801219608531F4FEFCFDF91CF911F91B8
:1001A0000F9108952F923F924F925F926F927F929C
:1001B0008F929F92AF92BF92CF92DF92EF92FF9277
:1001C0000F931F93CF93DF931C012A013B0141152D
:1001D00051056105704861F52A3019F02031B9F0F8
:1001E00065C098E3F101908384E3818326E3228351
:1001F00023E323839483858397E39683878381E333
:10020000808782E381878DE2828713864FC080E3F7
:10021000F1018083818382838383848385838683C2
:1002200088E387838DE280871186128613863EC01D
:10023000E101C1010C96F1011192E817F907E1F70C
:100240007301620177203CF4CC24DD247601C418CC
:10025000D508E608F70800E010E0822E912CA12CCA
:10026000B12CC701B601A50194010E944304688323
:100270006A3018F4605D688302C0695C68830F5F50
:100280001F4FC701B601A50194010E9443046901F3
:100290007A012196121613061406150614F3772018
:1002A0002CF4F101E00FF11F8DE28083DF91CF91FB
:1002B0001F910F91FF90EF90DF90CF90BF90AF9084
:1002C0009F908F907F906F905F904F903F902F9076
:1002D00008950F931F93CF93DF93FC012081222376
:1002E00099F03196C0E0D0E0219621912111FCCF08
:1002F000209751F08C010C0F1D1FF80182918F0186
:100300000E94AB002197C9F7DF91CF911F910F9108
:100310000895CF93DF93CDB7DEB72C970FB6F8943F
:10032000DEBF0FBECDBF282FCE0101960E94D200A6
:10033000CE0101960E9469012C960FB6F894DEBF9B
:100340000FBECDBFDF91CF9108958093BB0084ECA9
:100350008093BC00ECEBF0E080818823ECF70895FB
:100360008093BB0084E88093BC00ECEBF0E08081DC
:100370008823ECF70895CF93C82F84E48093BC00C2
:10038000ECEBF0E080818823ECF78091BB0080E00B
:100390000E94A5018C2F0E94B00180E88093BC00D0
:1003A000CF910895CF92DF92EF92FF920F931F9318
:1003B000CF93DF93E82EC62FD42ED52F84E48093DD
:1003C000BC00ECEBF0E080818823ECF78091BB006F
:1003D0008E2D0E94A5018C2F0E94A501F12C1E14C8
:1003E0001F04D4F40D2D1D2FC0E0D0E0670181E083
:1003F000C81AD108CC16DD0629F4F80180810E94C4
:10040000B00104C0F80180810E94A50121960F5F10
:100410001F4FCE15DF0571F780E88093BC00DF9198
:10042000CF911F910F91FF90EF90DF90CF900895A3
:10043000CF93DF9300D000D0CDB7DEB789839A8306
:100440006B837C83AE014F5F5F4F61E084E00E946D
:10045000D2010F900F900F900F90DF91CF910895E0
:10046000CF93DF9300D0CDB7DEB789836A83AE0127
:100470004F5F5F4F63E082E00E94D2010F900F90C8
:10048000DF91CF910895CF93DF9300D0CDB7DEB742
:1004900081E689831A82AE014F5F5F4F62E082E09E
:1004A0000E94D2010F900F90DF91CF910895CF93CA
:1004B000DF931F92CDB7DEB7198280E69AEE02C0B5
:1004C000019711F11A9BFCCF1FC0898190E0019622
:1004D00083709078992324F401978C6F9F6F019615
:1004E0008983882389F0AE014F5F5F4F61E581E02A
:1004F0000E94D20163E373E38CEC9CEC0E9418022F
:1005000082E390E00E9474001A9BDFCF0F90DF918E
:10051000CF91089584EC8093BC00ECEBF0E08081F7
:100520008823ECF78091BB00089584E88093BC0099
:10053000ECEBF0E080818823ECF78091BB0008951C
:100540001F93CF93DF93C6ECD0E088E091E00E9448
:10055000B3008AEF0E9493008823B9F388818093C7
:10056000E1018F7D823589F785E691E00E94B30035
:1005700082E50E94BB018FE091E00E94B30084E419
:100580008093BC00ECEBF0E080818823ECF7809155
:10059000BB000E948A02182F0E948A02C82FD0E056
:1005A000DC2FCC270E949502C80FD11D80E88093D4
:1005B000BC0084E391E00E94B300412F50E060E072
:1005C00070E08AE00E9489018BE491E00E94B30010
:1005D000AE010D2E000C660B770B8AE00E9489019C
:1005E000CE3ED24024F481E691E00E94B300DF9138
:1005F000CF911F9108951F93CF93DF93162FEC0196
:100600008991882341F09FE9980F9730C8F7612FAF
:100610000E943002F5CFDF91CF911F910895E1E65E
:10062000F0E080E8808381E080838CEF93E00E949B
:1006300068048093E40180FF08C081E08093E401B6
:1006400060E084EF93E00E9470048091E40183FFF6
:1006500003C081E08093DE01A895E0E6F0E08081B0
:1006600088618083108282E08093BA00ECE7F0E03A
:1006700080818064808385B78F7E85BF8AB18B77C8
:100680008AB98BB184688BB926982E9A85B78F7EEC
:1006900085BF84B18B7784B987B1887F87B98AB1E8
:1006A00087788AB985B1846885B988B1876088B947
:1006B0008BB188678BB985E090E00E94740060E19F
:1006C00080E00E945D0084EF93E00E9468048F3F09
:1006D00009F0B3C060E084EF93E00E94700484EFFF
:1006E00093E00E946804803489F4CAE0D0E085E693
:1006F00091E00E94B3002197D1F78EE991E00E942A
:10070000B30061E484EF93E00E94700484EF93E00F
:100710000E94680486FF18C0682F606884EF93E029
:100720000E94700485E691E00E94B30085E691E0A6
:100730000E94B30085E691E00E94B30085E691E057
:100740000E94B3000C9400361A9903C04A9B0E9481
:1007500057024A9903C04F9B0E94A0028FEC91E080
:100760000E94B30008E611E00F2EF8E98F2EF1E0A9
:100770009F2EF02D0F2EF0E9AF2EF1E0BF2EF02DC1
:100780000F2EFCE8CF2EF1E0DF2EF02D0F2EF6E835
:10079000EF2EF1E0FF2EF02D0F2EF0E86F2EF1E09E
:1007A0007F2EF02D0F2EFBE74F2EF1E05F2EF02D68
:1007B0000F2EF5E72F2EF1E03F2EF02DC0E0D0E018
:1007C0000E948B0090E0FC01F097EA30F10568F59B
:1007D000EC5CFF4F0C9462042DE831E0822F932FE4
:1007E0001CC02FE631E0822F932F17C0822D932D4E
:1007F00014C0842D952D11C0862D972D0EC08E2DE1
:100800009F2D0BC08C2D9D2D08C08A2D9B2D05C0C2
:10081000882D992D02C0802F912FBE010E94FB02CE
:100820002196C830D10561F603C0C830D10544F225
:100830000E948B000E944302C1CF803409F066CF32
:1008400054CFA1E21A2EAA1BBB1BFD010DC0AA1F8B
:10085000BB1FEE1FFF1FA217B307E407F50720F029
:10086000A21BB30BE40BF50B661F771F881F991FA4
:100870001A9469F760957095809590959B01AC01ED
:10088000BD01CF010895052E97FB1EF400940E9430
:100890005A0457FD07D00E94210407FC03D04EF4F0
:1008A0000C945A0450954095309521953F4F4F4FE9
:1008B0005F4F089590958095709561957F4F8F4F0C
:1008C0009F4F0895EE0FFF1F0590F491E02D0994BE
:1008D000F999FECF92BD81BDF89A992780B5089508
:1008E000262FF999FECF1FBA92BD81BD20BD0FB64C
:1008F000F894FA9AF99A0FBE01960895F894FFCFEA
:1009000020452D0020452B00523F20202020000DA7
:100910000A5043425F4120286D696E695F4F532939
:10092000206465766963652063616C6962726174D5
:10093000696E67000D0A4F534343414C2075736540
:10094000722076616C7565202020000D0A63616C51
:100950006962726174696F6E206572726F722020B5
:100960000020204F4B0D0A006162636465660061E0
:100970006267656400616263646700666762630062
:100980006166676364006665676463006162630053
:1009900061626364656667006162636667005072E6
:1009A0006F6A65637420636F6D6D656E74617279D3
:1009B0003A2050726573732027582720746F206582
:1009C0007363617065206F7220414F4B0D0A000DFB
:0E09D0000A53656E64206469676974733F00A2
:00000001FF
