:020000020000FC
:100000000C9434000C9425190C9425190C94251982
:100010000C9425190C9425190C94C8050C945311B3
:100020000C9425190C9425190C9425190C94251958
:100030000C9425190C9425190C94AE120C942519C6
:100040000C9425190C9425190C9425190C94251938
:100050000C9425190C9425190C9425190C94F70D62
:100060000C9425190C942519A8950FEF0DBF08E0E5
:100070000EBF0E940E120E94C10278940E947B0162
:10008000CC240E9447000E94A0000C943D0048E947
:100090004093C1004EE30E946901CEE6D8E00E9481
:1000A00089011D3021F4F198F0980C94640012320B
:1000B00029F4F09902C0F09A01C0F098133221F4AB
:1000C000F09902C0F19A00C01830E9F01F37D9F05A
:1000D0001A3011F40C944F00F19B18831D3009F471
:1000E00008950F93CF3208E0D0070F9129F447E02D
:1000F0000E9469010C944F00F19B2197412F0E94AF
:1001000082010C944F000F93CF3608E0D0070F9177
:1001100029F447E00E9469010C944F001F3709F44D
:1001200018E0412F0E94820140E20E948201412F8B
:100130000E948201CF5FDF4F1DE018830C944F00B7
:10014000CEE6D8E018810E943701023011F40C94F9
:10015000DA050E947B01A16002C0AE7FBF7B8DB734
:100160008F3A28F408E0009371080C94C4090E94A7
:10017000FE005D3021F4B2FD0E9435051BC05B33EB
:10018000C9F0032D023021F42AD30E941102E7CFD7
:100190007F756F755F75053041F0413031F4032D87
:1001A000033019F40E94F901DACF0E94DC005D30BF
:1001B00009F00895A1600895ECE4F2E30E94F500CF
:1001C000071671F40E94F500061659F40E94F50016
:1001D000051641F431960591F491E02F09950895A3
:1001E0003196319630960C94DE000590002009F08F
:1001F000089500E0009371080C94C40970EF60EF5B
:1002000041E018810E943701013021F40E94290148
:100210000C94FE00512F0E9429011D30A9F03D2CA5
:1002200018811D3089F00E9437013D1441F4762F6A
:10023000652F512F0E9429014395433089F718817A
:100240000E9437013D1409F008950E9429010C9481
:100250001F010F93CE3208E0D0070F9131F404E074
:10026000009371080C94C4090895219708951F9371
:1002700000271D3011F40C945D011F75103011F42E
:100280000C9444011C3011F401E018C0123011F438
:1002900005E014C0103411F405E010C010310AF468
:1002A0000DC01B350AF00AC0103412F003E006C07E
:1002B0001A3112F41AF402E001C004E0D02E1F91AA
:1002C00008950E94EA088F93492F03D04F9101D0DF
:1002D00008950090C00005FE0C9469010E945E051F
:1002E000B1FF0C9478010090C00007FEFCCFBD7FE9
:1002F0004093C60008954DE00E9469014AE00E94C3
:10030000690108954D3019F40E947B0108950C9401
:10031000690103B7016003BF7894889500000091DC
:10032000C00007FF0C9489011091C6000895472F63
:100330000E94A101462F0E94A101452F0E94A10108
:1003400008954F93407F4295405D0E9469014F910F
:100350004F70405D0E94690108950E94B2010E94A1
:100360007B0108954591442321F1483F21F40E94E7
:10037000DA010C94B201493F31F4159045910E9485
:10038000F4010C94B2014A3F21F40E947B010C94C9
:10039000B2014B3F51F4EF93FF93E4E8FAE30E947C
:1003A000B201FF91EF910C94B2010E9469010C948B
:1003B000B2010895EF93FF93112445914A3049F01B
:1003C0004D3039F04A3F29F0493F19F013940C940D
:1003D000DD011A9446E3141A1194169440E20E9427
:1003E000F401FF91EF9108950E9469011A94E1F7D9
:1003F000089551545A312AF005E0009371080C9485
:10040000C409A0FF21F40E941102A2600895EDEB3F
:10041000F7E06627E50FF61F50810E941102AD7FBD
:1004200008950F9300E20C1529F406E0009371087B
:100430000C94C4091F921124E6E1F8E0EC19F109CB
:100440005083C39433951F900F910895CC2029F4C5
:1004500007E0009371080C94C4091F921124E7E18E
:10046000F8E0EC19F1095081CA943A951F9008956B
:10047000EF93FF9304E00B1529F408E00093710853
:100480000C94C40912E00B2D019FEFE1F8E0E01994
:10049000F109D293C293B394FF91EF910895EF9332
:1004A000FF93BB2029F407E0009371080C94C40962
:1004B00012E00B2D019FEFE1F8E0E019F109C19185
:1004C000D081BA94FF91EF910895EF93FF9304E0E8
:1004D0000A1529F408E0009371080C94C40914E08B
:1004E0000A2D019FEFE2F8E0E019F10962927292A1
:1004F00042925292A394FF91EF910895EF93FF934C
:10050000AA2029F407E0009371080C94C40914E0B0
:100510000A2D0A95019FEFE2F8E0E019F1096290D7
:10052000729042905290FF91EF9108950E9426029E
:1005300007E005175AF001E0552321F0000F5A9506
:100540000C949C02502F0E94110208950AE000931F
:1005500071080C94C409703049F0705D472F0E94F7
:100560006901603019F440E30E946901603021F0B4
:10057000605D462F0E946901505D452F0E94690110
:100580000895E2EAF6E30E94AD0108950E947B011E
:10059000ECEBF7E0C0916F08D0917008EC17FD0705
:1005A00031F040810E94820131970C94CE020E946A
:1005B0007B010E947B0197E08CEB70916F0860914A
:1005C0007008871B960B0E94C9080E949701E6E9F4
:1005D000F9E30E94B20180916F08909170088050F9
:1005E00091400E94C9080E949701E6EAF9E30E943F
:1005F000B2010895B0680E94AD0005E0301641F0E8
:100600000E9426020E9400090E94AB020E947B0108
:10061000BF770895B0680E94AD0044E20E9469016E
:100620000E942602852F0E9461010E947B01BF77F4
:100630000895B0680E94400D08E040E3551F08F49B
:1006400041E347DE0A95C9F70E947B01BF77089511
:1006500048810E942901423241F04E3719F00E9430
:100660006901F6CF0E947B01F3CF08950E94450DEA
:10067000EDEBF7E06627E50FF61F00830895B5FF61
:100680000C94A10C0E94400D452E0E942602052FBD
:100690000E942602552E6627EDEBF7E0E50FF61FC8
:1006A0000083A062AE7FBF7D08950E94400D552358
:1006B00009F4A46008950F910F910895B062089510
:1006C000EDEBF7E0552D6627E50FF61F00810415C9
:1006D00021F003950083A0610895AA9409F00EDF2C
:1006E00008950E94AD000895B160089598810E9418
:1006F00029018881182F0E943701013031F0043020
:1007000021F00E9429010C948703892F99270E94C8
:10071000F708582F0E9411020E94AD000895098128
:10072000073211F00C94D40E08E0202E88810E942C
:100730002901182F0E943701302E023069F4889465
:100740001F70112309F00894551F2A9479F70E940D
:1007500011020E94AD0008950CE1009371080C9401
:10076000C409CF93DF930E94400D0AE088950000F2
:100770000A95E1F75A95C9F7DF91CF910895509105
:1007800066000E9411020E94400D50936600509135
:1007900066000E941102089555270E9411020E94CE
:1007A000400D01E005174AF00AB50F770ABD50FF6A
:1007B00008950AB500680ABD08950CE00093710819
:1007C0000C94C40904B7077F04BF08E100936000DC
:1007D0000EE000936000F8948895000008957F7003
:1007E0006F705F700E940F0908950E94400D452FA1
:1007F000ECEBF7E080916F08909170080C940B047B
:10080000F91711F48E17E8F400810D3019F03197C3
:100810000C9400043197552766277727F91711F4B0
:100820008E1778F410810E943701023031F4762F50
:10083000652F512F31970C940E04D1DF451701F726
:10084000089509E0009371080C94C4090E94F5030F
:10085000EF0108950E94F503A06C0895B3FF0C9476
:100860003304A8600895B160089548810E94290169
:100870004D30D9F708950E94400D452F0E9469011F
:100880000895889500000091C00007FFFACF5091AD
:10089000C600533009F4B1600E941102089504EBC0
:1008A00050917508579508F45027509375080E9489
:1008B00011020E94AD000895ECEBF7E0F093700890
:1008C000E0936F08CC24AA27BB270FB70F93F894A7
:1008D0000E94AE050E94B4050F910FBF0E947B01DC
:1008E000E2E5F6E30E94AD010895B7FD0EC0A1FD5B
:1008F0000CC0D5DF0E94260255231AF0E2E5FAE388
:1009000002C0ECEFF9E30E94B2015AE20E94110228
:100910000895CF93DF930E94BE0540E2DADCECE459
:10092000F2E3D2E3C4E075917723C1F1659155916B
:10093000643521F45F34A1F470E220C0693421F4FD
:10094000563471F470E21AC06F3451F4523541F4E8
:100950007735A1F0783591F0763481F070E20EC0F1
:10096000503439F05E352CF45C3514F4503334F4E3
:10097000505E70E260330AF06627605E472FA9DCA4
:10098000462FA7DC452FA5DC40E2A3DC3396D450EC
:100990004AF60E947B0140E29CDCC3CF0E947B01AF
:1009A0000E94BE05DF91CF9108950E94AD00CC203A
:1009B00079F00E94260203E005172CF406E100936B
:1009C00071080C94C409B4600E94AE050E944707E8
:1009D000BB24AA24B460CCEBD7E00E943505CC241C
:1009E000A1600E945E05A6FF02C042DDAF7BA7FFAB
:1009F00004C0DF2FCE2FB860AF77A3FF05C04FDD57
:100A0000BB2009F4B77FA77FA5FF04C06C2E7D2E05
:100A10005CDDAF7DA4FF03C0D72DC62DAF7EB0FF38
:100A200007C00E945905C0916F08D0917008BE7F21
:100A300080916F08909170088C1B9D0B88F4188131
:100A40000E943701A2FF04C0043011F02197C7CFE4
:100A5000AB7F023011F42197C2CF0E94AF00BFCF0D
:100A600000E000937208BB7F089500917008D017D2
:100A700029F400916F08C01709F40895CF93DF930C
:100A8000DF921F936627552718810E943701023095
:100A900029F00E940F095093720806C0762F652F27
:100AA000512F5F702197F0CF1F91DF90DF91CF9191
:100AB0000895EEE8F9E30E94B20108950090C000A5
:100AC00007FE0C946C050091C600033111F4B2606E
:100AD0000895033009F4B160089554EBE0E0F1E0CB
:100AE000019150270F93EF3F08E0F0070F91C1F7F6
:100AF000509375080895DF93D4E0DA950000E9F784
:100B0000DF910895DF93D8E2DA950000E9F7DF91ED
:100B10000895CF93DF93D6ECC3E1CA950000E9F7BF
:100B2000DA950000C9F7DF91CF9108950F930AE09D
:100B3000F0DF0A95E9F70F9108950F930AE0F6DFC9
:100B40000A95E9F70F910895EAE7FAE30E94B201E6
:100B5000DD27C09172080E9483090895E0E0F1E06A
:100B600096E08DEB002706C0EDEBF7E090E08AE120
:100B7000002700C001930197E9F70895EEE8F8E334
:100B80000E94B201089533270E94AD0033230895D7
:100B900008E10093600000E000936000F59A18956A
:100BA00004E0009371080C94C4090BE000937108F1
:100BB0000C94C40944270E94C8065430B0F78091B1
:100BC0006F08909170080F938C3B07E090070F918E
:100BD00009F461C0CEE6D8E05527662777270F9342
:100BE000CE3208E0D0070F91DAF218810E94370167
:100BF000023029F4762F652F512F2197F0CFEFDDAA
:100C0000452EE0916F08F09170084C7F772766279A
:100C10005527552431960F93ED3B07E0F0070F91D0
:100C200099F010810E943701043071F0023071F7A1
:100C30005394562F672F712FEDCF0F93ED3B07E0A5
:100C4000F0070F9119F70895052D033029F05394FB
:100C5000562F672F70E0F8CF41FD02C04260D6CF1B
:100C6000BEDD4516A9F110F441603F010F93ED3B45
:100C700007E0F0070F9111F440FF0DC040FFDDCFFA
:100C8000541508F455C00F93ED3B07E0F0070F91A2
:100C900009F44EC0D2CF0E94C806003009F408956E
:100CA000CEE6D8E0E0916F08F09170080F93E03045
:100CB00001E0F0070F9109F436C0088100833197F5
:100CC00021970D3099F7F0937008E0936F0808951D
:100CD0003197EF010F93E03001E0F0070F9109F435
:100CE0005FCF088121970D30A9F7BF016C1B7D0BE9
:100CF00080916F0890917008860F971F90937008ED
:100D000080936F080F93E03001E0F0070F9129F016
:100D10000881008321973197F5CF0E94C8060030E3
:100D200009F048CF089502E0009371080C94C409BB
:100D30000E94C806003059F100917008013029F472
:100D400000916F080050081770F3E0916F08F09160
:100D50007008DF2FCE2FC81BD040D0937008C093EF
:100D60006F08F71519F4E61509F405C0008108832A
:100D700021963196F6CFCEE6D8E0F72DE62D3197C5
:100D8000088100830D3019F031972197F9CF08952C
:100D9000CEE6D8E05527882799274B7F18812197E1
:100DA00083951D3049F00E943701023039F04460CC
:100DB0000130A1F39395F2CF092F089542FF539587
:100DC000EDCFCEE6D8E0E03009F0ADCF088100836A
:100DD000319721970D30B9F7F0937008E0936F08C1
:100DE0000895AF93BF9355270E9411020E94400DB2
:100DF00054302CF006E1009371080C94C40996D08D
:100E0000ACEBB7E0E0916F08F0917008AE1BBF0B40
:100E1000AF5FBF4F6FD1EA1BFB0BBF91AF912AF4BD
:100E2000E6E2F9E30E94AD010895E6E5F9E30E94E8
:100E3000B201852F0E9461010E947B0100E00093B6
:100E4000880848D11124C0E0D0E0C50FD11D022D83
:100E50008BD1EDEBF7E001E01EE1C9E8D8E00993A2
:100E600002910993002371F01A95D1F733D12882AA
:100E70002F920091870800938808CCD00F9100939F
:100E80008808E9CF09931A95E9F7C4D00895B2FD0F
:100E900009C055270E9411020E94AD000E9426023F
:100EA00054302CF50E945C04E8E6F9E30E94B2019C
:100EB000852F0E9461010E947B0103D1EDEBF7E0D9
:100EC0001EE1CAE8D8E009910293002339F01A958F
:100ED000D1F708810093880899D0F2CFCC24F09301
:100EE0007008E0936F08B2FF0E94D902089506E1EE
:100EF000009371080C94C409CF93DF931FE1109302
:100F00008808A7D01A95D9F7B5D0DF91CF91089569
:100F100055270E9411020E94AD000E942602543003
:100F20002CF006E1009371080C94C409DD27C52F4D
:100F300016D1002309F4089500938808C2D089D0FF
:100F4000C9E8D8E00F8D00938808002321F00095B0
:100F500011F05CD0F4CF9DD00895CF93DF93552747
:100F6000852F0E9461014AE30E94690140E20E94CC
:100F70008F08CF015F930E94C9080E949A01E2E89E
:100F8000F9E30E94B2010F93503000E060070F9127
:100F900031F4EAE7F9E30E94B2015F9112C05F9178
:100FA00090D0CAE8D8E06EE149910E9469014D30C5
:100FB00041F06A9509F0F8CF48814093880826D01F
:100FC000F0CF0E947B015395543009F0C9CF0E94A5
:100FD0007B010E947A08EF93FF939D2F8C2F0E9434
:100FE000C9080E949A01E6E9F9E30E94B2019F91C3
:100FF0008F910E94C9080E949A01E6EAF9E30E94D3
:10100000B2010E947B01DF91CF9108950AB50F7D57
:101010000ABD03C00AB500620ABDEF93FF93CF93E8
:10102000DF9300E2202EE9E8F8E0009188081CD068
:101030000AB505FF03C0019197D002C090D001937B
:10104000CF5FDF4F2A94A1F7DF91CF91FF91EF910E
:101050000895CF93DF9308D00AB500640ABD689461
:1010600083D0DF91CF91089500E240918808049FDA
:10107000E001089584E0C0E0D0E00AB50F7B0ABD2E
:10108000689400270E94B408CF5FDF4F8A95C9F7A4
:1010900008950AB50F7B0ABD0027DD27C52F689488
:1010A0000E94B4080895C9E8D8E000E000938808D9
:1010B000ADDF0895C9E8D8E000E000938808AADF12
:1010C0000895F1DF052EC00DD11D08810093880819
:1010D0009DDF0895CF93DF932090880820928708A2
:1010E000239420928808C0DF3AD00F3FC9F7DF91E0
:1010F000CF910895AF93BF935F93BB27AA2753E087
:101100000E948F08AE0FBF1F5A95D2F7E2EAF3E0B4
:10111000EA1BFB0BED015F91BF91AF9108955F93C7
:10112000E9E8F8E090E080E070E06EE1BCDF052ED9
:10113000E00DF11D0081002379F0E9E8F8E000936B
:10114000880864DF008101300FB701FF05C0860FFA
:10115000971F078D002399F7FC015F910895D2BD79
:10116000C1BDF89A00B50895D2BDC1BD00BD0FB78D
:101170000F93789444E00AB406FC44E14FBBF99A1B
:101180002EF417F488950000F999FBCF0F910FBF4B
:1011900008950C01889400E1552766277727001CE5
:1011A000111C551F661F771F0A9509F40895152F06
:1011B00008D0512F162F05D0612F172F02D0712F75
:1011C000EECF412F4D5F43FD142F412F405D47FD72
:1011D000142F0895982F92959F70905D9A3308F080
:1011E000995F8F70805D8A3308F0895F089596FD5E
:1011F000975F9F7086FD875F8F709295892B08950A
:1012000077276627545618F073950C9402095C5999
:101210005A5018F063950C940809565F089573307E
:10122000B2F4723032F0663092F4653012F056301B
:1012300072F4662321F00AE0500F6A9581F7772354
:1012400009F4089504E68894500F7A95C0F701E0F8
:10125000009371080C94C4094FE24395C050DA4CD6
:10126000EA49FB43D0F7C050D643E546F44C0E9410
:1012700069014FE24395C050D14EE54FF540D0F79C
:10128000C050DF41EA40FA4F0E9469014FE24395A6
:10129000C058D649E849F040D0F7C058D946E7468B
:1012A000FF4F0E9469014FE24395C054D244EF4082
:1012B000F040D0F7C05CDD4BE04FFF4F0E9469016A
:1012C0004FE24395C05AD648E140F040D0F7C056AF
:1012D000D947EE4FFF4F0E9469014FE24395C0513D
:1012E000D742E040F040D0F7C05FD84DEF4FFF4FFE
:1012F0000E9469014FE24395C85ED340E0F7C851B0
:10130000DC4F0E9469014FE24395C456D040E0F79C
:10131000CC59DF4F0E9469014FE24395CA50E8F76C
:10132000C65F0E9469014C2F405D0E9469010895CB
:101330000FB70F93F89400E1992788277695679562
:1013400010F48C0F9D1F97958795779567950A9553
:10135000B9F70F910FBF08950FB70F93F89488272F
:10136000991B01E1661F771F0A9519F40F910FBFB2
:101370000895881F991F841B910B20F4840F911FDF
:101380008894F0CF0894EECF0E947B011124009046
:101390007108D02C000CE0EDF3E1E00DF11D05919A
:1013A000F491E02FEE1FFF1F0E94B2010E947B010B
:1013B0000E94A4050FEF0DBF08E00EBFCC24AA27A2
:1013C000BB2700E0009372080E947B010C943D0053
:1013D000461D571D661D741D871D9D1DA91DB51D2C
:1013E000C41DEB1D001E0E1E1C1E2A1E381E461E8E
:1013F000531E611E6C1E761E811E921EA01EB31E01
:10140000BE1ECC1ED81EE81EEB1EF81E091F0C1FA8
:10141000009164000F770093640055270E94110229
:101420000E94400D01E00517AAF00CE050FD08E411
:101430000093B800459A449A00270093B90000959C
:101440000093BB0004E00093BC0004E90093BC00DF
:1014500095D00895A8C00091BC0002FF1AC00E9458
:10146000400D5093BB0005E80093BC000091BC0008
:1014700007FFFCCF0091B900087F083111F000345C
:1014800011F47CD00895003219F0083409F07CC0C2
:1014900080C084C00091BC0002FF16C00E94400DB5
:1014A0005093BB0005E80093BC000091BC0007FF0F
:1014B000FCCF5091B900587F583211F45FD0089595
:1014C000503309F061C065C069C00091BC0002FFE3
:1014D00020C051E00E9411020E94400D01E005175A
:1014E000CAF004EC50FF04E80093BC0060E550FF34
:1014F00068E50091BC0007FFFCCF0091B900087FB0
:10150000061729F45091BB000E94110208953CC0B7
:1015100040C044C048C00091BC0002FF3FC004EA84
:101520000093BC000091BC0007FFFCCF5091B900B4
:10153000587F583009F028C00E9411020895009188
:10154000BC0002FF09C004E90093BC000FEF009348
:10155000BB0014D0089518C021C05091BC0052FFA8
:101560000CC054FF04C051E00E9411020895009184
:10157000BC0007FFFCCF02D0089510C05091B90005
:10158000587F0E941102089502E1009371080C94A3
:10159000C40904E1009371080C94C40903E10093A9
:1015A00071080C94C4090CE0009371080C94C409F0
:1015B000009164000B7F0093640052E00E941102CE
:1015C0005FD203E0051742F0550F550F5ED00CB502
:1015D000037F052B0CBD08950DE0009371080C945A
:1015E000C4094ED201E005174AF00CB500620CBDEB
:1015F00050FD03C00CB50F7D0CBD08950CE00093A9
:1016000071080C94C4093CD207E005177AF0052E46
:1016100053700CB5087F052B0CBD0DB501600DBDD9
:1016200002FC03C00DB50E7F0DBD08950AE00093C6
:1016300071080C94C40920D023D22A98000000001D
:101640005EBD0DB407FEFDCF5EB5089515D02A9896
:10165000000000005EBD0DB407FEFDCF5EB50E9428
:101660001102089509D051E00E94110209D22A9A6C
:1016700050FD01C02A9808950CB506FD08950AE1B1
:10168000009371080C94C409089504B10C6204B964
:101690002A9A01E50CBD0DB50E7F0DBD08952A985F
:1016A000000000005EBD0DB507FFFDCF0EB508952B
:1016B0002A98000000005EBD0DB507FFFDCF5EB5A6
:1016C00008957ED0EF5DFF4F50810E941102089572
:1016D00077D0EF93FF93D4D1FF91EF91EF5DFF4F60
:1016E000508308956DD0EF93FF930E94AD000E9448
:1016F00096020E942602FF91EF91EF5DFF4F65C0B9
:101700005FD0EF93FF930E94AD000E9496020E946B
:101710002602FF91EF91EF5DFF4F5BC051D0EF9339
:10172000FF93AED1FF91EF91EE5DFF4F508308958F
:1017300047D0E05EFF4F50810E941102089540D0D3
:10174000EF93FF930E94AD000E9496020E94260232
:10175000FF91EF91EE5DFF4F38C032D0EF93FF93D2
:101760000E94AD000E9496020E942602FF91EF9116
:10177000EE5DFF4F2EC024D0EF93FF930E94AD008B
:101780000E9496020E942602FF91EF91EE5DFF4FAC
:1017900025C016D0EF93FF930E94AD000E949602E1
:1017A0000E942602FF91EF91E05EFF4F008105232A
:1017B00050E000230FB601FE51E00E94110208958F
:1017C000515403E0509FF00108950081052B0083E0
:1017D0000895509500810523008308950081052711
:1017E00000830895CF93DF934BD1CC2019F4652F5C
:1017F000552706C05F93652F5F9101E00517D2F072
:1018000001EA0093800009E0009381000027009323
:10181000820050FF01C006C0219A009389006093A6
:10182000880005C0229A00938B0060938A00DF91A4
:10183000CF9108950CE0009371080C94C409CF93E4
:10184000DF931ED1752F0E942602CC2021F4652F34
:10185000572F772706C05F93652F5F9101E0071729
:101860004AF303EA0093800009E000938100002717
:101870000093820070FF01C006C0219A6093890026
:101880007093880005C0229A60938B0070938A0041
:10189000DF91CF910895002700938100009380008D
:1018A000009382000895F1D0509F11200AB507FDE2
:1018B00021F4502D0E94110208950FE00093710849
:1018C0000C94C4095F93DCD055230AB407FCD1F013
:1018D000052F0E942602652F772759E0661F5A952B
:1018E00041F0771F701B18F4700F8894F7CF08949D
:1018F000F5CF5F915F3011F4562F01C0572F0E9432
:101900001102089501E1009371080C94C409BDD03F
:10191000500F0AB507FD18F00E94110208950FE05C
:10192000009371080C94C409B0D0501B0AB507FD90
:1019300018F00E941102089500E1009371080C94C0
:10194000C409A3D050170FB701FF10C011C09DD01C
:1019500050170FB701FF0CC009C05F9396D06F916D
:101960006C3111F4501701C0051710F0552750FDC8
:1019700051E00E941102089588D050230E94110264
:1019800008950E94D50C662319F056956A95E9F7DB
:101990000E94110208950E94D50C662319F0550F7C
:1019A0006A95E9F70E94110208956AD061E0CC209F
:1019B00009F4089507E0051722F0652F0E9426021A
:1019C00008950AE0009371080C94C4095ED0502B6E
:1019D0000E941102089559D050270E9411020895C3
:1019E0004FD050950E94110208954AD051950E94FF
:1019F0001102089545D052950E941102089540D0D9
:101A000052955F700E94110208953AD05F700E9453
:101A100011020895EF93FF9311240E94C30561F40E
:101A200000907408002029F407E0009371080C94DA
:101A3000C409E7EFF7E00BC000E230172AF006E038
:101A4000009371080C94C409032EE7E1F8E006D076
:101A5000C31A0E941102FF91EF910895552778E172
:101A6000029168E0102F152710FD5727569510FD9D
:101A700050686A9511F00695F5CF0A9489F7089594
:101A80000E94AD000E9426020895FADF052F0E94F1
:101A900026020895CF920E94AD0055270F910C1990
:101AA00011F00E94260200E000937B000091640088
:101AB0000E7F0093640000917C00007F5F70052B17
:101AC00000937C005527662770E107ED00937A00AC
:101AD00000917A0004FFFBCF80917800909179000B
:101AE000580F691F7A9589F776E0669557957A952C
:101AF000E1F70E94110223D0089555270E94110298
:101B0000BFDF01E0051752F00ED000917C000F738B
:101B100050FD01C0006C00937C0008950CE0009320
:101B200071080C94C409009164000E7F0093640056
:101B300000917A0004FFFBCF0E9482050895009176
:101B400064000160009364000E9482050895EBDF49
:101B500000937B0000E100937A005AB551FD09C063
:101B600000E400937B0000917C00007F052B009334
:101B70007C0033D0552700B605FC51E0E0DF0E9421
:101B800011020E94AD00089528D055270E9411022D
:101B900077DF523030F006E1009371080C94C409ED
:101BA000089500B7007800BF552309F40895006137
:101BB00000BF086100BF089552E00E94110260DF7B
:101BC000533030F006E1009371080C94C409089575
:101BD0000AB50C7F052B0ABD089500B70870006197
:101BE00000BF03E000937F000E9482050895F39AEE
:101BF0001895CF93DF930E94C305D1F001E2C01680
:101C000080F411240C2CC0927408C7EFD7E0C019DF
:101C1000D1090E94260259930A94D9F7DF91CF91F6
:101C200011C00E941F0E06E0009371080C94C409B5
:101C30000E941F0E07E0009371080C94C40900E095
:101C40000093740800E000937308509174080E9498
:101C500011020895CF93DF930E94C3051124709160
:101C6000740860917308C6EFD7E0332361F0A1FFD9
:101C700003C00C2D0A9539F00E9426027A9575173B
:101C80007AF0652F02C0761759F0C61BD10958812A
:101C90000E941102639560937308DF91CF910895BC
:101CA00007E0009371080C94C409CF93DF930AB541
:101CB0000F7D0ABD0E94AD0001E055D058810E9401
:101CC0001102DF91CF910895CF93DF930AB500629F
:101CD0000ABD0E94AD0002E046D05883DF91CF914B
:101CE0000895CF93DF930AB50F7D0ABD0E94AD0022
:101CF00001E039D00E94AF08502F0E941102DF91FD
:101D0000CF910895CF93DF931AB51F7B1ABD1AB5F3
:101D100010621ABD0E94AD0002E025D0052F0F937E
:101D2000C03004E0D0070F9119F00E94B40818C029
:101D3000E6E4F9E30E94B20155271AB510641ABD12
:101D400021970E94B4085A9519F44EE20E94690145
:101D50000F93C03000E0D0070F9191F70E947B01F4
:101D6000DF91CF9108950C1989F00E9426025F93AC
:101D70000E9426020AB505FF06C05F930E94260254
:101D8000DF91CF910895D52FCF9108950E9426021B
:101D90000AB505FF06C0052F0E942602C02FDD27C9
:101DA0000895C52FDD270895EF93FF9358E00E9413
:101DB0001102CF920E94AD00E0EEFDE165917591B8
:101DC000772311F40F9009C06517C1F711240F9004
:101DD000E7E1F8E0E019F1097083FF91EF910895D0
:101DE000780879087A087B087E08800881088208CC
:101DF000830800001124E50FF11D54910E94110287
:101E0000089555270E9411023BDE07E005178AF06E
:101E100000917608087F502B509376080027009396
:101E20006F0006BB00938200009380000093810046
:101E300008950AE000937108A7DA51E00E941102A8
:101E40001FDE01E005174AF0009176080F7750FF7A
:101E500001C000680093760808950CE000937108B3
:101E600093DACF93DF936FEF552766BB50938000D3
:101E700050938100509382005093850050938400CA
:101E80005598009170000F9300E00093700000914E
:101E90007608702F70788894771F771F76600770A8
:101EA000E5E5FFE0E00FF51F09941FC006C005C07F
:101EB00004C008C007C006C00CC0033008F005E02D
:101EC000002E09C06AE00350033008F005E0069FC9
:101ED00002C004E6002E5093850050938400709356
:101EE00081000E9496050A94E1F70F91009370001B
:101EF0005091840060918500002700938100B09983
:101F000008C0C6EDD7E068830E941102DF91CF912F
:101F10000895DF91CF910EE00093710835DAB0DDBE
:101F2000152F88940E94A10F0895AADD152F0894FB
:101F30000E94A10F08950E94D40F512F0E941102F8
:101F400008955FD0F5980AB1077E0AB956D079E0B6
:101F5000F59923C04C9BFCCF53985B9A10F0539A91
:101F60005B98F5991AC0549A5C980E948905549818
:101F70005C9A0E9489054C99F4CF18F053985B9AAB
:101F800002C05B98539AF59908C04C9BFCCF5398BC
:101F90005B9A111F7A95E1F604C0ECE7FDE30E941D
:101FA000AD010E94951208952CD00AB1077E0AB99E
:101FB00024D079E0F59919C04C99FCCF88944B9BBB
:101FC00008C008945C98549AF5990FC04B99FCCFBF
:101FD00006C05C98549AF59908C04B9BFCCF549866
:101FE0005C9A111F7A9531F705C0ECE7FDE30E947A
:101FF000AD015FEF0E949512089509B108610BB918
:10200000089508E10093600006E400936000A8953D
:10201000089536DD952F0E942602852F0E94450BDC
:102020002A9853E03CDBC4D043DB2A9A0E94110279
:10203000089526DD952F0E942602852F0E94450BCC
:102040002A9856E02CDB2A9A52E029DBB1D00E9474
:10205000260225DB2A9A0E94890555E020DB28DB31
:102060002A9A5523C1F7089555270E9411020E940C
:10207000AD0080917E0890917F080E941E108F5FB6
:102080009F4F90937F0880937E08089500240092CC
:102090007F0800927E08089551E00E941102F0DC52
:1020A000552319F050937C08089506E100937108B8
:1020B0000C94C409E5DC552359F1952F88270E941B
:1020C00026020C01952F0E94450B0E9489052A9833
:1020D00053E0E5DA6DD0C00120907C08E9DA0E9477
:1020E00000090E94AB02019779F02A9429F40E941A
:1020F0007B0120907C0803C04CE20E946901B0FF84
:10210000EDCF0E945905BE7F2A9A0E947B01089557
:1021100001E10093710838D955270E941102B0DC03
:1021200050937D08089555270E94110251E00E94A6
:102130001102A6DC552329F401E1009371080C94E7
:10214000C40904E0059F0E942602952F88270E945B
:10215000450B2A9856E0A3DA2A9A52E0A0DA28D052
:1021600050917D0870E49BDA7A95E9F72A9A0E94EB
:10217000820555E094DA9CDA2A9A5523C1F7805CEF
:102180009F4FCF93DF93E00121970E01DF91CF9115
:1021900009F708957E7F74DC01E0051722F0E4E979
:1021A000F1E228DE08950CE0009371080C94C40954
:1021B000592F75DA582F73DA089555270E941102A6
:1021C0005FDC5523D9F05A3020F006E10093710806
:1021D000DBD8A89504B7077F04BF052F5770000F01
:1021E000000F00720064502BF89408E10093600027
:1021F000509360000EB307700EBB19C094DC609161
:102200007B006F7B60937B005AB551FD0CC000E1F1
:1022100000937A0000E400937B0000917C00007F33
:10222000052B00937C0060B7606160BF88DC789408
:10223000889500005EB3507C21F0F799F798F699E5
:10224000F6980091C00007FD0895F59B02C0F5982F
:102250000895F39BECCFF3980895CF93DF93552720
:102260000E9411020DDC5230CCF450FD0BC0BFD0E7
:10227000CCEAD8E00993099308835E985698DF91D9
:10228000CF910895C4EDD7E034D000270093AF0874
:10229000569A5E988CD0DF91CF9108950CE0009310
:1022A00071080C94C4097F937FB77F936F935F93FA
:1022B000EF93FF93FDE7E091AF085091AC08609178
:1022C000AD087091AE08E50EF61EE71F5491E0933D
:1022D000AF0850FF03C000005E9A03C05E98000084
:1022E0000000FF91EF915F916F917F917FBF7F9190
:1022F0001895C4EDD7E077276627552700EF102EF5
:10230000088001200294002041F08CEC581F9CECC6
:10231000691F04ED701F0A94F6CF099012940120F2
:10232000002041F08EEA581F97E4691F05E1701FF5
:102330000A94F6CF0880129401200294002041F004
:1023400084EC581F90E2691F02E0701F0A94F6CFD8
:10235000099012940120002041F08AE7581F96E36B
:10236000691F00E0701F0A94F6CF088012940120C4
:102370000294002041F082E7581F95E0691F00E0B9
:10238000701F0A94F6CF088012940120002041F0BB
:102390008BE8581F90E0691F00E0701F0A94B1F7A6
:1023A0005093AC086093AD087093AE080895009107
:1023B00064000F7B00936400002707BB0093B2000A
:1023C0000093B0000093B1000093B3000093B400F9
:1023D00004E80093B30002E00093B00001E0009332
:1023E000B100009170000260009370000895002712
:1023F00007BB0093B0000093B1000093B2000093BC
:10240000B4000093B300009170000D7F0093700042
:10241000009164000064009364000895F89485D0EE
:1024200096D000241124009164000D7F0093640075
:1024300000E00093C50009E10093C40008E900939F
:10244000C100789400E004B900E005B900E007B9E4
:1024500000E008B900E000E00AB900E00BB90AB1F9
:10246000077E0AB909B108610BB957985F9A0AB596
:102470000B7E0ABD03E000938608E0EDF7E0F093E1
:102480008508E093840801E00093760850E2C0E0FC
:10249000D0E068940E94AF080F3F19F400270E9413
:1024A000B408CF5FDF4F5A95A9F7002700937E0845
:1024B00000937F0801E000937C0800E000937D0812
:1024C00000E000937C0000E000937B0007ED0093A8
:1024D0007A000E94411300E00093770800E00EBBF1
:1024E00002E00ABD0E946D0500E004BF00E0009319
:1024F000720801E003BF439A0E94820506B1439827
:1025000003FD10C0CC245527B4600E9452070E94DE
:10251000D5040E947B010E947B01E2E5F6E30E9464
:10252000AD0108950E945C0408950FB70F93A8951C
:1025300004B7077F04BFF89400916000086100931E
:1025400060000070009360000F910FBF089550E885
:1025500060E0509361006093610008950F93CF9302
:10256000DF93EF93FF93FFB7FF93992011F09A94B5
:1025700016C0F0917808E0917908D0917A08C0915E
:102580007B08CF5FDF4FEF4FFF4FE0937908F09369
:102590007808C0937B08D0937A0890907708E091F0
:1025A0008408F09185080F93E03000E0F0070F9168
:1025B00049F03197F0938508E09384080AB50860E4
:1025C0000ABD03C00AB5077F0ABDF79AFF91FFBF96
:1025D000FF91EF91DF91CF910F9118950E94AD007F
:1025E0000E942602533028F006E1009371080C94F3
:1025F000C40947D0552311F450E005C0513011F4FF
:102600005AE001C054E650937708952E0895CF9371
:10261000DF93C8E7D8E0002709930993099308835B
:10262000DF91CF9108954F93CF93DF93EF93FF9373
:10263000C8E7D8E0A0FD04C05B810E9411020CC075
:10264000F0917808E0917908D0917A08C0917B08E0
:102650000E942C090E947B01FF91EF91DF91CF91A5
:102660004F9108957B7A79780BDA03E0051722F011
:10267000E4E6F6E2BFDB08950DE0009371080C94E8
:10268000C409CF93DF93C8E7D8E0002709930993E3
:1026900009930883009164000F7D00936400002774
:1026A00005BB06BD04BD05BD07BD009508BD09EF0E
:1026B00007BD02E004BD03E005BD00916E000260AD
:1026C00000936E00DF91CF910895002705BB04BDF4
:1026D00005BD06BD08BD07BD00916E000D7F0093CE
:1026E0006E00009164000062009364000895CF932F
:1026F000DF930E94101470918008609182085091BD
:102700008308772311F4662707C00AB502FF0C94EB
:102710009513563008F063950AB504FF6F77562F6E
:102720000E941102DF91CF91089567FB6F770AE055
:10273000609F0027050E101EE001772769E00E94C8
:1027400098096E5F7F4F112742E30E94AC0926F083
:10275000605E7F4F0C94AF13605270406195562FAE
:102760000E941102DF91CF9108950CE0009371084F
:102770000C94C409CF93DF930E94101450918008E9
:102780000E941102DF91CF91089555270AB503FDEC
:1027900051E00E941102089555276AB562FD51E08B
:1027A0000E9411026DD90E94110201E005175AF032
:1027B00050FF0C94DF130AB504600ABD08950AB5F2
:1027C0000B7F0ABD08950CE0009371080C94C409B6
:1027D00055276AB564FD51E00E94110251D90E944B
:1027E000110201E005175AF050FF0C94FB130AB5D3
:1027F00000610ABD08950AB50F7E0ABD08950CE078
:10280000009371080C94C40950E805C051E803C056
:1028100052E801C053E80E9411020E94AD000895E1
:102820000AB503FD089570918608772319F403E033
:1028300000938608E89400918100077069F0009188
:1028400081000F9300916F000F93009182000F930E
:10285000009180000F93689400E0009381007CD089
:1028600003E0579A5F980E9489050A95E1F7C0E84E
:10287000D8E0002400928500009284008AE095E070
:10288000552766275F9A579802E000938100889544
:102890000000F59B13C07BD00024009281080092B9
:1028A0008008009186080A95009386080FB701FFFB
:1028B0000895ECE7FDE30E94AD0108954F9B05C02C
:1028C0000092850000928400E2CF709184007C38F1
:1028D00018F400C0889401C008941A95551F8A9571
:1028E000B1F69A9521F05993650F88E0D0CF4FD07B
:1028F000561751F000240092810800928008E8E900
:10290000FDE30E94AD010895C1E8D8E090918008F0
:10291000809181080E949D14C3E8D8E090918208BC
:10292000809183080E949D14089500916E000260BA
:1029300000936E00F5980C94C40997FB9F770E9452
:10294000C908052F0F7008832197507F52950E9468
:102950000F0957F95883089508E10093600000E4D7
:1029600000936000A895F59804E00BBB04E0009389
:10297000680000E800936D0000916E000D7F0093E9
:102980006E000091C1000F770093C10008950E946E
:1029900095122EF000E0009381000C94DB140F914F
:1029A000009380000F91009382000F9100936F00BD
:1029B0000F9100938100C0EDD7E0D0938508C093BC
:1029C000840800916E00026000936E0000E00093A6
:1029D000680000E000936D0004E00BBB08950E94C6
:1029E000450B209A289851E00E9411020E94110282
:1029F0000E9411020E94C30519F1313019F03330E1
:102A0000F9F044C20E9426025523A1F0533009F088
:102A100038C2E8E7FAE255912590222049F1506248
:102A20000E944F0B55910E944F0B2A94D9F72A9A76
:102A30003196F1CF50E20E944F0B58E002D2FBC119
:102A400056E20E944F0B0E94260252955695566000
:102A5000F8D155E20E944F0B0E9426025F77F1D118
:102A600050E20E944F0B0E9426025A955A60E9D10B
:102A700055270E941102CBC10001080001013F004F
:102A80000201030003010300040103000501020029
:102A900006010E00070170000A05E7E7E7E7E70017
:102AA0000B05C2C2C2C2C2000C01C3000D01C400AA
:102AB0000E01C5000F01C6001005E7E7E7E7E700D4
:102AC00011010000120100001301000014010000B8
:102AD00015010000160100001C0100001D0100008E
:102AE00000000E943C0B0E94580B2A9A56FD04C01D
:102AF0005FEF0E94110208955E705695752F5395F1
:102B00005061A3D1252E1124CF93DF93C7EFD7E0D7
:102B10001092730850937408289851E60E944F0B46
:102B20000E94580B5A932A94D9F72A9A0E94580B5C
:102B30002A9A652F5E705E3031F4607457E20E940D
:102B40004F0B562F7ED1DF91CF91572F0E9411024C
:102B500008950E943C0BCF92CF920E94C3050E9421
:102B6000580B2A9A54FF05C057E20E944F0B50E1C0
:102B700068D128983323A1F0232E11240F90EF93CE
:102B8000FF93E7E1F8E0E019F10950EA0E944F0BEA
:102B900052910E944F0B2A94D9F72A9AFF91EF91F4
:102BA000289A0E9482050E94820528985FE00E9470
:102BB00089055A95E1F70E94580B2A9A54FF02C0E2
:102BC00053E004C057E141D150735295CF900E9419
:102BD000110208950E943C0BEF93FF93CF93DF9374
:102BE0000E94C30509F452C1632F6A95C7E1D8E07A
:102BF0001A911124EEE4FCE2012E000CE00DF11D0F
:102C000005901490002009F43CC153E01ED15E5F92
:102C1000752F011409F4702D1616C2F06015B2F06C
:102C20006717A1F450E3173019F0512F565F506227
:102C30000E944F0B0E9426020E944F0B6A95D1F70B
:102C40002A9ADF91CF91FF91EF91F5C01FC1030543
:102C500003050101010101010101000003050E94BA
:102C60003C0B0E94C30509F4E6C0323039F0F3D0C2
:102C700053955061EAD00E9411020895F2D0752F49
:102C8000EAD0152F252E239466270894661F2A94D0
:102C9000E9F752E0DAD0772311F0652B03C0609595
:102CA0006F73652352E20E944F0B562FCAD0512FEB
:102CB000539550630E944F0B572FC3D0BCC0E1C047
:102CC0000E943C0B55270E9411020E94400D02E019
:102CD00005176AF051FD02C050FF07C0289A51FF46
:102CE000AAC00E9482050E9482052898A4C0C9C07B
:102CF0000E943C0B0E94C30521F455E00E944F0B3B
:102D00009AC00E94260257FDBCC05F9355E20E9404
:102D10004F0B5F9196D08FC00E943C0B0E94C30561
:102D200039F456E092D0567056950E9411020895DB
:102D30000E94260203E050170AF09EC0550F652F2F
:102D400056E083D0597F652B56E20E944F0B562FD9
:102D500078D071C00E943C0B0E94C30549F456E034
:102D600074D058705695569556950E941102089544
:102D70000E94260201E050170AF079C0550F550F46
:102D8000550F652F56E061D0577F652B56E20E94A4
:102D90004F0B562F56D04FC00E943C0B0E94C305CC
:102DA00029F40DE1009371080C94C4090E942602D5
:102DB000652F0E9426020DE1051732F050620E9435
:102DC0004F0B562F3ED0089501E0009371080C94EC
:102DD000C4090E943C0B57E10E9411020E94400D61
:102DE0000DE150170AF043C00E944F0B24C00E940F
:102DF0003C0B55270E9411020E94400D752F552350
:102E000031F451EE1ED052EE1CD073E007C002E048
:102E100005170AF436C050EE572B13D057E015D0E3
:102E2000652F57E20E944F0B70FD606371FD606477
:102E3000562F07D000C00E94580B2A9A0E941102F8
:102E400008950E944F0B2A9A08950E944F0B0E94EA
:102E5000580B2A9A08950E94260205E005178AF069
:102E600008950E94260200E205175AF008950CE02A
:102E7000009371080C94C4090DE0009371080C9440
:102E8000C40906E1009371080C94C4090DE1009394
:102E900071080C94C4090091C1000F770093C10020
:102EA0000FB70F93F894539A5B9A0E9489055B9829
:102EB00002E30E9482050A95E1F75B9A539806E0C7
:102EC0000E9482050A95E1F751E009B103FD5527FB
:102ED0000E94110202E30E9482050A95E1F70F9118
:102EE0000FBF0E94AD0008950E94C30529F40DE1B3
:102EF000009371080C94C4090091C1000F770093EE
:102F0000C1000FB70F93F894EF93FF931124E7E1FB
:102F1000F8E0C31A58E0252E5291579510F44CD082
:102F200001C056D00E9482052A94B9F70E948905F3
:102F30003A9581F7FF91EF910F910FBF08950FB769
:102F40000F93F8940E94C30521F418D00E94110237
:102F500012C0CF93DF9311240E942602752FC7EF72
:102F6000D7E0109273085093740808D05A937A955A
:102F7000E1F7DF91CF910F910FBF089508E0202E68
:102F800007D0889400FD089457952A94C9F70895AE
:102F9000539A5B980E947B055B9A53980E94820526
:102FA0000FEF19B113FF00270F9305E00E94820570
:102FB0000A95E1F70F910895539A5B980E94820554
:102FC0005B9A539806E00E9482050A95E1F70895FE
:102FD000539A5B9808E00E9482050A95E1F75B9A94
:102FE00053980895EEEEF8E30E94B2019CD000E100
:102FF000202EE0E0F0E08AD07ED00F93E03001E0B8
:10300000F0070F9149F00E945E05B0FD22C00E94BA
:10301000960500E1202EEFCFBE7F8CD00895EEEE16
:10302000F8E30E94B2017FD000E1202EE0E0F1E061
:103030006DD061D00F93E03009E0F0070F9149F0B7
:103040000E945E05B0FD05C00E94960500E1202E9D
:10305000EFCFBE7F0E94BE05EAE0F9E30E94B20115
:10306000809170080E94610180916F080E94610147
:103070000E947B015FD00895EEEDF8E30E94B2015B
:1030800052D000E1202EE0E0F0E040D0F2BDE1BD02
:10309000F89A80B50E94610140E20E946901EF5FE9
:1030A000FF4F2A9499F70E947B010F93E03004E0D0
:1030B000F0070F9151F00E945E05B0FD06C026D0CA
:1030C0000E94960500E1202EE1CFBE7F33D0089507
:1030D0000E94BE05EAECF8E30E94B20100E1202E56
:1030E000EDEBF7E0E73D28F411D005D000E1202E0C
:1030F000F9CF20D0089581910E94610140E20E94A1
:1031000069012A94C1F70E947B0108958F2F0E94C4
:1031100061018E2F0E9461014AE30E94690140E231
:103120000E9469010895E4E9F8E30E94B2010E9457
:10313000BE0508950E94BE050E947B0108950E946D
:10314000400D852F0E942602952F0E9426025F9334
:103150000E9426025F930E942602052FFF91EF91A5
:103160000E94BA0508953CD0EF93FF93E6EBF9E394
:103170000E94B201E4EDF9E30E94B201FF91EF91E8
:103180008F2F0E9461018E2F0E9461010E947B019E
:103190000E947B011124F8941DBA109268001CBC97
:1031A00010BE1FBA10926E0010926F001092700045
:1031B0001092C1001092BC0010927A0014B817B897
:1031C0001AB815B818B81BB8F89408E10093600055
:1031D00009E3009360007894889500000E94E20360
:1031E000E3E0F0E009E007BF0491069503700030CA
:1031F00019F4E0E0F8E314C0013019F4E0E0FCE376
:103200000FC0023019F4E0E0FEE30AC0033019F405
:10321000E0E0FFE305C00BE0009371080C94C409E3
:10322000EF93FF9308E0102EEE1FFF1F05910F3F55
:1032300029F0003019F0FF91EF9108951A94B1F739
:1032400005E1009371080C94C40918954C4953206A
:10325000C60248454C50890452554E20D504505260
:103260004920FA02505258200A03505242201903B2
:10327000454D49543B04464F52205E0350544F2065
:1032800071034E455854600346524520D9024E45BD
:1032900057205C04504946205503544845205B03A1
:1032A000454E4420740344415441F90D5245414474
:1032B0002A0E52455354220E501A1D2036035050E8
:1032C0001E20AD0C50501C20AD0C501C1E20A70C15
:1032D00050011D20A70C50501D203F0350500B20C3
:1032E000870C50500D20940C50500A20530C505015
:1032F0000F20620C4D4F4420620C50500520620C90
:10330000505004207603505007208F035050022065
:1033100028035050402071034C535220C10C4C5391
:103320004C20CB0C50500620BC0C414E4420BC0C11
:1033300050505C20E60C504F5220E60C50505E205E
:10334000EB0C584F5220EB0C434F4D20F00C5050DB
:103350000120F50C4E454720F50C53574150FA0C0F
:103360004E424820FF0C4E424C20050D414F562046
:10337000CC03524E44204F04435243200A0D4F5376
:103380004320BF0344454C41B103474F542026041A
:10339000474F53202A04524554202E044B455920B0
:1033A000410441434F20A70D41434920C40D5341DF
:1033B0005645F1064C4F414447075045454B550E85
:1033C000504F4B45640E45455220710E45455720E0
:1033D000820E56504720D40E52535420E2035245D9
:1033E0004D203504494E49547C0743415420AD07D4
:1033F000455241208807534C5020DD104446572049
:10340000191044465220091044464C2034104446BA
:1034100058204610444646204C10444644205A103A
:10342000444656208C10444649209310444641207F
:10343000CB1052464920EF1452464120EA1552461D
:1034400043207816524650208C16524642202F16A2
:1034500052464520601652465420A915524658201F
:10346000711552464620F71652464420AA16524677
:103470005720CC1652465220E91644485420771360
:1034800044484820BA1344485220C51344485520A4
:10349000CC1344485320E8134448492004144448BA
:1034A00044200614445449200814445444200A1467
:1034B00052544920EE1252545220071352545020B5
:1034C00013135254432034134F5749204B174F576F
:1034D000572074174F5752209F174F444220680BB4
:1034E00049444220610B53444220720B4344422022
:1034F000800B4F5042208E0B534242209F0B434281
:103500004220AD0B58424220BB0B494E4220980B43
:1035100049424220C90B4F444320680B4944432091
:10352000610B53444320720B43444320800B4F50A4
:1035300043208E0B534243209F0B43424320AD0B4D
:1035400058424320BB0B494E4320980B494243202D
:10355000C90B4F444420680B49444420610B534439
:103560004420720B43444420800B4F5044208E0B68
:10357000534244209F0B43424420AD0B5842442009
:10358000BB0B494E4420980B49424420C90B44557B
:103590004D500F184544554D3C185644554D68182C
:1035A0004944554DF21746494C4C9F1844535245D7
:1035B0009B0F4453434F950F445344458F0F49434A
:1035C0004720010F494345201D0F49435020310F2B
:1035D00050574D20F20B505745201F0C50574F208D
:1035E0004B0C444453202D11424C4452B3184144D7
:1035F00043204A0D414452207D0D53504D20D80A9E
:1036000053504F20F10A53504320030B535057207F
:103610001B0B53505220260B53505320320B545740
:103620004920080A545753208B0A545750209F0AA8
:10363000545741202B0A545757204A0A54575220B6
:10364000650A54574220AD0A5754462075040000BD
:103650000000F9363DFAF84174746F424153494312
:1036600020666F722041546D656761333238502097
:103670004031364D487A20FAF85665723A20322E9B
:103680003331204275696C6420636F64653A20327F
:10369000303133313031332E31363333FAF9362D80
:1036A0000000F84F726967696E616C20636F646532
:1036B00020284329323030322062792052696368F1
:1036C0006172642043617070656C73FAF868747499
:1036D000703A2F2F70726F6A656374732E63617016
:1036E00070656C732E6F7267202070726F6A6563ED
:1036F00074734063617070656C732E6F726720FA2B
:10370000F9362DFAF8456E68616E63656D656E7405
:1037100073206279204B2E2053636F747420566996
:1037200074616C6520286B73765F70726A40676D98
:10373000782E636F6D2920FAF841546D6567613802
:10374000382F3136382F33323820706F727420287A
:1037500043293230313120FAF8312D57697265280A
:10376000522920737570706F72742028432932308B
:10377000313320FAF86E524632344C3031282B293E
:10378000205246205472616E7363656976657220BB
:10379000737570706F72742028432932303133FA98
:1037A000F84448542048756D696469747920616EE5
:1037B000642054656D7065726174757265207375EF
:1037C00070706F72742028432932303133FAF84513
:1037D00045502046696C652053797374656D20737C
:1037E0007570706F7274202843293230313320FA9B
:1037F000F8536C6565702C2052544320616E642030
:10380000446174612D66696C6520737570706F72A8
:10381000742028432932303132FAF85457492F5353
:1038200050492F444453202620496E70757420431C
:10383000617074757265202843293230313120FA65
:10384000F9362DFAF8416C6C207269676874732040
:10385000616E642072656D6564696573206578705A
:10386000726573736C79207265736572766564FA3C
:10387000F84E6F7420666F7220636F6D6D657263B2
:1038800069616C20757365FAF9363DFA0000F93507
:103890002DFA0000F906203030203031203032205F
:1038A000303320303420303520303620303720304F
:1038B00038203039203041203042203043203044FD
:1038C00020304520304620FA00005661726961625E
:1038D0006C657320696E2052414D3AFA00004545EF
:1038E0005020436F6E74656E74733AFA0000505244
:1038F0004F4752414D204D656D6F727920436F6E79
:1039000074656E74733AFA0000004E657874206135
:103910007661696C61626C65206C6F636174696F5C
:103920006E3A20000000FB3A2050726F6772616DA2
:1039300020746F6F206C6172676520666F7220451E
:10394000455021FA000045726173696E6720454554
:10395000502000000000536176696E672046696C54
:1039600065202320000000004C6F6164696E6720B1
:1039700046696C65202320000000456D7074790055
:103980000000206279746573203E200000004272BE
:1039900065616BFA00002062797465732075736548
:1039A000642E2020000020627974657320667265A1
:1039B000652E20FA0000FA4578697420796F7572D7
:1039C000207465726D696E616C2070726F677261D0
:1039D0006D2E0000FA496E766F6B696E6720626F1C
:1039E0006F746C6F616465722028696E2038207373
:1039F000656373292061742030780000F834322028
:103A000069732074686520416E7377657220746FE6
:103A10002074686520556C74696D617465205175FA
:103A2000657374696F6E20FAF86F66204C6966657D
:103A30002C2074686520556E6976657273652C203C
:103A4000616E642045766572797468696E6720FAE4
:103A50000000F8536F204C6F6E672C20616E64205D
:103A60005468616E6B7320666F7220416C6C2074B9
:103A700068652046697368FA00004C696E6520230A
:103A8000200000004572726F72200000FB303A2067
:103A9000556E6B6E6F776E20636F6D6D616E642017
:103AA0006F72206F70657261746F722E0000FB314F
:103AB0003A2056616C7565206E6F7420626574776C
:103AC00065656E20303A3235352E0000FB323A20E3
:103AD00050726F6772616D206D656D6F72792069CC
:103AE000732066756C6C0000FB333A20436861728A
:103AF0006163746572206E6F742061207265636FFC
:103B0000676E697A656420747970652E0000FB34F5
:103B10003A696E7465726E616C206572726F7220A4
:103B20002D20627566666572206C696D697420650A
:103B3000786365656465642E0000FB353A20426158
:103B400064207661726961626C65206E616D652EBC
:103B50000000FB363A20546F6F206D616E79206152
:103B60007267756D656E74730000FB373A2056619D
:103B70006C756520776173206E6F74206176616962
:103B80006C61626C652E0000FB383A204D61636801
:103B9000696E6520737461636B206572726F72FA6F
:103BA000F9092046756E6374696F6E7320746F6FC8
:103BB00020636F6D706C6578206F722063616C6C30
:103BC00073206E657374656420746F6F206465651F
:103BD000706C79000000FB393A20474F544F206F3A
:103BE0007220474F5355422064657374696E617447
:103BF000696F6E206E6F7420666F756E642E0000A4
:103C0000FB413A2045786365656465642072616EA6
:103C10006765206F6620303A37000000FB423A208B
:103C20004C696E65206E756D626572203E20332092
:103C30006469676974730000FB433A2045786365E3
:103C4000656465642072616E6765206F6620303A36
:103C500031000000FB443A20457863656564656483
:103C60002072616E6765206F6620303A3300000075
:103C7000FB453A2049435020726567697374657249
:103C8000206F766572666C6F772E0000FB463A20D7
:103C900041726974686D65746963206F76657266D8
:103CA0006C6F772E0000FB31303A204172697468E6
:103CB0006D6574696320756E646572666C6F772ECE
:103CC0000000FB31313A20446976696465206279ED
:103CD000207A65726F2E0000FB31323A205457492A
:103CE00020627573206572726F720000FB31333A87
:103CF00020545749206E6F7420656E61626C656454
:103D00000000FB31343A2054574920536C617665EA
:103D1000207265706C6965642077697468204E4113
:103D20004B2E0000FB31353A204E6F20426F6F74EE
:103D30002D6C6F6164657220666F756E642E000075
:103D4000FB31363A20537065636966696564207695
:103D5000616C756520657863656564656420726172
:103D60006E67652E0000FB31373A205365742041A1
:103D70004320526566203E20302E0000FB31383A49
:103D800020446576696365206E6F6E2D7265737071
:103D90006F6E73652E200000FB31393A2044657642
:103DA00069636520636865636B73756D2E20000021
:103DB000FB31413A2053504920696E746572666147
:103DC0006365206E6F7420656E61626C65640000CF
:103DD000FB31423A0000FB31433A204E6F742061C0
:103DE0002062696E617279206E756D626572000085
:103DF000FB31443A20496E76616C6964206E756DC2
:103E0000626572206F6620617267756D656E74738E
:0A3E10000000FB31453A00000000FD
:107D00000000000000000000000000000000000073
:107D10000000000000000000000000000000000063
:107D20000000000000000000000000000000000053
:107D30000000000000000000000000000000000043
:107D40000000000000000000000000000000000033
:107D50000000000000000000000000000000000023
:107D60000000000000000000000000000000000013
:107D70000000000000000000000000000000000003
:107D8000FFFFFFFFFFFFFFFFFFFFFFFFFFFFFFFF03
:107D9000FFFFFFFFFFFFFFFFFFFFFFFFFFFFFFFFF3
:107DA000FFFFFFFFFFFFFFFFFFFFFFFFFFFFFFFFE3
:107DB000FFFFFFFFFFFFFFFFFFFFFFFFFFFFFFFFD3
:107DC000FFFFFFFFFFFFFFFFFFFFFFFFFFFFFFFFC3
:107DD000FFFFFFFFFFFFFFFFFFFFFFFFFFFFFFFFB3
:107DE000FFFFFFFFFFFFFFFFFFFFFFFFFFFFFFFFA3
:107DF000FFFFFFFFFFFFFFFFFFFFFFFFFFFFFFFF93
:00000001FF
