:100000000C947A000C94CA020C9497000C949700FC
:100010000C9497000C9497000C9497000C94970004
:100020000C9497000C9497000C9497000C949700F4
:100030000C9497000C9497000C9497000C949700E4
:100040000C9497000C9497000C9497000C949700D4
:100050000C9497000C9497000C9497000C949700C4
:100060000C9497000C9497000600FF0901A10185EC
:1000700077150026FF00750895C70900B20201092F
:100080000195078102C0040309042003770077006B
:1000900077002E0063006F00720074006500780026
:1000A000620073002E0073006B00160353006F0094
:1000B0006C0061007200690073002000330047008B
:1000C0001201100100000008C016DF050101010245
:1000D000000109022200010100800A090400000158
:1000E00003000000092101010001221E0007058113
:1000F0000308006411241FBECFEFD4E0DEBFCDBFE4
:1001000011E0A0E0B1E0EAEEF8E002C005900D9247
:10011000A230B107D9F711E0A2E0B1E001C01D9211
:10012000AB33B107E1F70E94C1000C9473040C9447
:1001300000009C01F999FECF32BD21BDF89A80B52F
:1001400008959C01F999FECF1FBA32BD21BD60BD53
:100150000FB6F894FA9AF99A0FBE0895FC018081BF
:100160008076803261F48181813011F0893039F4F8
:1001700087EC80930301109202018FEF089580E0D5
:100180000895FF920F931F93DF93CF93CDB7DEB700
:1001900029970FB6F894DEBF0FBECDBF2D9A2598D4
:1001A0002EE088E190E00FB6F894A8958093600067
:1001B0000FBE209360000E944A01569A20E048EB4F
:1001C0005BE004C0A895CA010197F1F72150D1F76F
:1001D000569878948E010F5F1F4F88E7F82EA895E8
:1001E0000E9479011D99FBCF1D9BFECF80911001CC
:1001F00084FFF5CF29E930E048E050E060E070E0AE
:10020000C8010E940404F98268E0C8010E945701F5
:10021000E6CF1F9320910301162F261708F4122F03
:100220006091020129E930E0412F50E070E00E9426
:10023000040480910201810F8093020180910301E7
:10024000811B80930301812F1F9108951F9320919B
:1002500003012223D9F0162F261708F4122F21EAC2
:1002600030E0412F50E0BC018091020190E00E94FB
:10027000200480910201810F80930201809103018B
:10028000811B8093030190E0882309F491E0892F7A
:100290001F910895E9E6F0E0808182608083E89A0A
:1002A0008BE4809311018AE58093100108951F93D8
:1002B000DC01162F8091100184FF07C0809111018D
:1002C00098E889278093110103C08AE58093100183
:1002D000912FE2E1F1E08D9181939150E1F7612F4F
:1002E00082E191E00E94C6021C5F109310011F91F1
:1002F00008951F93CF93DF9360912101635067FDB1
:10030000C4C080911E01CCE0D0E0C81BD109CB5DF8
:10031000DE4F80911D018D3209F0A4C0683009F0D4
:10032000B2C083EC809305018AE5809300011092AE
:1003300004018881807641F0CE010E94AE00282F12
:100340008F3F09F47EC084C09A8110920E0189818A
:10035000882321F410920F0122E06CC0853019F43B
:100360009093220166C0863009F04FC08B818130A6
:1003700041F480EC90E09093200180931F0122E1F2
:1003800040C0823041F482ED90E090932001809350
:100390001F0122E236C08330F9F48A81882341F4B8
:1003A00086E890E09093200180931F0124E029C00B
:1003B000813041F48AE890E09093200180931F01FE
:1003C00020E21FC08230E1F48AEA90E0909320019D
:1003D00080931F0126E115C0813241F484EE90E044
:1003E0009093200180931F0129E00BC0823241F4D9
:1003F00088E690E09093200180931F012EE101C0D8
:1004000020E080E48093040123C0883021F421E0BF
:1004100084E291E011C0893019F49093240109C05D
:100420008A3011F421E006C08B3019F48BE48093FC
:10043000110120E08EE091E09093200180931F0154
:1004400007C0888187FD2E8180E88093040106C063
:100450008F81882319F48E81821708F0822F809370
:10046000010111C08091040187FF0DC0CE010E94DF
:1004700026018F3F21F48EE18093000104C0882380
:1004800011F010920101109221018091000184FF6E
:100490005AC0809101018F3F09F455C0182F89304F
:1004A00008F018E0811B809301018091050198E814
:1004B000892780930501112399F18091040187FF19
:1004C00009C0612F86E091E00E940901182F893050
:1004D000A0F526C020911F013091200186FF0DC09C
:1004E000A6E0B1E080E090E0F901E80FF91FE491A7
:1004F000ED9301961817C1F708C0912FD901E6E0D6
:10050000F1E08D9181939150E1F71150812F90E0AE
:100510001F5F0196820F931F9093200180931F010C
:10052000612F86E091E00E94C602612F6C5F6C3003
:1005300041F08FEF8093010104C08FEF80930101A0
:100540006EE16093000194E189B1847431F49150BB
:10055000D9F71092220110921C01DF91CF911F91C7
:100560000895A82FB92F80E090E041E050EA60950F
:1005700030E009C02D9182279795879510F0842748
:100580009527305EC8F36F5FA8F30895EADF8D9377
:100590009D930895CF93CFB7CF93C3954E9BE9F723
:1005A0004E9B09C04E9B07C04E9B05C04E9B03C08F
:1005B0004E9B01C0A3C0DF93C0911E01DD27CB5D20
:1005C000DE4F4E9B02C0DF91EBCF2F930F931F9313
:1005D00009B12FEF06FB20F94F933F9319B14FEF6D
:1005E000012706FB21F93BE031C04E7F012F19B1F5
:1005F000216028C0102F4D7F2260000009B129C062
:100600004B7F2460012F000019B12BC019B1477F27
:1006100028602AC04F7E09B120612CC04F7D19B1DE
:1006200020622FC04F7B09B1206432C0422709B13C
:1006300049934FEF0000102716FB20F919B11474ED
:10064000C9F1297F91F2012706FB21F909B1237F26
:1006500089F2315058F1102716FB22F919B1277E83
:1006600079F2012706FB23F92F7C81F209B11027CB
:1006700016FB24F92F7971F200C019B1012706FB8E
:1006800025F92F7359F200C009B1102716FB26F97E
:10069000223040F200C019B1012706FB27F92430AF
:1006A00028F64F77206819B10000F9CF11E01CBB84
:1006B000002719C03B503195C31BD04011E01CBB33
:1006C0000881033CF9F00B34E9F020911C011981F9
:1006D000110F1213EDCF4A81441F093641F10D323B
:1006E00011F0013E29F7009323013F914F911F9193
:1006F0000F912F91DF91CCB3C0FD4FCFCF91CFBFE2
:10070000CF91189520912301222379F31091210193
:10071000112369F534306AF13093210120931D01D2
:1007200010911E013BE0311B30931E0122C000914D
:1007300021010130E4F40AE54F7049F430910001E1
:1007400034FD19C000930001C5E0D1E018C030911C
:10075000100134FD10C000931001C1E1D1E00FC0C1
:100760002795A8F45150A9F4220F0000F9CF4AE5CB
:1007700003C042ED01C0432FC4E1D0E032E01AB122
:1007800014645E9A1AB90BB120E414E45F93012754
:1007900056E00BB9279520F4515021F4220FF9CFE0
:1007A000012756E000003B5A0BB9D0F2279528F4F8
:1007B000515029F4220F0000F9CF012756E0279568
:1007C0000BB920F4515021F4220FF9CF012756E044
:1007D000299133230BB921F60B7B10912201110FC4
:1007E000C651D0400BB911F010931C0111E01CBB95
:1007F00000641AB11B7B402F4B7B5F9100C000C08F
:100800000BB91AB94BB971CFA0E0B0E0EAE0F4E05F
:100810000C9446047C01EB018A01690109C0CE01F8
:100820002196F6010995F70181937F01015010404F
:1008300001151105A1F7CDB7DEB7E8E00C9462040D
:10084000A0E0B0E0E6E2F4E00C944604EC017B01A9
:100850008A01690109C0F70161917F01CE012196EA
:10086000F60109950150104001151105A1F7CDB70A
:10087000DEB7E8E00C9462042F923F924F925F92B1
:100880006F927F928F929F92AF92BF92CF92DF92A0
:10089000EF92FF920F931F93CF93DF93CDB7DEB705
:1008A000CA1BDB0B0FB6F894DEBF0FBECDBF099499
:1008B0002A88398848885F846E847D848C849B84F0
:1008C000AA84B984C884DF80EE80FD800C811B81FE
:1008D000AA81B981CE0FD11D0FB6F894DEBF0FBE2D
:0A08E000CDBFED010895F894FFCF9D
:0208EA005AFFB3
:00000001FF
