:103000008081875D80838081808381E48093B402A6
:1030100085EA8093BC0010927E0210927D0210928D
:10302000A302FF91EF918F910F900FBE0F901F9011
:1030300018951F920F920FB60F9211242F933F9362
:103040004F938F939F93EF93FF934091B402453436
:1030500089F1463440F44234B1F0433411F1413443
:1030600009F072C008C04734D9F1473458F14834E8
:1030700009F06AC05DC083E08093BB0085E880935F
:10308000BC0082E45FC08091B900803429F485E8F7
:103090008093BC0083E456C085EA8093BC0081E441
:1030A00051C08091BB008093A3028091A30288232A
:1030B00069F447C083E08093BB0085E88093BC003F
:1030C00086E440C08091B900803429F085EA80937D
:1030D000BC0085E437C085EC8093BC0087E432C037
:1030E000E0917D02F0917E028091BB00E85EFD4F91
:1030F000808380917D0290917E02019690937E0262
:1031000080937D0220917D0230917E028091A30206
:1031100090E001972817390734F485EC8093BC00C0
:103120004093B40211C085E88093BC0088E40AC0D3
:10313000E0917D02F0917E028091BB00E85EFD4F40
:1031400080838AE58093B4028091B4028A3521F4A9
:1031500084E98093BC00A895FF91EF919F918F9196
:103160004F913F912F910F900FBE0F901F90189588
:1031700081E48093B40285EA8093BC0010927E02C1
:1031800010927D021092A302089510928500109271
:103190008400109281001092B1008091B60080FDF1
:1031A000FCCF1092B0008091B60081FDFCCF109250
:1031B000B2008091B60084FDFCCF089581E0809339
:1031C000B1008091B60080FDFCCF81E0809381004A
:1031D0000895BF92CF92DF92EF92FF920F931F93C9
:1031E000582F623021F486E0B4E0BB2E09C0653070
:1031F00021F48FE0AAE0BA2E03C082E0BB24B3948E
:1032000010922102109220021092B5021092B60282
:103210001092B7021092B802282F30E0809120025D
:103220009091210282179307CCF310922102109201
:103230002002C090B502D090B602E090B702F090A4
:10324000B802442351F4F7FE08C0F094E094D094FF
:10325000C094C11CD11CE11CF11C5523E1F000916C
:10326000760210917702000F111F0E5D1D4F2B2D5E
:1032700030E040E050E0C701B6010E94932CF80115
:10328000318320838091760290917702019690930A
:103290007702809376022B2D30E040E050E0C701AA
:1032A000B6010E94932CCA01B9011F910F91FF90A2
:1032B000EF90DF90CF90BF9008957F928F929F9272
:1032C000AF92BF92CF92DF92EF92FF920F931F9334
:1032D000CF93DF936B01EA01490158017E2C7C01F9
:1032E0000027F7FC0095102F1AC0F601808180930B
:1032F000660080E0672D40E00E94E918F4016083D9
:103300007183828393836E157F058007910754F044
:10331000F60180818150808388818F5F88838881D6
:10332000843118F38881843128F480916600F50196
:10333000808304C0F501808180936600DF91CF9186
:103340001F910F91FF90EF90DF90CF90BF90AF90C3
:103350009F908F907F9008958F929F92AF92BF928F
:10336000CF92DF92EF92FF920F931F9380916E00A6
:103370008E7F80936E0082E08093DD0150E1D52E38
:10338000BB24B39444EA842E32E0932E24E8C22E68
:1033900094E9A92E809170008160809370008091E3
:1033A0006F00816080936F000E94C518B092B100D9
:1033B0008091B60080FDFCCFB0928100D092660073
:1033C0006091DD0180E041E00E94E9187B018C0101
:1033D00080911702809366000E94C518809170004A
:1033E0008E7F8093700080916F008E7F80936F003E
:1033F0008092BC008091BC0087FFFCCF9092BB0004
:10340000C092BC008091BC0087FFFCCF8091B900C6
:10341000883171F7BB2717FDBA95A12F902F8F2DFB
:103420008093BB00C092BC008091BC0087FFFCCFA2
:10343000E092BB00C092BC008091BC0087FFFCCF33
:10344000A092BC00D39481EFD81609F0A3CF80914D
:103450006E00816080936E001F910F91FF90EF903E
:10346000DF90CF90BF90AF909F908F900895EF9294
:10347000FF920F931F938091700081608093700082
:1034800080916F00816080936F000E94C51881E079
:103490008093B1008091B60080FDFCCF81E08093E5
:1034A000810085E08093DD016091DD0180E040E0F6
:1034B0000E94E9186091DD0180E040E00E94E91877
:1034C0006091DD0180E040E00E94E9187B018C0101
:1034D0000E94C518809170008E7F8093700080914B
:1034E0006F008E7F80936F0034EA22E094E830937F
:1034F000BC008091BC0087FFFCCF2093BB00909361
:10350000BC008091BC0087FFFCCF8091B90088315E
:1035100071F7809166008093BB0084E88093BC00C3
:103520008091BC0087FFFCCFBB2717FDBA95A12F68
:10353000902F8F2D8093BB0084E88093BC008091F6
:10354000BC0087FFFCCFE092BB0084E88093BC0006
:103550008091BC0087FFFCCF84E98093BC001F9161
:103560000F91FF90EF900895EF92FF921F93CF93EA
:10357000DF938091E201882379F58091E30188232C
:1035800059F58091E401882339F58091E50188237C
:1035900019F58091E6018823F9F48091E7018823E9
:1035A000D9F48091E8018823B9F48091E101813454
:1035B00099F41092B1021092B20210927A02109213
:1035C0007C0210927B021092D90110928C02109210
:1035D0008D021092ED0115C250E08091E10180351D
:1035E00009F451E060917B0270917C02552331F027
:1035F000FB01EF54FD4F8081882329F0E8EEF1E0D4
:1036000020E030E014C08FEF808320E030E0F9014B
:10361000EF51FE4F8081F901E85EFD4F80832F5FFF
:103620003F4F2830310599F7ECC12F5F3F4F808124
:1036300031978823D1F3A8E0A21B8091D901A81764
:1036400011F0B1E001C0B52FA093D90140E020E016
:1036500030E0F901E85EFD4F9081F901EF51FE4F36
:103660008081981709F44F5F2F5F3F4F2830310555
:1036700081F7483011F020E002C021E02527809139
:103680001F02882349F190911F028091E801891758
:10369000F1F490911E028091E7018917C1F4909195
:1036A0001D028091E601891791F490911C0280918E
:1036B000E501891761F490911B028091E40189175B
:1036C00031F490911A028091E301891729F08091D9
:1036D000ED018F5F8093ED019091ED01992309F049
:1036E00071C0222309F06EC020E030E0F901EF51F3
:1036F000FE4F8081F901E85EFD4F80832F5F3F4FD1
:103700002830310599F7BB2309F47BC1672BC9F435
:103710009091B102992309F474C180917A02880FC3
:103720008F5F80937A0291509093B10280E090E095
:10373000FC01EB56FD4F1082019688309105C1F7D0
:1037400060C19091B202992381F480917A02880F2E
:1037500080937A0280E090E0FC01EB56FD4F1082EE
:10376000019688309105C1F715C09F3F9CF4809168
:103770007A02880F8F5F80937A0291509093B20201
:1037800080E090E0FC01EB56FD4F108201968830FE
:103790009105C1F78091B2028F3F09F032C180914B
:1037A0007A028F5F80937A0280E090E0FC01EB5612
:1037B000FD4F1082019688309105C1F78EEF8093FE
:1037C000B2021FC1672B09F4DDC020E030E0F9012F
:1037D000E85EFD4F8081D901AF51BE4F8C931082BE
:1037E0002F5F3F4F2830310591F780916F00816046
:1037F00080936F0080EF8093850083EC809384003A
:1038000085E0809381008091CF018823E1F31092BD
:10381000CF0180916F008E7F80936F0020E030E0B9
:10382000F901EF51FE4F8081F901E85EFD4F808381
:103830002F5F3F4F2830310599F7923070F4809117
:10384000B102882319F08F5F8093B1028091B20298
:10385000882319F08F5F8093B202C0E0D0E001C0EE
:103860002196FE01E85EFD4F80818823C9F77E0125
:1038700060E070E080E090E013C02197FE01E85E18
:10388000FD4F10812AE030E040E050E00E94262CFD
:103890006053704080409040610F711D811D911DEB
:1038A000209759F76093F3017093F4018093F50129
:1038B0009093F60197012F5F3F4FF901E85EFD4FAE
:1038C0008081882319F028303105ACF3E90120E02C
:1038D00030E040E050E016C0FE01E85EFD4F108190
:1038E000CA01B9012AE030E040E050E00E94262CF5
:1038F0009B01AC012053304040405040210F311D0E
:10390000411D511D2197CE15DF0531F72093EF01A1
:103910003093F0014093F1015093F20160E070E0C8
:10392000FB01E85EFD4F8081FB01E158FD4F808384
:103930006F5F7F4F6830710599F780917A028093AD
:1039400087028091B10280938C028091B2028093B1
:103950008D022093FF0130930002409301025093A7
:1039600002028091F3019091F401A091F501B091D0
:10397000F6018093030290930402A0930502B09392
:1039800006023FC080917A02880F880F80937A02E6
:1039900080E090E0FC01EB56FD4F108201968830EC
:1039A0009105C1F726E030E0F901E85EFD4F808126
:1039B000F901E75EFD4F8083215030408FEF2F3FAC
:1039C000380791F71092180226E030E0F901E85E1E
:1039D000FD4F8081F901E75EFD4F8083215030402B
:1039E0008FEF2F3F380791F780E3809318028A2FDB
:1039F0008E5F8093D90181E090E090937C02809368
:103A00007B02DF91CF911F91FF90EF90089530914D
:103A1000E1013093A40280918C028093B1028091E5
:103A20008D028093B2028091FF0190910002A091DB
:103A30000102B09102028093EF019093F001A093F4
:103A4000F101B093F2016091030280910402909120
:103A500005022091060243EF51E06093F301809349
:103A6000F4019093F5012093F6013D3481F03E344A
:103A700038F4313409F45EC0343409F078C00EC033
:103A8000303509F44EC0323509F071C016C0CA0194
:103A9000049761EB72E00E940C0E06C0CA01049705
:103AA00061EB72E00E94660D60939F027093A0022A
:103AB0008093A1029093A2025AC0109275021092B4
:103AC000740280916F00816080936F0080EF80931B
:103AD000850083EC8093840085E08093810060936F
:103AE000B202CA01049761EB72E00E940211609376
:103AF0009F027093A0028093A1029093A2028091F2
:103B00006F008E7F80936F001092810080E090E0C4
:103B1000FC01E85EFD4F1082019688309105C1F7E7
:103B200026C06093B202CA01049761EB72E00E9462
:103B30008712BACF20E030E0F901E158FD4F8081D3
:103B4000F901E85EFD4F80832F5F3F4F283031053C
:103B500099F78091870280937A0280E090E0FC01DF
:103B6000EB56FD4F1082019688309105C1F7809188
:103B7000A402813409F465C060919F027091A00293
:103B80008091A1029091A2024091B3020E94A104EF
:103B90006091B30260939E0280919F029091A00277
:103BA000A091A102B091A20280939402292F3A2FF2
:103BB0004B2F5527209393029D014427552720938F
:103BC00092028B2F9927AA27BB27809391021092EC
:103BD0009F021092A0021092A1021092A20234EA57
:103BE00022E094E83093BC008091BC0087FFFCCFBA
:103BF0002093BB009093BC008091BC0087FFFCCF5A
:103C00008091B900883171F7E1E9F2E094E88081B0
:103C10008093BB009093BC008091BC0087FFFCCFD9
:103C2000319682E0E539F80791F76093BB0084E8AC
:103C30008093BC008091BC0087FFFCCF84E9809317
:103C4000BC0008950F931F93CF93DF938091E801F9
:103C5000882309F057C020E030E0F901EF51FE4F12
:103C60008081F901E85EFD4F80832F5F3F4F283050
:103C7000310599F726E030E0F901E85EFD4F8081DB
:103C8000F901E75EFD4F8083215030408FEF2F3FD9
:103C9000380791F71092180226E030E0F901E85E4B
:103CA000FD4F8081F901E75EFD4F80832150304058
:103CB0008FEF2F3F380791F790E39093180281E33D
:103CC000809318029093190223E030E0F901E85E36
:103CD000FD4F8081D901A45EBD4F8C93108221508D
:103CE00030408FEF2F3F380789F780911F028823DC
:103CF00019F480E380931F0280911D028823E9F567
:103D000080E31CC0813319F08233B9F51EC0809165
:103D10001C02893349F480911D02893329F480E320
:103D200080931C0280931D0280911C02893349F408
:103D300080E380931C0280911D028F5F80931D029F
:103D40001CC080911C028F5F16C080911C028133C1
:103D500021F480911D02803381F080911C02803318
:103D600039F480911D02815080931D0289E303C0C4
:103D700080911C02815080931C0260911F0220914F
:103D80001E0240911D0280911C0210921802109296
:103D9000190210921A0210921B0290E08051924078
:103DA000EAE04E9FA0011124840F951F30E02051BE
:103DB00032406E9FB0011124260F371F829FE00111
:103DC000839FD00D929FD00D112400E010E0CE0112
:103DD0006AE070E00E945E2C805DF801E85EFD4FB5
:103DE00080830F5F1F4FCE016AE070E00E945E2C5F
:103DF000EB01161617065CF380E380937A0280E0ED
:103E000090E0FC01EB56FD4F108201968830910541
:103E1000C1F7DF91CF911F910F9108950F931F93D9
:103E2000CF93DF939091E9016091A40220E030E00C
:103E30002830310511F4692F08C0F901EF51FE4F08
:103E40008081F901E85EFD4F80832F5F3F4F29306D
:103E5000310571F76093A402C0E0D0E001C0219663
:103E6000FE01E85EFD4F8081882319F440E050E0B8
:103E700017C0C330D10599F7F9CF2197FE01E85E4D
:103E8000FD4F2081CA01B3E0880F991FBA95E1F771
:103E9000440F551F480F591F40535040420F511DAA
:103EA000209759F7613439F480918A0290918B02FE
:103EB000840F951F08C0633559F480918A02909150
:103EC0008B02841B950B90938B0280938A0206C011
:103ED000633421F410928B0210928A0200918A02BC
:103EE00010918B021093A8020093A70217FF08C03D
:103EF00088279927801B910B90938B0280938A02CD
:103F000020918A0230918B02C9016AE070E00E9420
:103F10005E2C805DFE01E55EFD4F80832196C90128
:103F20006AE070E00E945E2C9B011616170664F38F
:103F300017FF04C0C55EDD4F8DE2888387E0809364
:103F40007A0280E090E0FC01EB56FD4F1082019672
:103F500088309105C1F710938B0200938A02DF919C
:103F6000CF911F910F9108950F931F93CF93DF93DC
:103F70008091E101809318028091E20180931902FF
:103F80008091E30180931A0200918A0210918B02C2
:103F90001093A8020093A70217FF08C0882799274B
:103FA000801B910B90938B0280938A0220918A024E
:103FB00030918B02C0E0D0E0C9016AE070E00E945D
:103FC0005E2C805DFE01E55EFD4F80832196C90178
:103FD0006AE070E00E945E2C9B011616170664F3DF
:103FE00017FF04C0C55EDD4F8DE2888387E08093B4
:103FF0007A0280E090E0FC01EB56FD4F10820196C2
:1040000088309105C1F710938B0200938A02DF91EB
:10401000CF911F910F91089520E030E047E050E0EC
:10402000FA01E21BF30BD901AF51BE4F8C91EF5255
:10403000FE4F80832F5F3F4F2830310589F720E006
:1040400030E0F901EF52FE4F8081F901E85EFD4F4B
:1040500080832F5F3F4F2830310599F782E08093AE
:10406000B1008091700081608093700081E0809346
:10407000DC0180939D0208958091E1018093EB0122
:10408000853341F1863340F4823379F0833381F014
:10409000813309F0E1C0DDC0873309F46FC0873395
:1040A000D8F1883309F0D8C098C01092DC01D4C090
:1040B0001092DC0120E030E0F901EF52FE4F8081E8
:1040C000F901E85EFD4F80832F5F3F4F28303105B7
:1040D00099F7C2C08091D101893320F48091D10138
:1040E0008F5F53C090E39093D1018091D2018533CB
:1040F00020F48091D2018F5F55C09093D2018091BE
:10410000D401893308F46DC09093D4018091D50116
:10411000853308F05FC072C08091D401813308F00C
:104120004BC089E38093D4018091D501813308F09D
:104130004DC085E38093D5018091D801803389F00B
:10414000803308F486C0833308F083C08091D701A0
:10415000813358F489E38093D7018091D80181504D
:1041600076C08091D701813320F08091D7018150B2
:1041700068C083E38093D70182E369C08091D10155
:10418000813330F08091D10181508093D10161C0A1
:1041900029E32093D1018091D201813330F08091C5
:1041A000D20181508093D20154C095E39093D20103
:1041B0008091D401813320F08091D401815014C0CA
:1041C0002093D4018091D501813320F08091D501D5
:1041D000815017C09093D5013CC08091D4018933A0
:1041E00030F48091D4018F5F8093D40132C090E38A
:1041F0009093D4018091D501853330F48091D5011D
:104200008F5F8093D50125C09093D5018091D8010F
:104210008033F8F0823318F08233D9F40BC08091E8
:10422000D701893358F080E38093D7018091D8017A
:104230008F5F0DC08091D701833330F48091D70117
:104240008F5F8093D70105C080E38093D70180936F
:10425000D80181E08093DC0181E080939D02089584
:104260003F924F925F926F927F928F929F92AF9206
:10427000BF92CF92DF92EF92FF920F931F93DF9343
:10428000CF93CDB7DEB7CF55D0400FB6F894DEBF91
:104290000FBECDBF2091E10180E090E030E3FC0152
:1042A000E755FD4F3083019688309105C1F72233E1
:1042B00041F482E080939D021092AB021092AE0214
:1042C00007C083E080939D021092AA021092AD0273
:1042D0001092B20082E08093B10080917000816002
:1042E0008093700011E0CC24DD24EE24FF24AA2466
:1042F000BB2444EA442E33E0332E24E8722E04EC2F
:1043000094E9592E4E010894811C911C80E3682E7B
:1043100001C011E04092BC008091BC0087FFFCCF3F
:104320003092BB007092BC008091BC0087FFFCCF34
:104330008091B9008034E9F18091B2002091CC01E4
:104340003091CD0190E08217930721F78091CC0145
:104350009091CD01899660E071E00E945E2C90936F
:10436000CD018093CC0180919D02823071F0833029
:1043700071F48091B9028F5F8093B9028A3039F469
:104380000E94C2031092B90202C00E94C2031130FF
:1043900009F620E030E0F901E755FD4F8081F90191
:1043A000E85EFD4F80832F5F3F4F2830310599F73E
:1043B000B1CF0093BC008091BC0087FFFCCF8091FF
:1043C000BB008093A3020093BC008091BC0087FFD8
:1043D000FCCF8091BB008093CB017092BC00809198
:1043E000BC0087FFFCCF9091BB009093EB015092F3
:1043F000BC008091CB018A3089F41092B100809189
:1044000070001092700080E090E0FC01E85EFD4FCB
:104410001082019688309105C1F776C0923361F021
:10442000933320F4913309F075CF73CF933369F14F
:10443000943309F06FCF46C020E030E0F901E75532
:10444000FD4F8081F901E85EFD4F80832F5F3F4F74
:104450002830310599F7D401AC0DBD1D20E030E0C6
:10446000F901E85EFD4F80818D932F5F3F4F28302B
:104470003105B1F7C601089660E570E00E945E2C38
:104480006C010894A11CB11C3DC080E090E0FC01CF
:10449000E755FD4F6082019688309105C1F7809104
:1044A0009D02823021F41092AB021092AE028091F4
:1044B0009D02833021F41092AA021092AD02109254
:1044C000B20027CFA114B10409F424CFD401AE0D5A
:1044D000BF1D20E030E08D91F901E85EFD4F808343
:1044E0002F5F3F4F28303105B1F7C70108962AE00A
:1044F000A216B10414F4B60102C060E570E00E9497
:104500005E2C7C0110E006CFC15ADF4F0FB6F89445
:10451000DEBF0FBECDBFCF91DF911F910F91FF90F6
:10452000EF90DF90CF90BF90AF909F908F907F9053
:104530006F905F904F903F9008958093BB0084E808
:104540008093BC008091BC0087FFFCCF0895882336
:1045500011F484E801C084EC8093BC008091BC001D
:1045600087FFFCCF8091BB0008951F920F920FB67A
:104570000F9211242F933F934F935F936F937F93E9
:104580008F939F93AF93BF93EF93FF938BEF93E042
:104590000E94C22C8F3FA1F416BC8091CB018634BF
:1045A00069F4809170001092700078940E940A0162
:1045B0008091700083608093700002C00E940A01A5
:1045C0008BEF93E00E94C22C8E3F09F050C0809187
:1045D0008902882399F48091CB01863469F4809113
:1045E00070001092700078940E940A01809170000F
:1045F00083608093700002C00E940A01809188024B
:10460000833091F0843028F4813051F0823050F4BE
:1046100013C0853069F0853048F0863069F40AC0EF
:1046200080E80BC085E409C016BC08C082EB05C059
:1046300082EA03C084E601C082EC86BD80918902D3
:10464000813049F0813028F0823069F0833079F48C
:104650000CC081E005C029988BB183708BB982E0D2
:104660008093890204C083E0FBCF109289028BEF14
:1046700093E00E94C22C8D3FD9F580918902882356
:1046800099F48091CB01863469F480917000109286
:10469000700078940E940A0180917000836080937A
:1046A000700002C00E940A0180EF86BD80918902DD
:1046B0008230A1F0833028F4882341F08130C1F4A6
:1046C00007C08F3068F08F3099F410C081E00BC0C4
:1046D00029988BB183708BB982E005C083E003C059
:1046E000809189028F5F8093890202C010928902B3
:1046F000FF91EF91BF91AF919F918F917F916F91BA
:104700005F914F913F912F910F900FBE0F901F908F
:1047100018951F9383EF93E00E94C22C182F1695D3
:104720001695982F96959695969519271827982F50
:1047300092959F7019271795112717958695182B15
:1047400083EF93E0612F0E94CA2C812F1F9108955F
:10475000EF92FF921F93CF93DF9380E090E00E944F
:10476000C22C182F8F3FA1F481E090E00E94C22C50
:104770008F3F71F485E090E06FE30E94CA2C86E0E1
:1047800090E060E00E94CA2C57E0E52EF12C09C0B1
:1047900081E090E00E94C22C312F20E07901E80EE8
:1047A000F11CC5E0D0E010E007C0CE010E94C22C91
:1047B000882309F41F5F2196CE15DF05B4F30E940C
:1047C0008923612F0E94452CF92EF394C5E0D0E097
:1047D00011E01F1541F0CE010E94C22C882309F47C
:1047E0001F5F2196F6CF34EA22E094E83093BC00B4
:1047F0008091BC0087FFFCCF2093BB009093BC004E
:104800008091BC0087FFFCCF8091B900883171F79F
:1048100014E8CE010E94C22C8093BB001093BC0010
:104820008091BC0087FFFCCF2196CE010E94C22C54
:10483000882379F71092BB0084E88093BC008091B4
:10484000BC0087FFFCCF1092BB0084E88093BC00C3
:104850008091BC0087FFFCCF84E98093BC00DF918E
:10486000CF911F91FF90EF9008952F923F924F921A
:104870005F926F927F928F929F92AF92BF92CF92F0
:10488000DF92EF92FF920F931F93DF93CF93CDB7F9
:10489000DEB727970FB6F894DEBF0FBECDBF1B82E1
:1048A00080916E0010926E0085B18D6385B988B1DC
:1048B000876088B929988BB183708BB98BB180667A
:1048C0008BB92C9885E06BE771EE0E94F20311E042
:1048D0001093DD0184E58093CB01809170008160AD
:1048E0008093700080916F00816080936F000E94C0
:1048F000C5181093B1008091B60080FDFCCF81E017
:104900008093810081EF898310E12981822F66E005
:104910000E94452C992319F485B1812785B9822FEE
:1049200081508983809366006091DD0180E040E0E2
:104930000E94E9189B01AC016C837D838E839F8369
:104940008981813E10F7285E334040405040ECF6AC
:10495000809166008B831A8285B190E1892785B9A1
:1049600085E08093DD0118EEC12E13E0D12EB1E079
:10497000AB2EB12CA0E1FA2EF2E02F2E312C2C0E12
:104980003D1EE4E04E2E512C4C0E5D1E73E0672E52
:10499000712C6C0E7D1E4E010894811C911CC5016A
:1049A00063E070E00E945E2C892B19F485B18F259D
:1049B00085B98CE99FEFC80ED91EE090DD01C601D4
:1049C000B401A101920183010E945D190894A11C08
:1049D000B11C94E6C916D10411F76091DD0180E0A5
:1049E00040E00E94E9186C837D838E839F838091D1
:1049F0006600809317020E94C518809170008E7F18
:104A00008093700080916F008E7F80936F008EEF97
:104A100093E0609117020E94CA2C8FEF93E060919F
:104A200017020E94CA2C34EA22E094E83093BC00BA
:104A30008091BC0087FFFCCF2093BB009093BC000B
:104A40008091BC0087FFFCCF8091B900883171F75D
:104A5000809166008093BB0084E88093BC008091C5
:104A6000BC0087FFFCCF2C813D814E815F81BB273D
:104A700057FDBA95A52F942F832F8093BB0084E810
:104A80008093BC008091BC0087FFFCCF2093BB00CB
:104A900084E88093BC008091BC0087FFFCCF84E950
:104AA0008093BC0085B18D6385B988B1876088B972
:104AB00029988BB183708BB980916E00816080934F
:104AC0006E0027960FB6F894DEBF0FBECDBFCF9114
:104AD000DF911F910F91FF90EF90DF90CF90BF90EB
:104AE000AF909F908F907F906F905F904F903F908E
:104AF0002F900895DF92EF92FF920F931F93CF9321
:104B0000DF9380916E008E7F80936E00109277020B
:104B10001092760285E08093DD01809170008160C3
:104B20008093700080916F00816080936F000E947D
:104B3000C51881E08093B1008091B60080FDFCCF64
:104B400081E08093810080916600845180936600AB
:104B5000C0E0D0E06091DD0181E041E00E94E91811
:104B6000809166008F5F809366002196C932D105DF
:104B700089F780911702809366000E94C518809182
:104B800070008E7F8093700080916F008E7F809385
:104B90006F0034EA22E094E83093BC008091BC00BE
:104BA00087FFFCCF2093BB009093BC008091BC009A
:104BB00087FFFCCF8091B900883171F78091DF01C8
:104BC0008093BB0084E88093BC008091BC0087FF89
:104BD000FCCF4091170244514093BB004C5E84E8E7
:104BE0008093BC008091BC0087FFFCCFE2E2F2E042
:104BF00054E820813181832F992787FD9A958093EE
:104C0000BB005093BC008091BC0087FFFCCF209379
:104C1000BB005093BC008091BC0087FFFCCF329654
:104C200082E0E437F80729F74093BB0084E88093DB
:104C3000BC008091BC0087FFFCCF84E98093BC005E
:104C400034EA23E094E83093BC008091BC0087FFF5
:104C5000FCCF2093BB009093BC008091BC0087FFE9
:104C6000FCCF8091B900803471F784E88093BC0058
:104C70008091BC0087FFFCCFD090BB0084E980937B
:104C8000BC008091700081608093700080916F0003
:104C9000816080936F000E94C51881E08093B1000D
:104CA0008091B60080FDFCCF81E0809381008FEF82
:104CB000D81629F48091DF018093660002C0D0925B
:104CC000660085E08093DD016091DD0180E040E0D9
:104CD0000E94E9186091DD0180E040E00E94E9183F
:104CE0006091DD0180E040E00E94E9187B018C01C9
:104CF0000E94C518809170008E7F80937000809113
:104D00006F008E7F80936F0034EA22E094E8309346
:104D1000BC008091BC0087FFFCCF2093BB00909328
:104D2000BC008091BC0087FFFCCF8091B900883126
:104D300071F787EDE81686E0F80680E0080780E066
:104D4000180754F188E58093BB0084E88093BC0089
:104D50008091BC0087FFFCCFBB2717FDBA95A12F20
:104D6000902F8F2D8093BB0084E88093BC008091AE
:104D7000BC0087FFFCCFE092BB0084E88093BC00BE
:104D80008091BC0087FFFCCF84E98093BC008091B8
:104D900017028093660044C089E58093BB0084E8D5
:104DA0008093BC008091BC0087FFFCCF8EEF93E026
:104DB0006D2D0E94CA2C8FEF93E06D2D0E94CA2C9E
:104DC0008FEFD81629F48091DF018093660002C02E
:104DD000D092660080916600809317028EEF93E078
:104DE0000E94C22C8093BB0084E88093BC00809119
:104DF000BC0087FFFCCF8FEF93E00E94C22C809312
:104E0000BB0084E88093BC008091BC0087FFFCCF8E
:104E100084E98093BC0080916E00816080936E0075
:104E2000DF91CF911F910F91FF90EF90DF90089548
:104E30005F926F927F928F929F92AF92BF92CF922A
:104E4000DF92EF92FF920F931F93CF93DF9384B77C
:104E50008E7F84BF80917C00806480937C00A895C5
:104E600084B7877F84BF80916000886180936000F1
:104E70001092600085B78F7E85BF14B817B81AB836
:104E80008FEF85B988B98BB984B18F6384B987B145
:104E9000876087B98AB18C6F8AB985B18D6385B90E
:104EA00088B1876088B929988BB183708BB980E20B
:104EB0008093B8008093B6001092D001789484EF6C
:104EC00093E00E94C22C882329F584EF93E06FEFD2
:104ED0000E94CA2C81EF93E00E94C22C882339F4EF
:104EE00081EF93E06FEF0E94CA2C0E94352485E089
:104EF00062EF7CEF0E94F20343983B9A83E06CE3FD
:104F000076EF0E94F2033B98439A85E061E37CEFE1
:104F10000E94F203809166008093DF016091660039
:104F20008DEF93E00E94CA2C8EEF93E00E94C22C7A
:104F3000182F803150F0803F40F48FEF93E00E94B3
:104F4000C22C181711F410936600809166008093AC
:104F500017028BEF93E00E94C22C8F3F49F08E3FE7
:104F600039F08D3F29F08BEF93E06DEF0E94CA2C52
:104F70001092890210928C0210928D021092A4025B
:104F800010928B0210928A0210927C0210927B0285
:104F90001092D9011092ED0110929F021092A0027E
:104FA0001092A1021092A20210929E021092DC01B5
:104FB0001092B9021092890280916E0081608093F4
:104FC0006E008BEF93E00E94C22C8E3F29F08F3F42
:104FD00068F48D3F31F402C080EC01C080EF86BDE3
:104FE00006C08BEF93E06EEF0E94CA2C16BC83E0E4
:104FF00085BDA4EA9A2EF3E0EF2EE4E8FE2E74EAD3
:10500000872E64ECD62E54E9C52E42EA742E34E085
:10501000B32E22EB622E94E6592E82E0A82E9091B8
:10502000DC018091CB018634E1F38091CB018B349C
:10503000C1F38092BC008091BC0087FFFCCFE0925E
:10504000BB00F092BC008091BC0087FFFCCF809138
:10505000B900803491F0913061F720E030E0F9013F
:10506000EF52FE4F8081F901E85EFD4F80832F5F94
:105070003F4F2830310599F7DCCFD092BC008091AA
:10508000BC0087FFFCCF9091BB00992339F0D092F0
:10509000BC008091BC0087FFFCCF06C0F092BC0032
:1050A0008091BC0087FFFCCF8091BB008093CB0137
:1050B0008091CB01883011F010927A02992329F166
:1050C000E1EEF1E020E030E0492F50E0BA0161501C
:1050D000704016C02617370739F4F092BC00809153
:1050E000BC0087FFFCCF06C0D092BC008091BC0002
:1050F00087FFFCCF8091BB0080832F5F3F4F3196AD
:10510000241735073CF3C092BC008091CB01893055
:1051100028F4873098F4833039F410C0893471F062
:10512000813561F0863451F080E090E0FC01E85E6A
:10513000FD4F1082019688309105C1F78091CB0117
:1051400090E0853409F476C1863440F5873009F45F
:105150004EC1883080F4843038F4823008F06CC05E
:10516000813009F05ECF4DC0853009F4FEC0863035
:1051700008F01CC1E8C0813409F448C1823438F415
:10518000883009F439C1893009F04BCF3AC18334F2
:1051900009F446C1843408F048C13DC18C3409F497
:1051A00038C28D3498F4883409F470C1893438F4E5
:1051B000863409F444C1873409F033CF55C18A34A9
:1051C00009F4DAC18B3408F0F8C116C0803509F44F
:1051D00004C3813538F48E3409F464C28F3408F086
:1051E00066C25BC2823509F427C3823508F407C35F
:1051F000883509F016CF25C31092DC01C7E0D0E056
:105200004BC11092DC018091E101809318028091E2
:10521000E201809319028091E30180931A02809148
:10522000E40180931B0210921C0210921D02109246
:105230001E0210921F02F3CE1092DC014091E20197
:105240008091E1018734B9F1883478F4833439F1FD
:10525000843430F4813401F1823409F0E0CE19C095
:10526000853419F1863420F51DC08436D9F0853691
:1052700040F4823671F0833690F4813609F0CFCE57
:105280000BC08636A9F0863680F0873609F0C7CE87
:1052900012C023E030E011C020E030E00EC024E076
:1052A00030E00BC022E030E008C025E030E005C06F
:1052B00026E030E002C021E030E0483008F0AFCE18
:1052C0008091CB018230A1F485B18D6385B988B11D
:1052D000876088B929988BB183708BB980E090E0A2
:1052E000FC01E85EFD4F1082019688309105C1F700
:1052F0008091CB01833009F092CEF901E85EFD4F39
:105300008081552747FD509590E0042E02C0959569
:1053100087950A94E2F780FF0BC0208181E090E03E
:1053200002C0880F991F4A95E2F78095282309C08B
:10533000208181E090E002C0880F991F4A95E2F732
:10534000282B20836CCE1092DC0120E030E0F901A4
:10535000EF51FE4F8081F901E85EFD4F80832F5FA2
:105360003F4F2830310599F75ACE1092DC018091D9
:10537000E101809390022091E20180E090E0FC0145
:10538000E85EFD4F1082019688309105C1F7233702
:1053900029F4809190020E944E0441CE253709F0F5
:1053A0003ECE809190020E94850439CE1092DC019D
:1053B00020E030E040E050E060E070E0FB01EF51C1
:1053C000FE4F8081280F311D411D511D6330710535
:1053D00021F0542F432F322F22276F5F7F4F6430ED
:1053E000710561F7CA01B9010E94330618CE109207
:1053F000DC010E94221E13CE1092DC010E94B41A1E
:105400000ECE1092DC010E94071D09CE1092DC0125
:105410000E940E1F04CE1092DC010E94B41FFFCD2B
:105420001092DC010E940C20FACD1092DC010E9447
:105430003C20F5CD1092DC010E943021F0CD10927D
:10544000DC01A092B10080917000836080937000B5
:105450002BE088E190E00FB6F894A8958093600067
:105460000FBE20936000DBCD1092DC0120E030E025
:10547000F901EF51FE4F8081F901E85EFD4F808315
:105480002F5F3F4F2830310599F7C9CD1092DC01CD
:105490000E94A823C4CD2197FE01E85EFD4F8081C4
:1054A0008823C9F380818D3211F00BE202C021976D
:1054B0000DE220E030E040E050E017C0FE01E85E81
:1054C000FD4F1081CA01B9012AE030E040E050E010
:1054D0000E94262C9B01AC0120533040404050409C
:1054E000210F311D411D511D2197D7FFE7CF0D32EF
:1054F00039F450954095309521953F4F4F4F5F4F70
:1055000020939402BB2757FDBA95A52F942F832F84
:1055100080939302CA01BB2797FDB095AB2F809370
:105520009202852FBB2787FDB0959B2FAB2F8093D1
:1055300091029092BC008091BC0087FFFCCFA092AA
:10554000BB00F092BC008091BC0087FFFCCF809133
:10555000B900883171F7E1E9F2E080818093BB0006
:10556000F092BC008091BC0087FFFCCF319682E0B6
:10557000E539F80791F72EC11092DC0120E030E008
:1055800040E050E060E070E0FB01EF51FE4F8081B1
:10559000280F311D411D511D6330710521F0542F1D
:1055A000432F322F22276F5F7F4F6430710561F7E1
:1055B000CA01B9010E94280C32CD1092DC0120E012
:1055C00030E040E050E060E070E0FB01EF51FE4F62
:1055D0008081280F311D411D511D6330710521F05F
:1055E000542F432F322F22276F5F7F4F6430710576
:1055F00061F7CA01B9014091E50127E032E00E945C
:10560000BF15A092B10080917000816080937000FE
:1056100006CD1092DC018BEF93E06EEF0E94CA2C56
:105620008091E10180938802109289028091880222
:105630008330A1F0843028F4813061F0823060F44E
:105640001BC0853079F0853058F0863069F087309E
:1056500099F40DC080E811C085E40FC016BC0AC0E3
:1056600066BC03C076BC01C056BCB5BC08C082ECA9
:1056700086BD85E085BD03C080EC86BDE5BC20E02D
:1056800030E0822F805DF901E85EFD4F80832F5F5F
:105690003F4F28303105A9F7C2CC1092DC010E949F
:1056A000AC19BDCC1092DC010E947A25B8CC1092C6
:1056B000DC0180916E008E7F80936E0085B18D63DA
:1056C00085B988B1876088B929988BB183708BB907
:1056D0009092BC008091BC0087FFFCCFE092BB00A1
:1056E000F092BC008091BC0087FFFCCF8091B90094
:1056F000803471F7D092BC008091BC0087FFFCCF52
:105700008091BB008433C1F1853360F4813361F152
:10571000823318F4803399F513C08233A9F08333B0
:1057200071F516C08733F9F0883328F48533A1F07A
:10573000863329F515C08833D1F0893301F51BC0B4
:10574000299A8BB18C671AC0299A8BB1846B16C0C9
:10575000299A8BB18C6912C0299A8BB1886D0EC0C1
:105760008BB1886F0BC0299A8BB18C6007C0299AC6
:105770008BB18C6F03C0299A8BB18C6C8BB9F09272
:10578000BC008091BC0087FFFCCF8091BB008333BD
:10579000C1F0843338F4813381F0823380F4803374
:1057A000C9F409C0853389F0853368F0863379F010
:1057B000873381F40EC02C980DC02B980BC02A980B
:1057C00009C0289807C0429805C0419803C0409876
:1057D00001C02D98C092BC0022CC1092DC018091B7
:1057E000E101803321F0813309F019CC03C080E05E
:1057F00091E002C08EE191E00E94E00810CC10928E
:10580000DC018091E101882309F409CC823041F068
:10581000833051F0813069F48BEF93E06DEF07C076
:105820008BEF93E06EEF03C08BEF93E06FEF0E947E
:10583000CA2C10928902F3CB1092DC010E9435240D
:10584000EECB1092DC010E94371AE9CB629FD001A7
:10585000739FF001829FE00DF11D649FE00DF11D2B
:10586000929FF00D839FF00D749FF00D659FF00DDA
:105870009927729FB00DE11DF91F639FB00DE11DC7
:10588000F91FBD01CF0111240895991B79E004C0CF
:10589000991F961708F0961B881F7A95C9F780956F
:1058A000089587FB082E062687FD819567FD619583
:1058B000ECDF0EF4919507FC8195089597FB092E76
:1058C00007260AD077FD04D049D006D000201AF46C
:1058D000709561957F4F0895F6F7909581959F4F4C
:1058E0000895A1E21A2EAA1BBB1BFD010DC0AA1F21
:1058F000BB1FEE1FFF1FA217B307E407F50720F039
:10590000A21BB30BE40BF50B661F771F881F991FB3
:105910001A9469F760957095809590959B01AC01FC
:10592000BD01CF01089597FB092E05260ED057FD26
:1059300004D0D7DF0AD0001C38F45095409530953C
:1059400021953F4F4F4F5F4F0895F6F79095809503
:10595000709561957F4F8F4F9F4F0895AA1BBB1B7A
:1059600051E107C0AA1FBB1FA617B70710F0A61B5F
:10597000B70B881F991F5A95A9F780959095BC0180
:10598000CD010895F999FECF92BD81BDF89A99276E
:1059900080B50895262FF999FECF1FBA92BD81BD1B
:1059A00020BD0FB6F894FA9AF99A0FBE01960895A1
:0459B000F894FFCF99
:1059B4000D0A5043425F41204D696E692D4F533AA1
:1059C400204932435F5631385F43430D0A00535731
:1059D40020696E666F726D6174696F6E3A20204340
:1059E4006F6D70617469626C6520776974682041B9
:1059F400565220616E6420554E4F20757365722097
:105A040070726F6A656374732C205043425F415F08
:105A1400426F6F746C6F616465722056355F4343E7
:105A24002E0D0A2020616E6420554E4F5F626F6F09
:105A3400746C6F616465725F666F725F6865782607
:105A4400746578745F563620200D0A50726F677241
:105A5400616D6D6564207573696E67207573696E19
:105A6400672050726F6A6563745F70726F677261EA
:0E5A74006D6D65725F554E4F0D0A00012900E1
