:100000000C942A000C9447000C9447000C94470071
:100010000C9447000C9490000C9447000C944700FB
:100020000C9447000C9447000C9447000C948000FB
:100030000C9447000C9447000C9447000C94470024
:100040000C9447000C9447000C9447000C94470014
:100050000C94470011241FBECFE5D4E0DEBFCDBF16
:1000600010E0A0E6B0E0E0ECF8E002C005900D92F0
:10007000A23FB107D9F711E0A2EFB0E001C01D9295
:10008000AB30B107E1F70E9449000C945E040C9478
:1000900000000E948A0083E390E00E946D0088EED9
:1000A00093E028EC30E0F9013197F1F70197D9F7A7
:1000B00080E690E00E94750188E890E00E9475015A
:1000C000FFCF1F93182F8A3019F48DE00E94610032
:1000D0005D9BFECF1CB91F91089520EB30E030935B
:1000E00008012093070190BD89B988E98AB986E89B
:1000F00080BD9098899A08955F9BFECF8CB108953A
:100100001F920F920FB60F9211240F900FBE0F90F7
:100110001F90189583E08EBD80E289BF7894089582
:100120001F920F920FB60F921124EF92FF920F932E
:100130001F932F933F934F935F936F937F938F936F
:100140009F93AF93BF93EF93FF938091FC009091A7
:10015000FD00909302018093010126B537B53093DD
:10016000FD002093FC00281B390B3093FF002093E7
:10017000FE0080910301882349F4C901855596400A
:10018000833B910518F481E0809303018091030182
:100190008823E9F026393105D0F42D383105B8F03F
:1001A0008F5F809303018091F2009091F300A09102
:1001B000F400B091F500880F991FAA1FBB1F809310
:1001C000F2009093F300A093F400B093F5008091B7
:1001D00003018823F9F091E02C323907D8F4295132
:1001E0003140C0F08F5F809303018091F2009091C5
:1001F000F300A091F400B091F500880F991FAA1F99
:10020000BB1F81608093F2009093F300A093F400F1
:10021000B093F500809103018132E9F5109203015A
:10022000E090F200F090F3000091F4001091F500DE
:100230006E2D60956093FB00F0920001C801AA2723
:10024000BB27382F309530930401812F9927AA2797
:10025000BB278093FA006F15D1F48317C1F400D047
:1002600000D000D08EEB90E0EDB7FEB79283818393
:10027000E382F482058316830E9460018DB79EB7E6
:1002800006960FB6F8949EBF0FBE8DBF04C089EDD1
:1002900090E00E947501FF91EF91BF91AF919F9106
:1002A0008F917F916F915F914F913F912F911F910E
:1002B0000F91FF90EF900F900FBE0F901F90189529
:1002C000A0E0B0E0E6E6F1E00C943704FE013596DC
:1002D000619171918091070190910801AF010E9495
:1002E000AA012096E2E00C9453040F931F93CF933E
:1002F000DF938C01E0910701F0910801838181FF78
:1003000021C0C0E0D0E00DC0E0910701F0910801EC
:1003100020853185BF01F9010995892B11F0CFEFB7
:10032000DFEFF80181918F01882371F7E0910701D8
:10033000F0910801208531858AE0BF01F901099516
:10034000892B11F0CFEFDFEFCE01DF91CF911F911D
:100350000F910895ABE0B0E0E0EBF1E00C942704DE
:100360003C012B015A01FC0117821682838181FD19
:1003700003C06FEF7FEFC6C19AE0892E1E0108947B
:10038000211C311CF3012381F20123FD859123FF00
:1003900081912F01882309F4B2C1853239F423FDFC
:1003A000859123FF81912F01853229F490E0B301DB
:1003B0000E949D03E7CF982FFF24EE249924FFE1AC
:1003C000FF15D0F09B3269F09C3228F4903259F03E
:1003D000933291F40EC09D3249F0903369F441E0BC
:1003E00024C052E0F52A84E0F82A28C098E0F92ACF
:1003F00025C0E0E1FE2A22C0F7FC29C0892F8053E6
:100400008A3070F4F6FE05C0989C902C1124980E4A
:1004100015C0E89CE02C1124E80EF0E2FF2A0EC083
:100420009E3229F4F6FC6BC140E4F42A07C09C36E6
:1004300019F450E8F52A02C0983649F4F20123FD78
:10044000959123FF91912F01992309F0B8CF892F1E
:100450008554833018F08052833038F444E050E003
:10046000A40EB51E5FE359830FC0933631F0933766
:1004700079F0933509F056C020C0F5018081898359
:1004800042E050E0A40EB51E610101E010E012C090
:10049000F501C080D180F6FC03C06FEF7FEF02C092
:1004A000692D70E042E050E0A40EB51EC6010E9426
:1004B00092038C015FE7F52214C0F501C080D18062
:1004C000F6FC03C06FEF7FEF02C0692D70E042E0E1
:1004D00050E0A40EB51EC6010E9487038C0150E8AF
:1004E000F52AF3FE07C01AC080E290E0B3010E9433
:1004F0009D03EA948E2D90E008171907A8F30EC00B
:10050000F601F7FC8591F7FE81916F0190E0B30150
:100510000E949D03E110EA9401501040011511055D
:1005200079F7EAC0943611F0993669F5F7FE08C0FC
:10053000F501208131814281538184E090E00AC03D
:10054000F501808191819C01442737FD4095542F0E
:1005500082E090E0A80EB91E9FE6F92257FF09C07D
:1005600050954095309521953F4F4F4F5F4FE0E8B4
:10057000FE2ACA01B901A1012AE030E00E94C903A4
:10058000D82ED21840C0953729F41F2D1F7E2AE09F
:1005900030E01DC01F2D197F9F3661F0903720F489
:1005A000983509F0ACC00FC0903739F0983709F092
:1005B000A6C004C028E030E00AC0106114FD146039
:1005C00020E130E004C014FD166020E132E017FFA6
:1005D00008C0F501608171818281938144E050E01F
:1005E00008C0F50180819181BC0180E090E042E08B
:1005F00050E0A40EB51EA1010E94C903D82ED21846
:100600008FE7F82EF122F6FE0BC05EEFF522D9142B
:1006100038F4F4FE07C0F2FC05C08FEEF82202C0E9
:100620001D2D01C0192DF4FE0DC0FE01ED0DF11DB3
:100630008081803319F499EEF92208C01F5FF2FE21
:1006400005C003C08F2D867809F01F5F0F2DF3FCC6
:1006500014C0F0FE0FC01E1510F09D2C0BC09D2C79
:100660009E0C911A1E2D06C080E290E0B3010E94FC
:100670009D031F5F1E15C0F304C01E1510F4E11A80
:1006800001C0EE2404FF0FC080E390E0B3010E949C
:100690009D0302FF1DC001FD03C088E790E00EC06E
:1006A00088E590E00BC0802F867891F001FF02C0B2
:1006B0008BE201C080E2F7FC8DE290E0B3010E9482
:1006C0009D0306C080E390E0B3010E949D039A94CD
:1006D000D914C0F3DA94F101ED0DF11D808190E0A1
:1006E000B3010E949D03DD20A9F706C080E290E0DF
:1006F000B3010E949D03EA94EE20C1F743CEF301BB
:1007000066817781CB012B96E2E10C944304FC01D6
:100710000590615070400110D8F7809590958E0F2C
:100720009F1F0895FC016150704001900110D8F79F
:10073000809590958E0F9F1F08950F931F93CF93D1
:10074000DF938C01EB018B8181FF1BC082FF0DC009
:100750002E813F818C819D812817390764F4E881BF
:10076000F9810193F983E88306C0E885F985802F34
:100770000995892B31F48E819F8101969F838E8309
:1007800002C00FEF1FEFC801DF91CF911F910F91B2
:100790000895FA01AA27283051F1203181F1E89417
:1007A0006F936E7F6E5F7F4F8F4F9F4FAF4FB1E064
:1007B0003ED0B4E03CD0670F781F891F9A1FA11D5F
:1007C000680F791F8A1F911DA11D6A0F711D811D60
:1007D000911DA11D20D009F468943F912AE0269F25
:1007E00011243019305D3193DEF6CF010895462F84
:1007F0004770405D4193B3E00FD0C9F7F6CF462F65
:100800004F70405D4A3318F0495D31FD40524193CD
:1008100002D0A9F7EACFB4E0A6959795879577958A
:100820006795BA95C9F700976105710508959B0111
:10083000AC010A2E06945795479537952795BA959A
:10084000C9F7620F731F841F951FA01D08952F9273
:100850003F924F925F926F927F928F929F92AF9250
:10086000BF92CF92DF92EF92FF920F931F93CF939D
:10087000DF93CDB7DEB7CA1BDB0B0FB6F894DEBF34
:100880000FBECDBF09942A88398848885F846E845A
:100890007D848C849B84AA84B984C884DF80EE80A4
:1008A000FD800C811B81AA81B981CE0FD11D0FB6AD
:1008B000F894DEBF0FBECDBFED010895F894FFCFD1
:1008C00049522072656D6F746520636F6E74726F2C
:1008D0006C20726563656976657220284E454320F9
:1008E000666F726D617429002020202020204279DB
:1008F000203A416264756C6C626173697420482EA1
:1009000020416C4861697461202020202020200053
:1009100000000002000000006100000000005265BD
:1009200063656976656420636F6D6D616E643A20FE
:1009300030782530386C780A004572726F722072F8
:100940006563656976696E6720636F6D6D616E645E
:020950000000A5
:00000001FF
