:1000000012C02AC029C028C0D2C026C026C024C021
:1000100023C022C040C020C01FC01EC01DC01CC0C5
:100020001BC01AC019C011241FBECFEDCDBF10E0F8
:10003000A0E6B0E0E4EFF2E002C005900D92A43635
:10004000B107D9F710E0A4E6B0E001C01D92A337D4
:10005000B107E1F748D14CC1D3CF1F920F920FB631
:100060000F9211248F939F9312BE80916000909104
:100070006100892B49F080916000909161000197A7
:1000800090936100809360009F918F910F900FBEBD
:100090000F901F9018951F920F920FB60F92112478
:1000A0002F933F938F939F93EF93FF9380916200E1
:1000B000882319F418B8969A62C080916200813042
:1000C00051F580916500882321F0813009F057C0F7
:1000D0000AC01FBC84E88EBD12BC809165008F5F92
:1000E000809365004CC0E0917200F0E08CB59DB546
:1000F000EE0FFF1FE959FF4F9183808380917200BB
:100100008F5F8093720082E0809362001EBC1DBCF2
:100110001CBC18B834C080916200823081F518B8D8
:100120001DBC1CBC809167009091680020917000FC
:1001300030917100880F991F821B930B909371006F
:100140008093700080917000909171008091700098
:100150009091710080549140909371008093700051
:1001600080917000909171009BBD8ABD89B78064B9
:1001700089BF1FBC84E88EBD12BC10926F00FF9136
:10018000EF919F918F913F912F910F900FBE0F9004
:100190001F90189580916600882329F481E0809350
:1001A0006600C29A089510926600C29808951F9240
:1001B0000F920FB60F9211242F933F934F935F939B
:1001C0006F937F938F939F93AF93BF93EF93FF931F
:1001D00080916F008823C1F48EB58B7F8EBDDADFEE
:1001E000969A80916F008F5F80936F001DBC1CBC3E
:1001F00080E190E09BBD8ABD89B7806489BF1FBC48
:1002000084E88EBD12BC07C08EB58B7F8EBDC2DF69
:1002100081E080936200FF91EF91BF91AF919F9138
:100220008F917F916F915F914F913F912F910F909F
:100230000FBE0F901F901895809160009091610003
:10024000892B09F040C088EC90E090936100809386
:100250006000A89580916200813019F0823099F594
:100260001BC080916400882339F081508093640022
:10027000843149F596980895B49925C089E1809311
:1002800064001092650080917200843010F010922A
:1002900072008AE188B9089580916400882321F072
:1002A0008150809364000895B4990DC089E18093D2
:1002B00064001092650080917200843010F01092FA
:1002C00072008AE188B9089588E188BB84EE87BB13
:1002D00012BA8FEF81BB82E089BF10BE81E083BF7D
:1002E00083E081B90895F0DF7894A895A5DFFDCF6C
:0402F000F894FFCFB0
:0402F40064000100A1
:00000001FF
