S00B0000737478734C6A5770A5
S11300000C94D2000C94ED000C94ED000C94F70BBE
S11300100C941D080C946D120C94ED000C94F013C8
S11300200C9409140C9426140C94420B0C94380B65
S11300300C94ED000C9457160C941B150C9443155A
S11300400C94A7010C94ED000C94ED000C94ED00BD
S11300500C94ED005601280124015B016001560156
S113006024015B016001280165019401A20194014E
S11300709601960191019101980198019A019A01C2
S1130080A201A201A201A2019C019E01A0013804C7
S1130090630407048D04B804E60403051A0567091C
S11300A0A109A109A109A109A109A109A109A109FC
S11300B0A109A109A109A109A109A1096A09A10923
S11300C0A109A109A109A109A109A109A109A109DC
S11300D0A109A109A1096D098209A109A10995092B
S11300E0A109A109A1099C099F09A109A109A109C3
S11300F0A109A109A109A1096009650B730BA00B52
S1130100820BA00B820BA00B820BA00B820BA00B0B
S1130110820BA00B820BA00B820BA00B820B900B0B
S11301209C0BA00B4120000042C80000461C40006C
S11301304CBEBC205A0E1BCA749DC5AE3DCCCCCD62
S11301403C23D70A38D1B717322BCC7724E69595C0
S11301500A4FB11F0672652C0375223B59781EBAEB
S1130160E07A633BF47C75FF4E7E3172117F0000B0
S1130170000005813504F483200001836246328344
S1130180200000816246307F0000000582778C4F9A
S113019081432CE28217BF2483A48DD981E1D8A1A5
S11301A080DB678211241FBECFE5D8E0DEBFCDBF60
S11301B011E0A0E6B0E0ECE8FAE302C005900D928D
S11301C0A03BB107D9F713E0A0EBB1E001C01D9249
S11301D0A03BB107E1F70C94A8090C9400008AB382
S11301E08ABB1ABA80EC87B987E086B9379A479AEE
S11301F0339A1092C90182ED91E09093D5018093D6
S1130200D4011092D3019093CB018093CA01359A03
S113021080B78F7180BF80B7806A80BF1BBA0E948D
S113022012010895CF93DF9384B195B18091330285
S11302309927AA27BB27FC013197EB30F10540F43D
S1130240E65DFF4F0C943F1D84B195B18A839B8377
S1130250E091CA01F091CB01818187FF06C00E9421
S11302609112E091CA01F091CB010280F381E02D5B
S1130270F093CB01E093CA0181818F770E948001C2
S1130280F894E091CA01F091CB018081282F3327A3
S1130290908184B5891720F484B5281B31091CC0CA
S11302A084B5281B310920503F4F16C084B195B145
S11302B088839983CDCF84B195B18C839D83C8CF36
S11302C084B195B18E839F83C3CF84B195B190934C
S11302D0D1018093D001BCCF220F331F220F331FD3
S11302E0220F331F8CB59DB5820F931F99BD88BD16
S11302F0789488B7886088BF9498DF91CF910895E7
S1130300282F80933302809133029927AA27BB2791
S1130310FC013197E231F105A8F4EB5CFF4F0C943A
S11303203F1D80EC87B90EC082ECFCCF83ECFACF82
S113033081ECF8CF84ECF6CF85ECF4CF86ECF2CFE9
S113034087ECF0CF339A369A822F992708957894C0
S11303501F920F920FB60F9211242F933F934F9336
S11303605F936F937F938F939F93AF93BF93EF9319
S1130370FF930E941201FF91EF91BF91AF919F9162
S11303808F917F916F915F914F913F912F910F903A
S11303900FBE0F901F9018950E948D1582E690E075
S11303A00E94CD140E948D150E94DA0108950E94C6
S11303B08D1508950F931F93CF93DF9389E690E0F3
S11303C00E94CD148091C90199270E946A158FE675
S11303D090E00E94CD148091CA019091CB010E94BB
S11303E06A1585E790E00E94CD1480913202992726
S11303F00E946A150E948D158091C901E82FFF277C
S1130400EE0FFF1FEE0FFF1FEE52FE4F028113810E
S1130410E801CE010E946A158BE50E94D8158881F7
S113042099270E946A1589E00E94D8158981992725
S11304300E946A1589E00E94D8158DE50E94D8159E
S11304408091CA019091CB018C179D0719F48AE21F
S11304500E94D8150E948D150A80DB81C02DC0171B
S1130460D107B9F6DF91CF911F910F9108958DE0D7
S113047080933C0280934D0210923D0210924E02F2
S11304801092CD01109258028BE592E0909357029E
S11304908093560290935C0280935B029FEF90934B
S11304A0600281E280935D0290935E0290935F020A
S11304B0A99AA89A84E085BBAB9A95B3BC9AA99AE9
S11304C0A89A85BBAB9AA09AA19AA39AA29AAD9A2C
S11304D0AC9AAE9AAF9AA49AA59AA79AA69A4AE019
S11304E060913D0284E392E00E94CF034AE060E021
S11304F085E492E00E94CF030E94840282E085BDDD
S113050089B7806889BF08958BE790E00E94CD1475
S11305108091590290915A022091430230914402F1
S1130520821B930B0E94801581E890E00E94CD14F9
S11305308091590290915A020E94801587E890E0B8
S11305400E94CD1483B599270E9473158EE890E01C
S11305500E94CD1484B599270E94731584E990E014
S11305600E94CD1480915402909155020E947315FB
S11305700E948D150E948D1581E590E00E94D8158A
S113058084E392E00E94D50285E590E00E94D815AC
S113059085E492E00E94D5028CE990E00E94CD149B
S11305A00E948D150E94ED0208950F931F938C01F4
S11305B082EA90E00E94CD14F801818599270E9477
S11305C0731587EA90E00E94CD14F801808599277D
S11305D00E9473151F910F910895A0E0B0E0E3EF1E
S11305E0F2E00C94101D8CEA90E00E94CD148091EE
S11305F05802992787FD90950E946A1581EB90E037
S11306000E94CD148091CD01992787FD90950E9479
S11306106A1587EB90E00E94CD1480915602909168
S113062057020E946A150E948D15BB24AB2CEE2440
S1130630FF248BE5C82E82E0D82EE7018B2DB394DE
S113064085360CF0A7C0CE010E946A1589E090E0BF
S11306500E94D815C6010E946A158BE590E00E949D
S1130660D81587010C0F1D1F055A1D4FF8018281F3
S113067099270E946A1589E090E00E94D815F80134
S1130680838199270E944F158CE290E00E94D8152F
S1130690F801848199270E944F158CE290E00E9412
S11306A0D815F801858199270E944F158DEB90E0AC
S11306B00E94CD14F801808191810E946A150E94E4
S11306C08D150E940616A394219686E090E0C80E2C
S11306D0D91EE5E0F0E0EE0EFF1EFBE0FA150CF08B
S11306E0ADCF81EC90E00E94CD140E948D159091C5
S11306F0580286E09802E0011124C55ADD4F0990A2
S1130700D881C02D7E01CE010E946A158BE590E050
S11307100E94D81589E090E00E94D8158A81992713
S11307200E946A1589E090E00E94D8158B81992770
S11307300E944F158CE290E00E94D8158C81992775
S11307400E944F158CE290E00E94D8158D81992764
S11307500E944F158DE590E00E94D81580915602B5
S1130760909157028C179D0781F00E948D15099076
S1130770D881C02D0E9406168B2DB394853654F46F
S1130780CE15DF0509F0BFCF05C08AE290E00E94D4
S1130790D815EBCFEAE0CDB7DEB70C942C1DFC01E5
S11307A08085841719F08AE0808742876A3E08F0C2
S11307B06AEE687F61870E94B50508951F93CF9301
S11307C0DF93AC0110E0FC01838584872091320221
S11307D0C22FDD27CC0FDD1FCC0FDD1FCE52DE4F25
S11307E02093CC01938586E0989FB0011124655A2B
S11307F07D4F80859927AA27BB27FC013697E830CF
S1130800F10508F01EC1E95BFF4F0C943F1D1882EF
S113081097E0998324968091CC018F5F8093CC01DB
S1130820FA0181858823B9F080E1FB01828385E0A8
S1130830838385EF84836A5F7F4FFA0184858F5FAA
S113084084878185888386E089838091CC018F5F4A
S11308508093CC018185805FFB018283938387EF42
S11308608483FA0184858F5F848720913202E9C0F2
S1130870188287E0898324968091CC018F5F8093CE
S1130880CC01FA0181858131B8F080E1FB018283DA
S113089089E0838389EF84836A5F7F4FFA018485CB
S11308A08F5F84878185888386E089838091CC01EA
S11308B08F5F8093CC018185805FFB0182838BE015
S11308C083838BEFCDCF188299E09983249680910E
S11308D0CC018F5F8093CC01FA0181858131B0F026
S11308E080E1FB018283938389EF84836A5F7F4F76
S11308F0FA0184858F5F84878185888388E0898372
S11309008091CC018F5F8093CC018185805FFB0156
S113091082838DE083838DEFA3CF188289E089835E
S113092024968091CC018F5F8093CC01FA0181855C
S11309308823B9F080E1FB0182838AE083838AEF14
S113094084836A5F7F4FFA0184858F5F8487818502
S1130950888388E089838091CC018F5F8093CC0168
S11309608185805FFB0182838EE083838EEF78CF65
S113097080E1FB0182833FE033832FEF2483FA017C
S113098084858F5F84876A5F7F4F90E8FB01928341
S113099033832483FA0184858F5F8487988387E077
S11309A0898324968091CC018F5F8093CC019883B6
S11309B089E089838091CC018F5F8093CC0182850B
S11309C080878A3009F451CF11E04FCFFB011282A6
S11309D086E0838386EF8483FA0184858F5F84872E
S11309E090E1988387E0898324968091CC018F5F7E
S11309F08093CC01988389E089838091CC018F5FB7
S1130A008093CC0132CFFB01128229E0238389EF4A
S1130A108483FA0184858F5F848790E1988387E0DB
S1130A20898324968091CC018F5F8093CC01988335
S1130A302983E3CF80E1FB0182838FE083838FEFFF
S1130A400FCFC22FDD27CC0FDD1FCC0FDD1FCE5201
S1130A50DE4F2093CC01188287E08983249680910D
S1130A60CC018F5F8093CC01188289E0898324961E
S1130A708091CC018F5F8093CC01FA0181858883BA
S1130A8086E0898324968091CC018F5F8093CC018A
S1130A908185888388E089838091CC018F5F8093EE
S1130AA0CC01812F992787FD9095DF91CF911F91DC
S1130AB00895982F80E0292F332720FD80E123FD1E
S1130AC0806821FD806222FD806424FD816097FDA1
S1130AD0886025FD826026FD846099270895EF9241
S1130AE0FF920F931F93CF93DF938C018091320277
S1130AF0E82E8093CC01F801838596E0899FE0017C
S1130B001124CB5ADD4FF92E26968B810E9459056C
S1130B108B838C810E9459058C83F80184858F9D79
S1130B20C0011124855A9D4FC817D90769F7EE2DC6
S1130B30FF27EE0FFF1FEE0FFF1FE253FE4F8091C2
S1130B40CC01282F3327220F331F220F331F2E529D
S1130B503E4F349681818C5F8183E217F307C9F796
S1130B60E6E0CDB7DEB70C94301DA0E0B0E0EBEBCF
S1130B70F5E00C940C1D14E3A12E12E0B12EC5E493
S1130B808C2EC2E09C2EEE24EE0C2091CD012F5F22
S1130B902093CD01233009F43CC28CB59DB59093CC
S1130BA0440280934302822F992787FD90959C01EC
S1130BB0220F331F220F331FF5012387880F991F3C
S1130BC0880F991F880F991F80933202422F332771
S1130BD027FD3095842F9927049628173907E4F4C4
S1130BE06091560270915702E0913F0256E02E2F19
S1130BF033272C5F3F4F4502C0011124855A9D4F76
S1130C006817790709F402C24F5F842F992787FD7B
S1130C109095821793077CF3C090320284E392E0AC
S1130C200E94DE03E82A8091CC01809332028091F5
S1130C304002F401838785E492E00E94DE03E82AFF
S1130C4085E492E00E946F051091500250913F029A
S1130C50FFEFDF2E612F772767FD7095EB01F09092
S1130C6051028F2D9927681779070CF0C8C1252FD9
S1130C70332727FD309500914002802F99272817AC
S1130C8039070CF0AFC1D901AA0FBB1FAA0FBB1FB4
S1130C90A20FB31FA20FB31FA55ABD4F3B01660C91
S1130CA0771C660C771C660E771E660E771E8BE526
S1130CB092E0680E791E12969C91F3018281891745
S1130CC008F48EC1D52E4D2D8F2D9927C817D9071D
S1130CD00CF04BC0802F9927281739070CF045C01A
S1130CE0E901CC0FDD1FCC0FDD1FC20FD31FC20FD4
S1130CF0D31FC55ADD4FDB01AA0FBB1FAA0FBB1FB1
S1130D00A60FB71FA60FB71FA55ABD4F9A811296FB
S1130D108C911297981708F015C1842F992787FD95
S1130D209095FC01EE0FFF1FEE0FFF1FE80FF91F58
S1130D30E80FF91FE55AFD4F26E05202C0011124C5
S1130D40855A9D4F80839183452F5F5F252F3327DD
S1130D5027FD30958F2D99276817790734F4802F54
S1130D609927281739070CF4BBCFA02FBB272A17C4
S1130D703B0704F526E0842F992787FD9095FC0115
S1130D80EE0FFF1FEE0FFF1FE80FF91FE80FF91F0B
S1130D90E55AFD4F5202C0011124855A9D4F8083AC
S1130DA09183452F5F5F852F992787FD90958A173B
S1130DB09B070CF32F2D33276217730704F556E0B6
S1130DC0842F992787FD9095FC01EE0FFF1FEE0FEE
S1130DD0FF1FE80FF91FE80FF91FE55AFD4F150231
S1130DE0C0011124855A9D4F80839183412F1F5F39
S1130DF0812F992787FD9095821793070CF3842FF1
S1130E00992787FD9095FC01EE0FFF1FEE0FFF1F42
S1130E10E80FF91FE80FF91FE55AFD4F86E0D89E49
S1130E2090011124255A3D4F20833183809158022B
S1130E30992787FD9095FC01EE0FFF1FEE0FFF1F12
S1130E40E80FF91FE80FF91FE55AFD4F9581F901E5
S1130E508381982B8481982395830190F081E02DE0
S1130E602E173F07A9F780915802992787FD90957F
S1130E70FC01EE0FFF1FEE0FFF1FE80FF91FE80F35
S1130E80F91FE55AFD4F86E0D89EC0011124855A0A
S1130E909D4F80839183409358024C2D2C2DAC2D73
S1130EA0BB27A7FDB0958091CC01682F7727A617A3
S1130EB0B707E4F4CD01E42FFF27E7FDF095EE0F2B
S1130EC0FF1FEE0FFF1FEE52FE4F880F991F880F72
S1130ED0991F8E529E4F82839383422F2F5F822FBE
S1130EE0992787FD9095861797072CF3E42FFF2702
S1130EF0E7FDF095EE0FFF1FEE0FFF1FEE52FE4FC2
S1130F00CD01880F991F880F991F8E529E4F82839F
S1130F1093832091C901E22FFF27EE0FFF1FEE0FED
S1130F20FF1FEE52FE4F828393834093C9018CB519
S1130F309DB590935A0280935902F1E0EF1609F49B
S1130F4023CE6BC012969C9112978A819817F0F465
S1130F50842F992787FD9095FC01EE0FFF1FEE0F5C
S1130F60FF1FE80FF91FE80FF91FE55AFD4F46E090
S1130F701402C0011124855A9D4F80839183412F0F
S1130F801F5F612F772767FD7095E4CE842F992723
S1130F9087FD9095FC01EE0FFF1FEE0FFF1FE80F7A
S1130FA0F91FE80FF91FE55AFD4F26E05202C00170
S1130FB01124855A9D4F808391838B8113969C9134
S1130FC01397892B8B838C8114969C9189238C8312
S1130FD0452F1F5F5F5F612F772767FD7095B6CE42
S1130FE0D12E71CE802F9927281739070CF4D52ECE
S1130FF08F2D9927C817D9070CF065CEF1CF009132
S11310004002252F332727FD3095ECCF4E2F41503A
S1131010FBCD20E02093CD01C0CDE42FFF27EE0FC0
S1131020FF1FEE0FFF1FEE52FE4F81818068818308
S1131030EEE0CDB7DEB70C94281D1F920F920FB6C9
S11310400F9211248F939F93EF93FF93E091560295
S1131050F091570282818E5F84BD858185BB0190AA
S1131060F081E02DF0935702E0935602828183BD14
S113107088B390E1892788BBFF91EF919F918F916D
S11310800F900FBE0F901F90189508951092A8020C
S11310901092D3021092D2021092A7021092A602CA
S11310A0A89585EA92E00E940916892BB1F48091F3
S11310B0D4029091D5022091A6023091A702821BFE
S11310C0930B895E934060F38091D4029091D50292
S11310D09093A7028093A602E3CF8091D4029091CB
S11310E0D5029093A7028093A6029091A802983209
S11310F094F5E92FFF27E7FDF095E755FD4F809123
S1131100A50280839F5F9093A8020E94D8158091C6
S1131110A5028B3529F2883101F18A3019F08D301E
S113112009F0BECF0E948D158091A80282301CF474
S11311301092A802B5CF81508093A802992787FD09
S11311409095FC01E755FD4F1082BC0189EA92E0BD
S11311500E944709EDCF8EE7D8CF80E090E00E944F
S1131160A916A0E0B0E0E7EBF8E00C940E1DEC014A
S11311705B01A881B981FD019190E883F983CC24B6
S1131180DD2411968C91992787FD90950E949918DA
S1131190892B09F061C0C601D7FE04C088279927AE
S11311A08C199D09F5018083892D992787FD9095D8
S11311B08836910509F449C0893691051CF58636AF
S11311C0910509F05BC087EC90E00E94CD141C14DB
S11311D01D0434F48CEC90E00E94CD1448E0842E7D
S11311E0D7FE06C081ED90E00E94CD1436E0832E38
S11311F0CD2809F043C087ED90E00E94CD148AE029
S1131200882E3CC08C369105C9F082379105B1F522
S11312108DED90E00E94CD141C141D0434F48CEC6C
S113122090E00E94CD1429E0822ED7FEE1CF81ED1B
S113123090E00E94CD1497E0892EDACF82EE90E000
S11312400E94CD146CE0862E19C086EE90E00E94B8
S1131250CD145BE0852E12C04AE050E0B6018881CF
S113126099810E9419177B018C016B018AEE90E031
S11312700E94CD14C7010E946A158DCF0E948D155E
S1131280882D9927ECE0CDB7DEB70C942A1DA4E095
S1131290B0E0EDE4F9E00C94161DFC0181918F019E
S11312A0992787FD9095A92FB92FFC01E554F040AB
S11312B0EE32F10508F045C0E15BFF4F0C943F1D91
S11312C009831A83CE0101960E94320F3AC00E940C
S11312D0840237C00E94ED0234C080EF90E00E9487
S11312E0CD1409831A83BE016D5F7F4FCE01019631
S11312F00E94B108482F55276B8184E392E00E9435
S1131300CF031FC084EF90E00E94CD1409831A8399
S1131310BE016D5F7F4FCE0101960E94B108482F38
S113132055276B8185E492E0EACF09831A83CE01C5
S113133001960E94CB0905C00E94D50B02C00E94F1
S1131340B40BE4E024960C94321D0E94F814089522
S1131350CFE5D8E0DEBFCDBFB89ABA9AC09AC29A98
S11313600E94A509789488EF90E00E94CD140E9411
S11313708D150E9406160E94290F88E190E02FE047
S11313800FB6F894A89581BD0FBE21BDA8950E9403
S113139046080C94A916FC01A081B1818D91A0830B
S11313A0B183282F332727FD309520373105D1F01D
S11313B02137310554F42136310509F0089560E0F0
S11313C070E0CD010E94F50908952737310539F001
S11313D02837310509F008950E948B0A089561E0C9
S11313E070E0EFCF0E94D20A0895EF92FF920F931C
S11313F01F93CF93DF938C01E62EFF248CB39927A0
S1131400EC01C270D07081FDF9CFF8010190002089
S1131410E9F73197E01BF10B8091FE029091FF02F6
S1131420E80FF91FEF5FF34010F0CE016FC00E9488
S1131430961618160CF059C0F8018081882329F1FA
S11314408091FE029091FF020E94961618160CF0ED
S113145049C0C00FD11FF3948091FE029091FF0206
S11314609C0101969093FF028093FE026881C9015A
S11314700E949E168F2D992787FD9095EC01F80107
S1131480E80FF91F80818823D9F6F1E0EF1611F1F6
S11314908091FE029091FF020E9496168A30B9F064
S11314A087FD15C0882399F06EE28091FE02909129
S11314B0FF020E949E168091FE029091FF02019607
S11314C09093FF028093FE028F5F934008F381E0C4
S11314D090E01CC060E08091FE029091FF020E94A7
S11314E09E16F5CF81E0E82EB4CF91E0E92E8091ED
S11314F0FE029091FF029C0101969093FF0280935B
S1131500FE026AE0C9010E949E1696CFE6E0CDB7BE
S1131510DEB70C94301DA8E2B0E0E1E9FAE00C94E7
S1131520121D8CB399279C012270307081FD36C046
S1131530EE243093FF022093FE026E010894C11C36
S1131540D11C0E2D112707FD10950C0D1D1DE394C4
S11315508091FE029091FF020E949616F82EF801E7
S11315608083F7E2FE15D4F0181684F42AE082177B
S113157069F08091FE029091FF0201969093FF0220
S11315808093FE028F5F9340E0F208C01E141CF4A7
S1131590C6010E944709EE241F145CF3E8E0A896F4
S11315A00C942E1D1F93CF93DF938CB39927EC01DA
S11315B0C270D07081FF03C080E090E055C0D0932A
S11315C0FF02C093FE0210E0CE010E946A158DE373
S11315D00E94D815D093FF02C093FE020E94061603
S11315E08091FE029091FF020E949616C82F181651
S11315F0B4F48A3081F199270E949918892B49F112
S11316008C2F0E94D8158091FE029091FF020196C2
S11316109093FF028093FE028F5F9340F8F20E9442
S11316208D158FEF90E00E94BE148091FE02909180
S1131630FF020E946A158FE20E94D8158FEF93E093
S11316400E946A150E948D158091FE029091FF02FE
S11316500BC08FE3D6CF1F5F0E948D15812F992772
S11316600E946A158DE3CDCFDF91CF911F9108952C
S11316701F920F920FB60F9211240F900FBE0F906E
S11316801F9018951F920F920FB60F9211242F934B
S11316903F934F935F936F937F938F939F93AF93F6
S11316A0BF93EF93FF9320910301322F822F992749
S11316B087FD9095A92FB92FFC013296E531F105EC
S11316C0D8F5E358FF4F0C943F1D0E94C6108DE3DC
S11316D083BF88E08093B80186EC8CBF209103011E
S11316E02F5F209303018091B80181508093B8014A
S11316F0882349F52F5F2093030184E18CBF8BE19C
S113170083BF21C03F5F3093030180910003880FA2
S113171080930003B09B17C081608093000313C0C3
S11317208CE183BF8AE88CBF80910003809301031E
S11317302EEF2093030107C08EEF8093030103C0B3
S11317403F5F30930301FF91EF91BF91AF919F9160
S11317508F917F916F915F914F913F912F910F9056
S11317600FBE0F901F90189585E091E00E94CD1454
S11317708091010399270E946A158AE091E00E94F2
S1131780CD1480910301992787FD90950E946A15D5
S11317900E948D150895C098C398BB9AB89889E2A1
S11317A083BF89B7826089BF08951F93CF93DF9366
S11317B081E191E00E94CD1410E0C2E0D3E0899170
S11317C099270E946A158CE290E00E94D8151F5F49
S11317D01530A8F3DF91CF911F910895BA98C2985C
S11317E085B7806485BF8BB780628BBF08951F92D5
S11317F00F920FB60F921124EF92FF920F931F9343
S11318002F933F934F935F936F937F938F939F9304
S1131810AF93BF93EF93FF938CB59DB57C010027E5
S113182011278091D4029091D502AA27BB27DC010D
S113183099278827E80EF91E0A1F1B1F8091BB01F8
S11318409091BC01A091BD01B091BE01A801970186
S1131850281B390B4A0B5B0BCA01B90126E130E0A6
S113186040E050E00E94CB1CDA01C901B901815A61
S11318709F4028F040E04093B9014093BA01E092C0
S1131880BB01F092BC010093BD011093BE018AB765
S113189080628ABF04B606FE2AC084B78F7B84BFE9
S11318A02091BA014091B9014F5F4093B901463488
S11318B018F086E48093B9012F3108F459C080915F
S11318C005039927843F910541F0853F910544F430
S11318D0845E9040029708F44BC00E94B71048C041
S11318E08D3F9105D1F38F3F9105B9F741C084B77E
S11318F0806484BF2091BA01522F203298F640911F
S1131900B901433088F2685E7340E0F4822F869513
S113191086958695E82FFF27EE5FFC4F33272770C7
S1131920307081E090E002C0880F991F2A95E2F799
S1131930982F9095808189238083252F2F5F209372
S1131940BA01B2CF822F869586958695E82FFF2718
S1131950EE5FFC4F822F99278770907021E030E072
S113196002C0220F331F8A95E2F78081822BE4CFD5
S1131970FF91EF91BF91AF919F918F917F916F9163
S11319805F914F913F912F911F910F91FF90EF9095
S11319900F900FBE0F901F9018958CB59DB58CB508
S11319A09DB50895992780FF11C0AC9A81FF0CC0A2
S11319B0AD9A82FF07C0AE9A83FF02C0AF9A08C0F7
S11319C0AF9806C0AE98F8CFAD98F3CFAC98EECFF1
S11319D0959A86E190E00E94CD0C959808950F9316
S11319E01F93CF93C0E00C2FA498A598A698A7980E
S11319F0AF9897989598969A86E190E00E94CD0CBE
S1131A00959A86E190E00E94CD0C13B310789C99CE
S1131A10C0619D99C0629E99C064959886E190E0EA
S1131A200E94CD0C959A86E190E00E94CD0C9C9981
S1131A30C1609D99C2609E99C4609F9908C09598A1
S1131A40802F0F5F853128F41123B1F602C0C860DE
S1131A50F6CF8C2F9927CF911F910F9108951F9343
S1131A60182FA49AA59AA69AA79A82958F700E9475
S1131A70D20C812F0E94D20CA498A598A698A7985E
S1131A801F9108951F93182F0E94EF0C9698979812
S1131A909598812F0E942F0D1F9108950F931F93E6
S1131AA0CF93382F862F8A01C22F992787FD9095CF
S1131AB0232F332727FD3095BC01C9010E94A90DAE
S1131AC0F8018081882369F48C2FC1501816B4F46E
S1131AD080E290E00E94C60D8C2FC1501816C4F30A
S1131AE00DC0992787FD90950F5F1F4F0E94C60D6B
S1131AF0C150F80180818823A1F7E6CFCF911F91CF
S1131B000F9108951F93CF93DF93EC0110E00E948F
S1131B10D20D8881882351F01F5F212F3327FE01C6
S1131B20E20FF31F80818823B9F702C020E030E080
S1131B3080E190E0821B930B9595879560E070E0BF
S1131B400E94A90DCE010E94B40DDF91CF911F9187
S1131B500895982F862F8295880F880F807C890F8F
S1131B6080680E94420D0895CF93DF93EC01888131
S1131B70882349F0992787FD909521960E94C60DE8
S1131B8088818823B9F7DF91CF9108951F93182F87
S1131B900E94EF0C96989598979A812F0E942F0D8A
S1131BA01F91089581E00E94420D08951F93CF93E1
S1131BB0DF93C0E0D0E080EF95E50E94CD0C219644
S1131BC0C83CD105C0F39698979895988E9A8F9AA9
S1131BD08D9A10E083E00E94D20CC0E0D0E080EF48
S1131BE095E50E94CD0C2196C530D105C0F31F5F49
S1131BF0133080F382E00E94D20CC0E0D0E080EF8A
S1131C0095E50E94CD0C2196C233D105C0F388E23C
S1131C100E94420D8CE00E94420D81E00E94420D20
S1131C2086E00E94420DDF91CF911F91089580912B
S1131C30C001882341F4CA9906C081E08093C001A1
S1131C4081E090E00895813019F080E090E00895FB
S1131C50CA9BFBCF1092C001F8CF1F93CF93DF93A1
S1131C60982F87E08093BF01C92FDD27C730D105A6
S1131C70FCF010E08091BF01992787FD90958C1BA3
S1131C809D0B18161906D4F480E290E00E94C60D4C
S1131C901F5F212F332727FD30958091BF0199279E
S1131CA087FD90958C1B9D0B281739076CF306C094
S1131CB060E070E0CB010E94A90DDBCFDF91CF91F2
S1131CC01F910895A0E0B0E0E8E6FEE00C94101D3A
S1131CD0582FEB01B02EEE24AE2C60E2D62ECD2C84
S1131CE01E2D8881882351F01F5FE12FFF27E7FD18
S1131CF0F095EC0FFD1F80818823B1F71F5F423000
S1131D0009F472C08091BF01082F051B00930803DA
S1131D10810F8F5F8093BF0101317CF4202F332723
S1131D2027FD3095812F992787FD90959095819572
S1131D309F4F0297281739071CF480E090E058C0A1
S1131D400830BCF48091BF01992787FD9095252F19
S1131D50332727FD3095821B930B089754F051E0ED
S1131D60A52E4A15E9F1442321F42CE3C22E9EE367
S1131D70D92EFF241F15BCF0003160F4EE2019F1B8
S1131D80FF20E1F088818823A1F0992787FD9095B1
S1131D900E94C60D8881882311F0F11021960F5FEF
S1131DA0F3941F154CF7EA0C8E2D992787FD909517
S1131DB01FC08D2D992787FD9095EACF8C2D9927EB
S1131DC087FD9095E5CF802F992787FD90956B2D02
S1131DD0772767FD70950E94A90D81E0E82ED0CF8A
S1131DE03AE2D32ECD2CC5CF122F0091080394CF05
S1131DF0EAE0CDB7DEB70C942C1D982F8091BF017B
S1131E00282F291B20930803860F8F5F8093BF011F
S1131E10213174F4332727FD3095862F992787FDC8
S1131E209095909581959F4F0297281739071CF438
S1131E3080E090E0089581E090E008950F9301E040
S1131E40282F42E06CE171E080E00E94620E0F9165
S1131E500895B89ABA9A0E94EF000E9437020E942D
S1131E607B140895A2E0B0E0E8E3FFE00C94161DB3
S1131E708C01DC012D913C911197F9018191ED9335
S1131E80FC93992787FD90958337910509F467C0E2
S1131E9084379105CCF58936910591F08A36910500
S1131EA00CF46FC08037910509F06BC00E94C50F18
S1131EB0EC9A8DE191E00E94CD140E948D1561C0D1
S1131EC0F9018181992787FD90950E949918892BA2
S1131ED009F457C04AE050E060E070E0D8018D9109
S1131EE09C910E941917DC01CB01BC01CD010E9419
S1131EF0BE19DC01CB018093280390932903A0939E
S1131F002A03B0932B033DC08737910589F28837A4
S1131F109105FCF486379105A1F5F9018181992792
S1131F2087FD90950E949918892B59F1BE016F5F26
S1131F307F4FD8018D919C910E949B1ADC01CB01AB
S1131F408093240390932503A0932603B09327033F
S1131F5018C08A379105A9F40E94370212C0F9010A
S1131F608181992787FD90950E949918892B49F0C2
S1131F70BE016F5F7F4FD8018D919C910E949B1A87
S1131F80B8CFE4E022960C94321D0F931F9384E2A1
S1131F9091E00E94CD142AE030E046ED52E06091D9
S1131FA0090370910A0380910B0390910C030E9422
S1131FB069180E94CD148FE291E00E94CD148091A3
S1131FC02D03992787FD90954AE050E066ED72E075
S1131FD00E94AB160E94CD148AE391E00E94CD14B6
S1131FE006ED12E024E045E0609128037091290396
S1131FF080912A0390912B030E940B190E94CD1407
S11320008FE391E00E94CD1424E045E06091240325
S11320107091250380912603909127030E940B1948
S11320200E94CD1480912E0390912F03813091054D
S1132030A9F18130910578F18230910549F1039736
S113204021F184E491E00E94CD148AE491E00E949D
S1132050CD14EC9915C0ED990EC0EB9907C0E99B1E
S113206020C082E591E00E94CD141BC08BE591E075
S11320700E94CD14F4CF85E691E00E94CD14EDCFFB
S11320808FE691E00E94CD14E6CF89E791E0DBCFA3
S113209082E891E0D8CF87E891E0D5CF8FE891E04E
S11320A0D2CF8DE70E94D8150E948D151F910F91F4
S11320B0089581E090E090932F0380932E0384E1B0
S11320C08093110380E092E1AAE7B0E080930903D2
S11320D090930A03A0930B03B0930C0388EC8093B2
S11320E02C0388E997EBA0E0B0E080931E03909363
S11320F01F03A0932003B093210381E080932D0359
S113210080E896E9A8E9B0E0809312039093130362
S1132110A0931403B093150310921603109217039F
S1132120109218031092190310921A0310921B03B1
S113213010921C0310921D0380E090E0A0E3B6E42B
S11321408093240390932503A0932603B09327033D
S113215080E090E0A0E6B6E48093280390932903FE
S1132160A0932A03B0932B031DBAEB9A08951092FF
S11321700D0310920E0310920F031092100383E0CC
S113218090E090932F0380932E030895EF92FF9293
S11321900F931F93CF93DF93C9E0D3E08CB59DB524
S11321A07C01002711278091D4029091D502AA279F
S11321B0BB27DC0199278827E80EF91E0A1F1B1F7D
S11321C08091C1019091C201A091C301B091C40159
S11321D0A8019701281B390B4A0B5B0BCA01B901F3
S11321E026E130E040E050E00E94CB1CE092C101C7
S11321F0F092C2010093C3011093C40180910D03B6
S113220090910E03A0910F03B0911003820F931FBE
S1132210A41FB51F80930D0390930E03A0930F0387
S1132220B093100380912E0390912F038130910578
S113223009F449C18130910538F08230910509F4DF
S113224007C1039709F4CEC080912E0390912F0308
S1132250892B09F465C080912E0390912F03029776
S113226009F45EC080912E0390912F03019709F029
S11322702DC1EB9B39C020910D0330910E03409189
S11322800F03509110038091120390911303A091B6
S11322901403B0911503281739074A075B0760F048
S11322A080912D0387FFED9A80912D0387FDEC9A91
S11322B01C821D821E821F82CE990AC01C821D822E
S11322C01E821F8282E090E08DA39EA38FEF8CA3D9
S11322D0CF990AC01C821D821E821F8282E090E078
S11322E08DA39EA381E08CA3EC9B0CC0EC98969AE2
S11322F01C821D821E821F8282E090E08DA39EA319
S113230081E08CA3ED9BE2C0ED981C821D821E82AD
S11323101F8282E090E08DA39EA38FEF8CA3D6C092
S113232080912D03181614F4CE9B59C080912D036F
S113233087FF04C0CF9902C00E94B710E99B15C063
S113234020910D0330910E0340910F03509110031F
S11323508091120390911303A0911403B09115037B
S1132360281739074A075B07B8F5EA9B7BCF869B9A
S113237015C0209116033091170340911803509112
S1132380190380911A0390911B03A0911C03B0912F
S11323901D03281739074A075B07D8F0869962CFCF
S11323A020911A0330911B0340911C0350911D038B
S11323B08091160390911703A0911803B09119030B
S11323C0281739074A075B0708F04CCF0E94B7105B
S11323D049CF0E94B710E2CF0E94B710C6CF0E9427
S11323E0B710A4CF80912D0390912D03890F482F0E
S11323F060E084E392E00E94CF0320910D033091CA
S11324000E0340910F0350911003809109039091A2
S11324100A03A0910B03B0910C03281739074A074C
S11324205B0708F411CF81E090E090932F03809331
S11324302E0310920D0310920E0310920F031092AC
S1132440100340E0642F84E392E00E94CF03FCCEAB
S11324509091110380912C03989F900111248091F5
S11324600D0390910E03A0910F03B0911003892FD7
S11324709A2FAB2FBB2744275527BC01CD010E94BF
S1132480981CDC01CB01BC01CD0121EE35EF45E008
S113249050E00E94CB1CDA01C901122F40912D0398
S11324A0682F84E392E00E94CF0380912C031817D5
S11324B008F4CACE10922F0310922E0340912D03DC
S11324C060912C03C0CF10922D03BECE86B386B389
S11324D0E6E0CDB7DEB70C94301D1F920F920FB615
S11324E00F9211242F933F934F935F936F937F9396
S11324F08F939F93AF93BF93EF93FF930E94C61064
S1132500FF91EF91BF91AF919F918F917F916F91C7
S11325105F914F913F912F910F900FBE0F901F909D
S113252018950895FC016085762F862F992787FDDD
S113253090958830910509F46FC0893091050CF0AD
S113254070C08630910509F467C0079709F45BC031
S113255025853685121613060CF067C0A217B3073B
S11325604CF4683019F1673009F443C0862F875062
S11325708230B0F52A173B070CF057C0683031F1B0
S11325806630B1F0693049F0663009F44EC0683005
S113259009F44BC078E060E148C08FEF463F58072C
S11325A00CF46051475F5F4F0CF43FC0605F3DC067
S11325B01416150644F442305105BCF1605F693CC1
S11325C0A0F168EC32C079E060E2F5CF4330510508
S11325D00CF060514230510544F576E060E825C0C6
S11325E01A161B061CF460E178E01FC060E177E076
S11325F01CC08FEF4F3F580714F078E060E14E5F46
S11326005F4F9CF4DBCF86819781AA27BB27A81B49
S1132610B90B448155819CCFA281B3814081518102
S113262097CF099709F094CFEECF472FCF010E949F
S1132630CF030895089508958E9A8F9A8FE783BDE6
S11326408EE685BD89B7806489BF089583BD8823DC
S113265021F485B58F7D85BD089585B58F6DFBCF3C
S1132660982F882329F483BD85B58F7D85BD089572
S1132670181624F4969885B58F6D85BD97FF04C010
S1132680969A85B58F6D85BD089589E991E00E947C
S1132690CD1483B599270E946A150E948D1508955B
S11326A00F931F93FC0100811181C801AA2797FD94
S11326B0A095BA2FBC01CD010E94BE1917FF06C018
S11326C020E030E040E857E40E94C91820E030E000
S11326D04AE756E40E94161ADC01CB0120E030E8F8
S11326E04BEB55E4BC01CD010E94C918DC01CB01C0
S11326F0BC01CD010E94A119DC01CB011F910F91F6
S11327000895FC0142815381141615062CF520818D
S11327103181848195812817390730F4C901840FE8
S1132720951F808391839C01141615065CF48481A3
S113273095818217930730F4C901841B950B80831C
S113274091839C0188E02030380748F08FEF97E0B0
S1132750808391839C0103C020813181E5CFC9012D
S1132760AA27BB27BC01CD0125E83BE940E050E0A6
S11327700E94981CDC01CB012BE0B595A795979599
S113278087952A95D1F7BC01CD010E94BE19DC01C1
S1132790CB0120E73DE34AE856E4BC01CD010E94A9
S11327A0C918DC01CB01BC01CD010E94A119DC01D7
S11327B0CB010895089586EA91E00E94CD148AB56C
S11327C09BB50E946A158CEA91E00E94BE14809128
S11327D03803909139030E946A150E948D1508955B
S11327E01F920F920FB60F9211248F938091A40120
S11327F0181634F48091A40181508093A40103C07D
S113280089B78F7E89BF8F910F900FBE0F901F9055
S113281018951F920F920FB60F9211248F939F93C6
S11328208CB59DB590933903809338038091A501AD
S113283018162CF48091A50181508093A5019F91D5
S11328408F910F900FBE0F901F9018951F920F92AB
S11328500FB60F9211242F933F934F935F936F936F
S11328607F938F939F93AF93BF93EF93FF9389B716
S1132870816089BF8091D4029091D5020196909392
S1132880D5028093D4028091C5019091C6018050F5
S1132890904F9093C6018093C5018091C50190919A
S11328A0C60188569244B0F06091C5017091C6018A
S11328B08AE393E00E9481139BBD8ABD1092C601F6
S11328C01092C50182E08093A4018093A50189B789
S11328D0806189BFFF91EF91BF91AF919F918F91DB
S11328E07F916F915F914F913F912F910F900FBE08
S11328F00F901F9018958FB58D7F8FBD8FB58E7FEC
S11329008FBD81E08EBD8EB5877F8EBD8EB58F7EE7
S11329108EBD89B7846189BF89B7806189BF89B752
S1132920886089BF89B78F7D89BF88EC92E39BBD9E
S11329308ABD80EE9EE299BD88BD8FEF9FEF97BD63
S113294086BD80E094E090933B0380933A0321E0BA
S113295030E030933D0320933C0390933F038093F6
S11329603E039093410380934003309343032093A9
S11329704203909345038093440308950F931F9358
S11329808C0180E20E94D815C8010E94CD148DE309
S11329900E94D8151F910F910895CF93DF93EC01F6
S11329A00E9406168881882331F021960E94D8154A
S11329B088818823D1F7DF91CF9108958A3010F46C
S11329C0805D01C0895C0E94D81508951F93182F5B
S11329D082958F700E94DE141F70812F0E94DE1476
S11329E01F9108959F7089B9892F992780BD0895F3
S11329F0519A8BE090E00E94F214549A539AB99A37
S1132A008898909A899A86E880BD109246038091AE
S1132A1046038093AD03109248038091480380934A
S1132A204703579A1092A9031092AA031092AB037A
S1132A301092AC0308951F920F920FB60F921124B7
S1132A408F939F93EF93FF93909147038091480353
S1132A50981771F0809148038F5F8F7380934803B8
S1132A605E9AE82FFF27E759FC4F80818CB902C09A
S1132A705598569AFF91EF919F918F910F900FBEA9
S1132A800F901F9018951F920F920FB60F9211245A
S1132A905698C1980F900FBE0F901F901895A1E003
S1132AA0B0E0E5E5F5E10C94171D898310E0898118
S1132AB087FF02C081E301C080E30E94D8158981A9
S1132AC0880F8983812F1F5F87308CF3E3E0219681
S1132AD00C94331D4AE050E066ED72E00E94AB16A0
S1132AE00E94CD140895DC01CB012AE030E046EDCC
S1132AF052E0BC01CD010E94D1160E94CD1408956C
S1132B00DC01CB012AE030E046ED52E0BC01CD010E
S1132B100E9469180E94CD1408958AE00E94D81575
S1132B208DE00E94D81508950F931F938C01892F6F
S1132B30990F990B0E94D815802F0E94D8151F91C8
S1132B400F910895EF92FF920F931F937B018C01D5
S1132B50BB2797FDB095AB2F0E949415C7010E9427
S1132B6094151F910F91FF90EF900895EF92FF92AB
S1132B700F931F93DC01CB017C018D018B2F9927CF
S1132B80AA27BB270E94D815802F9927AA27BB27DD
S1132B900E94D8158F2D9927AA27BB270E94D815E4
S1132BA08E2D0E94D8151F910F91FF90EF900895DC
S1132BB0282F909147039F5F9F7380914803981734
S1132BC059F09093470380914703E82FFF27E75973
S1132BD0FC4F2083559AC19A0895FF920F931F9337
S1132BE0CF938C01F62E161644F4C62FF80181916A
S1132BF08F010E94D815C150C9F78F2D992787FDE1
S1132C009095CF911F910F91FF9008955599FECF04
S1132C100895DC019091AD0380914603981779F0F3
S1132C20809146038F5F8F7180934603E82FFF27BF
S1132C30E75BFC4F80818C9381E090E0089580E015
S1132C4090E008950F931F93CF93DF93EC01062F29
S1132C5010E01617ACF4CE010E940916882329F05F
S1132C6021961F5F1017BCF30BC085B78F7885BF03
S1132C7085B7806885BF889585B78F7785BFEBCF8B
S1132C80DF91CF911F910F910895FC010190F08184
S1132C90E02D808191810895FC010190F081E02D67
S1132CA080819181A281B381BC01CD0108951F92DD
S1132CB00F920FB60F9211242F938F939F93AF937C
S1132CC0BF93EF93FF93C29A2CB19091AD039F5F92
S1132CD09F7180914603981749F09093AD038091BA
S1132CE0AD03E82FFF27E75BFC4F20838091A90306
S1132CF09091AA03A091AB03B091AC030196A11DDE
S1132D00B11D8093A9039093AA03A093AB03B0933E
S1132D10AC03C298FF91EF91BF91AF919F918F91B6
S1132D202F910F900FBE0F901F901895E199FECF31
S1132D309FBB8EBBE09A99278DB30895E199FECF8E
S1132D409FBB8EBB6DBB0FB6F894E29AE19A0FBE9F
S1132D5008950C94451DE62FF72F2E2F3F2F423058
S1132D60ECF04A3031F497FB99231CF4909581954B
S1132D709F4F642F77270E94B71C805D8A330CF025
S1132D80895D8193862F972F009799F7552750F9DE
S1132D90552311F05DE25193932F822F10820C94EE
S1132DA00917F52FE42FCF93FF93EF9322305CF1B3
S1132DB0C22FCA3051F497FB99233CF49095809527
S1132DC0709561957F4F8F4F9F4F2C2F332744274A
S1132DD05527FF93EF930E94CB1CEF91FF91605D09
S1132DE06A330CF0695D6193622F732F842F952FE2
S1132DF0605070408040904041F7CC27C0F9CC230C
S1132E0011F0CDE2C19310828F919F91CF910C94D8
S1132E100917DC01FC0101900020E9F73297AE1795
S1132E20BF0730F47C916081708331976D93F7CF45
S1132E3008952F923F924F925F926F927F929F924A
S1132E40AF92BF92CF92DF92EF92FF920F931F93B4
S1132E50CF93DF93CDB7DEB76E970FB6F894DEBF8E
S1132E600FBECDBF898B9A8B6B8B7C8B4D8B5E8B0E
S1132E703C011F8A188EF30191903F01892D9927F7
S1132E800E94B918892BB9F70DE2901609F4FFC016
S1132E901BE2911609F4F7C02D893E8921153105ED
S1132EA009F4DAC02031310509F4D6C0ED89FE8970
S1132EB0EF2B41F430E3931609F4C9C04AE050E023
S1132EC04D8B5E8B8D899E89AA2797FDA095BA2F7D
S1132ED0898F9A8FAB8FBC8F8F89988D892B09F43A
S1132EE0B1C060E070E080E090E8298D3A8D4B8DB0
S1132EF05C8D0E94ED1C29873A874B875C876D8720
S1132F007E878F87988B58E0DE011196FE013996F3
S1132F1001900D925A95E1F7CC24DD247601AA2480
S1132F20BB2429803A804B805C802D813E812D8F8B
S1132F303E8F092D1127C8010E94AD18892BC9F1B4
S1132F40C8010E94B218892B09F46BC070ED970E6A
S1132F50892D99276D897E898617970754F5B7FCC3
S1132F6024C02C143D044E045F04F8F0C214D304AE
S1132F70E404F504A9F021E0A22EB12CC701B601A6
S1132F80298D3A8D4B8D5C8D0E94981C6B017C01C0
S1132F90C90CD11CE11CF11CD3019D903D01C9CF8A
S1132FA0AD8CBE8CA816B90634F73FEFA32EB32E12
S1132FB0F3CFB7FE29C0EF89F88DEF2BE1F0C12CD8
S1132FC0D12CE12C90E8F92E02E210E01093AF032B
S1132FD00093AE038B899C89892B09F460C0AB28CC
S1132FE039F0C3010197AB89BC898D939C9357C079
S1132FF089899A89F8CF8FEFC82E8FEFD82E8FEF5B
S1133000E82E8FE7F82EE0CFAF89B88DAB2B11F304
S1133010F094E094D094C094C11CD11CE11CF11C28
S1133020D9CFC8010E94A518892B19F2C8010E94A2
S1133030A318892B21F0802F8753982E89CF802FB6
S11330408755FBCF6FEF7FEF8FEF9FE74ECF08E001
S113305010E00D8B1E8B36CF40E3941609F026CF7B
S1133060F3018081883719F0883509F01FCFD30127
S113307011969C9082E090E0680E791E60E170E009
S11330806D8B7E8B13CFD3019D903D0105CF21E045
S113309030E02F8B388FF30191903F01FDCEC701B3
S11330A0B6016E960FB6F894DEBF0FBECDBFDF91AA
S11330B0CF911F910F91FF90EF90DF90CF90BF9031
S11330C0AF909F907F906F905F904F903F902F9024
S11330D00895F52FE42FCF93FF93EF932230CCF094
S11330E0C22F2C2F332744275527FF93EF930E9499
S11330F0CB1CEF91FF91605D6A330CF0695D6193C5
S1133100622F732F842F952F605070408040904021
S113311041F710828F919F91CF910C9409177AE017
S1133120979F902D879F802D910D112408958032B3
S113313039F0992329F480321CF08F370CF4089568
S113314099278827089585FDFBCF80629923C1F7CD
S11331508136B4F38B37A4F70895992389F78095C2
S113316080780895992361F7803354F38A3344F7C0
S11331700895992329F7803229F38A3019F38C3082
S113318009F38D30F9F28930E9F28B30C9F60895EC
S11331905058192E1AD101D000C1BA17620773070B
S11331A084079507B1F188F40EF410940B2EBA2F0E
S11331B0A02D062E622F202D072E732F302D082EC2
S11331C0842F402D092E952F502DFF275523B9F01C
S11331D0591B49F0573E98F0469537952795A79582
S11331E0F0405395C9F776F0BA0F621F731F841F1E
S11331F030F4879577956795B795F040939517FACE
S11332000F2E0895BF1BBB27BA0B620B730B840BE5
S1133210F6CFDEF6F6C0DF93CF931F930F93D12F33
S1133220C02F192F082F000F111F1F3F31F49EE4E8
S113323081E49993899399937EC04F9399231AF4C7
S11332400DE209939F77022F03959F938F937F93AA
S11332506F93622F7727882799270E94BE19906859
S1133260592F482F372F262F91E480E2772766279E
S11332700E94641A5FEF4FEF0E94031A2F913F914F
S11332804F915F910E94C918102F013009F4002753
S113329051E440E233272227621773078407950716
S11332A024F00E94601B1395F3CF9F938F937F9319
S11332B06F930E94A119562F505D59930E94BE1915
S11332C02F913F914F915F910E94C818905851E4FB
S11332D040E2332722270E94161A101711F45EE2E7
S11332E059931A9511F718825F91EF91FF91FF930B
S11332F0EF93452F442312F4409543959D2F8C2F33
S11333007F2F6E2F861B970B142F181B90E28417A8
S11333109CF455236AF021963196E40FF11D8395B0
S11333205A9152938A95E1F792931A95E9F704C05A
S113333099931A95E9F718828F919F91CF91DF9114
S1133340089597FB4ED09F3738F0FEE9F91B982F6C
S1133350872F762F6B2F05C051C09695879577954B
S11333606795F150D0F73EF49095809570956195EE
S11333707F4F8F4F9F4F0895E89403C097FB0EF43F
S1133380F3DFB62F672F782F892F9EE9002405C01D
S11333909A95BB0F661F771F881F11249923A1F0EC
S11333A08823B2F79F3F59F0BB0F48F421F4002063
S11333B011F460FF04C06F5F7F4F8F4F9F4F881FD2
S11333C09795879597F9089519C0052E092607FA48
S11333D0440F551F5F3F79F0AA27A51708F051E065
S11333E04795880F991F9F3F31F0BB27B91708F005
S11333F091E0879508959F919F91F1C16627772762
S113340088279927089597FBECDF992329F05F3FDC
S113341029F0552319F00AF4F1CFE1C1940F151ED8
S113342001F4BBCF592F482F372F262FCEDF01D0E1
S1133430B4CF992339F0552329F09F575F57950F3F
S113344013F4CAF1DECF91589F3FE1F3A62F002475
S11334501124BB2766275527F8E0A69520F4020E11
S1133460131EB41F651F220F331F441F551FFA95E7
S1133470A1F7F8E0E72F7727F8E0E69520F4130E9C
S1133480B41F651F7A1F330F441F551FAA1FFA95D7
S1133490A1F7F82F8827F69520F4B40F651F7A1F3B
S11334A08E1F440F551FAA1FEE1FFF23A1F7882369
S11334B01AF4939539F493C1000C111CBB1F661FB9
S11334C0771F881F01280895552371F1992362F00D
S11334D059F15F934F933F932F93D0D12F913F9105
S11334E04F915F91A3DF32C19F938F937F936F932B
S11334F05F934F933F932F93952F842F732F622FB6
S113350020DF46DE91158105710561052F913F91FC
S11335104F915F916F917F918F919F9121F09F7750
S11335205058E2DF50585BC19FE380E87727882733
S1133530089577276627B6D0C82FD92F7F936F9326
S11335409D2E8C2E09910032E9F30930D9F3063708
S1133550C9F30C30B9F30A30A9F30D3099F355D0FF
S113356074D07EF009DF17FB97F9C92ED82EE72E09
S1133570F62E88270062053661F4099146D04DD0B5
S11335800EF42FC0992319F017FD3DC036C017FD66
S11335908195E4E2F1E0182F9C2D8D2D7E2D6F2D69
S11335A09F779817870776076105D9F01A0D3AF4C3
S11335B011957896912F9B1997322CF504C0912F71
S11335C09B0D9732D4F49C2D112359F0159538F4A2
S11335D001D1EF93FF932ADFFF91EF91F5CF34965A
S11335E0F3CFEF91FF91E030EF0711F091928082D9
S11335F0ECE0CDB7DEB70C942A1D9C2D9F678FE7B6
S11336007FEF6FEFEECFFADEECCF11270B3219F01C
S11336100D3211F41068099108956894EFDE0033B7
S11336209CF019F4E89415FF0DC00A336CF4106291
S1133630992331F4E8940E948F180F70800F911D24
S11336409D2E8C2E0991EBCF08956894D7DEBB2470
S1133650BA94AA240E3221F416FD23C010641FC0AC
S11336600033FCF019F4E89415FF14C00A33CCF4C9
S113367010629F3094F4B394E89455274427332779
S11336802AE00E94981C0F70600F711D811D911D0E
S11336909D2E8C2E16FDAA9402C016FFA3940991A8
S11336A0D9CF0895AA27BB27FF91EF910C940E1D43
S11336B0592F482F372F262F9FE380E87727662737
S11336C084DE01D06ACE552359F0992369F09F57BF
S11336D05F57951B33F442F4903811F4915805C0A8
S11336E07EC091589F3F09F48CCEBB2711246217EA
S11336F07307840730F4660F771F881FBB1F915030
S113370098F311D00F920FD00F920DD0A0E8261786
S1133710370748071B0609F0A048BA2F602D7F9190
S11337208F9100240895A0E800246217730784078A
S1133730B10528F0621B730B840BB1090A2A660FCA
S1133740771F881FBB1FA69581F70895092E99231B
S11337504AF052E441EB32E7683173078407950776
S113376058F03DC09F7752E44EEA3CEA6035730757
S11337708407950708F042CE0F925FE348EB3AEADC
S11337802BE354DEFF92EF92DF92CF9250E04CE0B5
S11337909ED0E4E5F1E026D05F2D4E2D3D2D2C2D5D
S11337A0CF90DF90EF90FF90FEE94595441F551FA1
S11337B0F51B5527406804C04695379527955795BE
S11337C0FA95D2F7452F550F550B1DDE0F9007FCC8
S11337D06FCF0895559145913591259108959FEFA7
S11337E080EC0895092EFDDDFF92EF92DF92CF92D7
S11337F0BF92AF92B02CC92ED82EE72EF62EA590EC
S113380018D0A590AA2071F09F938F937F936F9304
S11338106F2D7E2D8D2D9C2D0CD02F913F914F918E
S11338205F9151DFAF90BF90CF90DF90EF90FF900A
S1133830B4CDD0DF47FB406804C02F2D3E2D4D2D65
S11338405C2DEF93FF93F5DDFF91EF91C3DFAA2782
S113385007F80B24102C042607FA4068FF939DDC1C
S1133860FF91992341F0882332F09A95BB0F661F8C
S1133870771F881FF8CFAA9401F7089597FDAFCF5B
S1133880B0DD992309F4ABCFFF92EF92DF92CF9290
S1133890C92E9FE38F77E2E7F1E0A4DF0C2CC92E59
S11338A0D82EE72EF62E602D6E57770B872F972F85
S11338B065DD5FE341E332E728E1B8DD5C2D4D2DA2
S11338C03E2D2F2DCF90DF90EF90FF9062CC97FB91
S11338D088DDCF93DF93D52FC42F55274427332773
S11338E022279923D9F09F37C8F0F92F56DD592F95
S11338F0482F372F262FF63968F423DD3FDDC030FB
S1133900CD0721F069937993899399939058DF9126
S1133910CF913FCC9927882777276627C030CD07DA
S113392021F02993399349935993DF91CF9135CD60
S1133930629FD001739FF001829FE00DF11D649F8F
S1133940E00DF11D929FF00D839FF00D749FF00D1B
S1133950659FF00D9927729FB00DE11DF91F639FBC
S1133960B00DE11DF91FBD01CF0111240895AA1B5B
S1133970BB1B51E107C0AA1FBB1FA617B70710F056
S1133980A61BB70B881F991F5A95A9F78095909588
S1133990BC01CD010895A1E21A2EAA1BBB1BFD0197
S11339A00DC0AA1FBB1FEE1FFF1FA217B307E4071A
S11339B0F50720F0A21BB30BE40BF50B661F771F72
S11339C0881F991F1A9469F7609570958095909552
S11339D09B01AC01BD01CF01089597FB092E05267B
S11339E00ED057FD04D0D7DF0AD0001C38F4509510
S11339F04095309521953F4F4F4F5F4F0895F6F70F
S1133A0090958095709561957F4F8F4F9F4F089546
S1133A102F923F924F925F926F927F928F929F92DA
S1133A20AF92BF92CF92DF92EF92FF920F931F93C8
S1133A30CF93DF93CDB7DEB7CA1BDB0B0FB6F89479
S1133A40DEBF0FBECDBF09942A88398848885F84B9
S1133A506E847D848C849B84AA84B984C884DF802A
S1133A60EE80FD800C811B81AA81B981CE0FD11D0E
S1133A700FB6F894DEBF0FBECDBFED010895EE0F73
S10F3A80FF1F0590F491E02D0994FFCF86
S1133A8CD007726F6C6C696E00686F6F6B3D0020B1
S1133A9C6E6F773D00206865643D00206469663D67
S1133AAC00206C73743D00206F6372323D00206300
S1133ABC6E743D0020695F636E743D0069636170D0
S1133ACC20002073703D002064723D00656E643DDF
S1133ADC00206275663D00206E6F773D005D093EE7
S1133AEC006F726465720020667764002061636302
S1133AFC002073746F700020776169740020726504
S1133B0C7600206C6F0020686900207370643D009F
S1133B1C6272510062725500436F6D206F6B0065C9
S1133B2C327500FEC66972643D0069727374613D3E
S1133B3C006972727820646174613D00007166736F
S1133B4C746F70002073746F7074696D653D002020
S1133B5C6C61737474696D653D002068693D002067
S1133B6C6C6F3D00756E6465660020666C616773EE
S1133B7C7B0074696D656F75742000746573746D66
S1133B8C6F6465200053726576657273652000530B
S1133B9C666F7277617264200073746F7070696EF3
S1133BAC670072616D70007472616E736974007376
S1133BBC746F7070656400F50A73706565643D001C
S1133BCCFFFF001001017372766F3D0061646300A6
S9030000FC
