:100000000CC027C026C025C024C023C022C021C0E8
:1000100020C01FC01EC01DC01CC011241FBECFE5C4
:10002000D2E0DEBFCDBF10E0A0E6B0E0E6EDFBE041
:1000300003C0C89531960D92A43AB107D1F710E0EC
:10004000A4EAB0E001C01D92A43AB107E1F72FD1B4
:10005000C0C5D6CFD998D19A80EC93E00197F1F73B
:10006000D1988DEA8A95F1F789B3EEE3F3E0319701
:10007000F1F7C99902C081E0089582700895D99876
:10008000D19A82E08A95F1F7D19885E28A95F1F7C5
:1000900089B398E79A95F1F782700895D998D19A23
:1000A0009AE19A95F1F7882329F0D19885E88A9505
:1000B000F1F7089585E88A95F1F7D1980895282FEA
:1000C00030E02150304041E050E002C0440F551F65
:1000D0002A95E2F7682F20E030E0F2E0E5E278E7E9
:1000E00035952795D998D19A8F2F8A95F1F7D19880
:1000F0008E2F8A95F1F789B3972F9A95F1F781FFA3
:1001000002C0242B352B615059F7822F932F08956D
:1001100088E0D5DF089528E04AE135E8D998D19AFA
:10012000942F9A95F1F780FF05C0D198932F9A9557
:10013000F1F704C0932F9A95F1F7D198215011F05F
:100140008695ECCF0895C99B02C08EEEE4DF08953A
:10015000AF92BF92CF92DF92EF92FF920F931F93D5
:10016000DF93CF93CDB7DEB764970FB6F894DEBFB9
:100170000FBECDBF6FDF8AEACEDFCADFE82EF92ED1
:1001800069DF80EAC8DF89E09ADFA82EB92E62DF36
:1001900081E4C1DF5FDF80EABEDF89E090DFC82E47
:1001A000D92E62E080E015D1DF92CF92BF92AF925C
:1001B000FF92EF9280E690E09F938F930C2F1D2F7C
:1001C0000F5F1F4F1F930F9388D1802F912F36D130
:1001D0008DB79EB70A960FB6F8949EBF0FBE8DBF1F
:1001E00091E8E916F10424F080E09FEFE80EF91E93
:1001F0008E2D9F2D6AE070E04AD42BEFE22E2FEF78
:10020000F22EE80EF91E0027F7FC0095102F8C2D1A
:100210009D2D8A199B096AE070E039D46C2D7D2DE3
:1002200048D480E090E0E60EF71E081F191F63E037
:1002300080E0CFD0912F802F7F2D6E2D2AE030E0EF
:1002400040E050E04CD47F936F93912F802F7F2D0F
:100250006E2D2AE030E040E050E041D43F932F93F0
:1002600087E790E09F938F930C2F1D2F0F5F1F4FF9
:100270001F930F9332D1802F912FE0D08DB79EB76F
:1002800008960FB6F8949EBF0FBE8DBF64960FB64A
:10029000F894DEBF0FBECDBFCF91DF911F910F91BC
:1002A000FF90EF90DF90CF90BF90AF900895EF92C6
:1002B000FF920F931F93CF93DF938CE0DBD09BD003
:1002C000789480E2E82E8EE4F82E00E117E296D0D2
:1002D000C1DE882329F08FD088E890E0AFD01AC023
:1002E00083E990E0ABD0D89AD09AB4DE2CDFC0E09E
:1002F000D0E08E2D9F2D0197F1F7ACDE8CEA0BDF5D
:1003000007DF87FF02C0D89804C02196CA3FD105F5
:1003100081F71EDF80E090E0E02FF12F3197F1F7B9
:100320000196883C910599F2F7CF282F662311F0AA
:10033000AC9A01C0AC98AD9884B38F6084BB95B380
:10034000907F822F82958F70892B85BBAE9A00C0DB
:10035000AE982F70292B25BBAE9A00C0AE989F6037
:1003600095BB0895AC98AD9A84B3807F84BBAE9A58
:1003700000C083B3AE9800C0AE9A00C093B3AE98ED
:1003800083FDF0CF84E090E00197F1F7AC98AD9A4F
:1003900084B3807F84BBAE9A00C093B3AE9800C094
:1003A000AE9A00C083B38F709295907FAE98892BE0
:1003B00008951F93182FD6DF60E0812FB6DF1F91BD
:1003C00008951F93182FCEDF61E0812FAEDF1F91BC
:1003D0000895662311F4805809C0613011F48054E7
:1003E00005C0623011F48C5601C08C52E2DF0895D2
:1003F000B9DF90E0089581E0DCDF089582E0D9DF85
:1004000008951F93182FAEDF982F1A3091F484317E
:1004100010F480E40BC08054843110F484E106C0F1
:1004200094519C3210F080E001C084E58058C1DF17
:1004300003C061E0812F79DF1F910895CF93DF938F
:10044000C82FD92F01C0DDDF89918823E1F7DF9123
:10045000CF910895CF93DF93C82FD92F01C0D1DF5B
:10046000EC2FFD2F2196C895802D8823C1F7DF91B1
:10047000CF9108951F93182F84B38F6784BB80E0BA
:100480009DE70197F1F7A99AA89AAE9A00C0AE9895
:1004900080E097E20197F1F7AE9A00C0AE9880E84D
:1004A00090E0E82FF92F3197F1F7AE9A00C0AE989F
:1004B000E82FF92F3197F1F7A898AE9A00C0AE98BF
:1004C0000197F1F788E275DF88E073DF94DF86E05B
:1004D00070DF812F6EDF1F910895AEE0B0E0E2E79C
:1004E000F2E04DC30D891E8986E08C831A8309834F
:1004F0008FEF9FE79E838D838C2F9D2F4996482FEA
:10050000592F6F89788D8C2F9D2F01960AD02F81BE
:100510003885020F131FE02FF12F10822E96E4E092
:100520004AC3ABE0B0E0E6E9F2E01BC3882E992EA7
:10053000462E572EA42EB52EE82FF92F178216829D
:10054000838181FD03C06FEF7FEFF0C12C2E3D2E24
:100550000894211C311C9FE3692EE82DF92D33816D
:10056000E42DF52D33FDC89533FF00803196802DA5
:100570004E2E5F2E882309F4D5C1853251F433FD08
:10058000C89533FF00803196802D4E2E5F2E853228
:1005900029F4682D792D90E0E7D1DFCF982FDD2465
:1005A000CC247724FFE1FD15D0F09B3269F09C321A
:1005B00028F4903259F0933291F40EC09D3249F0F4
:1005C000903369F441E02AC052E0D52A84E0D82A69
:1005D0002EC098E0D92A2BC0E0E1DE2A28C0D7FC43
:1005E00033C0292F20532A30A0F4D6FE08C0872D0F
:1005F00090E06AE070E04BD2782E720E18C08C2D1D
:1006000090E06AE070E043D2C82EC20EF0E2DF2A2A
:100610000EC09E3229F4D6FC85C140E4D42A07C01E
:100620009C3619F450E8D52A02C0983669F4E42DB6
:10063000F52D33FDC89533FF00803196902D4E2E59
:100640005F2E992309F0AECF892F8554833018F09F
:100650008052833030F444E050E0A40EB51E69822D
:1006600010C0933631F0933789F0933509F060C0AC
:1006700024C0EA2DFB2D8081898342E050E0A40E46
:10068000B51EE22CF32C01E010E014C0EA2DFB2D86
:10069000E080F180D6FC03C06FEF7FEF02C0672DD2
:1006A00070E042E050E0A40EB51E8E2D9F2D50D17B
:1006B000082F192F5FE7D52216C0EA2DFB2DE08009
:1006C000F180D6FC03C06FEF7FEF02C0672D70E0B2
:1006D00042E050E0A40EB51E8E2D9F2D2CD1082F88
:1006E000192F50E8D52AD3FE07C01EC0682D792DDA
:1006F00080E290E039D1CA948C2D90E00817190758
:10070000A8F312C0EE2DFF2DD7FCC895D7FE0080B0
:100710003196802DEE2EFF2E682D792D90E024D17C
:10072000C110CA94015010400115110559F7F7C0C6
:10073000943611F0993699F5D7FE09C0EA2DFB2DB4
:10074000E080F1800281138144E050E00CC0EA2D8A
:10075000FB2D80819181E82EF92E0027F7FC009572
:10076000102F42E050E0A40EB51E5FE6D52217FF21
:100770000AC010950095F094E094E11CF11C011D55
:10078000111D80E8D82A2AE030E0422D532D912F08
:10079000802F7F2D6E2D17D1F82EF21843C095377C
:1007A00029F41D2D1F7E2AE030E01DC01D2D197F6C
:1007B0009F3661F0903720F4983509F0B3C00FC030
:1007C000903739F0983709F0ADC004C028E030E028
:1007D0000AC0106114FD146020E130E004C014FD73
:1007E000166020E132E017FF09C0EA2DFB2D608181
:1007F00071818281938144E050E00AC0EA2DFB2D93
:1008000080819181682F792F80E090E042E050E074
:10081000A40EB51E422D532DD6D0F82EF2188FE718
:10082000D82ED122D6FE0BC05EEFD522F71438F4B5
:10083000D4FE07C0D2FC05C08FEED82202C01F2D07
:1008400001C0172DD4FE0EC0EC2FFD2FEF0DF11DB2
:100850008081803319F499EED92208C01F5FD2FE3F
:1008600005C003C08D2D867809F01F5F0D2DD3FCC8
:1008700014C0D0FE0FC01C1510F07F2C0BC07F2CB5
:100880007C0C711A1C2D06C0682D792D80E290E039
:100890006BD01F5F1C15C0F304C01C1510F4C11AE7
:1008A00001C0CC2404FF11C0682D792D80E390E0B5
:1008B0005BD002FF1FC001FD03C088E790E002C0CB
:1008C00088E590E0682D792D0DC0802F867891F015
:1008D00001FF02C08BE201C080E2D7FC8DE2682DEF
:1008E000792D90E041D006C0682D792D80E390E00D
:1008F0003BD07A94F714C0F3FA94E22DF32DEF0D68
:10090000F11D682D792D808190E02ED0FF20A1F778
:1009100006C0682D792D80E290E026D0CA94CC20C4
:10092000C1F71BCEE82DF92D66817781862F972F91
:100930002B96E2E132C1E82FF92FC895319661502C
:1009400070400110D0F7809590958E0F9F1F0895ED
:10095000E82FF92F6150704001900110D8F7809571
:1009600090958E0F9F1F08950F931F93CF93DF9342
:10097000082F192FC62FD72F8B8181FF1BC082FF15
:100980000DC02E813F818C819D812817390764F429
:10099000E881F9810193F983E88306C0E885F98548
:1009A000802F0995892B31F48E819F8101969F8339
:1009B0008E8302C00FEF1FEF802F912FDF91CF9119
:1009C0001F910F910895E42FF52FAA27283069F180
:1009D000203199F1E8946F936E7F6E5F7F4F8F4F58
:1009E0009F4FAF4FB1E041D0B4E03FD0670F781FC9
:1009F000891F9A1FA11D680F791F8A1F911DA11DB4
:100A00006A0F711D811D911DA11D23D009F46894E9
:100A10003F91062E000C3019000C000C3019305D8F
:100A20003193CEF68E2F9F2F0895462F4770405D4D
:100A30004193B3E00FD0C9F7F5CF462F4F70405D1B
:100A40004A3318F0495D31FD4052419302D0A9F775
:100A5000E9CFB4E0A6959795879577956795BA9570
:100A6000C9F70097610571050895262F372F482F84
:100A7000592F0A2E06945795479537952795BA957D
:100A8000C9F7620F731F841F951FA01D0895552776
:100A9000002480FF02C0060E571F660F771F6115E6
:100AA000710521F096958795009799F7952F802DE0
:100AB0000895AA1BBB1B51E107C0AA1FBB1FA617A5
:100AC000B70710F0A61BB70B881F991F5A95A9F7F7
:100AD00080959095682F792F8A2F9B2F089597FBEB
:100AE000092E05260ED057FD04D014D00AD0001CC4
:100AF00038F450954095309521953F4F4F4F5F4FBB
:100B00000895F6F790958095709561957F4F8F4F7A
:100B10009F4F0895A1E21A2EAA1BBB1BEA2FFB2FA1
:100B20000DC0AA1FBB1FEE1FFF1FA217B307E407CC
:100B3000F50720F0A21BB30BE40BF50B661F771F24
:100B4000881F991F1A9469F7609570958095909504
:100B5000262F372F482F592F6A2F7B2F8E2F9F2F0D
:100B600008952F923F924F925F926F927F928F9251
:100B70009F92AF92BF92CF92DF92EF92FF920F932C
:100B80001F93CF93DF93CDB7DEB7CA1BDB0B0FB636
:100B9000F894DEBF0FBECDBF09942A8839884888F3
:100BA0005F846E847D848C849B84AA84B984C88489
:100BB000DF80EE80FD800C811B81AA81B981CE0F80
:100BC000D11D0FB6F894DEBF0FBECDBFCA2FDB2FED
:060BD0000895F894FFCF28
:100BD60052415720203A20202530336420253033D7
:100BE6006420253033640054454D50203A2020259A
:100BF60033642E2564204300427573204572726F5C
:100C0600720A004453313832312064657465637466
:040C160065640A0007
:00000001FF
